{
	"contracts/Dex.sol": {
		"Dex": {
			"abi": [
				{
					"inputs": [],
					"stateMutability": "nonpayable",
					"type": "constructor"
				},
				{
					"anonymous": false,
					"inputs": [
						{
							"indexed": false,
							"internalType": "uint256",
							"name": "tradeId",
							"type": "uint256"
						},
						{
							"indexed": false,
							"internalType": "uint256",
							"name": "orderId",
							"type": "uint256"
						},
						{
							"indexed": true,
							"internalType": "bytes32",
							"name": "ticker",
							"type": "bytes32"
						},
						{
							"indexed": true,
							"internalType": "address",
							"name": "trader1",
							"type": "address"
						},
						{
							"indexed": true,
							"internalType": "address",
							"name": "trader2",
							"type": "address"
						},
						{
							"indexed": false,
							"internalType": "uint256",
							"name": "amount",
							"type": "uint256"
						},
						{
							"indexed": false,
							"internalType": "uint256",
							"name": "price",
							"type": "uint256"
						},
						{
							"indexed": false,
							"internalType": "uint256",
							"name": "date",
							"type": "uint256"
						}
					],
					"name": "NewTrade",
					"type": "event"
				},
				{
					"inputs": [
						{
							"internalType": "bytes32",
							"name": "ticker",
							"type": "bytes32"
						},
						{
							"internalType": "address",
							"name": "tokenAddress",
							"type": "address"
						}
					],
					"name": "addToken",
					"outputs": [],
					"stateMutability": "nonpayable",
					"type": "function"
				},
				{
					"inputs": [],
					"name": "admin",
					"outputs": [
						{
							"internalType": "address",
							"name": "",
							"type": "address"
						}
					],
					"stateMutability": "view",
					"type": "function"
				},
				{
					"inputs": [
						{
							"internalType": "bytes32",
							"name": "ticker",
							"type": "bytes32"
						},
						{
							"internalType": "uint256",
							"name": "amount",
							"type": "uint256"
						},
						{
							"internalType": "uint256",
							"name": "price",
							"type": "uint256"
						},
						{
							"internalType": "enum Dex.Side",
							"name": "side",
							"type": "uint8"
						}
					],
					"name": "createLimitOrder",
					"outputs": [],
					"stateMutability": "nonpayable",
					"type": "function"
				},
				{
					"inputs": [
						{
							"internalType": "bytes32",
							"name": "ticker",
							"type": "bytes32"
						},
						{
							"internalType": "uint256",
							"name": "amount",
							"type": "uint256"
						},
						{
							"internalType": "enum Dex.Side",
							"name": "side",
							"type": "uint8"
						}
					],
					"name": "createMarketOrder",
					"outputs": [],
					"stateMutability": "nonpayable",
					"type": "function"
				},
				{
					"inputs": [
						{
							"internalType": "uint256",
							"name": "amount",
							"type": "uint256"
						},
						{
							"internalType": "bytes32",
							"name": "ticker",
							"type": "bytes32"
						}
					],
					"name": "deposit",
					"outputs": [],
					"stateMutability": "nonpayable",
					"type": "function"
				},
				{
					"inputs": [
						{
							"internalType": "bytes32",
							"name": "ticker",
							"type": "bytes32"
						},
						{
							"internalType": "enum Dex.Side",
							"name": "side",
							"type": "uint8"
						}
					],
					"name": "getOrders",
					"outputs": [
						{
							"components": [
								{
									"internalType": "uint256",
									"name": "id",
									"type": "uint256"
								},
								{
									"internalType": "address",
									"name": "trader",
									"type": "address"
								},
								{
									"internalType": "enum Dex.Side",
									"name": "side",
									"type": "uint8"
								},
								{
									"internalType": "bytes32",
									"name": "ticker",
									"type": "bytes32"
								},
								{
									"internalType": "uint256",
									"name": "amount",
									"type": "uint256"
								},
								{
									"internalType": "uint256",
									"name": "filled",
									"type": "uint256"
								},
								{
									"internalType": "uint256",
									"name": "price",
									"type": "uint256"
								},
								{
									"internalType": "uint256",
									"name": "date",
									"type": "uint256"
								}
							],
							"internalType": "struct Dex.Order[]",
							"name": "",
							"type": "tuple[]"
						}
					],
					"stateMutability": "view",
					"type": "function"
				},
				{
					"inputs": [],
					"name": "getTokens",
					"outputs": [
						{
							"components": [
								{
									"internalType": "bytes32",
									"name": "ticker",
									"type": "bytes32"
								},
								{
									"internalType": "address",
									"name": "tokenAddress",
									"type": "address"
								}
							],
							"internalType": "struct Dex.Token[]",
							"name": "",
							"type": "tuple[]"
						}
					],
					"stateMutability": "view",
					"type": "function"
				},
				{
					"inputs": [],
					"name": "nextOrderId",
					"outputs": [
						{
							"internalType": "uint256",
							"name": "",
							"type": "uint256"
						}
					],
					"stateMutability": "view",
					"type": "function"
				},
				{
					"inputs": [
						{
							"internalType": "bytes32",
							"name": "",
							"type": "bytes32"
						},
						{
							"internalType": "uint256",
							"name": "",
							"type": "uint256"
						},
						{
							"internalType": "uint256",
							"name": "",
							"type": "uint256"
						}
					],
					"name": "orderBook",
					"outputs": [
						{
							"internalType": "uint256",
							"name": "id",
							"type": "uint256"
						},
						{
							"internalType": "address",
							"name": "trader",
							"type": "address"
						},
						{
							"internalType": "enum Dex.Side",
							"name": "side",
							"type": "uint8"
						},
						{
							"internalType": "bytes32",
							"name": "ticker",
							"type": "bytes32"
						},
						{
							"internalType": "uint256",
							"name": "amount",
							"type": "uint256"
						},
						{
							"internalType": "uint256",
							"name": "filled",
							"type": "uint256"
						},
						{
							"internalType": "uint256",
							"name": "price",
							"type": "uint256"
						},
						{
							"internalType": "uint256",
							"name": "date",
							"type": "uint256"
						}
					],
					"stateMutability": "view",
					"type": "function"
				},
				{
					"inputs": [
						{
							"internalType": "uint256",
							"name": "",
							"type": "uint256"
						}
					],
					"name": "tokenList",
					"outputs": [
						{
							"internalType": "bytes32",
							"name": "",
							"type": "bytes32"
						}
					],
					"stateMutability": "view",
					"type": "function"
				},
				{
					"inputs": [
						{
							"internalType": "bytes32",
							"name": "",
							"type": "bytes32"
						}
					],
					"name": "tokens",
					"outputs": [
						{
							"internalType": "bytes32",
							"name": "ticker",
							"type": "bytes32"
						},
						{
							"internalType": "address",
							"name": "tokenAddress",
							"type": "address"
						}
					],
					"stateMutability": "view",
					"type": "function"
				},
				{
					"inputs": [
						{
							"internalType": "address",
							"name": "",
							"type": "address"
						},
						{
							"internalType": "bytes32",
							"name": "",
							"type": "bytes32"
						}
					],
					"name": "traderBalances",
					"outputs": [
						{
							"internalType": "uint256",
							"name": "",
							"type": "uint256"
						}
					],
					"stateMutability": "view",
					"type": "function"
				},
				{
					"inputs": [
						{
							"internalType": "uint256",
							"name": "amount",
							"type": "uint256"
						},
						{
							"internalType": "bytes32",
							"name": "ticker",
							"type": "bytes32"
						}
					],
					"name": "withdraw",
					"outputs": [],
					"stateMutability": "nonpayable",
					"type": "function"
				}
			],
			"devdoc": {
				"kind": "dev",
				"methods": {},
				"version": 1
			},
			"evm": {
				"assembly": "    /* \"contracts/Dex.sol\":480:9921  contract Dex {\r... */\n  mstore(0x40, 0x80)\n    /* \"contracts/Dex.sol\":1845:1903  constructor() public {\r... */\n  callvalue\n  dup1\n  iszero\n  tag_1\n  jumpi\n  0x00\n  dup1\n  revert\ntag_1:\n  pop\n    /* \"contracts/Dex.sol\":1885:1895  msg.sender */\n  caller\n    /* \"contracts/Dex.sol\":1877:1882  admin */\n  0x00\n  dup1\n    /* \"contracts/Dex.sol\":1877:1895  admin = msg.sender */\n  0x0100\n  exp\n  dup2\n  sload\n  dup2\n  0xffffffffffffffffffffffffffffffffffffffff\n  mul\n  not\n  and\n  swap1\n  dup4\n  0xffffffffffffffffffffffffffffffffffffffff\n  and\n  mul\n  or\n  swap1\n  sstore\n  pop\n    /* \"contracts/Dex.sol\":480:9921  contract Dex {\r... */\n  dataSize(sub_0)\n  dup1\n  dataOffset(sub_0)\n  0x00\n  codecopy\n  0x00\n  return\nstop\n\nsub_0: assembly {\n        /* \"contracts/Dex.sol\":480:9921  contract Dex {\r... */\n      mstore(0x40, 0x80)\n      callvalue\n      dup1\n      iszero\n      tag_1\n      jumpi\n      0x00\n      dup1\n      revert\n    tag_1:\n      pop\n      jumpi(tag_2, lt(calldatasize, 0x04))\n      shr(0xe0, calldataload(0x00))\n      dup1\n      0x9776aacf\n      gt\n      tag_16\n      jumpi\n      dup1\n      0xaa6ca808\n      gt\n      tag_17\n      jumpi\n      dup1\n      0xaa6ca808\n      eq\n      tag_12\n      jumpi\n      dup1\n      0xc9630cb0\n      eq\n      tag_13\n      jumpi\n      dup1\n      0xd9c0c950\n      eq\n      tag_14\n      jumpi\n      dup1\n      0xf851a440\n      eq\n      tag_15\n      jumpi\n      jump(tag_2)\n    tag_17:\n      dup1\n      0x9776aacf\n      eq\n      tag_9\n      jumpi\n      dup1\n      0x9ead7222\n      eq\n      tag_10\n      jumpi\n      dup1\n      0xa8d2021a\n      eq\n      tag_11\n      jumpi\n      jump(tag_2)\n    tag_16:\n      dup1\n      0x0bb431b6\n      eq\n      tag_3\n      jumpi\n      dup1\n      0x2a58b330\n      eq\n      tag_4\n      jumpi\n      dup1\n      0x46e9658b\n      eq\n      tag_5\n      jumpi\n      dup1\n      0x72ce957e\n      eq\n      tag_6\n      jumpi\n      dup1\n      0x7f2c6246\n      eq\n      tag_7\n      jumpi\n      dup1\n      0x904194a3\n      eq\n      tag_8\n      jumpi\n    tag_2:\n      0x00\n      dup1\n      revert\n        /* \"contracts/Dex.sol\":1338:1399  mapping(bytes32 => mapping(uint => Order[])) public orderBook */\n    tag_3:\n      tag_18\n      0x04\n      dup1\n      calldatasize\n      sub\n      dup2\n      add\n      swap1\n      tag_19\n      swap2\n      swap1\n      tag_20\n      jump\t// in\n    tag_19:\n      tag_21\n      jump\t// in\n    tag_18:\n      mload(0x40)\n      tag_22\n      swap9\n      swap8\n      swap7\n      swap6\n      swap5\n      swap4\n      swap3\n      swap2\n      swap1\n      tag_23\n      jump\t// in\n    tag_22:\n      mload(0x40)\n      dup1\n      swap2\n      sub\n      swap1\n      return\n        /* \"contracts/Dex.sol\":1452:1475  uint public nextOrderId */\n    tag_4:\n      tag_24\n      tag_25\n      jump\t// in\n    tag_24:\n      mload(0x40)\n      tag_26\n      swap2\n      swap1\n      tag_27\n      jump\t// in\n    tag_26:\n      mload(0x40)\n      dup1\n      swap2\n      sub\n      swap1\n      return\n        /* \"contracts/Dex.sol\":5919:6059  function getOrders(bytes32 ticker, Side side) external view returns (Order[] memory) {\r... */\n    tag_5:\n      tag_28\n      0x04\n      dup1\n      calldatasize\n      sub\n      dup2\n      add\n      swap1\n      tag_29\n      swap2\n      swap1\n      tag_30\n      jump\t// in\n    tag_29:\n      tag_31\n      jump\t// in\n    tag_28:\n      mload(0x40)\n      tag_32\n      swap2\n      swap1\n      tag_33\n      jump\t// in\n    tag_32:\n      mload(0x40)\n      dup1\n      swap2\n      sub\n      swap1\n      return\n        /* \"contracts/Dex.sol\":943:1012  mapping(address => mapping(bytes32 => uint256)) public traderBalances */\n    tag_6:\n      tag_34\n      0x04\n      dup1\n      calldatasize\n      sub\n      dup2\n      add\n      swap1\n      tag_35\n      swap2\n      swap1\n      tag_36\n      jump\t// in\n    tag_35:\n      tag_37\n      jump\t// in\n    tag_34:\n      mload(0x40)\n      tag_38\n      swap2\n      swap1\n      tag_27\n      jump\t// in\n    tag_38:\n      mload(0x40)\n      dup1\n      swap2\n      sub\n      swap1\n      return\n        /* \"contracts/Dex.sol\":6099:9918  function createMarketOrder(bytes32 ticker, uint amount, Side side) tokenExist(ticker) tokenIsNotDAI(ticker) external {\r... */\n    tag_7:\n      tag_39\n      0x04\n      dup1\n      calldatasize\n      sub\n      dup2\n      add\n      swap1\n      tag_40\n      swap2\n      swap1\n      tag_41\n      jump\t// in\n    tag_40:\n      tag_42\n      jump\t// in\n    tag_39:\n      stop\n        /* \"contracts/Dex.sol\":751:790  mapping(bytes32 => Token) public tokens */\n    tag_8:\n      tag_43\n      0x04\n      dup1\n      calldatasize\n      sub\n      dup2\n      add\n      swap1\n      tag_44\n      swap2\n      swap1\n      tag_45\n      jump\t// in\n    tag_44:\n      tag_46\n      jump\t// in\n    tag_43:\n      mload(0x40)\n      tag_47\n      swap3\n      swap2\n      swap1\n      tag_48\n      jump\t// in\n    tag_47:\n      mload(0x40)\n      dup1\n      swap2\n      sub\n      swap1\n      return\n        /* \"contracts/Dex.sol\":2452:2625  function addToken(bytes32 ticker, address tokenAddress) onlyAdmin() external {\r... */\n    tag_9:\n      tag_49\n      0x04\n      dup1\n      calldatasize\n      sub\n      dup2\n      add\n      swap1\n      tag_50\n      swap2\n      swap1\n      tag_51\n      jump\t// in\n    tag_50:\n      tag_52\n      jump\t// in\n    tag_49:\n      stop\n        /* \"contracts/Dex.sol\":797:823  bytes32[] public tokenList */\n    tag_10:\n      tag_53\n      0x04\n      dup1\n      calldatasize\n      sub\n      dup2\n      add\n      swap1\n      tag_54\n      swap2\n      swap1\n      tag_55\n      jump\t// in\n    tag_54:\n      tag_56\n      jump\t// in\n    tag_53:\n      mload(0x40)\n      tag_57\n      swap2\n      swap1\n      tag_58\n      jump\t// in\n    tag_57:\n      mload(0x40)\n      dup1\n      swap2\n      sub\n      swap1\n      return\n        /* \"contracts/Dex.sol\":3672:4064  function withdraw(uint amount, bytes32 ticker) tokenExist(ticker) external {\r... */\n    tag_11:\n      tag_59\n      0x04\n      dup1\n      calldatasize\n      sub\n      dup2\n      add\n      swap1\n      tag_60\n      swap2\n      swap1\n      tag_61\n      jump\t// in\n    tag_60:\n      tag_62\n      jump\t// in\n    tag_59:\n      stop\n        /* \"contracts/Dex.sol\":2633:3115  function getTokens() external view returns (Token[] memory) {\r... */\n    tag_12:\n      tag_63\n      tag_64\n      jump\t// in\n    tag_63:\n      mload(0x40)\n      tag_65\n      swap2\n      swap1\n      tag_66\n      jump\t// in\n    tag_65:\n      mload(0x40)\n      dup1\n      swap2\n      sub\n      swap1\n      return\n        /* \"contracts/Dex.sol\":3149:3664  function deposit(uint amount, bytes32 ticker) tokenExist(ticker) external {\r... */\n    tag_13:\n      tag_67\n      0x04\n      dup1\n      calldatasize\n      sub\n      dup2\n      add\n      swap1\n      tag_68\n      swap2\n      swap1\n      tag_61\n      jump\t// in\n    tag_68:\n      tag_69\n      jump\t// in\n    tag_67:\n      stop\n        /* \"contracts/Dex.sol\":4103:5911  function createLimitOrder(bytes32 ticker, uint amount, uint price, Side side) tokenExist(ticker) tokenIsNotDAI(ticker) external {\r... */\n    tag_14:\n      tag_70\n      0x04\n      dup1\n      calldatasize\n      sub\n      dup2\n      add\n      swap1\n      tag_71\n      swap2\n      swap1\n      tag_72\n      jump\t// in\n    tag_71:\n      tag_73\n      jump\t// in\n    tag_70:\n      stop\n        /* \"contracts/Dex.sol\":569:589  address public admin */\n    tag_15:\n      tag_74\n      tag_75\n      jump\t// in\n    tag_74:\n      mload(0x40)\n      tag_76\n      swap2\n      swap1\n      tag_77\n      jump\t// in\n    tag_76:\n      mload(0x40)\n      dup1\n      swap2\n      sub\n      swap1\n      return\n        /* \"contracts/Dex.sol\":1338:1399  mapping(bytes32 => mapping(uint => Order[])) public orderBook */\n    tag_21:\n      mstore(0x20, 0x04)\n      dup3\n      0x00\n      mstore\n      mstore(0x20, keccak256(0x00, 0x40))\n      dup2\n      0x00\n      mstore\n      keccak256(0x00, 0x40)\n      dup2\n      dup2\n      sload\n      dup2\n      lt\n      tag_78\n      jumpi\n      0x00\n      dup1\n      revert\n    tag_78:\n      swap1\n      0x00\n      mstore\n      keccak256(0x00, 0x20)\n      swap1\n      0x07\n      mul\n      add\n      0x00\n      swap3\n      pop\n      swap3\n      pop\n      pop\n      pop\n      dup1\n      0x00\n      add\n      sload\n      swap1\n      dup1\n      0x01\n      add\n      0x00\n      swap1\n      sload\n      swap1\n      0x0100\n      exp\n      swap1\n      div\n      0xffffffffffffffffffffffffffffffffffffffff\n      and\n      swap1\n      dup1\n      0x01\n      add\n      0x14\n      swap1\n      sload\n      swap1\n      0x0100\n      exp\n      swap1\n      div\n      0xff\n      and\n      swap1\n      dup1\n      0x02\n      add\n      sload\n      swap1\n      dup1\n      0x03\n      add\n      sload\n      swap1\n      dup1\n      0x04\n      add\n      sload\n      swap1\n      dup1\n      0x05\n      add\n      sload\n      swap1\n      dup1\n      0x06\n      add\n      sload\n      swap1\n      pop\n      dup9\n      jump\t// out\n        /* \"contracts/Dex.sol\":1452:1475  uint public nextOrderId */\n    tag_25:\n      sload(0x05)\n      dup2\n      jump\t// out\n        /* \"contracts/Dex.sol\":5919:6059  function getOrders(bytes32 ticker, Side side) external view returns (Order[] memory) {\r... */\n    tag_31:\n        /* \"contracts/Dex.sol\":5988:6002  Order[] memory */\n      0x60\n        /* \"contracts/Dex.sol\":6022:6031  orderBook */\n      0x04\n        /* \"contracts/Dex.sol\":6022:6039  orderBook[ticker] */\n      0x00\n        /* \"contracts/Dex.sol\":6032:6038  ticker */\n      dup5\n        /* \"contracts/Dex.sol\":6022:6039  orderBook[ticker] */\n      dup2\n      mstore\n      0x20\n      add\n      swap1\n      dup2\n      mstore\n      0x20\n      add\n      0x00\n      keccak256\n        /* \"contracts/Dex.sol\":6022:6051  orderBook[ticker][uint(side)] */\n      0x00\n        /* \"contracts/Dex.sol\":6045:6049  side */\n      dup4\n        /* \"contracts/Dex.sol\":6040:6050  uint(side) */\n      0x01\n      dup2\n      gt\n      iszero\n      tag_81\n      jumpi\n      mstore(0x00, 0x4e487b7100000000000000000000000000000000000000000000000000000000)\n      mstore(0x04, 0x21)\n      revert(0x00, 0x24)\n    tag_81:\n        /* \"contracts/Dex.sol\":6022:6051  orderBook[ticker][uint(side)] */\n      dup2\n      mstore\n      0x20\n      add\n      swap1\n      dup2\n      mstore\n      0x20\n      add\n      0x00\n      keccak256\n        /* \"contracts/Dex.sol\":6015:6051  return orderBook[ticker][uint(side)] */\n      dup1\n      sload\n      dup1\n      0x20\n      mul\n      0x20\n      add\n      mload(0x40)\n      swap1\n      dup2\n      add\n      0x40\n      mstore\n      dup1\n      swap3\n      swap2\n      swap1\n      dup2\n      dup2\n      mstore\n      0x20\n      add\n      0x00\n      swap1\n    tag_82:\n      dup3\n      dup3\n      lt\n      iszero\n      tag_83\n      jumpi\n      dup4\n      dup3\n      swap1\n      0x00\n      mstore\n      keccak256(0x00, 0x20)\n      swap1\n      0x07\n      mul\n      add\n      mload(0x40)\n      dup1\n      0x0100\n      add\n      0x40\n      mstore\n      swap1\n      dup2\n      0x00\n      dup3\n      add\n      sload\n      dup2\n      mstore\n      0x20\n      add\n      0x01\n      dup3\n      add\n      0x00\n      swap1\n      sload\n      swap1\n      0x0100\n      exp\n      swap1\n      div\n      0xffffffffffffffffffffffffffffffffffffffff\n      and\n      0xffffffffffffffffffffffffffffffffffffffff\n      and\n      0xffffffffffffffffffffffffffffffffffffffff\n      and\n      dup2\n      mstore\n      0x20\n      add\n      0x01\n      dup3\n      add\n      0x14\n      swap1\n      sload\n      swap1\n      0x0100\n      exp\n      swap1\n      div\n      0xff\n      and\n      0x01\n      dup2\n      gt\n      iszero\n      tag_85\n      jumpi\n      mstore(0x00, 0x4e487b7100000000000000000000000000000000000000000000000000000000)\n      mstore(0x04, 0x21)\n      revert(0x00, 0x24)\n    tag_85:\n      0x01\n      dup2\n      gt\n      iszero\n      tag_86\n      jumpi\n      mstore(0x00, 0x4e487b7100000000000000000000000000000000000000000000000000000000)\n      mstore(0x04, 0x21)\n      revert(0x00, 0x24)\n    tag_86:\n      dup2\n      mstore\n      0x20\n      add\n      0x02\n      dup3\n      add\n      sload\n      dup2\n      mstore\n      0x20\n      add\n      0x03\n      dup3\n      add\n      sload\n      dup2\n      mstore\n      0x20\n      add\n      0x04\n      dup3\n      add\n      sload\n      dup2\n      mstore\n      0x20\n      add\n      0x05\n      dup3\n      add\n      sload\n      dup2\n      mstore\n      0x20\n      add\n      0x06\n      dup3\n      add\n      sload\n      dup2\n      mstore\n      pop\n      pop\n      dup2\n      mstore\n      0x20\n      add\n      swap1\n      0x01\n      add\n      swap1\n      jump(tag_82)\n    tag_83:\n      pop\n      pop\n      pop\n      pop\n      swap1\n      pop\n        /* \"contracts/Dex.sol\":5919:6059  function getOrders(bytes32 ticker, Side side) external view returns (Order[] memory) {\r... */\n      swap3\n      swap2\n      pop\n      pop\n      jump\t// out\n        /* \"contracts/Dex.sol\":943:1012  mapping(address => mapping(bytes32 => uint256)) public traderBalances */\n    tag_37:\n      mstore(0x20, 0x03)\n      dup2\n      0x00\n      mstore\n      mstore(0x20, keccak256(0x00, 0x40))\n      dup1\n      0x00\n      mstore\n      keccak256(0x00, 0x40)\n      0x00\n      swap2\n      pop\n      swap2\n      pop\n      pop\n      sload\n      dup2\n      jump\t// out\n        /* \"contracts/Dex.sol\":6099:9918  function createMarketOrder(bytes32 ticker, uint amount, Side side) tokenExist(ticker) tokenIsNotDAI(ticker) external {\r... */\n    tag_42:\n        /* \"contracts/Dex.sol\":6177:6183  ticker */\n      dup3\n        /* \"contracts/Dex.sol\":2246:2247  0 */\n      0x00\n        /* \"contracts/Dex.sol\":2207:2248  tokens[ticker].tokenAddress != address(0) */\n      0xffffffffffffffffffffffffffffffffffffffff\n      and\n        /* \"contracts/Dex.sol\":2207:2213  tokens */\n      0x01\n        /* \"contracts/Dex.sol\":2207:2221  tokens[ticker] */\n      0x00\n        /* \"contracts/Dex.sol\":2214:2220  ticker */\n      dup4\n        /* \"contracts/Dex.sol\":2207:2221  tokens[ticker] */\n      dup2\n      mstore\n      0x20\n      add\n      swap1\n      dup2\n      mstore\n      0x20\n      add\n      0x00\n      keccak256\n        /* \"contracts/Dex.sol\":2207:2234  tokens[ticker].tokenAddress */\n      0x01\n      add\n      0x00\n      swap1\n      sload\n      swap1\n      0x0100\n      exp\n      swap1\n      div\n      0xffffffffffffffffffffffffffffffffffffffff\n      and\n        /* \"contracts/Dex.sol\":2207:2248  tokens[ticker].tokenAddress != address(0) */\n      0xffffffffffffffffffffffffffffffffffffffff\n      and\n      eq\n      iszero\n        /* \"contracts/Dex.sol\":2199:2278  require(tokens[ticker].tokenAddress != address(0), \"This token does not exist\") */\n      tag_88\n      jumpi\n      mload(0x40)\n      0x08c379a000000000000000000000000000000000000000000000000000000000\n      dup2\n      mstore\n      0x04\n      add\n      tag_89\n      swap1\n      tag_90\n      jump\t// in\n    tag_89:\n      mload(0x40)\n      dup1\n      swap2\n      sub\n      swap1\n      revert\n    tag_88:\n        /* \"contracts/Dex.sol\":6199:6205  ticker */\n      dup4\n        /* \"contracts/Dex.sol\":619:633  bytes32(\"DAI\") */\n      0x4441490000000000000000000000000000000000000000000000000000000000\n        /* \"contracts/Dex.sol\":2365:2371  ticker */\n      dup2\n        /* \"contracts/Dex.sol\":2365:2378  ticker != DAI */\n      eq\n      iszero\n        /* \"contracts/Dex.sol\":2357:2399  require(ticker != DAI, \"Cannot trade DAI\") */\n      tag_92\n      jumpi\n      mload(0x40)\n      0x08c379a000000000000000000000000000000000000000000000000000000000\n      dup2\n      mstore\n      0x04\n      add\n      tag_93\n      swap1\n      tag_94\n      jump\t// in\n    tag_93:\n      mload(0x40)\n      dup1\n      swap2\n      sub\n      swap1\n      revert\n    tag_92:\n        /* \"contracts/Dex.sol\":6305:6314  Side.SELL */\n      0x01\n        /* \"contracts/Dex.sol\":6297:6314  side == Side.SELL */\n      dup1\n      dup2\n      gt\n      iszero\n      tag_96\n      jumpi\n      mstore(0x00, 0x4e487b7100000000000000000000000000000000000000000000000000000000)\n      mstore(0x04, 0x21)\n      revert(0x00, 0x24)\n    tag_96:\n        /* \"contracts/Dex.sol\":6297:6301  side */\n      dup4\n        /* \"contracts/Dex.sol\":6297:6314  side == Side.SELL */\n      0x01\n      dup2\n      gt\n      iszero\n      tag_97\n      jumpi\n      mstore(0x00, 0x4e487b7100000000000000000000000000000000000000000000000000000000)\n      mstore(0x04, 0x21)\n      revert(0x00, 0x24)\n    tag_97:\n      eq\n        /* \"contracts/Dex.sol\":6293:6614  if (side == Side.SELL) {\r... */\n      iszero\n      tag_98\n      jumpi\n        /* \"contracts/Dex.sol\":6377:6383  amount */\n      dup4\n        /* \"contracts/Dex.sol\":6339:6353  traderBalances */\n      0x03\n        /* \"contracts/Dex.sol\":6339:6365  traderBalances[msg.sender] */\n      0x00\n        /* \"contracts/Dex.sol\":6354:6364  msg.sender */\n      caller\n        /* \"contracts/Dex.sol\":6339:6365  traderBalances[msg.sender] */\n      0xffffffffffffffffffffffffffffffffffffffff\n      and\n      0xffffffffffffffffffffffffffffffffffffffff\n      and\n      dup2\n      mstore\n      0x20\n      add\n      swap1\n      dup2\n      mstore\n      0x20\n      add\n      0x00\n      keccak256\n        /* \"contracts/Dex.sol\":6339:6373  traderBalances[msg.sender][ticker] */\n      0x00\n        /* \"contracts/Dex.sol\":6366:6372  ticker */\n      dup8\n        /* \"contracts/Dex.sol\":6339:6373  traderBalances[msg.sender][ticker] */\n      dup2\n      mstore\n      0x20\n      add\n      swap1\n      dup2\n      mstore\n      0x20\n      add\n      0x00\n      keccak256\n      sload\n        /* \"contracts/Dex.sol\":6339:6383  traderBalances[msg.sender][ticker] >= amount */\n      lt\n      iszero\n        /* \"contracts/Dex.sol\":6331:6409  require(traderBalances[msg.sender][ticker] >= amount, \"Token balance too low\") */\n      tag_99\n      jumpi\n      mload(0x40)\n      0x08c379a000000000000000000000000000000000000000000000000000000000\n      dup2\n      mstore\n      0x04\n      add\n      tag_100\n      swap1\n      tag_101\n      jump\t// in\n    tag_100:\n      mload(0x40)\n      dup1\n      swap2\n      sub\n      swap1\n      revert\n    tag_99:\n        /* \"contracts/Dex.sol\":6293:6614  if (side == Side.SELL) {\r... */\n      jump(tag_102)\n    tag_98:\n    tag_102:\n        /* \"contracts/Dex.sol\":6626:6648  Order[] storage orders */\n      0x00\n        /* \"contracts/Dex.sol\":6651:6660  orderBook */\n      0x04\n        /* \"contracts/Dex.sol\":6651:6668  orderBook[ticker] */\n      0x00\n        /* \"contracts/Dex.sol\":6661:6667  ticker */\n      dup8\n        /* \"contracts/Dex.sol\":6651:6668  orderBook[ticker] */\n      dup2\n      mstore\n      0x20\n      add\n      swap1\n      dup2\n      mstore\n      0x20\n      add\n      0x00\n      keccak256\n        /* \"contracts/Dex.sol\":6651:6715  orderBook[ticker][uint(side == Side.BUY ? Side.SELL : Side.BUY)] */\n      0x00\n        /* \"contracts/Dex.sol\":6682:6690  Side.BUY */\n      dup1\n        /* \"contracts/Dex.sol\":6674:6690  side == Side.BUY */\n      0x01\n      dup2\n      gt\n      iszero\n      tag_103\n      jumpi\n      mstore(0x00, 0x4e487b7100000000000000000000000000000000000000000000000000000000)\n      mstore(0x04, 0x21)\n      revert(0x00, 0x24)\n    tag_103:\n        /* \"contracts/Dex.sol\":6674:6678  side */\n      dup7\n        /* \"contracts/Dex.sol\":6674:6690  side == Side.BUY */\n      0x01\n      dup2\n      gt\n      iszero\n      tag_104\n      jumpi\n      mstore(0x00, 0x4e487b7100000000000000000000000000000000000000000000000000000000)\n      mstore(0x04, 0x21)\n      revert(0x00, 0x24)\n    tag_104:\n      eq\n        /* \"contracts/Dex.sol\":6674:6713  side == Side.BUY ? Side.SELL : Side.BUY */\n      tag_105\n      jumpi\n        /* \"contracts/Dex.sol\":6705:6713  Side.BUY */\n      0x00\n        /* \"contracts/Dex.sol\":6674:6713  side == Side.BUY ? Side.SELL : Side.BUY */\n      jump(tag_106)\n    tag_105:\n        /* \"contracts/Dex.sol\":6693:6702  Side.SELL */\n      0x01\n        /* \"contracts/Dex.sol\":6674:6713  side == Side.BUY ? Side.SELL : Side.BUY */\n    tag_106:\n        /* \"contracts/Dex.sol\":6669:6714  uint(side == Side.BUY ? Side.SELL : Side.BUY) */\n      0x01\n      dup2\n      gt\n      iszero\n      tag_107\n      jumpi\n      mstore(0x00, 0x4e487b7100000000000000000000000000000000000000000000000000000000)\n      mstore(0x04, 0x21)\n      revert(0x00, 0x24)\n    tag_107:\n        /* \"contracts/Dex.sol\":6651:6715  orderBook[ticker][uint(side == Side.BUY ? Side.SELL : Side.BUY)] */\n      dup2\n      mstore\n      0x20\n      add\n      swap1\n      dup2\n      mstore\n      0x20\n      add\n      0x00\n      keccak256\n        /* \"contracts/Dex.sol\":6626:6715  Order[] storage orders = orderBook[ticker][uint(side == Side.BUY ? Side.SELL : Side.BUY)] */\n      swap1\n      pop\n        /* \"contracts/Dex.sol\":6768:6774  uint i */\n      0x00\n        /* \"contracts/Dex.sol\":6785:6799  uint remaining */\n      dup1\n        /* \"contracts/Dex.sol\":6802:6808  amount */\n      dup7\n        /* \"contracts/Dex.sol\":6785:6808  uint remaining = amount */\n      swap1\n      pop\n        /* \"contracts/Dex.sol\":6865:9367  while(i < orders.length && remaining > 0) {\r... */\n    tag_108:\n        /* \"contracts/Dex.sol\":6875:6881  orders */\n      dup3\n        /* \"contracts/Dex.sol\":6875:6888  orders.length */\n      dup1\n      sload\n      swap1\n      pop\n        /* \"contracts/Dex.sol\":6871:6872  i */\n      dup3\n        /* \"contracts/Dex.sol\":6871:6888  i < orders.length */\n      lt\n        /* \"contracts/Dex.sol\":6871:6905  i < orders.length && remaining > 0 */\n      dup1\n      iszero\n      tag_110\n      jumpi\n      pop\n        /* \"contracts/Dex.sol\":6904:6905  0 */\n      0x00\n        /* \"contracts/Dex.sol\":6892:6901  remaining */\n      dup2\n        /* \"contracts/Dex.sol\":6892:6905  remaining > 0 */\n      gt\n        /* \"contracts/Dex.sol\":6871:6905  i < orders.length && remaining > 0 */\n    tag_110:\n        /* \"contracts/Dex.sol\":6865:9367  while(i < orders.length && remaining > 0) {\r... */\n      iszero\n      tag_109\n      jumpi\n        /* \"contracts/Dex.sol\":6922:6936  uint available */\n      0x00\n        /* \"contracts/Dex.sol\":6939:6977  orders[i].amount.sub(orders[i].filled) */\n      tag_111\n        /* \"contracts/Dex.sol\":6960:6966  orders */\n      dup5\n        /* \"contracts/Dex.sol\":6967:6968  i */\n      dup5\n        /* \"contracts/Dex.sol\":6960:6969  orders[i] */\n      dup2\n      sload\n      dup2\n      lt\n      tag_112\n      jumpi\n      mstore(0x00, 0x4e487b7100000000000000000000000000000000000000000000000000000000)\n      mstore(0x04, 0x32)\n      revert(0x00, 0x24)\n    tag_112:\n      swap1\n      0x00\n      mstore\n      keccak256(0x00, 0x20)\n      swap1\n      0x07\n      mul\n      add\n        /* \"contracts/Dex.sol\":6960:6976  orders[i].filled */\n      0x04\n      add\n      sload\n        /* \"contracts/Dex.sol\":6939:6945  orders */\n      dup6\n        /* \"contracts/Dex.sol\":6946:6947  i */\n      dup6\n        /* \"contracts/Dex.sol\":6939:6948  orders[i] */\n      dup2\n      sload\n      dup2\n      lt\n      tag_114\n      jumpi\n      mstore(0x00, 0x4e487b7100000000000000000000000000000000000000000000000000000000)\n      mstore(0x04, 0x32)\n      revert(0x00, 0x24)\n    tag_114:\n      swap1\n      0x00\n      mstore\n      keccak256(0x00, 0x20)\n      swap1\n      0x07\n      mul\n      add\n        /* \"contracts/Dex.sol\":6939:6955  orders[i].amount */\n      0x03\n      add\n      sload\n        /* \"contracts/Dex.sol\":6939:6959  orders[i].amount.sub */\n      tag_116\n      swap1\n        /* \"contracts/Dex.sol\":6939:6977  orders[i].amount.sub(orders[i].filled) */\n      swap2\n      swap1\n      0xffffffff\n      and\n      jump\t// in\n    tag_111:\n        /* \"contracts/Dex.sol\":6922:6977  uint available = orders[i].amount.sub(orders[i].filled) */\n      swap1\n      pop\n        /* \"contracts/Dex.sol\":7154:7166  uint matched */\n      0x00\n        /* \"contracts/Dex.sol\":7182:7191  available */\n      dup2\n        /* \"contracts/Dex.sol\":7170:7179  remaining */\n      dup4\n        /* \"contracts/Dex.sol\":7170:7191  remaining > available */\n      gt\n        /* \"contracts/Dex.sol\":7169:7216  (remaining > available) ? available : remaining */\n      tag_117\n      jumpi\n        /* \"contracts/Dex.sol\":7207:7216  remaining */\n      dup3\n        /* \"contracts/Dex.sol\":7169:7216  (remaining > available) ? available : remaining */\n      jump(tag_118)\n    tag_117:\n        /* \"contracts/Dex.sol\":7195:7204  available */\n      dup2\n        /* \"contracts/Dex.sol\":7169:7216  (remaining > available) ? available : remaining */\n    tag_118:\n        /* \"contracts/Dex.sol\":7154:7216  uint matched = (remaining > available) ? available : remaining */\n      swap1\n      pop\n        /* \"contracts/Dex.sol\":7303:7325  remaining.sub(matched) */\n      tag_119\n        /* \"contracts/Dex.sol\":7317:7324  matched */\n      dup2\n        /* \"contracts/Dex.sol\":7303:7312  remaining */\n      dup5\n        /* \"contracts/Dex.sol\":7303:7316  remaining.sub */\n      tag_116\n      swap1\n        /* \"contracts/Dex.sol\":7303:7325  remaining.sub(matched) */\n      swap2\n      swap1\n      0xffffffff\n      and\n      jump\t// in\n    tag_119:\n        /* \"contracts/Dex.sol\":7291:7325  remaining = remaining.sub(matched) */\n      swap3\n      pop\n        /* \"contracts/Dex.sol\":7359:7388  orders[i].filled.add(matched) */\n      tag_120\n        /* \"contracts/Dex.sol\":7380:7387  matched */\n      dup2\n        /* \"contracts/Dex.sol\":7359:7365  orders */\n      dup7\n        /* \"contracts/Dex.sol\":7366:7367  i */\n      dup7\n        /* \"contracts/Dex.sol\":7359:7368  orders[i] */\n      dup2\n      sload\n      dup2\n      lt\n      tag_121\n      jumpi\n      mstore(0x00, 0x4e487b7100000000000000000000000000000000000000000000000000000000)\n      mstore(0x04, 0x32)\n      revert(0x00, 0x24)\n    tag_121:\n      swap1\n      0x00\n      mstore\n      keccak256(0x00, 0x20)\n      swap1\n      0x07\n      mul\n      add\n        /* \"contracts/Dex.sol\":7359:7375  orders[i].filled */\n      0x04\n      add\n      sload\n        /* \"contracts/Dex.sol\":7359:7379  orders[i].filled.add */\n      tag_123\n      swap1\n        /* \"contracts/Dex.sol\":7359:7388  orders[i].filled.add(matched) */\n      swap2\n      swap1\n      0xffffffff\n      and\n      jump\t// in\n    tag_120:\n        /* \"contracts/Dex.sol\":7340:7346  orders */\n      dup6\n        /* \"contracts/Dex.sol\":7347:7348  i */\n      dup6\n        /* \"contracts/Dex.sol\":7340:7349  orders[i] */\n      dup2\n      sload\n      dup2\n      lt\n      tag_124\n      jumpi\n      mstore(0x00, 0x4e487b7100000000000000000000000000000000000000000000000000000000)\n      mstore(0x04, 0x32)\n      revert(0x00, 0x24)\n    tag_124:\n      swap1\n      0x00\n      mstore\n      keccak256(0x00, 0x20)\n      swap1\n      0x07\n      mul\n      add\n        /* \"contracts/Dex.sol\":7340:7356  orders[i].filled */\n      0x04\n      add\n        /* \"contracts/Dex.sol\":7340:7388  orders[i].filled = orders[i].filled.add(matched) */\n      dup2\n      swap1\n      sstore\n      pop\n        /* \"contracts/Dex.sol\":7559:7569  msg.sender */\n      caller\n        /* \"contracts/Dex.sol\":7410:7679  NewTrade(\r... */\n      0xffffffffffffffffffffffffffffffffffffffff\n      and\n        /* \"contracts/Dex.sol\":7524:7530  orders */\n      dup6\n        /* \"contracts/Dex.sol\":7531:7532  i */\n      dup6\n        /* \"contracts/Dex.sol\":7524:7533  orders[i] */\n      dup2\n      sload\n      dup2\n      lt\n      tag_126\n      jumpi\n      mstore(0x00, 0x4e487b7100000000000000000000000000000000000000000000000000000000)\n      mstore(0x04, 0x32)\n      revert(0x00, 0x24)\n    tag_126:\n      swap1\n      0x00\n      mstore\n      keccak256(0x00, 0x20)\n      swap1\n      0x07\n      mul\n      add\n        /* \"contracts/Dex.sol\":7524:7540  orders[i].trader */\n      0x01\n      add\n      0x00\n      swap1\n      sload\n      swap1\n      0x0100\n      exp\n      swap1\n      div\n      0xffffffffffffffffffffffffffffffffffffffff\n      and\n        /* \"contracts/Dex.sol\":7410:7679  NewTrade(\r... */\n      0xffffffffffffffffffffffffffffffffffffffff\n      and\n        /* \"contracts/Dex.sol\":7498:7504  ticker */\n      dup12\n        /* \"contracts/Dex.sol\":7410:7679  NewTrade(\r... */\n      0xdb0c486e680ba8026643e6a85f8d157b5e7bcd4b32b54d564542570a9eb20416\n        /* \"contracts/Dex.sol\":7437:7448  nextTradeId */\n      sload(0x06)\n        /* \"contracts/Dex.sol\":7467:7473  orders */\n      dup10\n        /* \"contracts/Dex.sol\":7474:7475  i */\n      dup10\n        /* \"contracts/Dex.sol\":7467:7476  orders[i] */\n      dup2\n      sload\n      dup2\n      lt\n      tag_128\n      jumpi\n      mstore(0x00, 0x4e487b7100000000000000000000000000000000000000000000000000000000)\n      mstore(0x04, 0x32)\n      revert(0x00, 0x24)\n    tag_128:\n      swap1\n      0x00\n      mstore\n      keccak256(0x00, 0x20)\n      swap1\n      0x07\n      mul\n      add\n        /* \"contracts/Dex.sol\":7467:7479  orders[i].id */\n      0x00\n      add\n      sload\n        /* \"contracts/Dex.sol\":7588:7595  matched */\n      dup7\n        /* \"contracts/Dex.sol\":7615:7621  orders */\n      dup12\n        /* \"contracts/Dex.sol\":7622:7623  i */\n      dup12\n        /* \"contracts/Dex.sol\":7615:7624  orders[i] */\n      dup2\n      sload\n      dup2\n      lt\n      tag_130\n      jumpi\n      mstore(0x00, 0x4e487b7100000000000000000000000000000000000000000000000000000000)\n      mstore(0x04, 0x32)\n      revert(0x00, 0x24)\n    tag_130:\n      swap1\n      0x00\n      mstore\n      keccak256(0x00, 0x20)\n      swap1\n      0x07\n      mul\n      add\n        /* \"contracts/Dex.sol\":7615:7630  orders[i].price */\n      0x05\n      add\n      sload\n        /* \"contracts/Dex.sol\":7649:7664  block.timestamp */\n      timestamp\n        /* \"contracts/Dex.sol\":7410:7679  NewTrade(\r... */\n      mload(0x40)\n      tag_132\n      swap6\n      swap5\n      swap4\n      swap3\n      swap2\n      swap1\n      tag_133\n      jump\t// in\n    tag_132:\n      mload(0x40)\n      dup1\n      swap2\n      sub\n      swap1\n      log4\n        /* \"contracts/Dex.sol\":7814:7823  Side.SELL */\n      0x01\n        /* \"contracts/Dex.sol\":7806:7823  side == Side.SELL */\n      dup1\n      dup2\n      gt\n      iszero\n      tag_134\n      jumpi\n      mstore(0x00, 0x4e487b7100000000000000000000000000000000000000000000000000000000)\n      mstore(0x04, 0x21)\n      revert(0x00, 0x24)\n    tag_134:\n        /* \"contracts/Dex.sol\":7806:7810  side */\n      dup9\n        /* \"contracts/Dex.sol\":7806:7823  side == Side.SELL */\n      0x01\n      dup2\n      gt\n      iszero\n      tag_135\n      jumpi\n      mstore(0x00, 0x4e487b7100000000000000000000000000000000000000000000000000000000)\n      mstore(0x04, 0x21)\n      revert(0x00, 0x24)\n    tag_135:\n      eq\n        /* \"contracts/Dex.sol\":7802:9280  if (side == Side.SELL) {\r... */\n      iszero\n      tag_136\n      jumpi\n        /* \"contracts/Dex.sol\":7924:7993  traderBalances[msg.sender][ticker].\r... */\n      tag_137\n        /* \"contracts/Dex.sol\":7985:7992  matched */\n      dup2\n        /* \"contracts/Dex.sol\":7924:7938  traderBalances */\n      0x03\n        /* \"contracts/Dex.sol\":7924:7950  traderBalances[msg.sender] */\n      0x00\n        /* \"contracts/Dex.sol\":7939:7949  msg.sender */\n      caller\n        /* \"contracts/Dex.sol\":7924:7950  traderBalances[msg.sender] */\n      0xffffffffffffffffffffffffffffffffffffffff\n      and\n      0xffffffffffffffffffffffffffffffffffffffff\n      and\n      dup2\n      mstore\n      0x20\n      add\n      swap1\n      dup2\n      mstore\n      0x20\n      add\n      0x00\n      keccak256\n        /* \"contracts/Dex.sol\":7924:7958  traderBalances[msg.sender][ticker] */\n      0x00\n        /* \"contracts/Dex.sol\":7951:7957  ticker */\n      dup14\n        /* \"contracts/Dex.sol\":7924:7958  traderBalances[msg.sender][ticker] */\n      dup2\n      mstore\n      0x20\n      add\n      swap1\n      dup2\n      mstore\n      0x20\n      add\n      0x00\n      keccak256\n      sload\n        /* \"contracts/Dex.sol\":7924:7984  traderBalances[msg.sender][ticker].\r... */\n      tag_116\n      swap1\n        /* \"contracts/Dex.sol\":7924:7993  traderBalances[msg.sender][ticker].\r... */\n      swap2\n      swap1\n      0xffffffff\n      and\n      jump\t// in\n    tag_137:\n        /* \"contracts/Dex.sol\":7887:7901  traderBalances */\n      0x03\n        /* \"contracts/Dex.sol\":7887:7913  traderBalances[msg.sender] */\n      0x00\n        /* \"contracts/Dex.sol\":7902:7912  msg.sender */\n      caller\n        /* \"contracts/Dex.sol\":7887:7913  traderBalances[msg.sender] */\n      0xffffffffffffffffffffffffffffffffffffffff\n      and\n      0xffffffffffffffffffffffffffffffffffffffff\n      and\n      dup2\n      mstore\n      0x20\n      add\n      swap1\n      dup2\n      mstore\n      0x20\n      add\n      0x00\n      keccak256\n        /* \"contracts/Dex.sol\":7887:7921  traderBalances[msg.sender][ticker] */\n      0x00\n        /* \"contracts/Dex.sol\":7914:7920  ticker */\n      dup13\n        /* \"contracts/Dex.sol\":7887:7921  traderBalances[msg.sender][ticker] */\n      dup2\n      mstore\n      0x20\n      add\n      swap1\n      dup2\n      mstore\n      0x20\n      add\n      0x00\n      keccak256\n        /* \"contracts/Dex.sol\":7887:7993  traderBalances[msg.sender][ticker] = traderBalances[msg.sender][ticker].\r... */\n      dup2\n      swap1\n      sstore\n      pop\n        /* \"contracts/Dex.sol\":8046:8133  traderBalances[msg.sender][DAI].\r... */\n      tag_138\n        /* \"contracts/Dex.sol\":8104:8132  matched.mul(orders[i].price) */\n      tag_139\n        /* \"contracts/Dex.sol\":8116:8122  orders */\n      dup7\n        /* \"contracts/Dex.sol\":8123:8124  i */\n      dup7\n        /* \"contracts/Dex.sol\":8116:8125  orders[i] */\n      dup2\n      sload\n      dup2\n      lt\n      tag_140\n      jumpi\n      mstore(0x00, 0x4e487b7100000000000000000000000000000000000000000000000000000000)\n      mstore(0x04, 0x32)\n      revert(0x00, 0x24)\n    tag_140:\n      swap1\n      0x00\n      mstore\n      keccak256(0x00, 0x20)\n      swap1\n      0x07\n      mul\n      add\n        /* \"contracts/Dex.sol\":8116:8131  orders[i].price */\n      0x05\n      add\n      sload\n        /* \"contracts/Dex.sol\":8104:8111  matched */\n      dup4\n        /* \"contracts/Dex.sol\":8104:8115  matched.mul */\n      tag_142\n      swap1\n        /* \"contracts/Dex.sol\":8104:8132  matched.mul(orders[i].price) */\n      swap2\n      swap1\n      0xffffffff\n      and\n      jump\t// in\n    tag_139:\n        /* \"contracts/Dex.sol\":8046:8060  traderBalances */\n      0x03\n        /* \"contracts/Dex.sol\":8046:8072  traderBalances[msg.sender] */\n      0x00\n        /* \"contracts/Dex.sol\":8061:8071  msg.sender */\n      caller\n        /* \"contracts/Dex.sol\":8046:8072  traderBalances[msg.sender] */\n      0xffffffffffffffffffffffffffffffffffffffff\n      and\n      0xffffffffffffffffffffffffffffffffffffffff\n      and\n      dup2\n      mstore\n      0x20\n      add\n      swap1\n      dup2\n      mstore\n      0x20\n      add\n      0x00\n      keccak256\n        /* \"contracts/Dex.sol\":8046:8077  traderBalances[msg.sender][DAI] */\n      0x00\n        /* \"contracts/Dex.sol\":619:633  bytes32(\"DAI\") */\n      0x4441490000000000000000000000000000000000000000000000000000000000\n        /* \"contracts/Dex.sol\":8046:8077  traderBalances[msg.sender][DAI] */\n      dup2\n      mstore\n      0x20\n      add\n      swap1\n      dup2\n      mstore\n      0x20\n      add\n      0x00\n      keccak256\n      sload\n        /* \"contracts/Dex.sol\":8046:8103  traderBalances[msg.sender][DAI].\r... */\n      tag_123\n      swap1\n        /* \"contracts/Dex.sol\":8046:8133  traderBalances[msg.sender][DAI].\r... */\n      swap2\n      swap1\n      0xffffffff\n      and\n      jump\t// in\n    tag_138:\n        /* \"contracts/Dex.sol\":8012:8026  traderBalances */\n      0x03\n        /* \"contracts/Dex.sol\":8012:8038  traderBalances[msg.sender] */\n      0x00\n        /* \"contracts/Dex.sol\":8027:8037  msg.sender */\n      caller\n        /* \"contracts/Dex.sol\":8012:8038  traderBalances[msg.sender] */\n      0xffffffffffffffffffffffffffffffffffffffff\n      and\n      0xffffffffffffffffffffffffffffffffffffffff\n      and\n      dup2\n      mstore\n      0x20\n      add\n      swap1\n      dup2\n      mstore\n      0x20\n      add\n      0x00\n      keccak256\n        /* \"contracts/Dex.sol\":8012:8043  traderBalances[msg.sender][DAI] */\n      0x00\n        /* \"contracts/Dex.sol\":619:633  bytes32(\"DAI\") */\n      0x4441490000000000000000000000000000000000000000000000000000000000\n        /* \"contracts/Dex.sol\":8012:8043  traderBalances[msg.sender][DAI] */\n      dup2\n      mstore\n      0x20\n      add\n      swap1\n      dup2\n      mstore\n      0x20\n      add\n      0x00\n      keccak256\n        /* \"contracts/Dex.sol\":8012:8133  traderBalances[msg.sender][DAI] = traderBalances[msg.sender][DAI].\r... */\n      dup2\n      swap1\n      sstore\n      pop\n        /* \"contracts/Dex.sol\":8232:8307  traderBalances[orders[i].trader][ticker].\r... */\n      tag_143\n        /* \"contracts/Dex.sol\":8299:8306  matched */\n      dup2\n        /* \"contracts/Dex.sol\":8232:8246  traderBalances */\n      0x03\n        /* \"contracts/Dex.sol\":8232:8264  traderBalances[orders[i].trader] */\n      0x00\n        /* \"contracts/Dex.sol\":8247:8253  orders */\n      dup9\n        /* \"contracts/Dex.sol\":8254:8255  i */\n      dup9\n        /* \"contracts/Dex.sol\":8247:8256  orders[i] */\n      dup2\n      sload\n      dup2\n      lt\n      tag_144\n      jumpi\n      mstore(0x00, 0x4e487b7100000000000000000000000000000000000000000000000000000000)\n      mstore(0x04, 0x32)\n      revert(0x00, 0x24)\n    tag_144:\n      swap1\n      0x00\n      mstore\n      keccak256(0x00, 0x20)\n      swap1\n      0x07\n      mul\n      add\n        /* \"contracts/Dex.sol\":8247:8263  orders[i].trader */\n      0x01\n      add\n      0x00\n      swap1\n      sload\n      swap1\n      0x0100\n      exp\n      swap1\n      div\n      0xffffffffffffffffffffffffffffffffffffffff\n      and\n        /* \"contracts/Dex.sol\":8232:8264  traderBalances[orders[i].trader] */\n      0xffffffffffffffffffffffffffffffffffffffff\n      and\n      0xffffffffffffffffffffffffffffffffffffffff\n      and\n      dup2\n      mstore\n      0x20\n      add\n      swap1\n      dup2\n      mstore\n      0x20\n      add\n      0x00\n      keccak256\n        /* \"contracts/Dex.sol\":8232:8272  traderBalances[orders[i].trader][ticker] */\n      0x00\n        /* \"contracts/Dex.sol\":8265:8271  ticker */\n      dup14\n        /* \"contracts/Dex.sol\":8232:8272  traderBalances[orders[i].trader][ticker] */\n      dup2\n      mstore\n      0x20\n      add\n      swap1\n      dup2\n      mstore\n      0x20\n      add\n      0x00\n      keccak256\n      sload\n        /* \"contracts/Dex.sol\":8232:8298  traderBalances[orders[i].trader][ticker].\r... */\n      tag_123\n      swap1\n        /* \"contracts/Dex.sol\":8232:8307  traderBalances[orders[i].trader][ticker].\r... */\n      swap2\n      swap1\n      0xffffffff\n      and\n      jump\t// in\n    tag_143:\n        /* \"contracts/Dex.sol\":8189:8203  traderBalances */\n      0x03\n        /* \"contracts/Dex.sol\":8189:8221  traderBalances[orders[i].trader] */\n      0x00\n        /* \"contracts/Dex.sol\":8204:8210  orders */\n      dup8\n        /* \"contracts/Dex.sol\":8211:8212  i */\n      dup8\n        /* \"contracts/Dex.sol\":8204:8213  orders[i] */\n      dup2\n      sload\n      dup2\n      lt\n      tag_146\n      jumpi\n      mstore(0x00, 0x4e487b7100000000000000000000000000000000000000000000000000000000)\n      mstore(0x04, 0x32)\n      revert(0x00, 0x24)\n    tag_146:\n      swap1\n      0x00\n      mstore\n      keccak256(0x00, 0x20)\n      swap1\n      0x07\n      mul\n      add\n        /* \"contracts/Dex.sol\":8204:8220  orders[i].trader */\n      0x01\n      add\n      0x00\n      swap1\n      sload\n      swap1\n      0x0100\n      exp\n      swap1\n      div\n      0xffffffffffffffffffffffffffffffffffffffff\n      and\n        /* \"contracts/Dex.sol\":8189:8221  traderBalances[orders[i].trader] */\n      0xffffffffffffffffffffffffffffffffffffffff\n      and\n      0xffffffffffffffffffffffffffffffffffffffff\n      and\n      dup2\n      mstore\n      0x20\n      add\n      swap1\n      dup2\n      mstore\n      0x20\n      add\n      0x00\n      keccak256\n        /* \"contracts/Dex.sol\":8189:8229  traderBalances[orders[i].trader][ticker] */\n      0x00\n        /* \"contracts/Dex.sol\":8222:8228  ticker */\n      dup13\n        /* \"contracts/Dex.sol\":8189:8229  traderBalances[orders[i].trader][ticker] */\n      dup2\n      mstore\n      0x20\n      add\n      swap1\n      dup2\n      mstore\n      0x20\n      add\n      0x00\n      keccak256\n        /* \"contracts/Dex.sol\":8189:8307  traderBalances[orders[i].trader][ticker] = traderBalances[orders[i].trader][ticker].\r... */\n      dup2\n      swap1\n      sstore\n      pop\n        /* \"contracts/Dex.sol\":8366:8459  traderBalances[orders[i].trader][DAI].\r... */\n      tag_148\n        /* \"contracts/Dex.sol\":8430:8458  matched.mul(orders[i].price) */\n      tag_149\n        /* \"contracts/Dex.sol\":8442:8448  orders */\n      dup7\n        /* \"contracts/Dex.sol\":8449:8450  i */\n      dup7\n        /* \"contracts/Dex.sol\":8442:8451  orders[i] */\n      dup2\n      sload\n      dup2\n      lt\n      tag_150\n      jumpi\n      mstore(0x00, 0x4e487b7100000000000000000000000000000000000000000000000000000000)\n      mstore(0x04, 0x32)\n      revert(0x00, 0x24)\n    tag_150:\n      swap1\n      0x00\n      mstore\n      keccak256(0x00, 0x20)\n      swap1\n      0x07\n      mul\n      add\n        /* \"contracts/Dex.sol\":8442:8457  orders[i].price */\n      0x05\n      add\n      sload\n        /* \"contracts/Dex.sol\":8430:8437  matched */\n      dup4\n        /* \"contracts/Dex.sol\":8430:8441  matched.mul */\n      tag_142\n      swap1\n        /* \"contracts/Dex.sol\":8430:8458  matched.mul(orders[i].price) */\n      swap2\n      swap1\n      0xffffffff\n      and\n      jump\t// in\n    tag_149:\n        /* \"contracts/Dex.sol\":8366:8380  traderBalances */\n      0x03\n        /* \"contracts/Dex.sol\":8366:8398  traderBalances[orders[i].trader] */\n      0x00\n        /* \"contracts/Dex.sol\":8381:8387  orders */\n      dup9\n        /* \"contracts/Dex.sol\":8388:8389  i */\n      dup9\n        /* \"contracts/Dex.sol\":8381:8390  orders[i] */\n      dup2\n      sload\n      dup2\n      lt\n      tag_152\n      jumpi\n      mstore(0x00, 0x4e487b7100000000000000000000000000000000000000000000000000000000)\n      mstore(0x04, 0x32)\n      revert(0x00, 0x24)\n    tag_152:\n      swap1\n      0x00\n      mstore\n      keccak256(0x00, 0x20)\n      swap1\n      0x07\n      mul\n      add\n        /* \"contracts/Dex.sol\":8381:8397  orders[i].trader */\n      0x01\n      add\n      0x00\n      swap1\n      sload\n      swap1\n      0x0100\n      exp\n      swap1\n      div\n      0xffffffffffffffffffffffffffffffffffffffff\n      and\n        /* \"contracts/Dex.sol\":8366:8398  traderBalances[orders[i].trader] */\n      0xffffffffffffffffffffffffffffffffffffffff\n      and\n      0xffffffffffffffffffffffffffffffffffffffff\n      and\n      dup2\n      mstore\n      0x20\n      add\n      swap1\n      dup2\n      mstore\n      0x20\n      add\n      0x00\n      keccak256\n        /* \"contracts/Dex.sol\":8366:8403  traderBalances[orders[i].trader][DAI] */\n      0x00\n        /* \"contracts/Dex.sol\":619:633  bytes32(\"DAI\") */\n      0x4441490000000000000000000000000000000000000000000000000000000000\n        /* \"contracts/Dex.sol\":8366:8403  traderBalances[orders[i].trader][DAI] */\n      dup2\n      mstore\n      0x20\n      add\n      swap1\n      dup2\n      mstore\n      0x20\n      add\n      0x00\n      keccak256\n      sload\n        /* \"contracts/Dex.sol\":8366:8429  traderBalances[orders[i].trader][DAI].\r... */\n      tag_116\n      swap1\n        /* \"contracts/Dex.sol\":8366:8459  traderBalances[orders[i].trader][DAI].\r... */\n      swap2\n      swap1\n      0xffffffff\n      and\n      jump\t// in\n    tag_148:\n        /* \"contracts/Dex.sol\":8326:8340  traderBalances */\n      0x03\n        /* \"contracts/Dex.sol\":8326:8358  traderBalances[orders[i].trader] */\n      0x00\n        /* \"contracts/Dex.sol\":8341:8347  orders */\n      dup8\n        /* \"contracts/Dex.sol\":8348:8349  i */\n      dup8\n        /* \"contracts/Dex.sol\":8341:8350  orders[i] */\n      dup2\n      sload\n      dup2\n      lt\n      tag_154\n      jumpi\n      mstore(0x00, 0x4e487b7100000000000000000000000000000000000000000000000000000000)\n      mstore(0x04, 0x32)\n      revert(0x00, 0x24)\n    tag_154:\n      swap1\n      0x00\n      mstore\n      keccak256(0x00, 0x20)\n      swap1\n      0x07\n      mul\n      add\n        /* \"contracts/Dex.sol\":8341:8357  orders[i].trader */\n      0x01\n      add\n      0x00\n      swap1\n      sload\n      swap1\n      0x0100\n      exp\n      swap1\n      div\n      0xffffffffffffffffffffffffffffffffffffffff\n      and\n        /* \"contracts/Dex.sol\":8326:8358  traderBalances[orders[i].trader] */\n      0xffffffffffffffffffffffffffffffffffffffff\n      and\n      0xffffffffffffffffffffffffffffffffffffffff\n      and\n      dup2\n      mstore\n      0x20\n      add\n      swap1\n      dup2\n      mstore\n      0x20\n      add\n      0x00\n      keccak256\n        /* \"contracts/Dex.sol\":8326:8363  traderBalances[orders[i].trader][DAI] */\n      0x00\n        /* \"contracts/Dex.sol\":619:633  bytes32(\"DAI\") */\n      0x4441490000000000000000000000000000000000000000000000000000000000\n        /* \"contracts/Dex.sol\":8326:8363  traderBalances[orders[i].trader][DAI] */\n      dup2\n      mstore\n      0x20\n      add\n      swap1\n      dup2\n      mstore\n      0x20\n      add\n      0x00\n      keccak256\n        /* \"contracts/Dex.sol\":8326:8459  traderBalances[orders[i].trader][DAI] = traderBalances[orders[i].trader][DAI].\r... */\n      dup2\n      swap1\n      sstore\n      pop\n        /* \"contracts/Dex.sol\":7802:9280  if (side == Side.SELL) {\r... */\n      jump(tag_156)\n    tag_136:\n        /* \"contracts/Dex.sol\":8576:8604  matched.mul(orders[i].price) */\n      tag_157\n        /* \"contracts/Dex.sol\":8588:8594  orders */\n      dup6\n        /* \"contracts/Dex.sol\":8595:8596  i */\n      dup6\n        /* \"contracts/Dex.sol\":8588:8597  orders[i] */\n      dup2\n      sload\n      dup2\n      lt\n      tag_158\n      jumpi\n      mstore(0x00, 0x4e487b7100000000000000000000000000000000000000000000000000000000)\n      mstore(0x04, 0x32)\n      revert(0x00, 0x24)\n    tag_158:\n      swap1\n      0x00\n      mstore\n      keccak256(0x00, 0x20)\n      swap1\n      0x07\n      mul\n      add\n        /* \"contracts/Dex.sol\":8588:8603  orders[i].price */\n      0x05\n      add\n      sload\n        /* \"contracts/Dex.sol\":8576:8583  matched */\n      dup3\n        /* \"contracts/Dex.sol\":8576:8587  matched.mul */\n      tag_142\n      swap1\n        /* \"contracts/Dex.sol\":8576:8604  matched.mul(orders[i].price) */\n      swap2\n      swap1\n      0xffffffff\n      and\n      jump\t// in\n    tag_157:\n        /* \"contracts/Dex.sol\":8541:8555  traderBalances */\n      0x03\n        /* \"contracts/Dex.sol\":8541:8567  traderBalances[msg.sender] */\n      0x00\n        /* \"contracts/Dex.sol\":8556:8566  msg.sender */\n      caller\n        /* \"contracts/Dex.sol\":8541:8567  traderBalances[msg.sender] */\n      0xffffffffffffffffffffffffffffffffffffffff\n      and\n      0xffffffffffffffffffffffffffffffffffffffff\n      and\n      dup2\n      mstore\n      0x20\n      add\n      swap1\n      dup2\n      mstore\n      0x20\n      add\n      0x00\n      keccak256\n        /* \"contracts/Dex.sol\":8541:8572  traderBalances[msg.sender][DAI] */\n      0x00\n        /* \"contracts/Dex.sol\":619:633  bytes32(\"DAI\") */\n      0x4441490000000000000000000000000000000000000000000000000000000000\n        /* \"contracts/Dex.sol\":8541:8572  traderBalances[msg.sender][DAI] */\n      dup2\n      mstore\n      0x20\n      add\n      swap1\n      dup2\n      mstore\n      0x20\n      add\n      0x00\n      keccak256\n      sload\n        /* \"contracts/Dex.sol\":8541:8604  traderBalances[msg.sender][DAI] >= matched.mul(orders[i].price) */\n      lt\n      iszero\n        /* \"contracts/Dex.sol\":8533:8628  require(traderBalances[msg.sender][DAI] >= matched.mul(orders[i].price), \"DAI balance too low\") */\n      tag_160\n      jumpi\n      mload(0x40)\n      0x08c379a000000000000000000000000000000000000000000000000000000000\n      dup2\n      mstore\n      0x04\n      add\n      tag_161\n      swap1\n      tag_162\n      jump\t// in\n    tag_161:\n      mload(0x40)\n      dup1\n      swap2\n      sub\n      swap1\n      revert\n    tag_160:\n        /* \"contracts/Dex.sol\":8728:8797  traderBalances[msg.sender][ticker].\r... */\n      tag_163\n        /* \"contracts/Dex.sol\":8789:8796  matched */\n      dup2\n        /* \"contracts/Dex.sol\":8728:8742  traderBalances */\n      0x03\n        /* \"contracts/Dex.sol\":8728:8754  traderBalances[msg.sender] */\n      0x00\n        /* \"contracts/Dex.sol\":8743:8753  msg.sender */\n      caller\n        /* \"contracts/Dex.sol\":8728:8754  traderBalances[msg.sender] */\n      0xffffffffffffffffffffffffffffffffffffffff\n      and\n      0xffffffffffffffffffffffffffffffffffffffff\n      and\n      dup2\n      mstore\n      0x20\n      add\n      swap1\n      dup2\n      mstore\n      0x20\n      add\n      0x00\n      keccak256\n        /* \"contracts/Dex.sol\":8728:8762  traderBalances[msg.sender][ticker] */\n      0x00\n        /* \"contracts/Dex.sol\":8755:8761  ticker */\n      dup14\n        /* \"contracts/Dex.sol\":8728:8762  traderBalances[msg.sender][ticker] */\n      dup2\n      mstore\n      0x20\n      add\n      swap1\n      dup2\n      mstore\n      0x20\n      add\n      0x00\n      keccak256\n      sload\n        /* \"contracts/Dex.sol\":8728:8788  traderBalances[msg.sender][ticker].\r... */\n      tag_123\n      swap1\n        /* \"contracts/Dex.sol\":8728:8797  traderBalances[msg.sender][ticker].\r... */\n      swap2\n      swap1\n      0xffffffff\n      and\n      jump\t// in\n    tag_163:\n        /* \"contracts/Dex.sol\":8691:8705  traderBalances */\n      0x03\n        /* \"contracts/Dex.sol\":8691:8717  traderBalances[msg.sender] */\n      0x00\n        /* \"contracts/Dex.sol\":8706:8716  msg.sender */\n      caller\n        /* \"contracts/Dex.sol\":8691:8717  traderBalances[msg.sender] */\n      0xffffffffffffffffffffffffffffffffffffffff\n      and\n      0xffffffffffffffffffffffffffffffffffffffff\n      and\n      dup2\n      mstore\n      0x20\n      add\n      swap1\n      dup2\n      mstore\n      0x20\n      add\n      0x00\n      keccak256\n        /* \"contracts/Dex.sol\":8691:8725  traderBalances[msg.sender][ticker] */\n      0x00\n        /* \"contracts/Dex.sol\":8718:8724  ticker */\n      dup13\n        /* \"contracts/Dex.sol\":8691:8725  traderBalances[msg.sender][ticker] */\n      dup2\n      mstore\n      0x20\n      add\n      swap1\n      dup2\n      mstore\n      0x20\n      add\n      0x00\n      keccak256\n        /* \"contracts/Dex.sol\":8691:8797  traderBalances[msg.sender][ticker] = traderBalances[msg.sender][ticker].\r... */\n      dup2\n      swap1\n      sstore\n      pop\n        /* \"contracts/Dex.sol\":8850:8937  traderBalances[msg.sender][DAI].\r... */\n      tag_164\n        /* \"contracts/Dex.sol\":8908:8936  matched.mul(orders[i].price) */\n      tag_165\n        /* \"contracts/Dex.sol\":8920:8926  orders */\n      dup7\n        /* \"contracts/Dex.sol\":8927:8928  i */\n      dup7\n        /* \"contracts/Dex.sol\":8920:8929  orders[i] */\n      dup2\n      sload\n      dup2\n      lt\n      tag_166\n      jumpi\n      mstore(0x00, 0x4e487b7100000000000000000000000000000000000000000000000000000000)\n      mstore(0x04, 0x32)\n      revert(0x00, 0x24)\n    tag_166:\n      swap1\n      0x00\n      mstore\n      keccak256(0x00, 0x20)\n      swap1\n      0x07\n      mul\n      add\n        /* \"contracts/Dex.sol\":8920:8935  orders[i].price */\n      0x05\n      add\n      sload\n        /* \"contracts/Dex.sol\":8908:8915  matched */\n      dup4\n        /* \"contracts/Dex.sol\":8908:8919  matched.mul */\n      tag_142\n      swap1\n        /* \"contracts/Dex.sol\":8908:8936  matched.mul(orders[i].price) */\n      swap2\n      swap1\n      0xffffffff\n      and\n      jump\t// in\n    tag_165:\n        /* \"contracts/Dex.sol\":8850:8864  traderBalances */\n      0x03\n        /* \"contracts/Dex.sol\":8850:8876  traderBalances[msg.sender] */\n      0x00\n        /* \"contracts/Dex.sol\":8865:8875  msg.sender */\n      caller\n        /* \"contracts/Dex.sol\":8850:8876  traderBalances[msg.sender] */\n      0xffffffffffffffffffffffffffffffffffffffff\n      and\n      0xffffffffffffffffffffffffffffffffffffffff\n      and\n      dup2\n      mstore\n      0x20\n      add\n      swap1\n      dup2\n      mstore\n      0x20\n      add\n      0x00\n      keccak256\n        /* \"contracts/Dex.sol\":8850:8881  traderBalances[msg.sender][DAI] */\n      0x00\n        /* \"contracts/Dex.sol\":619:633  bytes32(\"DAI\") */\n      0x4441490000000000000000000000000000000000000000000000000000000000\n        /* \"contracts/Dex.sol\":8850:8881  traderBalances[msg.sender][DAI] */\n      dup2\n      mstore\n      0x20\n      add\n      swap1\n      dup2\n      mstore\n      0x20\n      add\n      0x00\n      keccak256\n      sload\n        /* \"contracts/Dex.sol\":8850:8907  traderBalances[msg.sender][DAI].\r... */\n      tag_116\n      swap1\n        /* \"contracts/Dex.sol\":8850:8937  traderBalances[msg.sender][DAI].\r... */\n      swap2\n      swap1\n      0xffffffff\n      and\n      jump\t// in\n    tag_164:\n        /* \"contracts/Dex.sol\":8816:8830  traderBalances */\n      0x03\n        /* \"contracts/Dex.sol\":8816:8842  traderBalances[msg.sender] */\n      0x00\n        /* \"contracts/Dex.sol\":8831:8841  msg.sender */\n      caller\n        /* \"contracts/Dex.sol\":8816:8842  traderBalances[msg.sender] */\n      0xffffffffffffffffffffffffffffffffffffffff\n      and\n      0xffffffffffffffffffffffffffffffffffffffff\n      and\n      dup2\n      mstore\n      0x20\n      add\n      swap1\n      dup2\n      mstore\n      0x20\n      add\n      0x00\n      keccak256\n        /* \"contracts/Dex.sol\":8816:8847  traderBalances[msg.sender][DAI] */\n      0x00\n        /* \"contracts/Dex.sol\":619:633  bytes32(\"DAI\") */\n      0x4441490000000000000000000000000000000000000000000000000000000000\n        /* \"contracts/Dex.sol\":8816:8847  traderBalances[msg.sender][DAI] */\n      dup2\n      mstore\n      0x20\n      add\n      swap1\n      dup2\n      mstore\n      0x20\n      add\n      0x00\n      keccak256\n        /* \"contracts/Dex.sol\":8816:8937  traderBalances[msg.sender][DAI] = traderBalances[msg.sender][DAI].\r... */\n      dup2\n      swap1\n      sstore\n      pop\n        /* \"contracts/Dex.sol\":9037:9112  traderBalances[orders[i].trader][ticker].\r... */\n      tag_168\n        /* \"contracts/Dex.sol\":9104:9111  matched */\n      dup2\n        /* \"contracts/Dex.sol\":9037:9051  traderBalances */\n      0x03\n        /* \"contracts/Dex.sol\":9037:9069  traderBalances[orders[i].trader] */\n      0x00\n        /* \"contracts/Dex.sol\":9052:9058  orders */\n      dup9\n        /* \"contracts/Dex.sol\":9059:9060  i */\n      dup9\n        /* \"contracts/Dex.sol\":9052:9061  orders[i] */\n      dup2\n      sload\n      dup2\n      lt\n      tag_169\n      jumpi\n      mstore(0x00, 0x4e487b7100000000000000000000000000000000000000000000000000000000)\n      mstore(0x04, 0x32)\n      revert(0x00, 0x24)\n    tag_169:\n      swap1\n      0x00\n      mstore\n      keccak256(0x00, 0x20)\n      swap1\n      0x07\n      mul\n      add\n        /* \"contracts/Dex.sol\":9052:9068  orders[i].trader */\n      0x01\n      add\n      0x00\n      swap1\n      sload\n      swap1\n      0x0100\n      exp\n      swap1\n      div\n      0xffffffffffffffffffffffffffffffffffffffff\n      and\n        /* \"contracts/Dex.sol\":9037:9069  traderBalances[orders[i].trader] */\n      0xffffffffffffffffffffffffffffffffffffffff\n      and\n      0xffffffffffffffffffffffffffffffffffffffff\n      and\n      dup2\n      mstore\n      0x20\n      add\n      swap1\n      dup2\n      mstore\n      0x20\n      add\n      0x00\n      keccak256\n        /* \"contracts/Dex.sol\":9037:9077  traderBalances[orders[i].trader][ticker] */\n      0x00\n        /* \"contracts/Dex.sol\":9070:9076  ticker */\n      dup14\n        /* \"contracts/Dex.sol\":9037:9077  traderBalances[orders[i].trader][ticker] */\n      dup2\n      mstore\n      0x20\n      add\n      swap1\n      dup2\n      mstore\n      0x20\n      add\n      0x00\n      keccak256\n      sload\n        /* \"contracts/Dex.sol\":9037:9103  traderBalances[orders[i].trader][ticker].\r... */\n      tag_123\n      swap1\n        /* \"contracts/Dex.sol\":9037:9112  traderBalances[orders[i].trader][ticker].\r... */\n      swap2\n      swap1\n      0xffffffff\n      and\n      jump\t// in\n    tag_168:\n        /* \"contracts/Dex.sol\":8994:9008  traderBalances */\n      0x03\n        /* \"contracts/Dex.sol\":8994:9026  traderBalances[orders[i].trader] */\n      0x00\n        /* \"contracts/Dex.sol\":9009:9015  orders */\n      dup8\n        /* \"contracts/Dex.sol\":9016:9017  i */\n      dup8\n        /* \"contracts/Dex.sol\":9009:9018  orders[i] */\n      dup2\n      sload\n      dup2\n      lt\n      tag_171\n      jumpi\n      mstore(0x00, 0x4e487b7100000000000000000000000000000000000000000000000000000000)\n      mstore(0x04, 0x32)\n      revert(0x00, 0x24)\n    tag_171:\n      swap1\n      0x00\n      mstore\n      keccak256(0x00, 0x20)\n      swap1\n      0x07\n      mul\n      add\n        /* \"contracts/Dex.sol\":9009:9025  orders[i].trader */\n      0x01\n      add\n      0x00\n      swap1\n      sload\n      swap1\n      0x0100\n      exp\n      swap1\n      div\n      0xffffffffffffffffffffffffffffffffffffffff\n      and\n        /* \"contracts/Dex.sol\":8994:9026  traderBalances[orders[i].trader] */\n      0xffffffffffffffffffffffffffffffffffffffff\n      and\n      0xffffffffffffffffffffffffffffffffffffffff\n      and\n      dup2\n      mstore\n      0x20\n      add\n      swap1\n      dup2\n      mstore\n      0x20\n      add\n      0x00\n      keccak256\n        /* \"contracts/Dex.sol\":8994:9034  traderBalances[orders[i].trader][ticker] */\n      0x00\n        /* \"contracts/Dex.sol\":9027:9033  ticker */\n      dup13\n        /* \"contracts/Dex.sol\":8994:9034  traderBalances[orders[i].trader][ticker] */\n      dup2\n      mstore\n      0x20\n      add\n      swap1\n      dup2\n      mstore\n      0x20\n      add\n      0x00\n      keccak256\n        /* \"contracts/Dex.sol\":8994:9112  traderBalances[orders[i].trader][ticker] = traderBalances[orders[i].trader][ticker].\r... */\n      dup2\n      swap1\n      sstore\n      pop\n        /* \"contracts/Dex.sol\":9171:9264  traderBalances[orders[i].trader][DAI].\r... */\n      tag_173\n        /* \"contracts/Dex.sol\":9235:9263  matched.mul(orders[i].price) */\n      tag_174\n        /* \"contracts/Dex.sol\":9247:9253  orders */\n      dup7\n        /* \"contracts/Dex.sol\":9254:9255  i */\n      dup7\n        /* \"contracts/Dex.sol\":9247:9256  orders[i] */\n      dup2\n      sload\n      dup2\n      lt\n      tag_175\n      jumpi\n      mstore(0x00, 0x4e487b7100000000000000000000000000000000000000000000000000000000)\n      mstore(0x04, 0x32)\n      revert(0x00, 0x24)\n    tag_175:\n      swap1\n      0x00\n      mstore\n      keccak256(0x00, 0x20)\n      swap1\n      0x07\n      mul\n      add\n        /* \"contracts/Dex.sol\":9247:9262  orders[i].price */\n      0x05\n      add\n      sload\n        /* \"contracts/Dex.sol\":9235:9242  matched */\n      dup4\n        /* \"contracts/Dex.sol\":9235:9246  matched.mul */\n      tag_142\n      swap1\n        /* \"contracts/Dex.sol\":9235:9263  matched.mul(orders[i].price) */\n      swap2\n      swap1\n      0xffffffff\n      and\n      jump\t// in\n    tag_174:\n        /* \"contracts/Dex.sol\":9171:9185  traderBalances */\n      0x03\n        /* \"contracts/Dex.sol\":9171:9203  traderBalances[orders[i].trader] */\n      0x00\n        /* \"contracts/Dex.sol\":9186:9192  orders */\n      dup9\n        /* \"contracts/Dex.sol\":9193:9194  i */\n      dup9\n        /* \"contracts/Dex.sol\":9186:9195  orders[i] */\n      dup2\n      sload\n      dup2\n      lt\n      tag_177\n      jumpi\n      mstore(0x00, 0x4e487b7100000000000000000000000000000000000000000000000000000000)\n      mstore(0x04, 0x32)\n      revert(0x00, 0x24)\n    tag_177:\n      swap1\n      0x00\n      mstore\n      keccak256(0x00, 0x20)\n      swap1\n      0x07\n      mul\n      add\n        /* \"contracts/Dex.sol\":9186:9202  orders[i].trader */\n      0x01\n      add\n      0x00\n      swap1\n      sload\n      swap1\n      0x0100\n      exp\n      swap1\n      div\n      0xffffffffffffffffffffffffffffffffffffffff\n      and\n        /* \"contracts/Dex.sol\":9171:9203  traderBalances[orders[i].trader] */\n      0xffffffffffffffffffffffffffffffffffffffff\n      and\n      0xffffffffffffffffffffffffffffffffffffffff\n      and\n      dup2\n      mstore\n      0x20\n      add\n      swap1\n      dup2\n      mstore\n      0x20\n      add\n      0x00\n      keccak256\n        /* \"contracts/Dex.sol\":9171:9208  traderBalances[orders[i].trader][DAI] */\n      0x00\n        /* \"contracts/Dex.sol\":619:633  bytes32(\"DAI\") */\n      0x4441490000000000000000000000000000000000000000000000000000000000\n        /* \"contracts/Dex.sol\":9171:9208  traderBalances[orders[i].trader][DAI] */\n      dup2\n      mstore\n      0x20\n      add\n      swap1\n      dup2\n      mstore\n      0x20\n      add\n      0x00\n      keccak256\n      sload\n        /* \"contracts/Dex.sol\":9171:9234  traderBalances[orders[i].trader][DAI].\r... */\n      tag_116\n      swap1\n        /* \"contracts/Dex.sol\":9171:9264  traderBalances[orders[i].trader][DAI].\r... */\n      swap2\n      swap1\n      0xffffffff\n      and\n      jump\t// in\n    tag_173:\n        /* \"contracts/Dex.sol\":9131:9145  traderBalances */\n      0x03\n        /* \"contracts/Dex.sol\":9131:9163  traderBalances[orders[i].trader] */\n      0x00\n        /* \"contracts/Dex.sol\":9146:9152  orders */\n      dup8\n        /* \"contracts/Dex.sol\":9153:9154  i */\n      dup8\n        /* \"contracts/Dex.sol\":9146:9155  orders[i] */\n      dup2\n      sload\n      dup2\n      lt\n      tag_179\n      jumpi\n      mstore(0x00, 0x4e487b7100000000000000000000000000000000000000000000000000000000)\n      mstore(0x04, 0x32)\n      revert(0x00, 0x24)\n    tag_179:\n      swap1\n      0x00\n      mstore\n      keccak256(0x00, 0x20)\n      swap1\n      0x07\n      mul\n      add\n        /* \"contracts/Dex.sol\":9146:9162  orders[i].trader */\n      0x01\n      add\n      0x00\n      swap1\n      sload\n      swap1\n      0x0100\n      exp\n      swap1\n      div\n      0xffffffffffffffffffffffffffffffffffffffff\n      and\n        /* \"contracts/Dex.sol\":9131:9163  traderBalances[orders[i].trader] */\n      0xffffffffffffffffffffffffffffffffffffffff\n      and\n      0xffffffffffffffffffffffffffffffffffffffff\n      and\n      dup2\n      mstore\n      0x20\n      add\n      swap1\n      dup2\n      mstore\n      0x20\n      add\n      0x00\n      keccak256\n        /* \"contracts/Dex.sol\":9131:9168  traderBalances[orders[i].trader][DAI] */\n      0x00\n        /* \"contracts/Dex.sol\":619:633  bytes32(\"DAI\") */\n      0x4441490000000000000000000000000000000000000000000000000000000000\n        /* \"contracts/Dex.sol\":9131:9168  traderBalances[orders[i].trader][DAI] */\n      dup2\n      mstore\n      0x20\n      add\n      swap1\n      dup2\n      mstore\n      0x20\n      add\n      0x00\n      keccak256\n        /* \"contracts/Dex.sol\":9131:9264  traderBalances[orders[i].trader][DAI] = traderBalances[orders[i].trader][DAI].\r... */\n      dup2\n      swap1\n      sstore\n      pop\n        /* \"contracts/Dex.sol\":7802:9280  if (side == Side.SELL) {\r... */\n    tag_156:\n        /* \"contracts/Dex.sol\":9310:9328  nextTradeId.add(1) */\n      tag_181\n        /* \"contracts/Dex.sol\":9326:9327  1 */\n      0x01\n        /* \"contracts/Dex.sol\":9310:9321  nextTradeId */\n      sload(0x06)\n        /* \"contracts/Dex.sol\":9310:9325  nextTradeId.add */\n      tag_123\n      swap1\n        /* \"contracts/Dex.sol\":9310:9328  nextTradeId.add(1) */\n      swap2\n      swap1\n      0xffffffff\n      and\n      jump\t// in\n    tag_181:\n        /* \"contracts/Dex.sol\":9296:9307  nextTradeId */\n      0x06\n        /* \"contracts/Dex.sol\":9296:9328  nextTradeId = nextTradeId.add(1) */\n      dup2\n      swap1\n      sstore\n      pop\n        /* \"contracts/Dex.sol\":9347:9355  i.add(1) */\n      tag_182\n        /* \"contracts/Dex.sol\":9353:9354  1 */\n      0x01\n        /* \"contracts/Dex.sol\":9347:9348  i */\n      dup6\n        /* \"contracts/Dex.sol\":9347:9352  i.add */\n      tag_123\n      swap1\n        /* \"contracts/Dex.sol\":9347:9355  i.add(1) */\n      swap2\n      swap1\n      0xffffffff\n      and\n      jump\t// in\n    tag_182:\n        /* \"contracts/Dex.sol\":9343:9355  i = i.add(1) */\n      swap4\n      pop\n        /* \"contracts/Dex.sol\":6865:9367  while(i < orders.length && remaining > 0) {\r... */\n      pop\n      pop\n      jump(tag_108)\n    tag_109:\n        /* \"contracts/Dex.sol\":9648:9649  0 */\n      0x00\n        /* \"contracts/Dex.sol\":9644:9649  i = 0 */\n      swap2\n      pop\n        /* \"contracts/Dex.sol\":9660:9911  while (i < orders.length && orders[i].filled == orders[i].amount) {\r... */\n    tag_183:\n        /* \"contracts/Dex.sol\":9671:9677  orders */\n      dup3\n        /* \"contracts/Dex.sol\":9671:9684  orders.length */\n      dup1\n      sload\n      swap1\n      pop\n        /* \"contracts/Dex.sol\":9667:9668  i */\n      dup3\n        /* \"contracts/Dex.sol\":9667:9684  i < orders.length */\n      lt\n        /* \"contracts/Dex.sol\":9667:9724  i < orders.length && orders[i].filled == orders[i].amount */\n      dup1\n      iszero\n      tag_185\n      jumpi\n      pop\n        /* \"contracts/Dex.sol\":9708:9714  orders */\n      dup3\n        /* \"contracts/Dex.sol\":9715:9716  i */\n      dup3\n        /* \"contracts/Dex.sol\":9708:9717  orders[i] */\n      dup2\n      sload\n      dup2\n      lt\n      tag_186\n      jumpi\n      mstore(0x00, 0x4e487b7100000000000000000000000000000000000000000000000000000000)\n      mstore(0x04, 0x32)\n      revert(0x00, 0x24)\n    tag_186:\n      swap1\n      0x00\n      mstore\n      keccak256(0x00, 0x20)\n      swap1\n      0x07\n      mul\n      add\n        /* \"contracts/Dex.sol\":9708:9724  orders[i].amount */\n      0x03\n      add\n      sload\n        /* \"contracts/Dex.sol\":9688:9694  orders */\n      dup4\n        /* \"contracts/Dex.sol\":9695:9696  i */\n      dup4\n        /* \"contracts/Dex.sol\":9688:9697  orders[i] */\n      dup2\n      sload\n      dup2\n      lt\n      tag_188\n      jumpi\n      mstore(0x00, 0x4e487b7100000000000000000000000000000000000000000000000000000000)\n      mstore(0x04, 0x32)\n      revert(0x00, 0x24)\n    tag_188:\n      swap1\n      0x00\n      mstore\n      keccak256(0x00, 0x20)\n      swap1\n      0x07\n      mul\n      add\n        /* \"contracts/Dex.sol\":9688:9704  orders[i].filled */\n      0x04\n      add\n      sload\n        /* \"contracts/Dex.sol\":9688:9724  orders[i].filled == orders[i].amount */\n      eq\n        /* \"contracts/Dex.sol\":9667:9724  i < orders.length && orders[i].filled == orders[i].amount */\n    tag_185:\n        /* \"contracts/Dex.sol\":9660:9911  while (i < orders.length && orders[i].filled == orders[i].amount) {\r... */\n      iszero\n      tag_184\n      jumpi\n        /* \"contracts/Dex.sol\":9746:9752  uint j */\n      0x00\n        /* \"contracts/Dex.sol\":9755:9756  i */\n      dup3\n        /* \"contracts/Dex.sol\":9746:9756  uint j = i */\n      swap1\n      pop\n        /* \"contracts/Dex.sol\":9741:9846  for (uint j = i; j < orders.length - 1; j++) {\r... */\n    tag_190:\n        /* \"contracts/Dex.sol\":9778:9779  1 */\n      0x01\n        /* \"contracts/Dex.sol\":9762:9768  orders */\n      dup5\n        /* \"contracts/Dex.sol\":9762:9775  orders.length */\n      dup1\n      sload\n      swap1\n      pop\n        /* \"contracts/Dex.sol\":9762:9779  orders.length - 1 */\n      tag_193\n      swap2\n      swap1\n      tag_194\n      jump\t// in\n    tag_193:\n        /* \"contracts/Dex.sol\":9758:9759  j */\n      dup2\n        /* \"contracts/Dex.sol\":9758:9779  j < orders.length - 1 */\n      lt\n        /* \"contracts/Dex.sol\":9741:9846  for (uint j = i; j < orders.length - 1; j++) {\r... */\n      iszero\n      tag_191\n      jumpi\n        /* \"contracts/Dex.sol\":9817:9823  orders */\n      dup4\n        /* \"contracts/Dex.sol\":9828:9829  1 */\n      0x01\n        /* \"contracts/Dex.sol\":9824:9825  j */\n      dup3\n        /* \"contracts/Dex.sol\":9824:9829  j + 1 */\n      tag_195\n      swap2\n      swap1\n      tag_196\n      jump\t// in\n    tag_195:\n        /* \"contracts/Dex.sol\":9817:9830  orders[j + 1] */\n      dup2\n      sload\n      dup2\n      lt\n      tag_197\n      jumpi\n      mstore(0x00, 0x4e487b7100000000000000000000000000000000000000000000000000000000)\n      mstore(0x04, 0x32)\n      revert(0x00, 0x24)\n    tag_197:\n      swap1\n      0x00\n      mstore\n      keccak256(0x00, 0x20)\n      swap1\n      0x07\n      mul\n      add\n        /* \"contracts/Dex.sol\":9805:9811  orders */\n      dup5\n        /* \"contracts/Dex.sol\":9812:9813  j */\n      dup3\n        /* \"contracts/Dex.sol\":9805:9814  orders[j] */\n      dup2\n      sload\n      dup2\n      lt\n      tag_199\n      jumpi\n      mstore(0x00, 0x4e487b7100000000000000000000000000000000000000000000000000000000)\n      mstore(0x04, 0x32)\n      revert(0x00, 0x24)\n    tag_199:\n      swap1\n      0x00\n      mstore\n      keccak256(0x00, 0x20)\n      swap1\n      0x07\n      mul\n      add\n        /* \"contracts/Dex.sol\":9805:9830  orders[j] = orders[j + 1] */\n      0x00\n      dup3\n      add\n      sload\n      dup2\n      0x00\n      add\n      sstore\n      0x01\n      dup3\n      add\n      0x00\n      swap1\n      sload\n      swap1\n      0x0100\n      exp\n      swap1\n      div\n      0xffffffffffffffffffffffffffffffffffffffff\n      and\n      dup2\n      0x01\n      add\n      exp(0x0100, 0x00)\n      dup2\n      sload\n      dup2\n      0xffffffffffffffffffffffffffffffffffffffff\n      mul\n      not\n      and\n      swap1\n      dup4\n      0xffffffffffffffffffffffffffffffffffffffff\n      and\n      mul\n      or\n      swap1\n      sstore\n      pop\n      0x01\n      dup3\n      add\n      0x14\n      swap1\n      sload\n      swap1\n      0x0100\n      exp\n      swap1\n      div\n      0xff\n      and\n      dup2\n      0x01\n      add\n      exp(0x0100, 0x14)\n      dup2\n      sload\n      dup2\n      0xff\n      mul\n      not\n      and\n      swap1\n      dup4\n      0x01\n      dup2\n      gt\n      iszero\n      tag_201\n      jumpi\n      mstore(0x00, 0x4e487b7100000000000000000000000000000000000000000000000000000000)\n      mstore(0x04, 0x21)\n      revert(0x00, 0x24)\n    tag_201:\n      mul\n      or\n      swap1\n      sstore\n      pop\n      0x02\n      dup3\n      add\n      sload\n      dup2\n      0x02\n      add\n      sstore\n      0x03\n      dup3\n      add\n      sload\n      dup2\n      0x03\n      add\n      sstore\n      0x04\n      dup3\n      add\n      sload\n      dup2\n      0x04\n      add\n      sstore\n      0x05\n      dup3\n      add\n      sload\n      dup2\n      0x05\n      add\n      sstore\n      0x06\n      dup3\n      add\n      sload\n      dup2\n      0x06\n      add\n      sstore\n      swap1\n      pop\n      pop\n        /* \"contracts/Dex.sol\":9781:9784  j++ */\n      dup1\n      dup1\n      tag_202\n      swap1\n      tag_203\n      jump\t// in\n    tag_202:\n      swap2\n      pop\n      pop\n        /* \"contracts/Dex.sol\":9741:9846  for (uint j = i; j < orders.length - 1; j++) {\r... */\n      jump(tag_190)\n    tag_191:\n      pop\n        /* \"contracts/Dex.sol\":9860:9866  orders */\n      dup3\n        /* \"contracts/Dex.sol\":9860:9872  orders.pop() */\n      dup1\n      sload\n      dup1\n      tag_204\n      jumpi\n      mstore(0x00, 0x4e487b7100000000000000000000000000000000000000000000000000000000)\n      mstore(0x04, 0x31)\n      revert(0x00, 0x24)\n    tag_204:\n      0x01\n      swap1\n      sub\n      dup2\n      dup2\n      swap1\n      0x00\n      mstore\n      keccak256(0x00, 0x20)\n      swap1\n      0x07\n      mul\n      add\n      0x00\n      dup1\n      dup3\n      add\n      0x00\n      swap1\n      sstore\n      0x01\n      dup3\n      add\n      exp(0x0100, 0x00)\n      dup2\n      sload\n      swap1\n      0xffffffffffffffffffffffffffffffffffffffff\n      mul\n      not\n      and\n      swap1\n      sstore\n      0x01\n      dup3\n      add\n      exp(0x0100, 0x14)\n      dup2\n      sload\n      swap1\n      0xff\n      mul\n      not\n      and\n      swap1\n      sstore\n      0x02\n      dup3\n      add\n      0x00\n      swap1\n      sstore\n      0x03\n      dup3\n      add\n      0x00\n      swap1\n      sstore\n      0x04\n      dup3\n      add\n      0x00\n      swap1\n      sstore\n      0x05\n      dup3\n      add\n      0x00\n      swap1\n      sstore\n      0x06\n      dup3\n      add\n      0x00\n      swap1\n      sstore\n      pop\n      pop\n      swap1\n      sstore\n        /* \"contracts/Dex.sol\":9891:9899  i.add(1) */\n      tag_206\n        /* \"contracts/Dex.sol\":9897:9898  1 */\n      0x01\n        /* \"contracts/Dex.sol\":9891:9892  i */\n      dup4\n        /* \"contracts/Dex.sol\":9891:9896  i.add */\n      tag_123\n      swap1\n        /* \"contracts/Dex.sol\":9891:9899  i.add(1) */\n      swap2\n      swap1\n      0xffffffff\n      and\n      jump\t// in\n    tag_206:\n        /* \"contracts/Dex.sol\":9887:9899  i = i.add(1) */\n      swap2\n      pop\n        /* \"contracts/Dex.sol\":9660:9911  while (i < orders.length && orders[i].filled == orders[i].amount) {\r... */\n      jump(tag_183)\n    tag_184:\n        /* \"contracts/Dex.sol\":2410:2411  _ */\n      pop\n      pop\n      pop\n        /* \"contracts/Dex.sol\":2290:2291  _ */\n      pop\n        /* \"contracts/Dex.sol\":6099:9918  function createMarketOrder(bytes32 ticker, uint amount, Side side) tokenExist(ticker) tokenIsNotDAI(ticker) external {\r... */\n      pop\n      pop\n      pop\n      pop\n      jump\t// out\n        /* \"contracts/Dex.sol\":751:790  mapping(bytes32 => Token) public tokens */\n    tag_46:\n      mstore(0x20, 0x01)\n      dup1\n      0x00\n      mstore\n      keccak256(0x00, 0x40)\n      0x00\n      swap2\n      pop\n      swap1\n      pop\n      dup1\n      0x00\n      add\n      sload\n      swap1\n      dup1\n      0x01\n      add\n      0x00\n      swap1\n      sload\n      swap1\n      0x0100\n      exp\n      swap1\n      div\n      0xffffffffffffffffffffffffffffffffffffffff\n      and\n      swap1\n      pop\n      dup3\n      jump\t// out\n        /* \"contracts/Dex.sol\":2452:2625  function addToken(bytes32 ticker, address tokenAddress) onlyAdmin() external {\r... */\n    tag_52:\n        /* \"contracts/Dex.sol\":1983:1988  admin */\n      0x00\n      dup1\n      sload\n      swap1\n      0x0100\n      exp\n      swap1\n      div\n      0xffffffffffffffffffffffffffffffffffffffff\n      and\n        /* \"contracts/Dex.sol\":1969:1988  msg.sender == admin */\n      0xffffffffffffffffffffffffffffffffffffffff\n      and\n        /* \"contracts/Dex.sol\":1969:1979  msg.sender */\n      caller\n        /* \"contracts/Dex.sol\":1969:1988  msg.sender == admin */\n      0xffffffffffffffffffffffffffffffffffffffff\n      and\n      eq\n        /* \"contracts/Dex.sol\":1961:2003  require(msg.sender == admin, \"Only admin\") */\n      tag_208\n      jumpi\n      mload(0x40)\n      0x08c379a000000000000000000000000000000000000000000000000000000000\n      dup2\n      mstore\n      0x04\n      add\n      tag_209\n      swap1\n      tag_210\n      jump\t// in\n    tag_209:\n      mload(0x40)\n      dup1\n      swap2\n      sub\n      swap1\n      revert\n    tag_208:\n        /* \"contracts/Dex.sol\":2557:2584  Token(ticker, tokenAddress) */\n      mload(0x40)\n      dup1\n      0x40\n      add\n      0x40\n      mstore\n      dup1\n        /* \"contracts/Dex.sol\":2563:2569  ticker */\n      dup4\n        /* \"contracts/Dex.sol\":2557:2584  Token(ticker, tokenAddress) */\n      dup2\n      mstore\n      0x20\n      add\n        /* \"contracts/Dex.sol\":2571:2583  tokenAddress */\n      dup3\n        /* \"contracts/Dex.sol\":2557:2584  Token(ticker, tokenAddress) */\n      0xffffffffffffffffffffffffffffffffffffffff\n      and\n      dup2\n      mstore\n      pop\n        /* \"contracts/Dex.sol\":2540:2546  tokens */\n      0x01\n        /* \"contracts/Dex.sol\":2540:2554  tokens[ticker] */\n      0x00\n        /* \"contracts/Dex.sol\":2547:2553  ticker */\n      dup5\n        /* \"contracts/Dex.sol\":2540:2554  tokens[ticker] */\n      dup2\n      mstore\n      0x20\n      add\n      swap1\n      dup2\n      mstore\n      0x20\n      add\n      0x00\n      keccak256\n        /* \"contracts/Dex.sol\":2540:2584  tokens[ticker] = Token(ticker, tokenAddress) */\n      0x00\n      dup3\n      add\n      mload\n      dup2\n      0x00\n      add\n      sstore\n      0x20\n      dup3\n      add\n      mload\n      dup2\n      0x01\n      add\n      exp(0x0100, 0x00)\n      dup2\n      sload\n      dup2\n      0xffffffffffffffffffffffffffffffffffffffff\n      mul\n      not\n      and\n      swap1\n      dup4\n      0xffffffffffffffffffffffffffffffffffffffff\n      and\n      mul\n      or\n      swap1\n      sstore\n      pop\n      swap1\n      pop\n      pop\n        /* \"contracts/Dex.sol\":2595:2604  tokenList */\n      0x02\n        /* \"contracts/Dex.sol\":2610:2616  ticker */\n      dup3\n        /* \"contracts/Dex.sol\":2595:2617  tokenList.push(ticker) */\n      swap1\n      dup1\n      0x01\n      dup2\n      sload\n      add\n      dup1\n      dup3\n      sstore\n      dup1\n      swap2\n      pop\n      pop\n      0x01\n      swap1\n      sub\n      swap1\n      0x00\n      mstore\n      keccak256(0x00, 0x20)\n      add\n      0x00\n      swap1\n      swap2\n      swap1\n      swap2\n      swap1\n      swap2\n      pop\n      sstore\n        /* \"contracts/Dex.sol\":2452:2625  function addToken(bytes32 ticker, address tokenAddress) onlyAdmin() external {\r... */\n      pop\n      pop\n      jump\t// out\n        /* \"contracts/Dex.sol\":797:823  bytes32[] public tokenList */\n    tag_56:\n      0x02\n      dup2\n      dup2\n      sload\n      dup2\n      lt\n      tag_213\n      jumpi\n      0x00\n      dup1\n      revert\n    tag_213:\n      swap1\n      0x00\n      mstore\n      keccak256(0x00, 0x20)\n      add\n      0x00\n      swap2\n      pop\n      swap1\n      pop\n      sload\n      dup2\n      jump\t// out\n        /* \"contracts/Dex.sol\":3672:4064  function withdraw(uint amount, bytes32 ticker) tokenExist(ticker) external {\r... */\n    tag_62:\n        /* \"contracts/Dex.sol\":3730:3736  ticker */\n      dup1\n        /* \"contracts/Dex.sol\":2246:2247  0 */\n      0x00\n        /* \"contracts/Dex.sol\":2207:2248  tokens[ticker].tokenAddress != address(0) */\n      0xffffffffffffffffffffffffffffffffffffffff\n      and\n        /* \"contracts/Dex.sol\":2207:2213  tokens */\n      0x01\n        /* \"contracts/Dex.sol\":2207:2221  tokens[ticker] */\n      0x00\n        /* \"contracts/Dex.sol\":2214:2220  ticker */\n      dup4\n        /* \"contracts/Dex.sol\":2207:2221  tokens[ticker] */\n      dup2\n      mstore\n      0x20\n      add\n      swap1\n      dup2\n      mstore\n      0x20\n      add\n      0x00\n      keccak256\n        /* \"contracts/Dex.sol\":2207:2234  tokens[ticker].tokenAddress */\n      0x01\n      add\n      0x00\n      swap1\n      sload\n      swap1\n      0x0100\n      exp\n      swap1\n      div\n      0xffffffffffffffffffffffffffffffffffffffff\n      and\n        /* \"contracts/Dex.sol\":2207:2248  tokens[ticker].tokenAddress != address(0) */\n      0xffffffffffffffffffffffffffffffffffffffff\n      and\n      eq\n      iszero\n        /* \"contracts/Dex.sol\":2199:2278  require(tokens[ticker].tokenAddress != address(0), \"This token does not exist\") */\n      tag_216\n      jumpi\n      mload(0x40)\n      0x08c379a000000000000000000000000000000000000000000000000000000000\n      dup2\n      mstore\n      0x04\n      add\n      tag_217\n      swap1\n      tag_90\n      jump\t// in\n    tag_217:\n      mload(0x40)\n      dup1\n      swap2\n      sub\n      swap1\n      revert\n    tag_216:\n        /* \"contracts/Dex.sol\":3804:3810  amount */\n      dup3\n        /* \"contracts/Dex.sol\":3766:3780  traderBalances */\n      0x03\n        /* \"contracts/Dex.sol\":3766:3792  traderBalances[msg.sender] */\n      0x00\n        /* \"contracts/Dex.sol\":3781:3791  msg.sender */\n      caller\n        /* \"contracts/Dex.sol\":3766:3792  traderBalances[msg.sender] */\n      0xffffffffffffffffffffffffffffffffffffffff\n      and\n      0xffffffffffffffffffffffffffffffffffffffff\n      and\n      dup2\n      mstore\n      0x20\n      add\n      swap1\n      dup2\n      mstore\n      0x20\n      add\n      0x00\n      keccak256\n        /* \"contracts/Dex.sol\":3766:3800  traderBalances[msg.sender][ticker] */\n      0x00\n        /* \"contracts/Dex.sol\":3793:3799  ticker */\n      dup5\n        /* \"contracts/Dex.sol\":3766:3800  traderBalances[msg.sender][ticker] */\n      dup2\n      mstore\n      0x20\n      add\n      swap1\n      dup2\n      mstore\n      0x20\n      add\n      0x00\n      keccak256\n      sload\n        /* \"contracts/Dex.sol\":3766:3810  traderBalances[msg.sender][ticker] >= amount */\n      lt\n      iszero\n        /* \"contracts/Dex.sol\":3758:3830  require(traderBalances[msg.sender][ticker] >= amount, \"Balance too low\") */\n      tag_219\n      jumpi\n      mload(0x40)\n      0x08c379a000000000000000000000000000000000000000000000000000000000\n      dup2\n      mstore\n      0x04\n      add\n      tag_220\n      swap1\n      tag_221\n      jump\t// in\n    tag_220:\n      mload(0x40)\n      dup1\n      swap2\n      sub\n      swap1\n      revert\n    tag_219:\n        /* \"contracts/Dex.sol\":3935:3981  traderBalances[msg.sender][ticker].sub(amount) */\n      tag_222\n        /* \"contracts/Dex.sol\":3974:3980  amount */\n      dup4\n        /* \"contracts/Dex.sol\":3935:3949  traderBalances */\n      0x03\n        /* \"contracts/Dex.sol\":3935:3961  traderBalances[msg.sender] */\n      0x00\n        /* \"contracts/Dex.sol\":3950:3960  msg.sender */\n      caller\n        /* \"contracts/Dex.sol\":3935:3961  traderBalances[msg.sender] */\n      0xffffffffffffffffffffffffffffffffffffffff\n      and\n      0xffffffffffffffffffffffffffffffffffffffff\n      and\n      dup2\n      mstore\n      0x20\n      add\n      swap1\n      dup2\n      mstore\n      0x20\n      add\n      0x00\n      keccak256\n        /* \"contracts/Dex.sol\":3935:3969  traderBalances[msg.sender][ticker] */\n      0x00\n        /* \"contracts/Dex.sol\":3962:3968  ticker */\n      dup6\n        /* \"contracts/Dex.sol\":3935:3969  traderBalances[msg.sender][ticker] */\n      dup2\n      mstore\n      0x20\n      add\n      swap1\n      dup2\n      mstore\n      0x20\n      add\n      0x00\n      keccak256\n      sload\n        /* \"contracts/Dex.sol\":3935:3973  traderBalances[msg.sender][ticker].sub */\n      tag_116\n      swap1\n        /* \"contracts/Dex.sol\":3935:3981  traderBalances[msg.sender][ticker].sub(amount) */\n      swap2\n      swap1\n      0xffffffff\n      and\n      jump\t// in\n    tag_222:\n        /* \"contracts/Dex.sol\":3898:3912  traderBalances */\n      0x03\n        /* \"contracts/Dex.sol\":3898:3924  traderBalances[msg.sender] */\n      0x00\n        /* \"contracts/Dex.sol\":3913:3923  msg.sender */\n      caller\n        /* \"contracts/Dex.sol\":3898:3924  traderBalances[msg.sender] */\n      0xffffffffffffffffffffffffffffffffffffffff\n      and\n      0xffffffffffffffffffffffffffffffffffffffff\n      and\n      dup2\n      mstore\n      0x20\n      add\n      swap1\n      dup2\n      mstore\n      0x20\n      add\n      0x00\n      keccak256\n        /* \"contracts/Dex.sol\":3898:3932  traderBalances[msg.sender][ticker] */\n      0x00\n        /* \"contracts/Dex.sol\":3925:3931  ticker */\n      dup5\n        /* \"contracts/Dex.sol\":3898:3932  traderBalances[msg.sender][ticker] */\n      dup2\n      mstore\n      0x20\n      add\n      swap1\n      dup2\n      mstore\n      0x20\n      add\n      0x00\n      keccak256\n        /* \"contracts/Dex.sol\":3898:3981  traderBalances[msg.sender][ticker] = traderBalances[msg.sender][ticker].sub(amount) */\n      dup2\n      swap1\n      sstore\n      pop\n        /* \"contracts/Dex.sol\":3999:4005  tokens */\n      0x01\n        /* \"contracts/Dex.sol\":3999:4013  tokens[ticker] */\n      0x00\n        /* \"contracts/Dex.sol\":4006:4012  ticker */\n      dup4\n        /* \"contracts/Dex.sol\":3999:4013  tokens[ticker] */\n      dup2\n      mstore\n      0x20\n      add\n      swap1\n      dup2\n      mstore\n      0x20\n      add\n      0x00\n      keccak256\n        /* \"contracts/Dex.sol\":3999:4026  tokens[ticker].tokenAddress */\n      0x01\n      add\n      0x00\n      swap1\n      sload\n      swap1\n      0x0100\n      exp\n      swap1\n      div\n      0xffffffffffffffffffffffffffffffffffffffff\n      and\n        /* \"contracts/Dex.sol\":3992:4036  IERC20(tokens[ticker].tokenAddress).transfer */\n      0xffffffffffffffffffffffffffffffffffffffff\n      and\n      0xa9059cbb\n        /* \"contracts/Dex.sol\":4037:4047  msg.sender */\n      caller\n        /* \"contracts/Dex.sol\":4049:4055  amount */\n      dup6\n        /* \"contracts/Dex.sol\":3992:4056  IERC20(tokens[ticker].tokenAddress).transfer(msg.sender, amount) */\n      mload(0x40)\n      dup4\n      0xffffffff\n      and\n      0xe0\n      shl\n      dup2\n      mstore\n      0x04\n      add\n      tag_223\n      swap3\n      swap2\n      swap1\n      tag_224\n      jump\t// in\n    tag_223:\n      0x20\n      mload(0x40)\n      dup1\n      dup4\n      sub\n      dup2\n      0x00\n      dup8\n      dup1\n      extcodesize\n      iszero\n      dup1\n      iszero\n      tag_225\n      jumpi\n      0x00\n      dup1\n      revert\n    tag_225:\n      pop\n      gas\n      call\n      iszero\n      dup1\n      iszero\n      tag_227\n      jumpi\n      returndatasize\n      0x00\n      dup1\n      returndatacopy\n      revert(0x00, returndatasize)\n    tag_227:\n      pop\n      pop\n      pop\n      pop\n      mload(0x40)\n      returndatasize\n      not(0x1f)\n      0x1f\n      dup3\n      add\n      and\n      dup3\n      add\n      dup1\n      0x40\n      mstore\n      pop\n      dup2\n      add\n      swap1\n      tag_228\n      swap2\n      swap1\n      tag_229\n      jump\t// in\n    tag_228:\n      pop\n        /* \"contracts/Dex.sol\":3672:4064  function withdraw(uint amount, bytes32 ticker) tokenExist(ticker) external {\r... */\n      pop\n      pop\n      pop\n      jump\t// out\n        /* \"contracts/Dex.sol\":2633:3115  function getTokens() external view returns (Token[] memory) {\r... */\n    tag_64:\n        /* \"contracts/Dex.sol\":2677:2691  Token[] memory */\n      0x60\n        /* \"contracts/Dex.sol\":2704:2726  Token[] memory _tokens */\n      0x00\n        /* \"contracts/Dex.sol\":2741:2750  tokenList */\n      0x02\n        /* \"contracts/Dex.sol\":2741:2757  tokenList.length */\n      dup1\n      sload\n      swap1\n      pop\n        /* \"contracts/Dex.sol\":2729:2758  new Token[](tokenList.length) */\n      0xffffffffffffffff\n      dup2\n      gt\n      iszero\n      tag_231\n      jumpi\n      mstore(0x00, 0x4e487b7100000000000000000000000000000000000000000000000000000000)\n      mstore(0x04, 0x41)\n      revert(0x00, 0x24)\n    tag_231:\n      mload(0x40)\n      swap1\n      dup1\n      dup3\n      mstore\n      dup1\n      0x20\n      mul\n      0x20\n      add\n      dup3\n      add\n      0x40\n      mstore\n      dup1\n      iszero\n      tag_232\n      jumpi\n      dup2\n      0x20\n      add\n    tag_233:\n      tag_234\n      tag_235\n      jump\t// in\n    tag_234:\n      dup2\n      mstore\n      0x20\n      add\n      swap1\n      0x01\n      swap1\n      sub\n      swap1\n      dup2\n      tag_233\n      jumpi\n      swap1\n      pop\n    tag_232:\n      pop\n        /* \"contracts/Dex.sol\":2704:2758  Token[] memory _tokens = new Token[](tokenList.length) */\n      swap1\n      pop\n        /* \"contracts/Dex.sol\":2776:2782  uint i */\n      0x00\n        /* \"contracts/Dex.sol\":2771:3081  for (uint i = 0; i < tokenList.length; i++) {\r... */\n    tag_236:\n        /* \"contracts/Dex.sol\":2792:2801  tokenList */\n      0x02\n        /* \"contracts/Dex.sol\":2792:2808  tokenList.length */\n      dup1\n      sload\n      swap1\n      pop\n        /* \"contracts/Dex.sol\":2788:2789  i */\n      dup2\n        /* \"contracts/Dex.sol\":2788:2808  i < tokenList.length */\n      lt\n        /* \"contracts/Dex.sol\":2771:3081  for (uint i = 0; i < tokenList.length; i++) {\r... */\n      iszero\n      tag_237\n      jumpi\n        /* \"contracts/Dex.sol\":2951:3069  Token(\r... */\n      mload(0x40)\n      dup1\n      0x40\n      add\n      0x40\n      mstore\n      dup1\n        /* \"contracts/Dex.sol\":2975:2981  tokens */\n      0x01\n        /* \"contracts/Dex.sol\":2975:2995  tokens[tokenList[i]] */\n      0x00\n        /* \"contracts/Dex.sol\":2982:2991  tokenList */\n      0x02\n        /* \"contracts/Dex.sol\":2992:2993  i */\n      dup6\n        /* \"contracts/Dex.sol\":2982:2994  tokenList[i] */\n      dup2\n      sload\n      dup2\n      lt\n      tag_239\n      jumpi\n      mstore(0x00, 0x4e487b7100000000000000000000000000000000000000000000000000000000)\n      mstore(0x04, 0x32)\n      revert(0x00, 0x24)\n    tag_239:\n      swap1\n      0x00\n      mstore\n      keccak256(0x00, 0x20)\n      add\n      sload\n        /* \"contracts/Dex.sol\":2975:2995  tokens[tokenList[i]] */\n      dup2\n      mstore\n      0x20\n      add\n      swap1\n      dup2\n      mstore\n      0x20\n      add\n      0x00\n      keccak256\n        /* \"contracts/Dex.sol\":2975:3002  tokens[tokenList[i]].ticker */\n      0x00\n      add\n      sload\n        /* \"contracts/Dex.sol\":2951:3069  Token(\r... */\n      dup2\n      mstore\n      0x20\n      add\n        /* \"contracts/Dex.sol\":3021:3027  tokens */\n      0x01\n        /* \"contracts/Dex.sol\":3021:3041  tokens[tokenList[i]] */\n      0x00\n        /* \"contracts/Dex.sol\":3028:3037  tokenList */\n      0x02\n        /* \"contracts/Dex.sol\":3038:3039  i */\n      dup6\n        /* \"contracts/Dex.sol\":3028:3040  tokenList[i] */\n      dup2\n      sload\n      dup2\n      lt\n      tag_241\n      jumpi\n      mstore(0x00, 0x4e487b7100000000000000000000000000000000000000000000000000000000)\n      mstore(0x04, 0x32)\n      revert(0x00, 0x24)\n    tag_241:\n      swap1\n      0x00\n      mstore\n      keccak256(0x00, 0x20)\n      add\n      sload\n        /* \"contracts/Dex.sol\":3021:3041  tokens[tokenList[i]] */\n      dup2\n      mstore\n      0x20\n      add\n      swap1\n      dup2\n      mstore\n      0x20\n      add\n      0x00\n      keccak256\n        /* \"contracts/Dex.sol\":3021:3054  tokens[tokenList[i]].tokenAddress */\n      0x01\n      add\n      0x00\n      swap1\n      sload\n      swap1\n      0x0100\n      exp\n      swap1\n      div\n      0xffffffffffffffffffffffffffffffffffffffff\n      and\n        /* \"contracts/Dex.sol\":2951:3069  Token(\r... */\n      0xffffffffffffffffffffffffffffffffffffffff\n      and\n      dup2\n      mstore\n      pop\n        /* \"contracts/Dex.sol\":2938:2945  _tokens */\n      dup3\n        /* \"contracts/Dex.sol\":2946:2947  i */\n      dup3\n        /* \"contracts/Dex.sol\":2938:2948  _tokens[i] */\n      dup2\n      mload\n      dup2\n      lt\n      tag_243\n      jumpi\n      mstore(0x00, 0x4e487b7100000000000000000000000000000000000000000000000000000000)\n      mstore(0x04, 0x32)\n      revert(0x00, 0x24)\n    tag_243:\n      0x20\n      mul\n      0x20\n      add\n      add\n        /* \"contracts/Dex.sol\":2938:3069  _tokens[i] = Token(\r... */\n      dup2\n      swap1\n      mstore\n      pop\n        /* \"contracts/Dex.sol\":2810:2813  i++ */\n      dup1\n      dup1\n      tag_244\n      swap1\n      tag_203\n      jump\t// in\n    tag_244:\n      swap2\n      pop\n      pop\n        /* \"contracts/Dex.sol\":2771:3081  for (uint i = 0; i < tokenList.length; i++) {\r... */\n      jump(tag_236)\n    tag_237:\n      pop\n        /* \"contracts/Dex.sol\":3100:3107  _tokens */\n      dup1\n        /* \"contracts/Dex.sol\":3093:3107  return _tokens */\n      swap2\n      pop\n      pop\n        /* \"contracts/Dex.sol\":2633:3115  function getTokens() external view returns (Token[] memory) {\r... */\n      swap1\n      jump\t// out\n        /* \"contracts/Dex.sol\":3149:3664  function deposit(uint amount, bytes32 ticker) tokenExist(ticker) external {\r... */\n    tag_69:\n        /* \"contracts/Dex.sol\":3206:3212  ticker */\n      dup1\n        /* \"contracts/Dex.sol\":2246:2247  0 */\n      0x00\n        /* \"contracts/Dex.sol\":2207:2248  tokens[ticker].tokenAddress != address(0) */\n      0xffffffffffffffffffffffffffffffffffffffff\n      and\n        /* \"contracts/Dex.sol\":2207:2213  tokens */\n      0x01\n        /* \"contracts/Dex.sol\":2207:2221  tokens[ticker] */\n      0x00\n        /* \"contracts/Dex.sol\":2214:2220  ticker */\n      dup4\n        /* \"contracts/Dex.sol\":2207:2221  tokens[ticker] */\n      dup2\n      mstore\n      0x20\n      add\n      swap1\n      dup2\n      mstore\n      0x20\n      add\n      0x00\n      keccak256\n        /* \"contracts/Dex.sol\":2207:2234  tokens[ticker].tokenAddress */\n      0x01\n      add\n      0x00\n      swap1\n      sload\n      swap1\n      0x0100\n      exp\n      swap1\n      div\n      0xffffffffffffffffffffffffffffffffffffffff\n      and\n        /* \"contracts/Dex.sol\":2207:2248  tokens[ticker].tokenAddress != address(0) */\n      0xffffffffffffffffffffffffffffffffffffffff\n      and\n      eq\n      iszero\n        /* \"contracts/Dex.sol\":2199:2278  require(tokens[ticker].tokenAddress != address(0), \"This token does not exist\") */\n      tag_246\n      jumpi\n      mload(0x40)\n      0x08c379a000000000000000000000000000000000000000000000000000000000\n      dup2\n      mstore\n      0x04\n      add\n      tag_247\n      swap1\n      tag_90\n      jump\t// in\n    tag_247:\n      mload(0x40)\n      dup1\n      swap2\n      sub\n      swap1\n      revert\n    tag_246:\n        /* \"contracts/Dex.sol\":3429:3435  tokens */\n      0x01\n        /* \"contracts/Dex.sol\":3429:3443  tokens[ticker] */\n      0x00\n        /* \"contracts/Dex.sol\":3436:3442  ticker */\n      dup4\n        /* \"contracts/Dex.sol\":3429:3443  tokens[ticker] */\n      dup2\n      mstore\n      0x20\n      add\n      swap1\n      dup2\n      mstore\n      0x20\n      add\n      0x00\n      keccak256\n        /* \"contracts/Dex.sol\":3429:3456  tokens[ticker].tokenAddress */\n      0x01\n      add\n      0x00\n      swap1\n      sload\n      swap1\n      0x0100\n      exp\n      swap1\n      div\n      0xffffffffffffffffffffffffffffffffffffffff\n      and\n        /* \"contracts/Dex.sol\":3422:3470  IERC20(tokens[ticker].tokenAddress).transferFrom */\n      0xffffffffffffffffffffffffffffffffffffffff\n      and\n      0x23b872dd\n        /* \"contracts/Dex.sol\":3471:3481  msg.sender */\n      caller\n        /* \"contracts/Dex.sol\":3491:3495  this */\n      address\n        /* \"contracts/Dex.sol\":3498:3504  amount */\n      dup7\n        /* \"contracts/Dex.sol\":3422:3505  IERC20(tokens[ticker].tokenAddress).transferFrom(msg.sender, address(this), amount) */\n      mload(0x40)\n      dup5\n      0xffffffff\n      and\n      0xe0\n      shl\n      dup2\n      mstore\n      0x04\n      add\n      tag_249\n      swap4\n      swap3\n      swap2\n      swap1\n      tag_250\n      jump\t// in\n    tag_249:\n      0x20\n      mload(0x40)\n      dup1\n      dup4\n      sub\n      dup2\n      0x00\n      dup8\n      dup1\n      extcodesize\n      iszero\n      dup1\n      iszero\n      tag_251\n      jumpi\n      0x00\n      dup1\n      revert\n    tag_251:\n      pop\n      gas\n      call\n      iszero\n      dup1\n      iszero\n      tag_253\n      jumpi\n      returndatasize\n      0x00\n      dup1\n      returndatacopy\n      revert(0x00, returndatasize)\n    tag_253:\n      pop\n      pop\n      pop\n      pop\n      mload(0x40)\n      returndatasize\n      not(0x1f)\n      0x1f\n      dup3\n      add\n      and\n      dup3\n      add\n      dup1\n      0x40\n      mstore\n      pop\n      dup2\n      add\n      swap1\n      tag_254\n      swap2\n      swap1\n      tag_229\n      jump\t// in\n    tag_254:\n      pop\n        /* \"contracts/Dex.sol\":3610:3656  traderBalances[msg.sender][ticker].add(amount) */\n      tag_255\n        /* \"contracts/Dex.sol\":3649:3655  amount */\n      dup4\n        /* \"contracts/Dex.sol\":3610:3624  traderBalances */\n      0x03\n        /* \"contracts/Dex.sol\":3610:3636  traderBalances[msg.sender] */\n      0x00\n        /* \"contracts/Dex.sol\":3625:3635  msg.sender */\n      caller\n        /* \"contracts/Dex.sol\":3610:3636  traderBalances[msg.sender] */\n      0xffffffffffffffffffffffffffffffffffffffff\n      and\n      0xffffffffffffffffffffffffffffffffffffffff\n      and\n      dup2\n      mstore\n      0x20\n      add\n      swap1\n      dup2\n      mstore\n      0x20\n      add\n      0x00\n      keccak256\n        /* \"contracts/Dex.sol\":3610:3644  traderBalances[msg.sender][ticker] */\n      0x00\n        /* \"contracts/Dex.sol\":3637:3643  ticker */\n      dup6\n        /* \"contracts/Dex.sol\":3610:3644  traderBalances[msg.sender][ticker] */\n      dup2\n      mstore\n      0x20\n      add\n      swap1\n      dup2\n      mstore\n      0x20\n      add\n      0x00\n      keccak256\n      sload\n        /* \"contracts/Dex.sol\":3610:3648  traderBalances[msg.sender][ticker].add */\n      tag_123\n      swap1\n        /* \"contracts/Dex.sol\":3610:3656  traderBalances[msg.sender][ticker].add(amount) */\n      swap2\n      swap1\n      0xffffffff\n      and\n      jump\t// in\n    tag_255:\n        /* \"contracts/Dex.sol\":3573:3587  traderBalances */\n      0x03\n        /* \"contracts/Dex.sol\":3573:3599  traderBalances[msg.sender] */\n      0x00\n        /* \"contracts/Dex.sol\":3588:3598  msg.sender */\n      caller\n        /* \"contracts/Dex.sol\":3573:3599  traderBalances[msg.sender] */\n      0xffffffffffffffffffffffffffffffffffffffff\n      and\n      0xffffffffffffffffffffffffffffffffffffffff\n      and\n      dup2\n      mstore\n      0x20\n      add\n      swap1\n      dup2\n      mstore\n      0x20\n      add\n      0x00\n      keccak256\n        /* \"contracts/Dex.sol\":3573:3607  traderBalances[msg.sender][ticker] */\n      0x00\n        /* \"contracts/Dex.sol\":3600:3606  ticker */\n      dup5\n        /* \"contracts/Dex.sol\":3573:3607  traderBalances[msg.sender][ticker] */\n      dup2\n      mstore\n      0x20\n      add\n      swap1\n      dup2\n      mstore\n      0x20\n      add\n      0x00\n      keccak256\n        /* \"contracts/Dex.sol\":3573:3656  traderBalances[msg.sender][ticker] = traderBalances[msg.sender][ticker].add(amount) */\n      dup2\n      swap1\n      sstore\n      pop\n        /* \"contracts/Dex.sol\":3149:3664  function deposit(uint amount, bytes32 ticker) tokenExist(ticker) external {\r... */\n      pop\n      pop\n      pop\n      jump\t// out\n        /* \"contracts/Dex.sol\":4103:5911  function createLimitOrder(bytes32 ticker, uint amount, uint price, Side side) tokenExist(ticker) tokenIsNotDAI(ticker) external {\r... */\n    tag_73:\n        /* \"contracts/Dex.sol\":4192:4198  ticker */\n      dup4\n        /* \"contracts/Dex.sol\":2246:2247  0 */\n      0x00\n        /* \"contracts/Dex.sol\":2207:2248  tokens[ticker].tokenAddress != address(0) */\n      0xffffffffffffffffffffffffffffffffffffffff\n      and\n        /* \"contracts/Dex.sol\":2207:2213  tokens */\n      0x01\n        /* \"contracts/Dex.sol\":2207:2221  tokens[ticker] */\n      0x00\n        /* \"contracts/Dex.sol\":2214:2220  ticker */\n      dup4\n        /* \"contracts/Dex.sol\":2207:2221  tokens[ticker] */\n      dup2\n      mstore\n      0x20\n      add\n      swap1\n      dup2\n      mstore\n      0x20\n      add\n      0x00\n      keccak256\n        /* \"contracts/Dex.sol\":2207:2234  tokens[ticker].tokenAddress */\n      0x01\n      add\n      0x00\n      swap1\n      sload\n      swap1\n      0x0100\n      exp\n      swap1\n      div\n      0xffffffffffffffffffffffffffffffffffffffff\n      and\n        /* \"contracts/Dex.sol\":2207:2248  tokens[ticker].tokenAddress != address(0) */\n      0xffffffffffffffffffffffffffffffffffffffff\n      and\n      eq\n      iszero\n        /* \"contracts/Dex.sol\":2199:2278  require(tokens[ticker].tokenAddress != address(0), \"This token does not exist\") */\n      tag_257\n      jumpi\n      mload(0x40)\n      0x08c379a000000000000000000000000000000000000000000000000000000000\n      dup2\n      mstore\n      0x04\n      add\n      tag_258\n      swap1\n      tag_90\n      jump\t// in\n    tag_258:\n      mload(0x40)\n      dup1\n      swap2\n      sub\n      swap1\n      revert\n    tag_257:\n        /* \"contracts/Dex.sol\":4214:4220  ticker */\n      dup5\n        /* \"contracts/Dex.sol\":619:633  bytes32(\"DAI\") */\n      0x4441490000000000000000000000000000000000000000000000000000000000\n        /* \"contracts/Dex.sol\":2365:2371  ticker */\n      dup2\n        /* \"contracts/Dex.sol\":2365:2378  ticker != DAI */\n      eq\n      iszero\n        /* \"contracts/Dex.sol\":2357:2399  require(ticker != DAI, \"Cannot trade DAI\") */\n      tag_260\n      jumpi\n      mload(0x40)\n      0x08c379a000000000000000000000000000000000000000000000000000000000\n      dup2\n      mstore\n      0x04\n      add\n      tag_261\n      swap1\n      tag_94\n      jump\t// in\n    tag_261:\n      mload(0x40)\n      dup1\n      swap2\n      sub\n      swap1\n      revert\n    tag_260:\n        /* \"contracts/Dex.sol\":4379:4388  Side.SELL */\n      0x01\n        /* \"contracts/Dex.sol\":4371:4388  side == Side.SELL */\n      dup1\n      dup2\n      gt\n      iszero\n      tag_263\n      jumpi\n      mstore(0x00, 0x4e487b7100000000000000000000000000000000000000000000000000000000)\n      mstore(0x04, 0x21)\n      revert(0x00, 0x24)\n    tag_263:\n        /* \"contracts/Dex.sol\":4371:4375  side */\n      dup4\n        /* \"contracts/Dex.sol\":4371:4388  side == Side.SELL */\n      0x01\n      dup2\n      gt\n      iszero\n      tag_264\n      jumpi\n      mstore(0x00, 0x4e487b7100000000000000000000000000000000000000000000000000000000)\n      mstore(0x04, 0x21)\n      revert(0x00, 0x24)\n    tag_264:\n      eq\n        /* \"contracts/Dex.sol\":4367:4682  if (side == Side.SELL) {\r... */\n      iszero\n      tag_265\n      jumpi\n        /* \"contracts/Dex.sol\":4451:4457  amount */\n      dup5\n        /* \"contracts/Dex.sol\":4413:4427  traderBalances */\n      0x03\n        /* \"contracts/Dex.sol\":4413:4439  traderBalances[msg.sender] */\n      0x00\n        /* \"contracts/Dex.sol\":4428:4438  msg.sender */\n      caller\n        /* \"contracts/Dex.sol\":4413:4439  traderBalances[msg.sender] */\n      0xffffffffffffffffffffffffffffffffffffffff\n      and\n      0xffffffffffffffffffffffffffffffffffffffff\n      and\n      dup2\n      mstore\n      0x20\n      add\n      swap1\n      dup2\n      mstore\n      0x20\n      add\n      0x00\n      keccak256\n        /* \"contracts/Dex.sol\":4413:4447  traderBalances[msg.sender][ticker] */\n      0x00\n        /* \"contracts/Dex.sol\":4440:4446  ticker */\n      dup9\n        /* \"contracts/Dex.sol\":4413:4447  traderBalances[msg.sender][ticker] */\n      dup2\n      mstore\n      0x20\n      add\n      swap1\n      dup2\n      mstore\n      0x20\n      add\n      0x00\n      keccak256\n      sload\n        /* \"contracts/Dex.sol\":4413:4457  traderBalances[msg.sender][ticker] >= amount */\n      lt\n      iszero\n        /* \"contracts/Dex.sol\":4405:4483  require(traderBalances[msg.sender][ticker] >= amount, \"Token balance too low\") */\n      tag_266\n      jumpi\n      mload(0x40)\n      0x08c379a000000000000000000000000000000000000000000000000000000000\n      dup2\n      mstore\n      0x04\n      add\n      tag_267\n      swap1\n      tag_101\n      jump\t// in\n    tag_267:\n      mload(0x40)\n      dup1\n      swap2\n      sub\n      swap1\n      revert\n    tag_266:\n        /* \"contracts/Dex.sol\":4367:4682  if (side == Side.SELL) {\r... */\n      jump(tag_268)\n    tag_265:\n        /* \"contracts/Dex.sol\":4629:4646  amount.mul(price) */\n      tag_269\n        /* \"contracts/Dex.sol\":4640:4645  price */\n      dup5\n        /* \"contracts/Dex.sol\":4629:4635  amount */\n      dup7\n        /* \"contracts/Dex.sol\":4629:4639  amount.mul */\n      tag_142\n      swap1\n        /* \"contracts/Dex.sol\":4629:4646  amount.mul(price) */\n      swap2\n      swap1\n      0xffffffff\n      and\n      jump\t// in\n    tag_269:\n        /* \"contracts/Dex.sol\":4594:4608  traderBalances */\n      0x03\n        /* \"contracts/Dex.sol\":4594:4620  traderBalances[msg.sender] */\n      0x00\n        /* \"contracts/Dex.sol\":4609:4619  msg.sender */\n      caller\n        /* \"contracts/Dex.sol\":4594:4620  traderBalances[msg.sender] */\n      0xffffffffffffffffffffffffffffffffffffffff\n      and\n      0xffffffffffffffffffffffffffffffffffffffff\n      and\n      dup2\n      mstore\n      0x20\n      add\n      swap1\n      dup2\n      mstore\n      0x20\n      add\n      0x00\n      keccak256\n        /* \"contracts/Dex.sol\":4594:4625  traderBalances[msg.sender][DAI] */\n      0x00\n        /* \"contracts/Dex.sol\":619:633  bytes32(\"DAI\") */\n      0x4441490000000000000000000000000000000000000000000000000000000000\n        /* \"contracts/Dex.sol\":4594:4625  traderBalances[msg.sender][DAI] */\n      dup2\n      mstore\n      0x20\n      add\n      swap1\n      dup2\n      mstore\n      0x20\n      add\n      0x00\n      keccak256\n      sload\n        /* \"contracts/Dex.sol\":4594:4646  traderBalances[msg.sender][DAI] >= amount.mul(price) */\n      lt\n      iszero\n        /* \"contracts/Dex.sol\":4586:4670  require(traderBalances[msg.sender][DAI] >= amount.mul(price), \"DAI balance too low\") */\n      tag_270\n      jumpi\n      mload(0x40)\n      0x08c379a000000000000000000000000000000000000000000000000000000000\n      dup2\n      mstore\n      0x04\n      add\n      tag_271\n      swap1\n      tag_162\n      jump\t// in\n    tag_271:\n      mload(0x40)\n      dup1\n      swap2\n      sub\n      swap1\n      revert\n    tag_270:\n        /* \"contracts/Dex.sol\":4367:4682  if (side == Side.SELL) {\r... */\n    tag_268:\n        /* \"contracts/Dex.sol\":4694:4716  Order[] storage orders */\n      0x00\n        /* \"contracts/Dex.sol\":4719:4728  orderBook */\n      0x04\n        /* \"contracts/Dex.sol\":4719:4736  orderBook[ticker] */\n      0x00\n        /* \"contracts/Dex.sol\":4729:4735  ticker */\n      dup9\n        /* \"contracts/Dex.sol\":4719:4736  orderBook[ticker] */\n      dup2\n      mstore\n      0x20\n      add\n      swap1\n      dup2\n      mstore\n      0x20\n      add\n      0x00\n      keccak256\n        /* \"contracts/Dex.sol\":4719:4748  orderBook[ticker][uint(side)] */\n      0x00\n        /* \"contracts/Dex.sol\":4742:4746  side */\n      dup6\n        /* \"contracts/Dex.sol\":4737:4747  uint(side) */\n      0x01\n      dup2\n      gt\n      iszero\n      tag_272\n      jumpi\n      mstore(0x00, 0x4e487b7100000000000000000000000000000000000000000000000000000000)\n      mstore(0x04, 0x21)\n      revert(0x00, 0x24)\n    tag_272:\n        /* \"contracts/Dex.sol\":4719:4748  orderBook[ticker][uint(side)] */\n      dup2\n      mstore\n      0x20\n      add\n      swap1\n      dup2\n      mstore\n      0x20\n      add\n      0x00\n      keccak256\n        /* \"contracts/Dex.sol\":4694:4748  Order[] storage orders = orderBook[ticker][uint(side)] */\n      swap1\n      pop\n        /* \"contracts/Dex.sol\":4759:4765  orders */\n      dup1\n        /* \"contracts/Dex.sol\":4771:4965  Order(\r... */\n      mload(0x40)\n      dup1\n      0x0100\n      add\n      0x40\n      mstore\n      dup1\n        /* \"contracts/Dex.sol\":4791:4802  nextOrderId */\n      sload(0x05)\n        /* \"contracts/Dex.sol\":4771:4965  Order(\r... */\n      dup2\n      mstore\n      0x20\n      add\n        /* \"contracts/Dex.sol\":4817:4827  msg.sender */\n      caller\n        /* \"contracts/Dex.sol\":4771:4965  Order(\r... */\n      0xffffffffffffffffffffffffffffffffffffffff\n      and\n      dup2\n      mstore\n      0x20\n      add\n        /* \"contracts/Dex.sol\":4842:4846  side */\n      dup7\n        /* \"contracts/Dex.sol\":4771:4965  Order(\r... */\n      0x01\n      dup2\n      gt\n      iszero\n      tag_273\n      jumpi\n      mstore(0x00, 0x4e487b7100000000000000000000000000000000000000000000000000000000)\n      mstore(0x04, 0x21)\n      revert(0x00, 0x24)\n    tag_273:\n      dup2\n      mstore\n      0x20\n      add\n        /* \"contracts/Dex.sol\":4861:4867  ticker */\n      dup10\n        /* \"contracts/Dex.sol\":4771:4965  Order(\r... */\n      dup2\n      mstore\n      0x20\n      add\n        /* \"contracts/Dex.sol\":4882:4888  amount */\n      dup9\n        /* \"contracts/Dex.sol\":4771:4965  Order(\r... */\n      dup2\n      mstore\n      0x20\n      add\n        /* \"contracts/Dex.sol\":4903:4904  0 */\n      0x00\n        /* \"contracts/Dex.sol\":4771:4965  Order(\r... */\n      dup2\n      mstore\n      0x20\n      add\n        /* \"contracts/Dex.sol\":4919:4924  price */\n      dup8\n        /* \"contracts/Dex.sol\":4771:4965  Order(\r... */\n      dup2\n      mstore\n      0x20\n      add\n        /* \"contracts/Dex.sol\":4939:4954  block.timestamp */\n      timestamp\n        /* \"contracts/Dex.sol\":4771:4965  Order(\r... */\n      dup2\n      mstore\n      pop\n        /* \"contracts/Dex.sol\":4759:4966  orders.push(Order(\r... */\n      swap1\n      dup1\n      0x01\n      dup2\n      sload\n      add\n      dup1\n      dup3\n      sstore\n      dup1\n      swap2\n      pop\n      pop\n      0x01\n      swap1\n      sub\n      swap1\n      0x00\n      mstore\n      keccak256(0x00, 0x20)\n      swap1\n      0x07\n      mul\n      add\n      0x00\n      swap1\n      swap2\n      swap1\n      swap2\n      swap1\n      swap2\n      pop\n      0x00\n      dup3\n      add\n      mload\n      dup2\n      0x00\n      add\n      sstore\n      0x20\n      dup3\n      add\n      mload\n      dup2\n      0x01\n      add\n      exp(0x0100, 0x00)\n      dup2\n      sload\n      dup2\n      0xffffffffffffffffffffffffffffffffffffffff\n      mul\n      not\n      and\n      swap1\n      dup4\n      0xffffffffffffffffffffffffffffffffffffffff\n      and\n      mul\n      or\n      swap1\n      sstore\n      pop\n      0x40\n      dup3\n      add\n      mload\n      dup2\n      0x01\n      add\n      exp(0x0100, 0x14)\n      dup2\n      sload\n      dup2\n      0xff\n      mul\n      not\n      and\n      swap1\n      dup4\n      0x01\n      dup2\n      gt\n      iszero\n      tag_275\n      jumpi\n      mstore(0x00, 0x4e487b7100000000000000000000000000000000000000000000000000000000)\n      mstore(0x04, 0x21)\n      revert(0x00, 0x24)\n    tag_275:\n      mul\n      or\n      swap1\n      sstore\n      pop\n      0x60\n      dup3\n      add\n      mload\n      dup2\n      0x02\n      add\n      sstore\n      0x80\n      dup3\n      add\n      mload\n      dup2\n      0x03\n      add\n      sstore\n      0xa0\n      dup3\n      add\n      mload\n      dup2\n      0x04\n      add\n      sstore\n      0xc0\n      dup3\n      add\n      mload\n      dup2\n      0x05\n      add\n      sstore\n      0xe0\n      dup3\n      add\n      mload\n      dup2\n      0x06\n      add\n      sstore\n      pop\n      pop\n        /* \"contracts/Dex.sol\":5052:5058  uint i */\n      0x00\n        /* \"contracts/Dex.sol\":5077:5078  0 */\n      dup1\n        /* \"contracts/Dex.sol\":5061:5067  orders */\n      dup3\n        /* \"contracts/Dex.sol\":5061:5074  orders.length */\n      dup1\n      sload\n      swap1\n      pop\n        /* \"contracts/Dex.sol\":5061:5078  orders.length > 0 */\n      gt\n        /* \"contracts/Dex.sol\":5061:5102  orders.length > 0 ? orders.length - 1 : 0 */\n      tag_276\n      jumpi\n        /* \"contracts/Dex.sol\":5101:5102  0 */\n      0x00\n        /* \"contracts/Dex.sol\":5061:5102  orders.length > 0 ? orders.length - 1 : 0 */\n      jump(tag_277)\n    tag_276:\n        /* \"contracts/Dex.sol\":5097:5098  1 */\n      0x01\n        /* \"contracts/Dex.sol\":5081:5087  orders */\n      dup3\n        /* \"contracts/Dex.sol\":5081:5094  orders.length */\n      dup1\n      sload\n      swap1\n      pop\n        /* \"contracts/Dex.sol\":5081:5098  orders.length - 1 */\n      tag_278\n      swap2\n      swap1\n      tag_194\n      jump\t// in\n    tag_278:\n        /* \"contracts/Dex.sol\":5061:5102  orders.length > 0 ? orders.length - 1 : 0 */\n    tag_277:\n        /* \"contracts/Dex.sol\":5052:5102  uint i = orders.length > 0 ? orders.length - 1 : 0 */\n      swap1\n      pop\n        /* \"contracts/Dex.sol\":5113:5804  while(i > 0) {\r... */\n    tag_279:\n        /* \"contracts/Dex.sol\":5123:5124  0 */\n      0x00\n        /* \"contracts/Dex.sol\":5119:5120  i */\n      dup2\n        /* \"contracts/Dex.sol\":5119:5124  i > 0 */\n      gt\n        /* \"contracts/Dex.sol\":5113:5804  while(i > 0) {\r... */\n      iszero\n      tag_280\n      jumpi\n        /* \"contracts/Dex.sol\":5153:5161  Side.BUY */\n      0x00\n        /* \"contracts/Dex.sol\":5145:5161  side == Side.BUY */\n      0x01\n      dup2\n      gt\n      iszero\n      tag_281\n      jumpi\n      mstore(0x00, 0x4e487b7100000000000000000000000000000000000000000000000000000000)\n      mstore(0x04, 0x21)\n      revert(0x00, 0x24)\n    tag_281:\n        /* \"contracts/Dex.sol\":5145:5149  side */\n      dup6\n        /* \"contracts/Dex.sol\":5145:5161  side == Side.BUY */\n      0x01\n      dup2\n      gt\n      iszero\n      tag_282\n      jumpi\n      mstore(0x00, 0x4e487b7100000000000000000000000000000000000000000000000000000000)\n      mstore(0x04, 0x21)\n      revert(0x00, 0x24)\n    tag_282:\n      eq\n        /* \"contracts/Dex.sol\":5145:5202  side == Side.BUY && orders[i - 1].price > orders[i].price */\n      dup1\n      iszero\n      tag_283\n      jumpi\n      pop\n        /* \"contracts/Dex.sol\":5187:5193  orders */\n      dup2\n        /* \"contracts/Dex.sol\":5194:5195  i */\n      dup2\n        /* \"contracts/Dex.sol\":5187:5196  orders[i] */\n      dup2\n      sload\n      dup2\n      lt\n      tag_284\n      jumpi\n      mstore(0x00, 0x4e487b7100000000000000000000000000000000000000000000000000000000)\n      mstore(0x04, 0x32)\n      revert(0x00, 0x24)\n    tag_284:\n      swap1\n      0x00\n      mstore\n      keccak256(0x00, 0x20)\n      swap1\n      0x07\n      mul\n      add\n        /* \"contracts/Dex.sol\":5187:5202  orders[i].price */\n      0x05\n      add\n      sload\n        /* \"contracts/Dex.sol\":5165:5171  orders */\n      dup3\n        /* \"contracts/Dex.sol\":5176:5177  1 */\n      0x01\n        /* \"contracts/Dex.sol\":5172:5173  i */\n      dup4\n        /* \"contracts/Dex.sol\":5172:5177  i - 1 */\n      tag_286\n      swap2\n      swap1\n      tag_194\n      jump\t// in\n    tag_286:\n        /* \"contracts/Dex.sol\":5165:5178  orders[i - 1] */\n      dup2\n      sload\n      dup2\n      lt\n      tag_287\n      jumpi\n      mstore(0x00, 0x4e487b7100000000000000000000000000000000000000000000000000000000)\n      mstore(0x04, 0x32)\n      revert(0x00, 0x24)\n    tag_287:\n      swap1\n      0x00\n      mstore\n      keccak256(0x00, 0x20)\n      swap1\n      0x07\n      mul\n      add\n        /* \"contracts/Dex.sol\":5165:5184  orders[i - 1].price */\n      0x05\n      add\n      sload\n        /* \"contracts/Dex.sol\":5165:5202  orders[i - 1].price > orders[i].price */\n      gt\n        /* \"contracts/Dex.sol\":5145:5202  side == Side.BUY && orders[i - 1].price > orders[i].price */\n    tag_283:\n        /* \"contracts/Dex.sol\":5141:5309  if (side == Side.BUY && orders[i - 1].price > orders[i].price) { // For the sell orders we have to order from lower to lowe price\r... */\n      iszero\n      tag_289\n      jumpi\n        /* \"contracts/Dex.sol\":5288:5293  break */\n      jump(tag_280)\n        /* \"contracts/Dex.sol\":5141:5309  if (side == Side.BUY && orders[i - 1].price > orders[i].price) { // For the sell orders we have to order from lower to lowe price\r... */\n    tag_289:\n        /* \"contracts/Dex.sol\":5335:5344  Side.SELL */\n      0x01\n        /* \"contracts/Dex.sol\":5327:5344  side == Side.SELL */\n      dup1\n      dup2\n      gt\n      iszero\n      tag_290\n      jumpi\n      mstore(0x00, 0x4e487b7100000000000000000000000000000000000000000000000000000000)\n      mstore(0x04, 0x21)\n      revert(0x00, 0x24)\n    tag_290:\n        /* \"contracts/Dex.sol\":5327:5331  side */\n      dup6\n        /* \"contracts/Dex.sol\":5327:5344  side == Side.SELL */\n      0x01\n      dup2\n      gt\n      iszero\n      tag_291\n      jumpi\n      mstore(0x00, 0x4e487b7100000000000000000000000000000000000000000000000000000000)\n      mstore(0x04, 0x21)\n      revert(0x00, 0x24)\n    tag_291:\n      eq\n        /* \"contracts/Dex.sol\":5327:5385  side == Side.SELL && orders[i - 1].price < orders[i].price */\n      dup1\n      iszero\n      tag_292\n      jumpi\n      pop\n        /* \"contracts/Dex.sol\":5370:5376  orders */\n      dup2\n        /* \"contracts/Dex.sol\":5377:5378  i */\n      dup2\n        /* \"contracts/Dex.sol\":5370:5379  orders[i] */\n      dup2\n      sload\n      dup2\n      lt\n      tag_293\n      jumpi\n      mstore(0x00, 0x4e487b7100000000000000000000000000000000000000000000000000000000)\n      mstore(0x04, 0x32)\n      revert(0x00, 0x24)\n    tag_293:\n      swap1\n      0x00\n      mstore\n      keccak256(0x00, 0x20)\n      swap1\n      0x07\n      mul\n      add\n        /* \"contracts/Dex.sol\":5370:5385  orders[i].price */\n      0x05\n      add\n      sload\n        /* \"contracts/Dex.sol\":5348:5354  orders */\n      dup3\n        /* \"contracts/Dex.sol\":5359:5360  1 */\n      0x01\n        /* \"contracts/Dex.sol\":5355:5356  i */\n      dup4\n        /* \"contracts/Dex.sol\":5355:5360  i - 1 */\n      tag_295\n      swap2\n      swap1\n      tag_194\n      jump\t// in\n    tag_295:\n        /* \"contracts/Dex.sol\":5348:5361  orders[i - 1] */\n      dup2\n      sload\n      dup2\n      lt\n      tag_296\n      jumpi\n      mstore(0x00, 0x4e487b7100000000000000000000000000000000000000000000000000000000)\n      mstore(0x04, 0x32)\n      revert(0x00, 0x24)\n    tag_296:\n      swap1\n      0x00\n      mstore\n      keccak256(0x00, 0x20)\n      swap1\n      0x07\n      mul\n      add\n        /* \"contracts/Dex.sol\":5348:5367  orders[i - 1].price */\n      0x05\n      add\n      sload\n        /* \"contracts/Dex.sol\":5348:5385  orders[i - 1].price < orders[i].price */\n      lt\n        /* \"contracts/Dex.sol\":5327:5385  side == Side.SELL && orders[i - 1].price < orders[i].price */\n    tag_292:\n        /* \"contracts/Dex.sol\":5323:5492  if (side == Side.SELL && orders[i - 1].price < orders[i].price) { // For the sell orders we have to order from lower to lowe price\r... */\n      iszero\n      tag_298\n      jumpi\n        /* \"contracts/Dex.sol\":5471:5476  break */\n      jump(tag_280)\n        /* \"contracts/Dex.sol\":5323:5492  if (side == Side.SELL && orders[i - 1].price < orders[i].price) { // For the sell orders we have to order from lower to lowe price\r... */\n    tag_298:\n        /* \"contracts/Dex.sol\":5543:5561  Order memory order */\n      0x00\n        /* \"contracts/Dex.sol\":5564:5570  orders */\n      dup3\n        /* \"contracts/Dex.sol\":5575:5576  1 */\n      0x01\n        /* \"contracts/Dex.sol\":5571:5572  i */\n      dup4\n        /* \"contracts/Dex.sol\":5571:5576  i - 1 */\n      tag_299\n      swap2\n      swap1\n      tag_194\n      jump\t// in\n    tag_299:\n        /* \"contracts/Dex.sol\":5564:5577  orders[i - 1] */\n      dup2\n      sload\n      dup2\n      lt\n      tag_300\n      jumpi\n      mstore(0x00, 0x4e487b7100000000000000000000000000000000000000000000000000000000)\n      mstore(0x04, 0x32)\n      revert(0x00, 0x24)\n    tag_300:\n      swap1\n      0x00\n      mstore\n      keccak256(0x00, 0x20)\n      swap1\n      0x07\n      mul\n      add\n        /* \"contracts/Dex.sol\":5543:5577  Order memory order = orders[i - 1] */\n      mload(0x40)\n      dup1\n      0x0100\n      add\n      0x40\n      mstore\n      swap1\n      dup2\n      0x00\n      dup3\n      add\n      sload\n      dup2\n      mstore\n      0x20\n      add\n      0x01\n      dup3\n      add\n      0x00\n      swap1\n      sload\n      swap1\n      0x0100\n      exp\n      swap1\n      div\n      0xffffffffffffffffffffffffffffffffffffffff\n      and\n      0xffffffffffffffffffffffffffffffffffffffff\n      and\n      0xffffffffffffffffffffffffffffffffffffffff\n      and\n      dup2\n      mstore\n      0x20\n      add\n      0x01\n      dup3\n      add\n      0x14\n      swap1\n      sload\n      swap1\n      0x0100\n      exp\n      swap1\n      div\n      0xff\n      and\n      0x01\n      dup2\n      gt\n      iszero\n      tag_302\n      jumpi\n      mstore(0x00, 0x4e487b7100000000000000000000000000000000000000000000000000000000)\n      mstore(0x04, 0x21)\n      revert(0x00, 0x24)\n    tag_302:\n      0x01\n      dup2\n      gt\n      iszero\n      tag_303\n      jumpi\n      mstore(0x00, 0x4e487b7100000000000000000000000000000000000000000000000000000000)\n      mstore(0x04, 0x21)\n      revert(0x00, 0x24)\n    tag_303:\n      dup2\n      mstore\n      0x20\n      add\n      0x02\n      dup3\n      add\n      sload\n      dup2\n      mstore\n      0x20\n      add\n      0x03\n      dup3\n      add\n      sload\n      dup2\n      mstore\n      0x20\n      add\n      0x04\n      dup3\n      add\n      sload\n      dup2\n      mstore\n      0x20\n      add\n      0x05\n      dup3\n      add\n      sload\n      dup2\n      mstore\n      0x20\n      add\n      0x06\n      dup3\n      add\n      sload\n      dup2\n      mstore\n      pop\n      pop\n      swap1\n      pop\n        /* \"contracts/Dex.sol\":5608:5614  orders */\n      dup3\n        /* \"contracts/Dex.sol\":5615:5616  i */\n      dup3\n        /* \"contracts/Dex.sol\":5608:5617  orders[i] */\n      dup2\n      sload\n      dup2\n      lt\n      tag_304\n      jumpi\n      mstore(0x00, 0x4e487b7100000000000000000000000000000000000000000000000000000000)\n      mstore(0x04, 0x32)\n      revert(0x00, 0x24)\n    tag_304:\n      swap1\n      0x00\n      mstore\n      keccak256(0x00, 0x20)\n      swap1\n      0x07\n      mul\n      add\n        /* \"contracts/Dex.sol\":5592:5598  orders */\n      dup4\n        /* \"contracts/Dex.sol\":5603:5604  1 */\n      0x01\n        /* \"contracts/Dex.sol\":5599:5600  i */\n      dup5\n        /* \"contracts/Dex.sol\":5599:5604  i - 1 */\n      tag_306\n      swap2\n      swap1\n      tag_194\n      jump\t// in\n    tag_306:\n        /* \"contracts/Dex.sol\":5592:5605  orders[i - 1] */\n      dup2\n      sload\n      dup2\n      lt\n      tag_307\n      jumpi\n      mstore(0x00, 0x4e487b7100000000000000000000000000000000000000000000000000000000)\n      mstore(0x04, 0x32)\n      revert(0x00, 0x24)\n    tag_307:\n      swap1\n      0x00\n      mstore\n      keccak256(0x00, 0x20)\n      swap1\n      0x07\n      mul\n      add\n        /* \"contracts/Dex.sol\":5592:5617  orders[i - 1] = orders[i] */\n      0x00\n      dup3\n      add\n      sload\n      dup2\n      0x00\n      add\n      sstore\n      0x01\n      dup3\n      add\n      0x00\n      swap1\n      sload\n      swap1\n      0x0100\n      exp\n      swap1\n      div\n      0xffffffffffffffffffffffffffffffffffffffff\n      and\n      dup2\n      0x01\n      add\n      exp(0x0100, 0x00)\n      dup2\n      sload\n      dup2\n      0xffffffffffffffffffffffffffffffffffffffff\n      mul\n      not\n      and\n      swap1\n      dup4\n      0xffffffffffffffffffffffffffffffffffffffff\n      and\n      mul\n      or\n      swap1\n      sstore\n      pop\n      0x01\n      dup3\n      add\n      0x14\n      swap1\n      sload\n      swap1\n      0x0100\n      exp\n      swap1\n      div\n      0xff\n      and\n      dup2\n      0x01\n      add\n      exp(0x0100, 0x14)\n      dup2\n      sload\n      dup2\n      0xff\n      mul\n      not\n      and\n      swap1\n      dup4\n      0x01\n      dup2\n      gt\n      iszero\n      tag_309\n      jumpi\n      mstore(0x00, 0x4e487b7100000000000000000000000000000000000000000000000000000000)\n      mstore(0x04, 0x21)\n      revert(0x00, 0x24)\n    tag_309:\n      mul\n      or\n      swap1\n      sstore\n      pop\n      0x02\n      dup3\n      add\n      sload\n      dup2\n      0x02\n      add\n      sstore\n      0x03\n      dup3\n      add\n      sload\n      dup2\n      0x03\n      add\n      sstore\n      0x04\n      dup3\n      add\n      sload\n      dup2\n      0x04\n      add\n      sstore\n      0x05\n      dup3\n      add\n      sload\n      dup2\n      0x05\n      add\n      sstore\n      0x06\n      dup3\n      add\n      sload\n      dup2\n      0x06\n      add\n      sstore\n      swap1\n      pop\n      pop\n        /* \"contracts/Dex.sol\":5644:5649  order */\n      dup1\n        /* \"contracts/Dex.sol\":5632:5638  orders */\n      dup4\n        /* \"contracts/Dex.sol\":5639:5640  i */\n      dup4\n        /* \"contracts/Dex.sol\":5632:5641  orders[i] */\n      dup2\n      sload\n      dup2\n      lt\n      tag_310\n      jumpi\n      mstore(0x00, 0x4e487b7100000000000000000000000000000000000000000000000000000000)\n      mstore(0x04, 0x32)\n      revert(0x00, 0x24)\n    tag_310:\n      swap1\n      0x00\n      mstore\n      keccak256(0x00, 0x20)\n      swap1\n      0x07\n      mul\n      add\n        /* \"contracts/Dex.sol\":5632:5649  orders[i] = order */\n      0x00\n      dup3\n      add\n      mload\n      dup2\n      0x00\n      add\n      sstore\n      0x20\n      dup3\n      add\n      mload\n      dup2\n      0x01\n      add\n      exp(0x0100, 0x00)\n      dup2\n      sload\n      dup2\n      0xffffffffffffffffffffffffffffffffffffffff\n      mul\n      not\n      and\n      swap1\n      dup4\n      0xffffffffffffffffffffffffffffffffffffffff\n      and\n      mul\n      or\n      swap1\n      sstore\n      pop\n      0x40\n      dup3\n      add\n      mload\n      dup2\n      0x01\n      add\n      exp(0x0100, 0x14)\n      dup2\n      sload\n      dup2\n      0xff\n      mul\n      not\n      and\n      swap1\n      dup4\n      0x01\n      dup2\n      gt\n      iszero\n      tag_312\n      jumpi\n      mstore(0x00, 0x4e487b7100000000000000000000000000000000000000000000000000000000)\n      mstore(0x04, 0x21)\n      revert(0x00, 0x24)\n    tag_312:\n      mul\n      or\n      swap1\n      sstore\n      pop\n      0x60\n      dup3\n      add\n      mload\n      dup2\n      0x02\n      add\n      sstore\n      0x80\n      dup3\n      add\n      mload\n      dup2\n      0x03\n      add\n      sstore\n      0xa0\n      dup3\n      add\n      mload\n      dup2\n      0x04\n      add\n      sstore\n      0xc0\n      dup3\n      add\n      mload\n      dup2\n      0x05\n      add\n      sstore\n      0xe0\n      dup3\n      add\n      mload\n      dup2\n      0x06\n      add\n      sstore\n      swap1\n      pop\n      pop\n        /* \"contracts/Dex.sol\":5784:5792  i.sub(1) */\n      tag_313\n        /* \"contracts/Dex.sol\":5790:5791  1 */\n      0x01\n        /* \"contracts/Dex.sol\":5784:5785  i */\n      dup4\n        /* \"contracts/Dex.sol\":5784:5789  i.sub */\n      tag_116\n      swap1\n        /* \"contracts/Dex.sol\":5784:5792  i.sub(1) */\n      swap2\n      swap1\n      0xffffffff\n      and\n      jump\t// in\n    tag_313:\n        /* \"contracts/Dex.sol\":5780:5792  i = i.sub(1) */\n      swap2\n      pop\n        /* \"contracts/Dex.sol\":5113:5804  while(i > 0) {\r... */\n      pop\n      jump(tag_279)\n    tag_280:\n        /* \"contracts/Dex.sol\":5885:5903  nextOrderId.add(1) */\n      tag_314\n        /* \"contracts/Dex.sol\":5901:5902  1 */\n      0x01\n        /* \"contracts/Dex.sol\":5885:5896  nextOrderId */\n      sload(0x05)\n        /* \"contracts/Dex.sol\":5885:5900  nextOrderId.add */\n      tag_123\n      swap1\n        /* \"contracts/Dex.sol\":5885:5903  nextOrderId.add(1) */\n      swap2\n      swap1\n      0xffffffff\n      and\n      jump\t// in\n    tag_314:\n        /* \"contracts/Dex.sol\":5871:5882  nextOrderId */\n      0x05\n        /* \"contracts/Dex.sol\":5871:5903  nextOrderId = nextOrderId.add(1) */\n      dup2\n      swap1\n      sstore\n      pop\n        /* \"contracts/Dex.sol\":2410:2411  _ */\n      pop\n      pop\n        /* \"contracts/Dex.sol\":2290:2291  _ */\n      pop\n        /* \"contracts/Dex.sol\":4103:5911  function createLimitOrder(bytes32 ticker, uint amount, uint price, Side side) tokenExist(ticker) tokenIsNotDAI(ticker) external {\r... */\n      pop\n      pop\n      pop\n      pop\n      pop\n      jump\t// out\n        /* \"contracts/Dex.sol\":569:589  address public admin */\n    tag_75:\n      0x00\n      dup1\n      sload\n      swap1\n      0x0100\n      exp\n      swap1\n      div\n      0xffffffffffffffffffffffffffffffffffffffff\n      and\n      dup2\n      jump\t// out\n        /* \"https://github.com/OpenZeppelin/openzeppelin-contracts/blob/master/contracts/utils/math/SafeMath.sol\":3122:3218  function sub(uint256 a, uint256 b) internal pure returns (uint256) {... */\n    tag_116:\n        /* \"https://github.com/OpenZeppelin/openzeppelin-contracts/blob/master/contracts/utils/math/SafeMath.sol\":3180:3187  uint256 */\n      0x00\n        /* \"https://github.com/OpenZeppelin/openzeppelin-contracts/blob/master/contracts/utils/math/SafeMath.sol\":3210:3211  b */\n      dup2\n        /* \"https://github.com/OpenZeppelin/openzeppelin-contracts/blob/master/contracts/utils/math/SafeMath.sol\":3206:3207  a */\n      dup4\n        /* \"https://github.com/OpenZeppelin/openzeppelin-contracts/blob/master/contracts/utils/math/SafeMath.sol\":3206:3211  a - b */\n      tag_316\n      swap2\n      swap1\n      tag_194\n      jump\t// in\n    tag_316:\n        /* \"https://github.com/OpenZeppelin/openzeppelin-contracts/blob/master/contracts/utils/math/SafeMath.sol\":3199:3211  return a - b */\n      swap1\n      pop\n        /* \"https://github.com/OpenZeppelin/openzeppelin-contracts/blob/master/contracts/utils/math/SafeMath.sol\":3122:3218  function sub(uint256 a, uint256 b) internal pure returns (uint256) {... */\n      swap3\n      swap2\n      pop\n      pop\n      jump\t// out\n        /* \"https://github.com/OpenZeppelin/openzeppelin-contracts/blob/master/contracts/utils/math/SafeMath.sol\":2755:2851  function add(uint256 a, uint256 b) internal pure returns (uint256) {... */\n    tag_123:\n        /* \"https://github.com/OpenZeppelin/openzeppelin-contracts/blob/master/contracts/utils/math/SafeMath.sol\":2813:2820  uint256 */\n      0x00\n        /* \"https://github.com/OpenZeppelin/openzeppelin-contracts/blob/master/contracts/utils/math/SafeMath.sol\":2843:2844  b */\n      dup2\n        /* \"https://github.com/OpenZeppelin/openzeppelin-contracts/blob/master/contracts/utils/math/SafeMath.sol\":2839:2840  a */\n      dup4\n        /* \"https://github.com/OpenZeppelin/openzeppelin-contracts/blob/master/contracts/utils/math/SafeMath.sol\":2839:2844  a + b */\n      tag_318\n      swap2\n      swap1\n      tag_196\n      jump\t// in\n    tag_318:\n        /* \"https://github.com/OpenZeppelin/openzeppelin-contracts/blob/master/contracts/utils/math/SafeMath.sol\":2832:2844  return a + b */\n      swap1\n      pop\n        /* \"https://github.com/OpenZeppelin/openzeppelin-contracts/blob/master/contracts/utils/math/SafeMath.sol\":2755:2851  function add(uint256 a, uint256 b) internal pure returns (uint256) {... */\n      swap3\n      swap2\n      pop\n      pop\n      jump\t// out\n        /* \"https://github.com/OpenZeppelin/openzeppelin-contracts/blob/master/contracts/utils/math/SafeMath.sol\":3465:3561  function mul(uint256 a, uint256 b) internal pure returns (uint256) {... */\n    tag_142:\n        /* \"https://github.com/OpenZeppelin/openzeppelin-contracts/blob/master/contracts/utils/math/SafeMath.sol\":3523:3530  uint256 */\n      0x00\n        /* \"https://github.com/OpenZeppelin/openzeppelin-contracts/blob/master/contracts/utils/math/SafeMath.sol\":3553:3554  b */\n      dup2\n        /* \"https://github.com/OpenZeppelin/openzeppelin-contracts/blob/master/contracts/utils/math/SafeMath.sol\":3549:3550  a */\n      dup4\n        /* \"https://github.com/OpenZeppelin/openzeppelin-contracts/blob/master/contracts/utils/math/SafeMath.sol\":3549:3554  a * b */\n      tag_320\n      swap2\n      swap1\n      tag_321\n      jump\t// in\n    tag_320:\n        /* \"https://github.com/OpenZeppelin/openzeppelin-contracts/blob/master/contracts/utils/math/SafeMath.sol\":3542:3554  return a * b */\n      swap1\n      pop\n        /* \"https://github.com/OpenZeppelin/openzeppelin-contracts/blob/master/contracts/utils/math/SafeMath.sol\":3465:3561  function mul(uint256 a, uint256 b) internal pure returns (uint256) {... */\n      swap3\n      swap2\n      pop\n      pop\n      jump\t// out\n    tag_235:\n      mload(0x40)\n      dup1\n      0x40\n      add\n      0x40\n      mstore\n      dup1\n      0x00\n      dup1\n      not\n      and\n      dup2\n      mstore\n      0x20\n      add\n      and(0xffffffffffffffffffffffffffffffffffffffff, 0x00)\n      dup2\n      mstore\n      pop\n      swap1\n      jump\t// out\n        /* \"#utility.yul\":7:146   */\n    tag_323:\n      0x00\n        /* \"#utility.yul\":91:97   */\n      dup2\n        /* \"#utility.yul\":78:98   */\n      calldataload\n        /* \"#utility.yul\":69:98   */\n      swap1\n      pop\n        /* \"#utility.yul\":107:140   */\n      tag_325\n        /* \"#utility.yul\":134:139   */\n      dup2\n        /* \"#utility.yul\":107:140   */\n      tag_326\n      jump\t// in\n    tag_325:\n        /* \"#utility.yul\":59:146   */\n      swap3\n      swap2\n      pop\n      pop\n      jump\t// out\n        /* \"#utility.yul\":152:289   */\n    tag_327:\n      0x00\n        /* \"#utility.yul\":237:243   */\n      dup2\n        /* \"#utility.yul\":231:244   */\n      mload\n        /* \"#utility.yul\":222:244   */\n      swap1\n      pop\n        /* \"#utility.yul\":253:283   */\n      tag_329\n        /* \"#utility.yul\":277:282   */\n      dup2\n        /* \"#utility.yul\":253:283   */\n      tag_330\n      jump\t// in\n    tag_329:\n        /* \"#utility.yul\":212:289   */\n      swap3\n      swap2\n      pop\n      pop\n      jump\t// out\n        /* \"#utility.yul\":295:434   */\n    tag_331:\n      0x00\n        /* \"#utility.yul\":379:385   */\n      dup2\n        /* \"#utility.yul\":366:386   */\n      calldataload\n        /* \"#utility.yul\":357:386   */\n      swap1\n      pop\n        /* \"#utility.yul\":395:428   */\n      tag_333\n        /* \"#utility.yul\":422:427   */\n      dup2\n        /* \"#utility.yul\":395:428   */\n      tag_334\n      jump\t// in\n    tag_333:\n        /* \"#utility.yul\":347:434   */\n      swap3\n      swap2\n      pop\n      pop\n      jump\t// out\n        /* \"#utility.yul\":440:593   */\n    tag_335:\n      0x00\n        /* \"#utility.yul\":531:537   */\n      dup2\n        /* \"#utility.yul\":518:538   */\n      calldataload\n        /* \"#utility.yul\":509:538   */\n      swap1\n      pop\n        /* \"#utility.yul\":547:587   */\n      tag_337\n        /* \"#utility.yul\":581:586   */\n      dup2\n        /* \"#utility.yul\":547:587   */\n      tag_338\n      jump\t// in\n    tag_337:\n        /* \"#utility.yul\":499:593   */\n      swap3\n      swap2\n      pop\n      pop\n      jump\t// out\n        /* \"#utility.yul\":599:738   */\n    tag_339:\n      0x00\n        /* \"#utility.yul\":683:689   */\n      dup2\n        /* \"#utility.yul\":670:690   */\n      calldataload\n        /* \"#utility.yul\":661:690   */\n      swap1\n      pop\n        /* \"#utility.yul\":699:732   */\n      tag_341\n        /* \"#utility.yul\":726:731   */\n      dup2\n        /* \"#utility.yul\":699:732   */\n      tag_342\n      jump\t// in\n    tag_341:\n        /* \"#utility.yul\":651:738   */\n      swap3\n      swap2\n      pop\n      pop\n      jump\t// out\n        /* \"#utility.yul\":744:1151   */\n    tag_36:\n      0x00\n      dup1\n        /* \"#utility.yul\":869:871   */\n      0x40\n        /* \"#utility.yul\":857:866   */\n      dup4\n        /* \"#utility.yul\":848:855   */\n      dup6\n        /* \"#utility.yul\":844:867   */\n      sub\n        /* \"#utility.yul\":840:872   */\n      slt\n        /* \"#utility.yul\":837:839   */\n      iszero\n      tag_344\n      jumpi\n        /* \"#utility.yul\":885:886   */\n      0x00\n        /* \"#utility.yul\":882:883   */\n      dup1\n        /* \"#utility.yul\":875:887   */\n      revert\n        /* \"#utility.yul\":837:839   */\n    tag_344:\n        /* \"#utility.yul\":928:929   */\n      0x00\n        /* \"#utility.yul\":953:1006   */\n      tag_345\n        /* \"#utility.yul\":998:1005   */\n      dup6\n        /* \"#utility.yul\":989:995   */\n      dup3\n        /* \"#utility.yul\":978:987   */\n      dup7\n        /* \"#utility.yul\":974:996   */\n      add\n        /* \"#utility.yul\":953:1006   */\n      tag_323\n      jump\t// in\n    tag_345:\n        /* \"#utility.yul\":943:1006   */\n      swap3\n      pop\n        /* \"#utility.yul\":899:1016   */\n      pop\n        /* \"#utility.yul\":1055:1057   */\n      0x20\n        /* \"#utility.yul\":1081:1134   */\n      tag_346\n        /* \"#utility.yul\":1126:1133   */\n      dup6\n        /* \"#utility.yul\":1117:1123   */\n      dup3\n        /* \"#utility.yul\":1106:1115   */\n      dup7\n        /* \"#utility.yul\":1102:1124   */\n      add\n        /* \"#utility.yul\":1081:1134   */\n      tag_331\n      jump\t// in\n    tag_346:\n        /* \"#utility.yul\":1071:1134   */\n      swap2\n      pop\n        /* \"#utility.yul\":1026:1144   */\n      pop\n        /* \"#utility.yul\":827:1151   */\n      swap3\n      pop\n      swap3\n      swap1\n      pop\n      jump\t// out\n        /* \"#utility.yul\":1157:1435   */\n    tag_229:\n      0x00\n        /* \"#utility.yul\":1273:1275   */\n      0x20\n        /* \"#utility.yul\":1261:1270   */\n      dup3\n        /* \"#utility.yul\":1252:1259   */\n      dup5\n        /* \"#utility.yul\":1248:1271   */\n      sub\n        /* \"#utility.yul\":1244:1276   */\n      slt\n        /* \"#utility.yul\":1241:1243   */\n      iszero\n      tag_348\n      jumpi\n        /* \"#utility.yul\":1289:1290   */\n      0x00\n        /* \"#utility.yul\":1286:1287   */\n      dup1\n        /* \"#utility.yul\":1279:1291   */\n      revert\n        /* \"#utility.yul\":1241:1243   */\n    tag_348:\n        /* \"#utility.yul\":1332:1333   */\n      0x00\n        /* \"#utility.yul\":1357:1418   */\n      tag_349\n        /* \"#utility.yul\":1410:1417   */\n      dup5\n        /* \"#utility.yul\":1401:1407   */\n      dup3\n        /* \"#utility.yul\":1390:1399   */\n      dup6\n        /* \"#utility.yul\":1386:1408   */\n      add\n        /* \"#utility.yul\":1357:1418   */\n      tag_327\n      jump\t// in\n    tag_349:\n        /* \"#utility.yul\":1347:1418   */\n      swap2\n      pop\n        /* \"#utility.yul\":1303:1428   */\n      pop\n        /* \"#utility.yul\":1231:1435   */\n      swap3\n      swap2\n      pop\n      pop\n      jump\t// out\n        /* \"#utility.yul\":1441:1703   */\n    tag_45:\n      0x00\n        /* \"#utility.yul\":1549:1551   */\n      0x20\n        /* \"#utility.yul\":1537:1546   */\n      dup3\n        /* \"#utility.yul\":1528:1535   */\n      dup5\n        /* \"#utility.yul\":1524:1547   */\n      sub\n        /* \"#utility.yul\":1520:1552   */\n      slt\n        /* \"#utility.yul\":1517:1519   */\n      iszero\n      tag_351\n      jumpi\n        /* \"#utility.yul\":1565:1566   */\n      0x00\n        /* \"#utility.yul\":1562:1563   */\n      dup1\n        /* \"#utility.yul\":1555:1567   */\n      revert\n        /* \"#utility.yul\":1517:1519   */\n    tag_351:\n        /* \"#utility.yul\":1608:1609   */\n      0x00\n        /* \"#utility.yul\":1633:1686   */\n      tag_352\n        /* \"#utility.yul\":1678:1685   */\n      dup5\n        /* \"#utility.yul\":1669:1675   */\n      dup3\n        /* \"#utility.yul\":1658:1667   */\n      dup6\n        /* \"#utility.yul\":1654:1676   */\n      add\n        /* \"#utility.yul\":1633:1686   */\n      tag_331\n      jump\t// in\n    tag_352:\n        /* \"#utility.yul\":1623:1686   */\n      swap2\n      pop\n        /* \"#utility.yul\":1579:1696   */\n      pop\n        /* \"#utility.yul\":1507:1703   */\n      swap3\n      swap2\n      pop\n      pop\n      jump\t// out\n        /* \"#utility.yul\":1709:2116   */\n    tag_51:\n      0x00\n      dup1\n        /* \"#utility.yul\":1834:1836   */\n      0x40\n        /* \"#utility.yul\":1822:1831   */\n      dup4\n        /* \"#utility.yul\":1813:1820   */\n      dup6\n        /* \"#utility.yul\":1809:1832   */\n      sub\n        /* \"#utility.yul\":1805:1837   */\n      slt\n        /* \"#utility.yul\":1802:1804   */\n      iszero\n      tag_354\n      jumpi\n        /* \"#utility.yul\":1850:1851   */\n      0x00\n        /* \"#utility.yul\":1847:1848   */\n      dup1\n        /* \"#utility.yul\":1840:1852   */\n      revert\n        /* \"#utility.yul\":1802:1804   */\n    tag_354:\n        /* \"#utility.yul\":1893:1894   */\n      0x00\n        /* \"#utility.yul\":1918:1971   */\n      tag_355\n        /* \"#utility.yul\":1963:1970   */\n      dup6\n        /* \"#utility.yul\":1954:1960   */\n      dup3\n        /* \"#utility.yul\":1943:1952   */\n      dup7\n        /* \"#utility.yul\":1939:1961   */\n      add\n        /* \"#utility.yul\":1918:1971   */\n      tag_331\n      jump\t// in\n    tag_355:\n        /* \"#utility.yul\":1908:1971   */\n      swap3\n      pop\n        /* \"#utility.yul\":1864:1981   */\n      pop\n        /* \"#utility.yul\":2020:2022   */\n      0x20\n        /* \"#utility.yul\":2046:2099   */\n      tag_356\n        /* \"#utility.yul\":2091:2098   */\n      dup6\n        /* \"#utility.yul\":2082:2088   */\n      dup3\n        /* \"#utility.yul\":2071:2080   */\n      dup7\n        /* \"#utility.yul\":2067:2089   */\n      add\n        /* \"#utility.yul\":2046:2099   */\n      tag_323\n      jump\t// in\n    tag_356:\n        /* \"#utility.yul\":2036:2099   */\n      swap2\n      pop\n        /* \"#utility.yul\":1991:2109   */\n      pop\n        /* \"#utility.yul\":1792:2116   */\n      swap3\n      pop\n      swap3\n      swap1\n      pop\n      jump\t// out\n        /* \"#utility.yul\":2122:2543   */\n    tag_30:\n      0x00\n      dup1\n        /* \"#utility.yul\":2254:2256   */\n      0x40\n        /* \"#utility.yul\":2242:2251   */\n      dup4\n        /* \"#utility.yul\":2233:2240   */\n      dup6\n        /* \"#utility.yul\":2229:2252   */\n      sub\n        /* \"#utility.yul\":2225:2257   */\n      slt\n        /* \"#utility.yul\":2222:2224   */\n      iszero\n      tag_358\n      jumpi\n        /* \"#utility.yul\":2270:2271   */\n      0x00\n        /* \"#utility.yul\":2267:2268   */\n      dup1\n        /* \"#utility.yul\":2260:2272   */\n      revert\n        /* \"#utility.yul\":2222:2224   */\n    tag_358:\n        /* \"#utility.yul\":2313:2314   */\n      0x00\n        /* \"#utility.yul\":2338:2391   */\n      tag_359\n        /* \"#utility.yul\":2383:2390   */\n      dup6\n        /* \"#utility.yul\":2374:2380   */\n      dup3\n        /* \"#utility.yul\":2363:2372   */\n      dup7\n        /* \"#utility.yul\":2359:2381   */\n      add\n        /* \"#utility.yul\":2338:2391   */\n      tag_331\n      jump\t// in\n    tag_359:\n        /* \"#utility.yul\":2328:2391   */\n      swap3\n      pop\n        /* \"#utility.yul\":2284:2401   */\n      pop\n        /* \"#utility.yul\":2440:2442   */\n      0x20\n        /* \"#utility.yul\":2466:2526   */\n      tag_360\n        /* \"#utility.yul\":2518:2525   */\n      dup6\n        /* \"#utility.yul\":2509:2515   */\n      dup3\n        /* \"#utility.yul\":2498:2507   */\n      dup7\n        /* \"#utility.yul\":2494:2516   */\n      add\n        /* \"#utility.yul\":2466:2526   */\n      tag_335\n      jump\t// in\n    tag_360:\n        /* \"#utility.yul\":2456:2526   */\n      swap2\n      pop\n        /* \"#utility.yul\":2411:2536   */\n      pop\n        /* \"#utility.yul\":2212:2543   */\n      swap3\n      pop\n      swap3\n      swap1\n      pop\n      jump\t// out\n        /* \"#utility.yul\":2549:3115   */\n    tag_41:\n      0x00\n      dup1\n      0x00\n        /* \"#utility.yul\":2698:2700   */\n      0x60\n        /* \"#utility.yul\":2686:2695   */\n      dup5\n        /* \"#utility.yul\":2677:2684   */\n      dup7\n        /* \"#utility.yul\":2673:2696   */\n      sub\n        /* \"#utility.yul\":2669:2701   */\n      slt\n        /* \"#utility.yul\":2666:2668   */\n      iszero\n      tag_362\n      jumpi\n        /* \"#utility.yul\":2714:2715   */\n      0x00\n        /* \"#utility.yul\":2711:2712   */\n      dup1\n        /* \"#utility.yul\":2704:2716   */\n      revert\n        /* \"#utility.yul\":2666:2668   */\n    tag_362:\n        /* \"#utility.yul\":2757:2758   */\n      0x00\n        /* \"#utility.yul\":2782:2835   */\n      tag_363\n        /* \"#utility.yul\":2827:2834   */\n      dup7\n        /* \"#utility.yul\":2818:2824   */\n      dup3\n        /* \"#utility.yul\":2807:2816   */\n      dup8\n        /* \"#utility.yul\":2803:2825   */\n      add\n        /* \"#utility.yul\":2782:2835   */\n      tag_331\n      jump\t// in\n    tag_363:\n        /* \"#utility.yul\":2772:2835   */\n      swap4\n      pop\n        /* \"#utility.yul\":2728:2845   */\n      pop\n        /* \"#utility.yul\":2884:2886   */\n      0x20\n        /* \"#utility.yul\":2910:2963   */\n      tag_364\n        /* \"#utility.yul\":2955:2962   */\n      dup7\n        /* \"#utility.yul\":2946:2952   */\n      dup3\n        /* \"#utility.yul\":2935:2944   */\n      dup8\n        /* \"#utility.yul\":2931:2953   */\n      add\n        /* \"#utility.yul\":2910:2963   */\n      tag_339\n      jump\t// in\n    tag_364:\n        /* \"#utility.yul\":2900:2963   */\n      swap3\n      pop\n        /* \"#utility.yul\":2855:2973   */\n      pop\n        /* \"#utility.yul\":3012:3014   */\n      0x40\n        /* \"#utility.yul\":3038:3098   */\n      tag_365\n        /* \"#utility.yul\":3090:3097   */\n      dup7\n        /* \"#utility.yul\":3081:3087   */\n      dup3\n        /* \"#utility.yul\":3070:3079   */\n      dup8\n        /* \"#utility.yul\":3066:3088   */\n      add\n        /* \"#utility.yul\":3038:3098   */\n      tag_335\n      jump\t// in\n    tag_365:\n        /* \"#utility.yul\":3028:3098   */\n      swap2\n      pop\n        /* \"#utility.yul\":2983:3108   */\n      pop\n        /* \"#utility.yul\":2656:3115   */\n      swap3\n      pop\n      swap3\n      pop\n      swap3\n      jump\t// out\n        /* \"#utility.yul\":3121:3673   */\n    tag_20:\n      0x00\n      dup1\n      0x00\n        /* \"#utility.yul\":3263:3265   */\n      0x60\n        /* \"#utility.yul\":3251:3260   */\n      dup5\n        /* \"#utility.yul\":3242:3249   */\n      dup7\n        /* \"#utility.yul\":3238:3261   */\n      sub\n        /* \"#utility.yul\":3234:3266   */\n      slt\n        /* \"#utility.yul\":3231:3233   */\n      iszero\n      tag_367\n      jumpi\n        /* \"#utility.yul\":3279:3280   */\n      0x00\n        /* \"#utility.yul\":3276:3277   */\n      dup1\n        /* \"#utility.yul\":3269:3281   */\n      revert\n        /* \"#utility.yul\":3231:3233   */\n    tag_367:\n        /* \"#utility.yul\":3322:3323   */\n      0x00\n        /* \"#utility.yul\":3347:3400   */\n      tag_368\n        /* \"#utility.yul\":3392:3399   */\n      dup7\n        /* \"#utility.yul\":3383:3389   */\n      dup3\n        /* \"#utility.yul\":3372:3381   */\n      dup8\n        /* \"#utility.yul\":3368:3390   */\n      add\n        /* \"#utility.yul\":3347:3400   */\n      tag_331\n      jump\t// in\n    tag_368:\n        /* \"#utility.yul\":3337:3400   */\n      swap4\n      pop\n        /* \"#utility.yul\":3293:3410   */\n      pop\n        /* \"#utility.yul\":3449:3451   */\n      0x20\n        /* \"#utility.yul\":3475:3528   */\n      tag_369\n        /* \"#utility.yul\":3520:3527   */\n      dup7\n        /* \"#utility.yul\":3511:3517   */\n      dup3\n        /* \"#utility.yul\":3500:3509   */\n      dup8\n        /* \"#utility.yul\":3496:3518   */\n      add\n        /* \"#utility.yul\":3475:3528   */\n      tag_339\n      jump\t// in\n    tag_369:\n        /* \"#utility.yul\":3465:3528   */\n      swap3\n      pop\n        /* \"#utility.yul\":3420:3538   */\n      pop\n        /* \"#utility.yul\":3577:3579   */\n      0x40\n        /* \"#utility.yul\":3603:3656   */\n      tag_370\n        /* \"#utility.yul\":3648:3655   */\n      dup7\n        /* \"#utility.yul\":3639:3645   */\n      dup3\n        /* \"#utility.yul\":3628:3637   */\n      dup8\n        /* \"#utility.yul\":3624:3646   */\n      add\n        /* \"#utility.yul\":3603:3656   */\n      tag_339\n      jump\t// in\n    tag_370:\n        /* \"#utility.yul\":3593:3656   */\n      swap2\n      pop\n        /* \"#utility.yul\":3548:3666   */\n      pop\n        /* \"#utility.yul\":3221:3673   */\n      swap3\n      pop\n      swap3\n      pop\n      swap3\n      jump\t// out\n        /* \"#utility.yul\":3679:4391   */\n    tag_72:\n      0x00\n      dup1\n      0x00\n      dup1\n        /* \"#utility.yul\":3845:3848   */\n      0x80\n        /* \"#utility.yul\":3833:3842   */\n      dup6\n        /* \"#utility.yul\":3824:3831   */\n      dup8\n        /* \"#utility.yul\":3820:3843   */\n      sub\n        /* \"#utility.yul\":3816:3849   */\n      slt\n        /* \"#utility.yul\":3813:3815   */\n      iszero\n      tag_372\n      jumpi\n        /* \"#utility.yul\":3862:3863   */\n      0x00\n        /* \"#utility.yul\":3859:3860   */\n      dup1\n        /* \"#utility.yul\":3852:3864   */\n      revert\n        /* \"#utility.yul\":3813:3815   */\n    tag_372:\n        /* \"#utility.yul\":3905:3906   */\n      0x00\n        /* \"#utility.yul\":3930:3983   */\n      tag_373\n        /* \"#utility.yul\":3975:3982   */\n      dup8\n        /* \"#utility.yul\":3966:3972   */\n      dup3\n        /* \"#utility.yul\":3955:3964   */\n      dup9\n        /* \"#utility.yul\":3951:3973   */\n      add\n        /* \"#utility.yul\":3930:3983   */\n      tag_331\n      jump\t// in\n    tag_373:\n        /* \"#utility.yul\":3920:3983   */\n      swap5\n      pop\n        /* \"#utility.yul\":3876:3993   */\n      pop\n        /* \"#utility.yul\":4032:4034   */\n      0x20\n        /* \"#utility.yul\":4058:4111   */\n      tag_374\n        /* \"#utility.yul\":4103:4110   */\n      dup8\n        /* \"#utility.yul\":4094:4100   */\n      dup3\n        /* \"#utility.yul\":4083:4092   */\n      dup9\n        /* \"#utility.yul\":4079:4101   */\n      add\n        /* \"#utility.yul\":4058:4111   */\n      tag_339\n      jump\t// in\n    tag_374:\n        /* \"#utility.yul\":4048:4111   */\n      swap4\n      pop\n        /* \"#utility.yul\":4003:4121   */\n      pop\n        /* \"#utility.yul\":4160:4162   */\n      0x40\n        /* \"#utility.yul\":4186:4239   */\n      tag_375\n        /* \"#utility.yul\":4231:4238   */\n      dup8\n        /* \"#utility.yul\":4222:4228   */\n      dup3\n        /* \"#utility.yul\":4211:4220   */\n      dup9\n        /* \"#utility.yul\":4207:4229   */\n      add\n        /* \"#utility.yul\":4186:4239   */\n      tag_339\n      jump\t// in\n    tag_375:\n        /* \"#utility.yul\":4176:4239   */\n      swap3\n      pop\n        /* \"#utility.yul\":4131:4249   */\n      pop\n        /* \"#utility.yul\":4288:4290   */\n      0x60\n        /* \"#utility.yul\":4314:4374   */\n      tag_376\n        /* \"#utility.yul\":4366:4373   */\n      dup8\n        /* \"#utility.yul\":4357:4363   */\n      dup3\n        /* \"#utility.yul\":4346:4355   */\n      dup9\n        /* \"#utility.yul\":4342:4364   */\n      add\n        /* \"#utility.yul\":4314:4374   */\n      tag_335\n      jump\t// in\n    tag_376:\n        /* \"#utility.yul\":4304:4374   */\n      swap2\n      pop\n        /* \"#utility.yul\":4259:4384   */\n      pop\n        /* \"#utility.yul\":3803:4391   */\n      swap3\n      swap6\n      swap2\n      swap5\n      pop\n      swap3\n      pop\n      jump\t// out\n        /* \"#utility.yul\":4397:4659   */\n    tag_55:\n      0x00\n        /* \"#utility.yul\":4505:4507   */\n      0x20\n        /* \"#utility.yul\":4493:4502   */\n      dup3\n        /* \"#utility.yul\":4484:4491   */\n      dup5\n        /* \"#utility.yul\":4480:4503   */\n      sub\n        /* \"#utility.yul\":4476:4508   */\n      slt\n        /* \"#utility.yul\":4473:4475   */\n      iszero\n      tag_378\n      jumpi\n        /* \"#utility.yul\":4521:4522   */\n      0x00\n        /* \"#utility.yul\":4518:4519   */\n      dup1\n        /* \"#utility.yul\":4511:4523   */\n      revert\n        /* \"#utility.yul\":4473:4475   */\n    tag_378:\n        /* \"#utility.yul\":4564:4565   */\n      0x00\n        /* \"#utility.yul\":4589:4642   */\n      tag_379\n        /* \"#utility.yul\":4634:4641   */\n      dup5\n        /* \"#utility.yul\":4625:4631   */\n      dup3\n        /* \"#utility.yul\":4614:4623   */\n      dup6\n        /* \"#utility.yul\":4610:4632   */\n      add\n        /* \"#utility.yul\":4589:4642   */\n      tag_339\n      jump\t// in\n    tag_379:\n        /* \"#utility.yul\":4579:4642   */\n      swap2\n      pop\n        /* \"#utility.yul\":4535:4652   */\n      pop\n        /* \"#utility.yul\":4463:4659   */\n      swap3\n      swap2\n      pop\n      pop\n      jump\t// out\n        /* \"#utility.yul\":4665:5072   */\n    tag_61:\n      0x00\n      dup1\n        /* \"#utility.yul\":4790:4792   */\n      0x40\n        /* \"#utility.yul\":4778:4787   */\n      dup4\n        /* \"#utility.yul\":4769:4776   */\n      dup6\n        /* \"#utility.yul\":4765:4788   */\n      sub\n        /* \"#utility.yul\":4761:4793   */\n      slt\n        /* \"#utility.yul\":4758:4760   */\n      iszero\n      tag_381\n      jumpi\n        /* \"#utility.yul\":4806:4807   */\n      0x00\n        /* \"#utility.yul\":4803:4804   */\n      dup1\n        /* \"#utility.yul\":4796:4808   */\n      revert\n        /* \"#utility.yul\":4758:4760   */\n    tag_381:\n        /* \"#utility.yul\":4849:4850   */\n      0x00\n        /* \"#utility.yul\":4874:4927   */\n      tag_382\n        /* \"#utility.yul\":4919:4926   */\n      dup6\n        /* \"#utility.yul\":4910:4916   */\n      dup3\n        /* \"#utility.yul\":4899:4908   */\n      dup7\n        /* \"#utility.yul\":4895:4917   */\n      add\n        /* \"#utility.yul\":4874:4927   */\n      tag_339\n      jump\t// in\n    tag_382:\n        /* \"#utility.yul\":4864:4927   */\n      swap3\n      pop\n        /* \"#utility.yul\":4820:4937   */\n      pop\n        /* \"#utility.yul\":4976:4978   */\n      0x20\n        /* \"#utility.yul\":5002:5055   */\n      tag_383\n        /* \"#utility.yul\":5047:5054   */\n      dup6\n        /* \"#utility.yul\":5038:5044   */\n      dup3\n        /* \"#utility.yul\":5027:5036   */\n      dup7\n        /* \"#utility.yul\":5023:5045   */\n      add\n        /* \"#utility.yul\":5002:5055   */\n      tag_331\n      jump\t// in\n    tag_383:\n        /* \"#utility.yul\":4992:5055   */\n      swap2\n      pop\n        /* \"#utility.yul\":4947:5065   */\n      pop\n        /* \"#utility.yul\":4748:5072   */\n      swap3\n      pop\n      swap3\n      swap1\n      pop\n      jump\t// out\n        /* \"#utility.yul\":5078:5343   */\n    tag_384:\n      0x00\n        /* \"#utility.yul\":5210:5298   */\n      tag_386\n        /* \"#utility.yul\":5294:5297   */\n      dup4\n        /* \"#utility.yul\":5286:5292   */\n      dup4\n        /* \"#utility.yul\":5210:5298   */\n      tag_387\n      jump\t// in\n    tag_386:\n        /* \"#utility.yul\":5330:5336   */\n      0x0100\n        /* \"#utility.yul\":5325:5328   */\n      dup4\n        /* \"#utility.yul\":5321:5337   */\n      add\n        /* \"#utility.yul\":5307:5337   */\n      swap1\n      pop\n        /* \"#utility.yul\":5200:5343   */\n      swap3\n      swap2\n      pop\n      pop\n      jump\t// out\n        /* \"#utility.yul\":5349:5612   */\n    tag_388:\n      0x00\n        /* \"#utility.yul\":5481:5569   */\n      tag_390\n        /* \"#utility.yul\":5565:5568   */\n      dup4\n        /* \"#utility.yul\":5557:5563   */\n      dup4\n        /* \"#utility.yul\":5481:5569   */\n      tag_391\n      jump\t// in\n    tag_390:\n        /* \"#utility.yul\":5601:5605   */\n      0x40\n        /* \"#utility.yul\":5596:5599   */\n      dup4\n        /* \"#utility.yul\":5592:5606   */\n      add\n        /* \"#utility.yul\":5578:5606   */\n      swap1\n      pop\n        /* \"#utility.yul\":5471:5612   */\n      swap3\n      swap2\n      pop\n      pop\n      jump\t// out\n        /* \"#utility.yul\":5618:5726   */\n    tag_392:\n        /* \"#utility.yul\":5695:5719   */\n      tag_394\n        /* \"#utility.yul\":5713:5718   */\n      dup2\n        /* \"#utility.yul\":5695:5719   */\n      tag_395\n      jump\t// in\n    tag_394:\n        /* \"#utility.yul\":5690:5693   */\n      dup3\n        /* \"#utility.yul\":5683:5720   */\n      mstore\n        /* \"#utility.yul\":5673:5726   */\n      pop\n      pop\n      jump\t// out\n        /* \"#utility.yul\":5732:5850   */\n    tag_396:\n        /* \"#utility.yul\":5819:5843   */\n      tag_398\n        /* \"#utility.yul\":5837:5842   */\n      dup2\n        /* \"#utility.yul\":5819:5843   */\n      tag_395\n      jump\t// in\n    tag_398:\n        /* \"#utility.yul\":5814:5817   */\n      dup3\n        /* \"#utility.yul\":5807:5844   */\n      mstore\n        /* \"#utility.yul\":5797:5850   */\n      pop\n      pop\n      jump\t// out\n        /* \"#utility.yul\":5904:6804   */\n    tag_399:\n      0x00\n        /* \"#utility.yul\":6094:6169   */\n      tag_401\n        /* \"#utility.yul\":6163:6168   */\n      dup3\n        /* \"#utility.yul\":6094:6169   */\n      tag_402\n      jump\t// in\n    tag_401:\n        /* \"#utility.yul\":6185:6292   */\n      tag_403\n        /* \"#utility.yul\":6285:6291   */\n      dup2\n        /* \"#utility.yul\":6280:6283   */\n      dup6\n        /* \"#utility.yul\":6185:6292   */\n      tag_404\n      jump\t// in\n    tag_403:\n        /* \"#utility.yul\":6178:6292   */\n      swap4\n      pop\n        /* \"#utility.yul\":6316:6393   */\n      tag_405\n        /* \"#utility.yul\":6387:6392   */\n      dup4\n        /* \"#utility.yul\":6316:6393   */\n      tag_406\n      jump\t// in\n    tag_405:\n        /* \"#utility.yul\":6416:6423   */\n      dup1\n        /* \"#utility.yul\":6447:6448   */\n      0x00\n        /* \"#utility.yul\":6432:6779   */\n    tag_407:\n        /* \"#utility.yul\":6457:6463   */\n      dup4\n        /* \"#utility.yul\":6454:6455   */\n      dup2\n        /* \"#utility.yul\":6451:6464   */\n      lt\n        /* \"#utility.yul\":6432:6779   */\n      iszero\n      tag_409\n      jumpi\n        /* \"#utility.yul\":6533:6539   */\n      dup2\n        /* \"#utility.yul\":6527:6540   */\n      mload\n        /* \"#utility.yul\":6560:6665   */\n      tag_410\n        /* \"#utility.yul\":6661:6664   */\n      dup9\n        /* \"#utility.yul\":6646:6659   */\n      dup3\n        /* \"#utility.yul\":6560:6665   */\n      tag_384\n      jump\t// in\n    tag_410:\n        /* \"#utility.yul\":6553:6665   */\n      swap8\n      pop\n        /* \"#utility.yul\":6688:6769   */\n      tag_411\n        /* \"#utility.yul\":6762:6768   */\n      dup4\n        /* \"#utility.yul\":6688:6769   */\n      tag_412\n      jump\t// in\n    tag_411:\n        /* \"#utility.yul\":6678:6769   */\n      swap3\n      pop\n        /* \"#utility.yul\":6492:6779   */\n      pop\n        /* \"#utility.yul\":6479:6480   */\n      0x01\n        /* \"#utility.yul\":6476:6477   */\n      dup2\n        /* \"#utility.yul\":6472:6481   */\n      add\n        /* \"#utility.yul\":6467:6481   */\n      swap1\n      pop\n        /* \"#utility.yul\":6432:6779   */\n      jump(tag_407)\n    tag_409:\n        /* \"#utility.yul\":6436:6450   */\n      pop\n        /* \"#utility.yul\":6795:6798   */\n      dup6\n        /* \"#utility.yul\":6788:6798   */\n      swap4\n      pop\n        /* \"#utility.yul\":6070:6804   */\n      pop\n      pop\n      pop\n      swap3\n      swap2\n      pop\n      pop\n      jump\t// out\n        /* \"#utility.yul\":6858:7758   */\n    tag_413:\n      0x00\n        /* \"#utility.yul\":7048:7123   */\n      tag_415\n        /* \"#utility.yul\":7117:7122   */\n      dup3\n        /* \"#utility.yul\":7048:7123   */\n      tag_416\n      jump\t// in\n    tag_415:\n        /* \"#utility.yul\":7139:7246   */\n      tag_417\n        /* \"#utility.yul\":7239:7245   */\n      dup2\n        /* \"#utility.yul\":7234:7237   */\n      dup6\n        /* \"#utility.yul\":7139:7246   */\n      tag_418\n      jump\t// in\n    tag_417:\n        /* \"#utility.yul\":7132:7246   */\n      swap4\n      pop\n        /* \"#utility.yul\":7270:7347   */\n      tag_419\n        /* \"#utility.yul\":7341:7346   */\n      dup4\n        /* \"#utility.yul\":7270:7347   */\n      tag_420\n      jump\t// in\n    tag_419:\n        /* \"#utility.yul\":7370:7377   */\n      dup1\n        /* \"#utility.yul\":7401:7402   */\n      0x00\n        /* \"#utility.yul\":7386:7733   */\n    tag_421:\n        /* \"#utility.yul\":7411:7417   */\n      dup4\n        /* \"#utility.yul\":7408:7409   */\n      dup2\n        /* \"#utility.yul\":7405:7418   */\n      lt\n        /* \"#utility.yul\":7386:7733   */\n      iszero\n      tag_423\n      jumpi\n        /* \"#utility.yul\":7487:7493   */\n      dup2\n        /* \"#utility.yul\":7481:7494   */\n      mload\n        /* \"#utility.yul\":7514:7619   */\n      tag_424\n        /* \"#utility.yul\":7615:7618   */\n      dup9\n        /* \"#utility.yul\":7600:7613   */\n      dup3\n        /* \"#utility.yul\":7514:7619   */\n      tag_388\n      jump\t// in\n    tag_424:\n        /* \"#utility.yul\":7507:7619   */\n      swap8\n      pop\n        /* \"#utility.yul\":7642:7723   */\n      tag_425\n        /* \"#utility.yul\":7716:7722   */\n      dup4\n        /* \"#utility.yul\":7642:7723   */\n      tag_426\n      jump\t// in\n    tag_425:\n        /* \"#utility.yul\":7632:7723   */\n      swap3\n      pop\n        /* \"#utility.yul\":7446:7733   */\n      pop\n        /* \"#utility.yul\":7433:7434   */\n      0x01\n        /* \"#utility.yul\":7430:7431   */\n      dup2\n        /* \"#utility.yul\":7426:7435   */\n      add\n        /* \"#utility.yul\":7421:7435   */\n      swap1\n      pop\n        /* \"#utility.yul\":7386:7733   */\n      jump(tag_421)\n    tag_423:\n        /* \"#utility.yul\":7390:7404   */\n      pop\n        /* \"#utility.yul\":7749:7752   */\n      dup6\n        /* \"#utility.yul\":7742:7752   */\n      swap4\n      pop\n        /* \"#utility.yul\":7024:7758   */\n      pop\n      pop\n      pop\n      swap3\n      swap2\n      pop\n      pop\n      jump\t// out\n        /* \"#utility.yul\":7764:7872   */\n    tag_427:\n        /* \"#utility.yul\":7841:7865   */\n      tag_429\n        /* \"#utility.yul\":7859:7864   */\n      dup2\n        /* \"#utility.yul\":7841:7865   */\n      tag_430\n      jump\t// in\n    tag_429:\n        /* \"#utility.yul\":7836:7839   */\n      dup3\n        /* \"#utility.yul\":7829:7866   */\n      mstore\n        /* \"#utility.yul\":7819:7872   */\n      pop\n      pop\n      jump\t// out\n        /* \"#utility.yul\":7878:7996   */\n    tag_431:\n        /* \"#utility.yul\":7965:7989   */\n      tag_433\n        /* \"#utility.yul\":7983:7988   */\n      dup2\n        /* \"#utility.yul\":7965:7989   */\n      tag_430\n      jump\t// in\n    tag_433:\n        /* \"#utility.yul\":7960:7963   */\n      dup3\n        /* \"#utility.yul\":7953:7990   */\n      mstore\n        /* \"#utility.yul\":7943:7996   */\n      pop\n      pop\n      jump\t// out\n        /* \"#utility.yul\":8002:8133   */\n    tag_434:\n        /* \"#utility.yul\":8084:8126   */\n      tag_436\n        /* \"#utility.yul\":8120:8125   */\n      dup2\n        /* \"#utility.yul\":8084:8126   */\n      tag_437\n      jump\t// in\n    tag_436:\n        /* \"#utility.yul\":8079:8082   */\n      dup3\n        /* \"#utility.yul\":8072:8127   */\n      mstore\n        /* \"#utility.yul\":8062:8133   */\n      pop\n      pop\n      jump\t// out\n        /* \"#utility.yul\":8139:8280   */\n    tag_438:\n        /* \"#utility.yul\":8231:8273   */\n      tag_440\n        /* \"#utility.yul\":8267:8272   */\n      dup2\n        /* \"#utility.yul\":8231:8273   */\n      tag_437\n      jump\t// in\n    tag_440:\n        /* \"#utility.yul\":8226:8229   */\n      dup3\n        /* \"#utility.yul\":8219:8274   */\n      mstore\n        /* \"#utility.yul\":8209:8280   */\n      pop\n      pop\n      jump\t// out\n        /* \"#utility.yul\":8286:8599   */\n    tag_441:\n      0x00\n        /* \"#utility.yul\":8449:8516   */\n      tag_443\n        /* \"#utility.yul\":8513:8515   */\n      0x0f\n        /* \"#utility.yul\":8508:8511   */\n      dup4\n        /* \"#utility.yul\":8449:8516   */\n      tag_444\n      jump\t// in\n    tag_443:\n        /* \"#utility.yul\":8442:8516   */\n      swap2\n      pop\n        /* \"#utility.yul\":8546:8563   */\n      0x42616c616e636520746f6f206c6f770000000000000000000000000000000000\n        /* \"#utility.yul\":8542:8543   */\n      0x00\n        /* \"#utility.yul\":8537:8540   */\n      dup4\n        /* \"#utility.yul\":8533:8544   */\n      add\n        /* \"#utility.yul\":8526:8564   */\n      mstore\n        /* \"#utility.yul\":8590:8592   */\n      0x20\n        /* \"#utility.yul\":8585:8588   */\n      dup3\n        /* \"#utility.yul\":8581:8593   */\n      add\n        /* \"#utility.yul\":8574:8593   */\n      swap1\n      pop\n        /* \"#utility.yul\":8432:8599   */\n      swap2\n      swap1\n      pop\n      jump\t// out\n        /* \"#utility.yul\":8605:8913   */\n    tag_445:\n      0x00\n        /* \"#utility.yul\":8768:8835   */\n      tag_447\n        /* \"#utility.yul\":8832:8834   */\n      0x0a\n        /* \"#utility.yul\":8827:8830   */\n      dup4\n        /* \"#utility.yul\":8768:8835   */\n      tag_444\n      jump\t// in\n    tag_447:\n        /* \"#utility.yul\":8761:8835   */\n      swap2\n      pop\n        /* \"#utility.yul\":8865:8877   */\n      0x4f6e6c792061646d696e00000000000000000000000000000000000000000000\n        /* \"#utility.yul\":8861:8862   */\n      0x00\n        /* \"#utility.yul\":8856:8859   */\n      dup4\n        /* \"#utility.yul\":8852:8863   */\n      add\n        /* \"#utility.yul\":8845:8878   */\n      mstore\n        /* \"#utility.yul\":8904:8906   */\n      0x20\n        /* \"#utility.yul\":8899:8902   */\n      dup3\n        /* \"#utility.yul\":8895:8907   */\n      add\n        /* \"#utility.yul\":8888:8907   */\n      swap1\n      pop\n        /* \"#utility.yul\":8751:8913   */\n      swap2\n      swap1\n      pop\n      jump\t// out\n        /* \"#utility.yul\":8919:9236   */\n    tag_448:\n      0x00\n        /* \"#utility.yul\":9082:9149   */\n      tag_450\n        /* \"#utility.yul\":9146:9148   */\n      0x13\n        /* \"#utility.yul\":9141:9144   */\n      dup4\n        /* \"#utility.yul\":9082:9149   */\n      tag_444\n      jump\t// in\n    tag_450:\n        /* \"#utility.yul\":9075:9149   */\n      swap2\n      pop\n        /* \"#utility.yul\":9179:9200   */\n      0x4441492062616c616e636520746f6f206c6f7700000000000000000000000000\n        /* \"#utility.yul\":9175:9176   */\n      0x00\n        /* \"#utility.yul\":9170:9173   */\n      dup4\n        /* \"#utility.yul\":9166:9177   */\n      add\n        /* \"#utility.yul\":9159:9201   */\n      mstore\n        /* \"#utility.yul\":9227:9229   */\n      0x20\n        /* \"#utility.yul\":9222:9225   */\n      dup3\n        /* \"#utility.yul\":9218:9230   */\n      add\n        /* \"#utility.yul\":9211:9230   */\n      swap1\n      pop\n        /* \"#utility.yul\":9065:9236   */\n      swap2\n      swap1\n      pop\n      jump\t// out\n        /* \"#utility.yul\":9242:9565   */\n    tag_451:\n      0x00\n        /* \"#utility.yul\":9405:9472   */\n      tag_453\n        /* \"#utility.yul\":9469:9471   */\n      0x19\n        /* \"#utility.yul\":9464:9467   */\n      dup4\n        /* \"#utility.yul\":9405:9472   */\n      tag_444\n      jump\t// in\n    tag_453:\n        /* \"#utility.yul\":9398:9472   */\n      swap2\n      pop\n        /* \"#utility.yul\":9502:9529   */\n      0x5468697320746f6b656e20646f6573206e6f7420657869737400000000000000\n        /* \"#utility.yul\":9498:9499   */\n      0x00\n        /* \"#utility.yul\":9493:9496   */\n      dup4\n        /* \"#utility.yul\":9489:9500   */\n      add\n        /* \"#utility.yul\":9482:9530   */\n      mstore\n        /* \"#utility.yul\":9556:9558   */\n      0x20\n        /* \"#utility.yul\":9551:9554   */\n      dup3\n        /* \"#utility.yul\":9547:9559   */\n      add\n        /* \"#utility.yul\":9540:9559   */\n      swap1\n      pop\n        /* \"#utility.yul\":9388:9565   */\n      swap2\n      swap1\n      pop\n      jump\t// out\n        /* \"#utility.yul\":9571:9890   */\n    tag_454:\n      0x00\n        /* \"#utility.yul\":9734:9801   */\n      tag_456\n        /* \"#utility.yul\":9798:9800   */\n      0x15\n        /* \"#utility.yul\":9793:9796   */\n      dup4\n        /* \"#utility.yul\":9734:9801   */\n      tag_444\n      jump\t// in\n    tag_456:\n        /* \"#utility.yul\":9727:9801   */\n      swap2\n      pop\n        /* \"#utility.yul\":9831:9854   */\n      0x546f6b656e2062616c616e636520746f6f206c6f770000000000000000000000\n        /* \"#utility.yul\":9827:9828   */\n      0x00\n        /* \"#utility.yul\":9822:9825   */\n      dup4\n        /* \"#utility.yul\":9818:9829   */\n      add\n        /* \"#utility.yul\":9811:9855   */\n      mstore\n        /* \"#utility.yul\":9881:9883   */\n      0x20\n        /* \"#utility.yul\":9876:9879   */\n      dup3\n        /* \"#utility.yul\":9872:9884   */\n      add\n        /* \"#utility.yul\":9865:9884   */\n      swap1\n      pop\n        /* \"#utility.yul\":9717:9890   */\n      swap2\n      swap1\n      pop\n      jump\t// out\n        /* \"#utility.yul\":9896:10210   */\n    tag_457:\n      0x00\n        /* \"#utility.yul\":10059:10126   */\n      tag_459\n        /* \"#utility.yul\":10123:10125   */\n      0x10\n        /* \"#utility.yul\":10118:10121   */\n      dup4\n        /* \"#utility.yul\":10059:10126   */\n      tag_444\n      jump\t// in\n    tag_459:\n        /* \"#utility.yul\":10052:10126   */\n      swap2\n      pop\n        /* \"#utility.yul\":10156:10174   */\n      0x43616e6e6f742074726164652044414900000000000000000000000000000000\n        /* \"#utility.yul\":10152:10153   */\n      0x00\n        /* \"#utility.yul\":10147:10150   */\n      dup4\n        /* \"#utility.yul\":10143:10154   */\n      add\n        /* \"#utility.yul\":10136:10175   */\n      mstore\n        /* \"#utility.yul\":10201:10203   */\n      0x20\n        /* \"#utility.yul\":10196:10199   */\n      dup3\n        /* \"#utility.yul\":10192:10204   */\n      add\n        /* \"#utility.yul\":10185:10204   */\n      swap1\n      pop\n        /* \"#utility.yul\":10042:10210   */\n      swap2\n      swap1\n      pop\n      jump\t// out\n        /* \"#utility.yul\":10260:11807   */\n    tag_387:\n        /* \"#utility.yul\":10389:10395   */\n      0x0100\n        /* \"#utility.yul\":10384:10387   */\n      dup3\n        /* \"#utility.yul\":10380:10396   */\n      add\n        /* \"#utility.yul\":10476:10480   */\n      0x00\n        /* \"#utility.yul\":10469:10474   */\n      dup3\n        /* \"#utility.yul\":10465:10481   */\n      add\n        /* \"#utility.yul\":10459:10482   */\n      mload\n        /* \"#utility.yul\":10495:10558   */\n      tag_461\n        /* \"#utility.yul\":10552:10556   */\n      0x00\n        /* \"#utility.yul\":10547:10550   */\n      dup6\n        /* \"#utility.yul\":10543:10557   */\n      add\n        /* \"#utility.yul\":10529:10541   */\n      dup3\n        /* \"#utility.yul\":10495:10558   */\n      tag_462\n      jump\t// in\n    tag_461:\n        /* \"#utility.yul\":10406:10568   */\n      pop\n        /* \"#utility.yul\":10652:10656   */\n      0x20\n        /* \"#utility.yul\":10645:10650   */\n      dup3\n        /* \"#utility.yul\":10641:10657   */\n      add\n        /* \"#utility.yul\":10635:10658   */\n      mload\n        /* \"#utility.yul\":10671:10734   */\n      tag_463\n        /* \"#utility.yul\":10728:10732   */\n      0x20\n        /* \"#utility.yul\":10723:10726   */\n      dup6\n        /* \"#utility.yul\":10719:10733   */\n      add\n        /* \"#utility.yul\":10705:10717   */\n      dup3\n        /* \"#utility.yul\":10671:10734   */\n      tag_392\n      jump\t// in\n    tag_463:\n        /* \"#utility.yul\":10578:10744   */\n      pop\n        /* \"#utility.yul\":10826:10830   */\n      0x40\n        /* \"#utility.yul\":10819:10824   */\n      dup3\n        /* \"#utility.yul\":10815:10831   */\n      add\n        /* \"#utility.yul\":10809:10832   */\n      mload\n        /* \"#utility.yul\":10845:10913   */\n      tag_464\n        /* \"#utility.yul\":10907:10911   */\n      0x40\n        /* \"#utility.yul\":10902:10905   */\n      dup6\n        /* \"#utility.yul\":10898:10912   */\n      add\n        /* \"#utility.yul\":10884:10896   */\n      dup3\n        /* \"#utility.yul\":10845:10913   */\n      tag_434\n      jump\t// in\n    tag_464:\n        /* \"#utility.yul\":10754:10923   */\n      pop\n        /* \"#utility.yul\":11007:11011   */\n      0x60\n        /* \"#utility.yul\":11000:11005   */\n      dup3\n        /* \"#utility.yul\":10996:11012   */\n      add\n        /* \"#utility.yul\":10990:11013   */\n      mload\n        /* \"#utility.yul\":11026:11089   */\n      tag_465\n        /* \"#utility.yul\":11083:11087   */\n      0x60\n        /* \"#utility.yul\":11078:11081   */\n      dup6\n        /* \"#utility.yul\":11074:11088   */\n      add\n        /* \"#utility.yul\":11060:11072   */\n      dup3\n        /* \"#utility.yul\":11026:11089   */\n      tag_427\n      jump\t// in\n    tag_465:\n        /* \"#utility.yul\":10933:11099   */\n      pop\n        /* \"#utility.yul\":11183:11187   */\n      0x80\n        /* \"#utility.yul\":11176:11181   */\n      dup3\n        /* \"#utility.yul\":11172:11188   */\n      add\n        /* \"#utility.yul\":11166:11189   */\n      mload\n        /* \"#utility.yul\":11202:11265   */\n      tag_466\n        /* \"#utility.yul\":11259:11263   */\n      0x80\n        /* \"#utility.yul\":11254:11257   */\n      dup6\n        /* \"#utility.yul\":11250:11264   */\n      add\n        /* \"#utility.yul\":11236:11248   */\n      dup3\n        /* \"#utility.yul\":11202:11265   */\n      tag_462\n      jump\t// in\n    tag_466:\n        /* \"#utility.yul\":11109:11275   */\n      pop\n        /* \"#utility.yul\":11359:11363   */\n      0xa0\n        /* \"#utility.yul\":11352:11357   */\n      dup3\n        /* \"#utility.yul\":11348:11364   */\n      add\n        /* \"#utility.yul\":11342:11365   */\n      mload\n        /* \"#utility.yul\":11378:11441   */\n      tag_467\n        /* \"#utility.yul\":11435:11439   */\n      0xa0\n        /* \"#utility.yul\":11430:11433   */\n      dup6\n        /* \"#utility.yul\":11426:11440   */\n      add\n        /* \"#utility.yul\":11412:11424   */\n      dup3\n        /* \"#utility.yul\":11378:11441   */\n      tag_462\n      jump\t// in\n    tag_467:\n        /* \"#utility.yul\":11285:11451   */\n      pop\n        /* \"#utility.yul\":11534:11538   */\n      0xc0\n        /* \"#utility.yul\":11527:11532   */\n      dup3\n        /* \"#utility.yul\":11523:11539   */\n      add\n        /* \"#utility.yul\":11517:11540   */\n      mload\n        /* \"#utility.yul\":11553:11616   */\n      tag_468\n        /* \"#utility.yul\":11610:11614   */\n      0xc0\n        /* \"#utility.yul\":11605:11608   */\n      dup6\n        /* \"#utility.yul\":11601:11615   */\n      add\n        /* \"#utility.yul\":11587:11599   */\n      dup3\n        /* \"#utility.yul\":11553:11616   */\n      tag_462\n      jump\t// in\n    tag_468:\n        /* \"#utility.yul\":11461:11626   */\n      pop\n        /* \"#utility.yul\":11708:11712   */\n      0xe0\n        /* \"#utility.yul\":11701:11706   */\n      dup3\n        /* \"#utility.yul\":11697:11713   */\n      add\n        /* \"#utility.yul\":11691:11714   */\n      mload\n        /* \"#utility.yul\":11727:11790   */\n      tag_469\n        /* \"#utility.yul\":11784:11788   */\n      0xe0\n        /* \"#utility.yul\":11779:11782   */\n      dup6\n        /* \"#utility.yul\":11775:11789   */\n      add\n        /* \"#utility.yul\":11761:11773   */\n      dup3\n        /* \"#utility.yul\":11727:11790   */\n      tag_462\n      jump\t// in\n    tag_469:\n        /* \"#utility.yul\":11636:11800   */\n      pop\n        /* \"#utility.yul\":10358:11807   */\n      pop\n      pop\n      pop\n      jump\t// out\n        /* \"#utility.yul\":11857:12356   */\n    tag_391:\n        /* \"#utility.yul\":11986:11990   */\n      0x40\n        /* \"#utility.yul\":11981:11984   */\n      dup3\n        /* \"#utility.yul\":11977:11991   */\n      add\n        /* \"#utility.yul\":12075:12079   */\n      0x00\n        /* \"#utility.yul\":12068:12073   */\n      dup3\n        /* \"#utility.yul\":12064:12080   */\n      add\n        /* \"#utility.yul\":12058:12081   */\n      mload\n        /* \"#utility.yul\":12094:12157   */\n      tag_471\n        /* \"#utility.yul\":12151:12155   */\n      0x00\n        /* \"#utility.yul\":12146:12149   */\n      dup6\n        /* \"#utility.yul\":12142:12156   */\n      add\n        /* \"#utility.yul\":12128:12140   */\n      dup3\n        /* \"#utility.yul\":12094:12157   */\n      tag_427\n      jump\t// in\n    tag_471:\n        /* \"#utility.yul\":12001:12167   */\n      pop\n        /* \"#utility.yul\":12257:12261   */\n      0x20\n        /* \"#utility.yul\":12250:12255   */\n      dup3\n        /* \"#utility.yul\":12246:12262   */\n      add\n        /* \"#utility.yul\":12240:12263   */\n      mload\n        /* \"#utility.yul\":12276:12339   */\n      tag_472\n        /* \"#utility.yul\":12333:12337   */\n      0x20\n        /* \"#utility.yul\":12328:12331   */\n      dup6\n        /* \"#utility.yul\":12324:12338   */\n      add\n        /* \"#utility.yul\":12310:12322   */\n      dup3\n        /* \"#utility.yul\":12276:12339   */\n      tag_392\n      jump\t// in\n    tag_472:\n        /* \"#utility.yul\":12177:12349   */\n      pop\n        /* \"#utility.yul\":11955:12356   */\n      pop\n      pop\n      pop\n      jump\t// out\n        /* \"#utility.yul\":12362:12470   */\n    tag_462:\n        /* \"#utility.yul\":12439:12463   */\n      tag_474\n        /* \"#utility.yul\":12457:12462   */\n      dup2\n        /* \"#utility.yul\":12439:12463   */\n      tag_475\n      jump\t// in\n    tag_474:\n        /* \"#utility.yul\":12434:12437   */\n      dup3\n        /* \"#utility.yul\":12427:12464   */\n      mstore\n        /* \"#utility.yul\":12417:12470   */\n      pop\n      pop\n      jump\t// out\n        /* \"#utility.yul\":12476:12594   */\n    tag_476:\n        /* \"#utility.yul\":12563:12587   */\n      tag_478\n        /* \"#utility.yul\":12581:12586   */\n      dup2\n        /* \"#utility.yul\":12563:12587   */\n      tag_475\n      jump\t// in\n    tag_478:\n        /* \"#utility.yul\":12558:12561   */\n      dup3\n        /* \"#utility.yul\":12551:12588   */\n      mstore\n        /* \"#utility.yul\":12541:12594   */\n      pop\n      pop\n      jump\t// out\n        /* \"#utility.yul\":12600:12822   */\n    tag_77:\n      0x00\n        /* \"#utility.yul\":12731:12733   */\n      0x20\n        /* \"#utility.yul\":12720:12729   */\n      dup3\n        /* \"#utility.yul\":12716:12734   */\n      add\n        /* \"#utility.yul\":12708:12734   */\n      swap1\n      pop\n        /* \"#utility.yul\":12744:12815   */\n      tag_480\n        /* \"#utility.yul\":12812:12813   */\n      0x00\n        /* \"#utility.yul\":12801:12810   */\n      dup4\n        /* \"#utility.yul\":12797:12814   */\n      add\n        /* \"#utility.yul\":12788:12794   */\n      dup5\n        /* \"#utility.yul\":12744:12815   */\n      tag_396\n      jump\t// in\n    tag_480:\n        /* \"#utility.yul\":12698:12822   */\n      swap3\n      swap2\n      pop\n      pop\n      jump\t// out\n        /* \"#utility.yul\":12828:13270   */\n    tag_250:\n      0x00\n        /* \"#utility.yul\":13015:13017   */\n      0x60\n        /* \"#utility.yul\":13004:13013   */\n      dup3\n        /* \"#utility.yul\":13000:13018   */\n      add\n        /* \"#utility.yul\":12992:13018   */\n      swap1\n      pop\n        /* \"#utility.yul\":13028:13099   */\n      tag_482\n        /* \"#utility.yul\":13096:13097   */\n      0x00\n        /* \"#utility.yul\":13085:13094   */\n      dup4\n        /* \"#utility.yul\":13081:13098   */\n      add\n        /* \"#utility.yul\":13072:13078   */\n      dup7\n        /* \"#utility.yul\":13028:13099   */\n      tag_396\n      jump\t// in\n    tag_482:\n        /* \"#utility.yul\":13109:13181   */\n      tag_483\n        /* \"#utility.yul\":13177:13179   */\n      0x20\n        /* \"#utility.yul\":13166:13175   */\n      dup4\n        /* \"#utility.yul\":13162:13180   */\n      add\n        /* \"#utility.yul\":13153:13159   */\n      dup6\n        /* \"#utility.yul\":13109:13181   */\n      tag_396\n      jump\t// in\n    tag_483:\n        /* \"#utility.yul\":13191:13263   */\n      tag_484\n        /* \"#utility.yul\":13259:13261   */\n      0x40\n        /* \"#utility.yul\":13248:13257   */\n      dup4\n        /* \"#utility.yul\":13244:13262   */\n      add\n        /* \"#utility.yul\":13235:13241   */\n      dup5\n        /* \"#utility.yul\":13191:13263   */\n      tag_476\n      jump\t// in\n    tag_484:\n        /* \"#utility.yul\":12982:13270   */\n      swap5\n      swap4\n      pop\n      pop\n      pop\n      pop\n      jump\t// out\n        /* \"#utility.yul\":13276:13608   */\n    tag_224:\n      0x00\n        /* \"#utility.yul\":13435:13437   */\n      0x40\n        /* \"#utility.yul\":13424:13433   */\n      dup3\n        /* \"#utility.yul\":13420:13438   */\n      add\n        /* \"#utility.yul\":13412:13438   */\n      swap1\n      pop\n        /* \"#utility.yul\":13448:13519   */\n      tag_486\n        /* \"#utility.yul\":13516:13517   */\n      0x00\n        /* \"#utility.yul\":13505:13514   */\n      dup4\n        /* \"#utility.yul\":13501:13518   */\n      add\n        /* \"#utility.yul\":13492:13498   */\n      dup6\n        /* \"#utility.yul\":13448:13519   */\n      tag_396\n      jump\t// in\n    tag_486:\n        /* \"#utility.yul\":13529:13601   */\n      tag_487\n        /* \"#utility.yul\":13597:13599   */\n      0x20\n        /* \"#utility.yul\":13586:13595   */\n      dup4\n        /* \"#utility.yul\":13582:13600   */\n      add\n        /* \"#utility.yul\":13573:13579   */\n      dup5\n        /* \"#utility.yul\":13529:13601   */\n      tag_476\n      jump\t// in\n    tag_487:\n        /* \"#utility.yul\":13402:13608   */\n      swap4\n      swap3\n      pop\n      pop\n      pop\n      jump\t// out\n        /* \"#utility.yul\":13614:14071   */\n    tag_33:\n      0x00\n        /* \"#utility.yul\":13837:13839   */\n      0x20\n        /* \"#utility.yul\":13826:13835   */\n      dup3\n        /* \"#utility.yul\":13822:13840   */\n      add\n        /* \"#utility.yul\":13814:13840   */\n      swap1\n      pop\n        /* \"#utility.yul\":13886:13895   */\n      dup2\n        /* \"#utility.yul\":13880:13884   */\n      dup2\n        /* \"#utility.yul\":13876:13896   */\n      sub\n        /* \"#utility.yul\":13872:13873   */\n      0x00\n        /* \"#utility.yul\":13861:13870   */\n      dup4\n        /* \"#utility.yul\":13857:13874   */\n      add\n        /* \"#utility.yul\":13850:13897   */\n      mstore\n        /* \"#utility.yul\":13914:14064   */\n      tag_489\n        /* \"#utility.yul\":14059:14063   */\n      dup2\n        /* \"#utility.yul\":14050:14056   */\n      dup5\n        /* \"#utility.yul\":13914:14064   */\n      tag_399\n      jump\t// in\n    tag_489:\n        /* \"#utility.yul\":13906:14064   */\n      swap1\n      pop\n        /* \"#utility.yul\":13804:14071   */\n      swap3\n      swap2\n      pop\n      pop\n      jump\t// out\n        /* \"#utility.yul\":14077:14534   */\n    tag_66:\n      0x00\n        /* \"#utility.yul\":14300:14302   */\n      0x20\n        /* \"#utility.yul\":14289:14298   */\n      dup3\n        /* \"#utility.yul\":14285:14303   */\n      add\n        /* \"#utility.yul\":14277:14303   */\n      swap1\n      pop\n        /* \"#utility.yul\":14349:14358   */\n      dup2\n        /* \"#utility.yul\":14343:14347   */\n      dup2\n        /* \"#utility.yul\":14339:14359   */\n      sub\n        /* \"#utility.yul\":14335:14336   */\n      0x00\n        /* \"#utility.yul\":14324:14333   */\n      dup4\n        /* \"#utility.yul\":14320:14337   */\n      add\n        /* \"#utility.yul\":14313:14360   */\n      mstore\n        /* \"#utility.yul\":14377:14527   */\n      tag_491\n        /* \"#utility.yul\":14522:14526   */\n      dup2\n        /* \"#utility.yul\":14513:14519   */\n      dup5\n        /* \"#utility.yul\":14377:14527   */\n      tag_413\n      jump\t// in\n    tag_491:\n        /* \"#utility.yul\":14369:14527   */\n      swap1\n      pop\n        /* \"#utility.yul\":14267:14534   */\n      swap3\n      swap2\n      pop\n      pop\n      jump\t// out\n        /* \"#utility.yul\":14540:14762   */\n    tag_58:\n      0x00\n        /* \"#utility.yul\":14671:14673   */\n      0x20\n        /* \"#utility.yul\":14660:14669   */\n      dup3\n        /* \"#utility.yul\":14656:14674   */\n      add\n        /* \"#utility.yul\":14648:14674   */\n      swap1\n      pop\n        /* \"#utility.yul\":14684:14755   */\n      tag_493\n        /* \"#utility.yul\":14752:14753   */\n      0x00\n        /* \"#utility.yul\":14741:14750   */\n      dup4\n        /* \"#utility.yul\":14737:14754   */\n      add\n        /* \"#utility.yul\":14728:14734   */\n      dup5\n        /* \"#utility.yul\":14684:14755   */\n      tag_431\n      jump\t// in\n    tag_493:\n        /* \"#utility.yul\":14638:14762   */\n      swap3\n      swap2\n      pop\n      pop\n      jump\t// out\n        /* \"#utility.yul\":14768:15100   */\n    tag_48:\n      0x00\n        /* \"#utility.yul\":14927:14929   */\n      0x40\n        /* \"#utility.yul\":14916:14925   */\n      dup3\n        /* \"#utility.yul\":14912:14930   */\n      add\n        /* \"#utility.yul\":14904:14930   */\n      swap1\n      pop\n        /* \"#utility.yul\":14940:15011   */\n      tag_495\n        /* \"#utility.yul\":15008:15009   */\n      0x00\n        /* \"#utility.yul\":14997:15006   */\n      dup4\n        /* \"#utility.yul\":14993:15010   */\n      add\n        /* \"#utility.yul\":14984:14990   */\n      dup6\n        /* \"#utility.yul\":14940:15011   */\n      tag_431\n      jump\t// in\n    tag_495:\n        /* \"#utility.yul\":15021:15093   */\n      tag_496\n        /* \"#utility.yul\":15089:15091   */\n      0x20\n        /* \"#utility.yul\":15078:15087   */\n      dup4\n        /* \"#utility.yul\":15074:15092   */\n      add\n        /* \"#utility.yul\":15065:15071   */\n      dup5\n        /* \"#utility.yul\":15021:15093   */\n      tag_396\n      jump\t// in\n    tag_496:\n        /* \"#utility.yul\":14894:15100   */\n      swap4\n      swap3\n      pop\n      pop\n      pop\n      jump\t// out\n        /* \"#utility.yul\":15106:15525   */\n    tag_221:\n      0x00\n        /* \"#utility.yul\":15310:15312   */\n      0x20\n        /* \"#utility.yul\":15299:15308   */\n      dup3\n        /* \"#utility.yul\":15295:15313   */\n      add\n        /* \"#utility.yul\":15287:15313   */\n      swap1\n      pop\n        /* \"#utility.yul\":15359:15368   */\n      dup2\n        /* \"#utility.yul\":15353:15357   */\n      dup2\n        /* \"#utility.yul\":15349:15369   */\n      sub\n        /* \"#utility.yul\":15345:15346   */\n      0x00\n        /* \"#utility.yul\":15334:15343   */\n      dup4\n        /* \"#utility.yul\":15330:15347   */\n      add\n        /* \"#utility.yul\":15323:15370   */\n      mstore\n        /* \"#utility.yul\":15387:15518   */\n      tag_498\n        /* \"#utility.yul\":15513:15517   */\n      dup2\n        /* \"#utility.yul\":15387:15518   */\n      tag_441\n      jump\t// in\n    tag_498:\n        /* \"#utility.yul\":15379:15518   */\n      swap1\n      pop\n        /* \"#utility.yul\":15277:15525   */\n      swap2\n      swap1\n      pop\n      jump\t// out\n        /* \"#utility.yul\":15531:15950   */\n    tag_210:\n      0x00\n        /* \"#utility.yul\":15735:15737   */\n      0x20\n        /* \"#utility.yul\":15724:15733   */\n      dup3\n        /* \"#utility.yul\":15720:15738   */\n      add\n        /* \"#utility.yul\":15712:15738   */\n      swap1\n      pop\n        /* \"#utility.yul\":15784:15793   */\n      dup2\n        /* \"#utility.yul\":15778:15782   */\n      dup2\n        /* \"#utility.yul\":15774:15794   */\n      sub\n        /* \"#utility.yul\":15770:15771   */\n      0x00\n        /* \"#utility.yul\":15759:15768   */\n      dup4\n        /* \"#utility.yul\":15755:15772   */\n      add\n        /* \"#utility.yul\":15748:15795   */\n      mstore\n        /* \"#utility.yul\":15812:15943   */\n      tag_500\n        /* \"#utility.yul\":15938:15942   */\n      dup2\n        /* \"#utility.yul\":15812:15943   */\n      tag_445\n      jump\t// in\n    tag_500:\n        /* \"#utility.yul\":15804:15943   */\n      swap1\n      pop\n        /* \"#utility.yul\":15702:15950   */\n      swap2\n      swap1\n      pop\n      jump\t// out\n        /* \"#utility.yul\":15956:16375   */\n    tag_162:\n      0x00\n        /* \"#utility.yul\":16160:16162   */\n      0x20\n        /* \"#utility.yul\":16149:16158   */\n      dup3\n        /* \"#utility.yul\":16145:16163   */\n      add\n        /* \"#utility.yul\":16137:16163   */\n      swap1\n      pop\n        /* \"#utility.yul\":16209:16218   */\n      dup2\n        /* \"#utility.yul\":16203:16207   */\n      dup2\n        /* \"#utility.yul\":16199:16219   */\n      sub\n        /* \"#utility.yul\":16195:16196   */\n      0x00\n        /* \"#utility.yul\":16184:16193   */\n      dup4\n        /* \"#utility.yul\":16180:16197   */\n      add\n        /* \"#utility.yul\":16173:16220   */\n      mstore\n        /* \"#utility.yul\":16237:16368   */\n      tag_502\n        /* \"#utility.yul\":16363:16367   */\n      dup2\n        /* \"#utility.yul\":16237:16368   */\n      tag_448\n      jump\t// in\n    tag_502:\n        /* \"#utility.yul\":16229:16368   */\n      swap1\n      pop\n        /* \"#utility.yul\":16127:16375   */\n      swap2\n      swap1\n      pop\n      jump\t// out\n        /* \"#utility.yul\":16381:16800   */\n    tag_90:\n      0x00\n        /* \"#utility.yul\":16585:16587   */\n      0x20\n        /* \"#utility.yul\":16574:16583   */\n      dup3\n        /* \"#utility.yul\":16570:16588   */\n      add\n        /* \"#utility.yul\":16562:16588   */\n      swap1\n      pop\n        /* \"#utility.yul\":16634:16643   */\n      dup2\n        /* \"#utility.yul\":16628:16632   */\n      dup2\n        /* \"#utility.yul\":16624:16644   */\n      sub\n        /* \"#utility.yul\":16620:16621   */\n      0x00\n        /* \"#utility.yul\":16609:16618   */\n      dup4\n        /* \"#utility.yul\":16605:16622   */\n      add\n        /* \"#utility.yul\":16598:16645   */\n      mstore\n        /* \"#utility.yul\":16662:16793   */\n      tag_504\n        /* \"#utility.yul\":16788:16792   */\n      dup2\n        /* \"#utility.yul\":16662:16793   */\n      tag_451\n      jump\t// in\n    tag_504:\n        /* \"#utility.yul\":16654:16793   */\n      swap1\n      pop\n        /* \"#utility.yul\":16552:16800   */\n      swap2\n      swap1\n      pop\n      jump\t// out\n        /* \"#utility.yul\":16806:17225   */\n    tag_101:\n      0x00\n        /* \"#utility.yul\":17010:17012   */\n      0x20\n        /* \"#utility.yul\":16999:17008   */\n      dup3\n        /* \"#utility.yul\":16995:17013   */\n      add\n        /* \"#utility.yul\":16987:17013   */\n      swap1\n      pop\n        /* \"#utility.yul\":17059:17068   */\n      dup2\n        /* \"#utility.yul\":17053:17057   */\n      dup2\n        /* \"#utility.yul\":17049:17069   */\n      sub\n        /* \"#utility.yul\":17045:17046   */\n      0x00\n        /* \"#utility.yul\":17034:17043   */\n      dup4\n        /* \"#utility.yul\":17030:17047   */\n      add\n        /* \"#utility.yul\":17023:17070   */\n      mstore\n        /* \"#utility.yul\":17087:17218   */\n      tag_506\n        /* \"#utility.yul\":17213:17217   */\n      dup2\n        /* \"#utility.yul\":17087:17218   */\n      tag_454\n      jump\t// in\n    tag_506:\n        /* \"#utility.yul\":17079:17218   */\n      swap1\n      pop\n        /* \"#utility.yul\":16977:17225   */\n      swap2\n      swap1\n      pop\n      jump\t// out\n        /* \"#utility.yul\":17231:17650   */\n    tag_94:\n      0x00\n        /* \"#utility.yul\":17435:17437   */\n      0x20\n        /* \"#utility.yul\":17424:17433   */\n      dup3\n        /* \"#utility.yul\":17420:17438   */\n      add\n        /* \"#utility.yul\":17412:17438   */\n      swap1\n      pop\n        /* \"#utility.yul\":17484:17493   */\n      dup2\n        /* \"#utility.yul\":17478:17482   */\n      dup2\n        /* \"#utility.yul\":17474:17494   */\n      sub\n        /* \"#utility.yul\":17470:17471   */\n      0x00\n        /* \"#utility.yul\":17459:17468   */\n      dup4\n        /* \"#utility.yul\":17455:17472   */\n      add\n        /* \"#utility.yul\":17448:17495   */\n      mstore\n        /* \"#utility.yul\":17512:17643   */\n      tag_508\n        /* \"#utility.yul\":17638:17642   */\n      dup2\n        /* \"#utility.yul\":17512:17643   */\n      tag_457\n      jump\t// in\n    tag_508:\n        /* \"#utility.yul\":17504:17643   */\n      swap1\n      pop\n        /* \"#utility.yul\":17402:17650   */\n      swap2\n      swap1\n      pop\n      jump\t// out\n        /* \"#utility.yul\":17656:17878   */\n    tag_27:\n      0x00\n        /* \"#utility.yul\":17787:17789   */\n      0x20\n        /* \"#utility.yul\":17776:17785   */\n      dup3\n        /* \"#utility.yul\":17772:17790   */\n      add\n        /* \"#utility.yul\":17764:17790   */\n      swap1\n      pop\n        /* \"#utility.yul\":17800:17871   */\n      tag_510\n        /* \"#utility.yul\":17868:17869   */\n      0x00\n        /* \"#utility.yul\":17857:17866   */\n      dup4\n        /* \"#utility.yul\":17853:17870   */\n      add\n        /* \"#utility.yul\":17844:17850   */\n      dup5\n        /* \"#utility.yul\":17800:17871   */\n      tag_476\n      jump\t// in\n    tag_510:\n        /* \"#utility.yul\":17754:17878   */\n      swap3\n      swap2\n      pop\n      pop\n      jump\t// out\n        /* \"#utility.yul\":17884:18891   */\n    tag_23:\n      0x00\n        /* \"#utility.yul\":18216:18219   */\n      0x0100\n        /* \"#utility.yul\":18205:18214   */\n      dup3\n        /* \"#utility.yul\":18201:18220   */\n      add\n        /* \"#utility.yul\":18193:18220   */\n      swap1\n      pop\n        /* \"#utility.yul\":18230:18301   */\n      tag_512\n        /* \"#utility.yul\":18298:18299   */\n      0x00\n        /* \"#utility.yul\":18287:18296   */\n      dup4\n        /* \"#utility.yul\":18283:18300   */\n      add\n        /* \"#utility.yul\":18274:18280   */\n      dup12\n        /* \"#utility.yul\":18230:18301   */\n      tag_476\n      jump\t// in\n    tag_512:\n        /* \"#utility.yul\":18311:18383   */\n      tag_513\n        /* \"#utility.yul\":18379:18381   */\n      0x20\n        /* \"#utility.yul\":18368:18377   */\n      dup4\n        /* \"#utility.yul\":18364:18382   */\n      add\n        /* \"#utility.yul\":18355:18361   */\n      dup11\n        /* \"#utility.yul\":18311:18383   */\n      tag_396\n      jump\t// in\n    tag_513:\n        /* \"#utility.yul\":18393:18470   */\n      tag_514\n        /* \"#utility.yul\":18466:18468   */\n      0x40\n        /* \"#utility.yul\":18455:18464   */\n      dup4\n        /* \"#utility.yul\":18451:18469   */\n      add\n        /* \"#utility.yul\":18442:18448   */\n      dup10\n        /* \"#utility.yul\":18393:18470   */\n      tag_438\n      jump\t// in\n    tag_514:\n        /* \"#utility.yul\":18480:18552   */\n      tag_515\n        /* \"#utility.yul\":18548:18550   */\n      0x60\n        /* \"#utility.yul\":18537:18546   */\n      dup4\n        /* \"#utility.yul\":18533:18551   */\n      add\n        /* \"#utility.yul\":18524:18530   */\n      dup9\n        /* \"#utility.yul\":18480:18552   */\n      tag_431\n      jump\t// in\n    tag_515:\n        /* \"#utility.yul\":18562:18635   */\n      tag_516\n        /* \"#utility.yul\":18630:18633   */\n      0x80\n        /* \"#utility.yul\":18619:18628   */\n      dup4\n        /* \"#utility.yul\":18615:18634   */\n      add\n        /* \"#utility.yul\":18606:18612   */\n      dup8\n        /* \"#utility.yul\":18562:18635   */\n      tag_476\n      jump\t// in\n    tag_516:\n        /* \"#utility.yul\":18645:18718   */\n      tag_517\n        /* \"#utility.yul\":18713:18716   */\n      0xa0\n        /* \"#utility.yul\":18702:18711   */\n      dup4\n        /* \"#utility.yul\":18698:18717   */\n      add\n        /* \"#utility.yul\":18689:18695   */\n      dup7\n        /* \"#utility.yul\":18645:18718   */\n      tag_476\n      jump\t// in\n    tag_517:\n        /* \"#utility.yul\":18728:18801   */\n      tag_518\n        /* \"#utility.yul\":18796:18799   */\n      0xc0\n        /* \"#utility.yul\":18785:18794   */\n      dup4\n        /* \"#utility.yul\":18781:18800   */\n      add\n        /* \"#utility.yul\":18772:18778   */\n      dup6\n        /* \"#utility.yul\":18728:18801   */\n      tag_476\n      jump\t// in\n    tag_518:\n        /* \"#utility.yul\":18811:18884   */\n      tag_519\n        /* \"#utility.yul\":18879:18882   */\n      0xe0\n        /* \"#utility.yul\":18868:18877   */\n      dup4\n        /* \"#utility.yul\":18864:18883   */\n      add\n        /* \"#utility.yul\":18855:18861   */\n      dup5\n        /* \"#utility.yul\":18811:18884   */\n      tag_476\n      jump\t// in\n    tag_519:\n        /* \"#utility.yul\":18183:18891   */\n      swap10\n      swap9\n      pop\n      pop\n      pop\n      pop\n      pop\n      pop\n      pop\n      pop\n      pop\n      jump\t// out\n        /* \"#utility.yul\":18897:19561   */\n    tag_133:\n      0x00\n        /* \"#utility.yul\":19140:19143   */\n      0xa0\n        /* \"#utility.yul\":19129:19138   */\n      dup3\n        /* \"#utility.yul\":19125:19144   */\n      add\n        /* \"#utility.yul\":19117:19144   */\n      swap1\n      pop\n        /* \"#utility.yul\":19154:19225   */\n      tag_521\n        /* \"#utility.yul\":19222:19223   */\n      0x00\n        /* \"#utility.yul\":19211:19220   */\n      dup4\n        /* \"#utility.yul\":19207:19224   */\n      add\n        /* \"#utility.yul\":19198:19204   */\n      dup9\n        /* \"#utility.yul\":19154:19225   */\n      tag_476\n      jump\t// in\n    tag_521:\n        /* \"#utility.yul\":19235:19307   */\n      tag_522\n        /* \"#utility.yul\":19303:19305   */\n      0x20\n        /* \"#utility.yul\":19292:19301   */\n      dup4\n        /* \"#utility.yul\":19288:19306   */\n      add\n        /* \"#utility.yul\":19279:19285   */\n      dup8\n        /* \"#utility.yul\":19235:19307   */\n      tag_476\n      jump\t// in\n    tag_522:\n        /* \"#utility.yul\":19317:19389   */\n      tag_523\n        /* \"#utility.yul\":19385:19387   */\n      0x40\n        /* \"#utility.yul\":19374:19383   */\n      dup4\n        /* \"#utility.yul\":19370:19388   */\n      add\n        /* \"#utility.yul\":19361:19367   */\n      dup7\n        /* \"#utility.yul\":19317:19389   */\n      tag_476\n      jump\t// in\n    tag_523:\n        /* \"#utility.yul\":19399:19471   */\n      tag_524\n        /* \"#utility.yul\":19467:19469   */\n      0x60\n        /* \"#utility.yul\":19456:19465   */\n      dup4\n        /* \"#utility.yul\":19452:19470   */\n      add\n        /* \"#utility.yul\":19443:19449   */\n      dup6\n        /* \"#utility.yul\":19399:19471   */\n      tag_476\n      jump\t// in\n    tag_524:\n        /* \"#utility.yul\":19481:19554   */\n      tag_525\n        /* \"#utility.yul\":19549:19552   */\n      0x80\n        /* \"#utility.yul\":19538:19547   */\n      dup4\n        /* \"#utility.yul\":19534:19553   */\n      add\n        /* \"#utility.yul\":19525:19531   */\n      dup5\n        /* \"#utility.yul\":19481:19554   */\n      tag_476\n      jump\t// in\n    tag_525:\n        /* \"#utility.yul\":19107:19561   */\n      swap7\n      swap6\n      pop\n      pop\n      pop\n      pop\n      pop\n      pop\n      jump\t// out\n        /* \"#utility.yul\":19567:19720   */\n    tag_406:\n      0x00\n        /* \"#utility.yul\":19678:19681   */\n      dup2\n        /* \"#utility.yul\":19670:19681   */\n      swap1\n      pop\n        /* \"#utility.yul\":19708:19712   */\n      0x20\n        /* \"#utility.yul\":19703:19706   */\n      dup3\n        /* \"#utility.yul\":19699:19713   */\n      add\n        /* \"#utility.yul\":19691:19713   */\n      swap1\n      pop\n        /* \"#utility.yul\":19660:19720   */\n      swap2\n      swap1\n      pop\n      jump\t// out\n        /* \"#utility.yul\":19726:19879   */\n    tag_420:\n      0x00\n        /* \"#utility.yul\":19837:19840   */\n      dup2\n        /* \"#utility.yul\":19829:19840   */\n      swap1\n      pop\n        /* \"#utility.yul\":19867:19871   */\n      0x20\n        /* \"#utility.yul\":19862:19865   */\n      dup3\n        /* \"#utility.yul\":19858:19872   */\n      add\n        /* \"#utility.yul\":19850:19872   */\n      swap1\n      pop\n        /* \"#utility.yul\":19819:19879   */\n      swap2\n      swap1\n      pop\n      jump\t// out\n        /* \"#utility.yul\":19885:20020   */\n    tag_402:\n      0x00\n        /* \"#utility.yul\":20007:20012   */\n      dup2\n        /* \"#utility.yul\":20001:20013   */\n      mload\n        /* \"#utility.yul\":19991:20013   */\n      swap1\n      pop\n        /* \"#utility.yul\":19980:20020   */\n      swap2\n      swap1\n      pop\n      jump\t// out\n        /* \"#utility.yul\":20026:20161   */\n    tag_416:\n      0x00\n        /* \"#utility.yul\":20148:20153   */\n      dup2\n        /* \"#utility.yul\":20142:20154   */\n      mload\n        /* \"#utility.yul\":20132:20154   */\n      swap1\n      pop\n        /* \"#utility.yul\":20121:20161   */\n      swap2\n      swap1\n      pop\n      jump\t// out\n        /* \"#utility.yul\":20167:20301   */\n    tag_412:\n      0x00\n        /* \"#utility.yul\":20290:20294   */\n      0x20\n        /* \"#utility.yul\":20285:20288   */\n      dup3\n        /* \"#utility.yul\":20281:20295   */\n      add\n        /* \"#utility.yul\":20273:20295   */\n      swap1\n      pop\n        /* \"#utility.yul\":20263:20301   */\n      swap2\n      swap1\n      pop\n      jump\t// out\n        /* \"#utility.yul\":20307:20441   */\n    tag_426:\n      0x00\n        /* \"#utility.yul\":20430:20434   */\n      0x20\n        /* \"#utility.yul\":20425:20428   */\n      dup3\n        /* \"#utility.yul\":20421:20435   */\n      add\n        /* \"#utility.yul\":20413:20435   */\n      swap1\n      pop\n        /* \"#utility.yul\":20403:20441   */\n      swap2\n      swap1\n      pop\n      jump\t// out\n        /* \"#utility.yul\":20447:20652   */\n    tag_404:\n      0x00\n        /* \"#utility.yul\":20601:20607   */\n      dup3\n        /* \"#utility.yul\":20596:20599   */\n      dup3\n        /* \"#utility.yul\":20589:20608   */\n      mstore\n        /* \"#utility.yul\":20641:20645   */\n      0x20\n        /* \"#utility.yul\":20636:20639   */\n      dup3\n        /* \"#utility.yul\":20632:20646   */\n      add\n        /* \"#utility.yul\":20617:20646   */\n      swap1\n      pop\n        /* \"#utility.yul\":20579:20652   */\n      swap3\n      swap2\n      pop\n      pop\n      jump\t// out\n        /* \"#utility.yul\":20658:20863   */\n    tag_418:\n      0x00\n        /* \"#utility.yul\":20812:20818   */\n      dup3\n        /* \"#utility.yul\":20807:20810   */\n      dup3\n        /* \"#utility.yul\":20800:20819   */\n      mstore\n        /* \"#utility.yul\":20852:20856   */\n      0x20\n        /* \"#utility.yul\":20847:20850   */\n      dup3\n        /* \"#utility.yul\":20843:20857   */\n      add\n        /* \"#utility.yul\":20828:20857   */\n      swap1\n      pop\n        /* \"#utility.yul\":20790:20863   */\n      swap3\n      swap2\n      pop\n      pop\n      jump\t// out\n        /* \"#utility.yul\":20869:21038   */\n    tag_444:\n      0x00\n        /* \"#utility.yul\":20987:20993   */\n      dup3\n        /* \"#utility.yul\":20982:20985   */\n      dup3\n        /* \"#utility.yul\":20975:20994   */\n      mstore\n        /* \"#utility.yul\":21027:21031   */\n      0x20\n        /* \"#utility.yul\":21022:21025   */\n      dup3\n        /* \"#utility.yul\":21018:21032   */\n      add\n        /* \"#utility.yul\":21003:21032   */\n      swap1\n      pop\n        /* \"#utility.yul\":20965:21038   */\n      swap3\n      swap2\n      pop\n      pop\n      jump\t// out\n        /* \"#utility.yul\":21044:21349   */\n    tag_196:\n      0x00\n        /* \"#utility.yul\":21103:21123   */\n      tag_536\n        /* \"#utility.yul\":21121:21122   */\n      dup3\n        /* \"#utility.yul\":21103:21123   */\n      tag_475\n      jump\t// in\n    tag_536:\n        /* \"#utility.yul\":21098:21123   */\n      swap2\n      pop\n        /* \"#utility.yul\":21137:21157   */\n      tag_537\n        /* \"#utility.yul\":21155:21156   */\n      dup4\n        /* \"#utility.yul\":21137:21157   */\n      tag_475\n      jump\t// in\n    tag_537:\n        /* \"#utility.yul\":21132:21157   */\n      swap3\n      pop\n        /* \"#utility.yul\":21291:21292   */\n      dup3\n        /* \"#utility.yul\":21223:21289   */\n      0xffffffffffffffffffffffffffffffffffffffffffffffffffffffffffffffff\n        /* \"#utility.yul\":21219:21293   */\n      sub\n        /* \"#utility.yul\":21216:21217   */\n      dup3\n        /* \"#utility.yul\":21213:21294   */\n      gt\n        /* \"#utility.yul\":21210:21212   */\n      iszero\n      tag_538\n      jumpi\n        /* \"#utility.yul\":21297:21315   */\n      tag_539\n      tag_540\n      jump\t// in\n    tag_539:\n        /* \"#utility.yul\":21210:21212   */\n    tag_538:\n        /* \"#utility.yul\":21341:21342   */\n      dup3\n        /* \"#utility.yul\":21338:21339   */\n      dup3\n        /* \"#utility.yul\":21334:21343   */\n      add\n        /* \"#utility.yul\":21327:21343   */\n      swap1\n      pop\n        /* \"#utility.yul\":21088:21349   */\n      swap3\n      swap2\n      pop\n      pop\n      jump\t// out\n        /* \"#utility.yul\":21355:21703   */\n    tag_321:\n      0x00\n        /* \"#utility.yul\":21418:21438   */\n      tag_542\n        /* \"#utility.yul\":21436:21437   */\n      dup3\n        /* \"#utility.yul\":21418:21438   */\n      tag_475\n      jump\t// in\n    tag_542:\n        /* \"#utility.yul\":21413:21438   */\n      swap2\n      pop\n        /* \"#utility.yul\":21452:21472   */\n      tag_543\n        /* \"#utility.yul\":21470:21471   */\n      dup4\n        /* \"#utility.yul\":21452:21472   */\n      tag_475\n      jump\t// in\n    tag_543:\n        /* \"#utility.yul\":21447:21472   */\n      swap3\n      pop\n        /* \"#utility.yul\":21640:21641   */\n      dup2\n        /* \"#utility.yul\":21572:21638   */\n      0xffffffffffffffffffffffffffffffffffffffffffffffffffffffffffffffff\n        /* \"#utility.yul\":21568:21642   */\n      div\n        /* \"#utility.yul\":21565:21566   */\n      dup4\n        /* \"#utility.yul\":21562:21643   */\n      gt\n        /* \"#utility.yul\":21557:21558   */\n      dup3\n        /* \"#utility.yul\":21550:21559   */\n      iszero\n        /* \"#utility.yul\":21543:21560   */\n      iszero\n        /* \"#utility.yul\":21539:21644   */\n      and\n        /* \"#utility.yul\":21536:21538   */\n      iszero\n      tag_544\n      jumpi\n        /* \"#utility.yul\":21647:21665   */\n      tag_545\n      tag_540\n      jump\t// in\n    tag_545:\n        /* \"#utility.yul\":21536:21538   */\n    tag_544:\n        /* \"#utility.yul\":21695:21696   */\n      dup3\n        /* \"#utility.yul\":21692:21693   */\n      dup3\n        /* \"#utility.yul\":21688:21697   */\n      mul\n        /* \"#utility.yul\":21677:21697   */\n      swap1\n      pop\n        /* \"#utility.yul\":21403:21703   */\n      swap3\n      swap2\n      pop\n      pop\n      jump\t// out\n        /* \"#utility.yul\":21709:21900   */\n    tag_194:\n      0x00\n        /* \"#utility.yul\":21769:21789   */\n      tag_547\n        /* \"#utility.yul\":21787:21788   */\n      dup3\n        /* \"#utility.yul\":21769:21789   */\n      tag_475\n      jump\t// in\n    tag_547:\n        /* \"#utility.yul\":21764:21789   */\n      swap2\n      pop\n        /* \"#utility.yul\":21803:21823   */\n      tag_548\n        /* \"#utility.yul\":21821:21822   */\n      dup4\n        /* \"#utility.yul\":21803:21823   */\n      tag_475\n      jump\t// in\n    tag_548:\n        /* \"#utility.yul\":21798:21823   */\n      swap3\n      pop\n        /* \"#utility.yul\":21842:21843   */\n      dup3\n        /* \"#utility.yul\":21839:21840   */\n      dup3\n        /* \"#utility.yul\":21836:21844   */\n      lt\n        /* \"#utility.yul\":21833:21835   */\n      iszero\n      tag_549\n      jumpi\n        /* \"#utility.yul\":21847:21865   */\n      tag_550\n      tag_540\n      jump\t// in\n    tag_550:\n        /* \"#utility.yul\":21833:21835   */\n    tag_549:\n        /* \"#utility.yul\":21892:21893   */\n      dup3\n        /* \"#utility.yul\":21889:21890   */\n      dup3\n        /* \"#utility.yul\":21885:21894   */\n      sub\n        /* \"#utility.yul\":21877:21894   */\n      swap1\n      pop\n        /* \"#utility.yul\":21754:21900   */\n      swap3\n      swap2\n      pop\n      pop\n      jump\t// out\n        /* \"#utility.yul\":21906:22002   */\n    tag_395:\n      0x00\n        /* \"#utility.yul\":21972:21996   */\n      tag_552\n        /* \"#utility.yul\":21990:21995   */\n      dup3\n        /* \"#utility.yul\":21972:21996   */\n      tag_553\n      jump\t// in\n    tag_552:\n        /* \"#utility.yul\":21961:21996   */\n      swap1\n      pop\n        /* \"#utility.yul\":21951:22002   */\n      swap2\n      swap1\n      pop\n      jump\t// out\n        /* \"#utility.yul\":22008:22098   */\n    tag_554:\n      0x00\n        /* \"#utility.yul\":22085:22090   */\n      dup2\n        /* \"#utility.yul\":22078:22091   */\n      iszero\n        /* \"#utility.yul\":22071:22092   */\n      iszero\n        /* \"#utility.yul\":22060:22092   */\n      swap1\n      pop\n        /* \"#utility.yul\":22050:22098   */\n      swap2\n      swap1\n      pop\n      jump\t// out\n        /* \"#utility.yul\":22104:22181   */\n    tag_430:\n      0x00\n        /* \"#utility.yul\":22170:22175   */\n      dup2\n        /* \"#utility.yul\":22159:22175   */\n      swap1\n      pop\n        /* \"#utility.yul\":22149:22181   */\n      swap2\n      swap1\n      pop\n      jump\t// out\n        /* \"#utility.yul\":22187:22312   */\n    tag_557:\n      0x00\n        /* \"#utility.yul\":22260:22265   */\n      dup2\n        /* \"#utility.yul\":22249:22265   */\n      swap1\n      pop\n        /* \"#utility.yul\":22266:22306   */\n      tag_559\n        /* \"#utility.yul\":22300:22305   */\n      dup3\n        /* \"#utility.yul\":22266:22306   */\n      tag_560\n      jump\t// in\n    tag_559:\n        /* \"#utility.yul\":22239:22312   */\n      swap2\n      swap1\n      pop\n      jump\t// out\n        /* \"#utility.yul\":22318:22444   */\n    tag_553:\n      0x00\n        /* \"#utility.yul\":22395:22437   */\n      0xffffffffffffffffffffffffffffffffffffffff\n        /* \"#utility.yul\":22388:22393   */\n      dup3\n        /* \"#utility.yul\":22384:22438   */\n      and\n        /* \"#utility.yul\":22373:22438   */\n      swap1\n      pop\n        /* \"#utility.yul\":22363:22444   */\n      swap2\n      swap1\n      pop\n      jump\t// out\n        /* \"#utility.yul\":22450:22527   */\n    tag_475:\n      0x00\n        /* \"#utility.yul\":22516:22521   */\n      dup2\n        /* \"#utility.yul\":22505:22521   */\n      swap1\n      pop\n        /* \"#utility.yul\":22495:22527   */\n      swap2\n      swap1\n      pop\n      jump\t// out\n        /* \"#utility.yul\":22533:22658   */\n    tag_437:\n      0x00\n        /* \"#utility.yul\":22621:22652   */\n      tag_564\n        /* \"#utility.yul\":22646:22651   */\n      dup3\n        /* \"#utility.yul\":22621:22652   */\n      tag_557\n      jump\t// in\n    tag_564:\n        /* \"#utility.yul\":22608:22652   */\n      swap1\n      pop\n        /* \"#utility.yul\":22598:22658   */\n      swap2\n      swap1\n      pop\n      jump\t// out\n        /* \"#utility.yul\":22664:22897   */\n    tag_203:\n      0x00\n        /* \"#utility.yul\":22726:22750   */\n      tag_566\n        /* \"#utility.yul\":22744:22749   */\n      dup3\n        /* \"#utility.yul\":22726:22750   */\n      tag_475\n      jump\t// in\n    tag_566:\n        /* \"#utility.yul\":22717:22750   */\n      swap2\n      pop\n        /* \"#utility.yul\":22772:22838   */\n      0xffffffffffffffffffffffffffffffffffffffffffffffffffffffffffffffff\n        /* \"#utility.yul\":22765:22770   */\n      dup3\n        /* \"#utility.yul\":22762:22839   */\n      eq\n        /* \"#utility.yul\":22759:22761   */\n      iszero\n      tag_567\n      jumpi\n        /* \"#utility.yul\":22842:22860   */\n      tag_568\n      tag_540\n      jump\t// in\n    tag_568:\n        /* \"#utility.yul\":22759:22761   */\n    tag_567:\n        /* \"#utility.yul\":22889:22890   */\n      0x01\n        /* \"#utility.yul\":22882:22887   */\n      dup3\n        /* \"#utility.yul\":22878:22891   */\n      add\n        /* \"#utility.yul\":22871:22891   */\n      swap1\n      pop\n        /* \"#utility.yul\":22707:22897   */\n      swap2\n      swap1\n      pop\n      jump\t// out\n        /* \"#utility.yul\":22903:23083   */\n    tag_540:\n        /* \"#utility.yul\":22951:23028   */\n      0x4e487b7100000000000000000000000000000000000000000000000000000000\n        /* \"#utility.yul\":22948:22949   */\n      0x00\n        /* \"#utility.yul\":22941:23029   */\n      mstore\n        /* \"#utility.yul\":23048:23052   */\n      0x11\n        /* \"#utility.yul\":23045:23046   */\n      0x04\n        /* \"#utility.yul\":23038:23053   */\n      mstore\n        /* \"#utility.yul\":23072:23076   */\n      0x24\n        /* \"#utility.yul\":23069:23070   */\n      0x00\n        /* \"#utility.yul\":23062:23077   */\n      revert\n        /* \"#utility.yul\":23089:23269   */\n    tag_570:\n        /* \"#utility.yul\":23137:23214   */\n      0x4e487b7100000000000000000000000000000000000000000000000000000000\n        /* \"#utility.yul\":23134:23135   */\n      0x00\n        /* \"#utility.yul\":23127:23215   */\n      mstore\n        /* \"#utility.yul\":23234:23238   */\n      0x21\n        /* \"#utility.yul\":23231:23232   */\n      0x04\n        /* \"#utility.yul\":23224:23239   */\n      mstore\n        /* \"#utility.yul\":23258:23262   */\n      0x24\n        /* \"#utility.yul\":23255:23256   */\n      0x00\n        /* \"#utility.yul\":23248:23263   */\n      revert\n        /* \"#utility.yul\":23275:23387   */\n    tag_560:\n        /* \"#utility.yul\":23355:23356   */\n      0x02\n        /* \"#utility.yul\":23348:23353   */\n      dup2\n        /* \"#utility.yul\":23345:23357   */\n      lt\n        /* \"#utility.yul\":23335:23337   */\n      tag_573\n      jumpi\n        /* \"#utility.yul\":23361:23379   */\n      tag_574\n      tag_570\n      jump\t// in\n    tag_574:\n        /* \"#utility.yul\":23335:23337   */\n    tag_573:\n        /* \"#utility.yul\":23325:23387   */\n      pop\n      jump\t// out\n        /* \"#utility.yul\":23393:23515   */\n    tag_326:\n        /* \"#utility.yul\":23466:23490   */\n      tag_576\n        /* \"#utility.yul\":23484:23489   */\n      dup2\n        /* \"#utility.yul\":23466:23490   */\n      tag_395\n      jump\t// in\n    tag_576:\n        /* \"#utility.yul\":23459:23464   */\n      dup2\n        /* \"#utility.yul\":23456:23491   */\n      eq\n        /* \"#utility.yul\":23446:23448   */\n      tag_577\n      jumpi\n        /* \"#utility.yul\":23505:23506   */\n      0x00\n        /* \"#utility.yul\":23502:23503   */\n      dup1\n        /* \"#utility.yul\":23495:23507   */\n      revert\n        /* \"#utility.yul\":23446:23448   */\n    tag_577:\n        /* \"#utility.yul\":23436:23515   */\n      pop\n      jump\t// out\n        /* \"#utility.yul\":23521:23637   */\n    tag_330:\n        /* \"#utility.yul\":23591:23612   */\n      tag_579\n        /* \"#utility.yul\":23606:23611   */\n      dup2\n        /* \"#utility.yul\":23591:23612   */\n      tag_554\n      jump\t// in\n    tag_579:\n        /* \"#utility.yul\":23584:23589   */\n      dup2\n        /* \"#utility.yul\":23581:23613   */\n      eq\n        /* \"#utility.yul\":23571:23573   */\n      tag_580\n      jumpi\n        /* \"#utility.yul\":23627:23628   */\n      0x00\n        /* \"#utility.yul\":23624:23625   */\n      dup1\n        /* \"#utility.yul\":23617:23629   */\n      revert\n        /* \"#utility.yul\":23571:23573   */\n    tag_580:\n        /* \"#utility.yul\":23561:23637   */\n      pop\n      jump\t// out\n        /* \"#utility.yul\":23643:23765   */\n    tag_334:\n        /* \"#utility.yul\":23716:23740   */\n      tag_582\n        /* \"#utility.yul\":23734:23739   */\n      dup2\n        /* \"#utility.yul\":23716:23740   */\n      tag_430\n      jump\t// in\n    tag_582:\n        /* \"#utility.yul\":23709:23714   */\n      dup2\n        /* \"#utility.yul\":23706:23741   */\n      eq\n        /* \"#utility.yul\":23696:23698   */\n      tag_583\n      jumpi\n        /* \"#utility.yul\":23755:23756   */\n      0x00\n        /* \"#utility.yul\":23752:23753   */\n      dup1\n        /* \"#utility.yul\":23745:23757   */\n      revert\n        /* \"#utility.yul\":23696:23698   */\n    tag_583:\n        /* \"#utility.yul\":23686:23765   */\n      pop\n      jump\t// out\n        /* \"#utility.yul\":23771:23877   */\n    tag_338:\n        /* \"#utility.yul\":23851:23852   */\n      0x02\n        /* \"#utility.yul\":23844:23849   */\n      dup2\n        /* \"#utility.yul\":23841:23853   */\n      lt\n        /* \"#utility.yul\":23831:23833   */\n      tag_585\n      jumpi\n        /* \"#utility.yul\":23867:23868   */\n      0x00\n        /* \"#utility.yul\":23864:23865   */\n      dup1\n        /* \"#utility.yul\":23857:23869   */\n      revert\n        /* \"#utility.yul\":23831:23833   */\n    tag_585:\n        /* \"#utility.yul\":23821:23877   */\n      pop\n      jump\t// out\n        /* \"#utility.yul\":23883:24005   */\n    tag_342:\n        /* \"#utility.yul\":23956:23980   */\n      tag_587\n        /* \"#utility.yul\":23974:23979   */\n      dup2\n        /* \"#utility.yul\":23956:23980   */\n      tag_475\n      jump\t// in\n    tag_587:\n        /* \"#utility.yul\":23949:23954   */\n      dup2\n        /* \"#utility.yul\":23946:23981   */\n      eq\n        /* \"#utility.yul\":23936:23938   */\n      tag_588\n      jumpi\n        /* \"#utility.yul\":23995:23996   */\n      0x00\n        /* \"#utility.yul\":23992:23993   */\n      dup1\n        /* \"#utility.yul\":23985:23997   */\n      revert\n        /* \"#utility.yul\":23936:23938   */\n    tag_588:\n        /* \"#utility.yul\":23926:24005   */\n      pop\n      jump\t// out\n\n    auxdata: 0xa2646970667358221220b0ed5bd6fe75cb3ff504c143d2b99c6faf7d4faf739b09809cfc7356daf929f464736f6c63430008000033\n}\n",
				"bytecode": {
					"linkReferences": {},
					"object": "608060405234801561001057600080fd5b50336000806101000a81548173ffffffffffffffffffffffffffffffffffffffff021916908373ffffffffffffffffffffffffffffffffffffffff160217905550613d6e806100606000396000f3fe608060405234801561001057600080fd5b50600436106100cf5760003560e01c80639776aacf1161008c578063aa6ca80811610066578063aa6ca8081461023e578063c9630cb01461025c578063d9c0c95014610278578063f851a44014610294576100cf565b80639776aacf146101d65780639ead7222146101f2578063a8d2021a14610222576100cf565b80630bb431b6146100d45780632a58b3301461010b57806346e9658b1461012957806372ce957e146101595780637f2c624614610189578063904194a3146101a5575b600080fd5b6100ee60048036038101906100e991906132b7565b6102b2565b604051610102989796959493929190613962565b60405180910390f35b610113610351565b6040516101209190613947565b60405180910390f35b610143600480360381019061013e919061322c565b610357565b60405161015091906137ff565b60405180910390f35b610173600480360381019061016e9190613162565b61052d565b6040516101809190613947565b60405180910390f35b6101a3600480360381019061019e9190613268565b610552565b005b6101bf60048036038101906101ba91906131c7565b611bfc565b6040516101cd92919061385e565b60405180910390f35b6101f060048036038101906101eb91906131f0565b611c40565b005b61020c60048036038101906102079190613369565b611d8d565b6040516102199190613843565b60405180910390f35b61023c60048036038101906102379190613392565b611db1565b005b61024661206b565b6040516102539190613821565b60405180910390f35b61027660048036038101906102719190613392565b61225e565b005b610292600480360381019061028d9190613306565b612487565b005b61029c613060565b6040516102a99190613784565b60405180910390f35b600460205282600052604060002060205281600052604060002081815481106102da57600080fd5b906000526020600020906007020160009250925050508060000154908060010160009054906101000a900473ffffffffffffffffffffffffffffffffffffffff16908060010160149054906101000a900460ff16908060020154908060030154908060040154908060050154908060060154905088565b60055481565b60606004600084815260200190815260200160002060008360018111156103a7577f4e487b7100000000000000000000000000000000000000000000000000000000600052602160045260246000fd5b8152602001908152602001600020805480602002602001604051908101604052809291908181526020016000905b82821015610521578382906000526020600020906007020160405180610100016040529081600082015481526020016001820160009054906101000a900473ffffffffffffffffffffffffffffffffffffffff1673ffffffffffffffffffffffffffffffffffffffff1673ffffffffffffffffffffffffffffffffffffffff1681526020016001820160149054906101000a900460ff1660018111156104a4577f4e487b7100000000000000000000000000000000000000000000000000000000600052602160045260246000fd5b60018111156104dc577f4e487b7100000000000000000000000000000000000000000000000000000000600052602160045260246000fd5b815260200160028201548152602001600382015481526020016004820154815260200160058201548152602001600682015481525050815260200190600101906103d5565b50505050905092915050565b6003602052816000526040600020602052806000526040600020600091509150505481565b82600073ffffffffffffffffffffffffffffffffffffffff166001600083815260200190815260200160002060010160009054906101000a900473ffffffffffffffffffffffffffffffffffffffff1673ffffffffffffffffffffffffffffffffffffffff1614156105f9576040517f08c379a00000000000000000000000000000000000000000000000000000000081526004016105f0906138e7565b60405180910390fd5b837f444149000000000000000000000000000000000000000000000000000000000081141561065d576040517f08c379a000000000000000000000000000000000000000000000000000000000815260040161065490613927565b60405180910390fd5b600180811115610696577f4e487b7100000000000000000000000000000000000000000000000000000000600052602160045260246000fd5b8360018111156106cf577f4e487b7100000000000000000000000000000000000000000000000000000000600052602160045260246000fd5b141561076d5783600360003373ffffffffffffffffffffffffffffffffffffffff1673ffffffffffffffffffffffffffffffffffffffff1681526020019081526020016000206000878152602001908152602001600020541015610768576040517f08c379a000000000000000000000000000000000000000000000000000000000815260040161075f90613907565b60405180910390fd5b61076e565b5b60006004600087815260200190815260200160002060008060018111156107be577f4e487b7100000000000000000000000000000000000000000000000000000000600052602160045260246000fd5b8660018111156107f7577f4e487b7100000000000000000000000000000000000000000000000000000000600052602160045260246000fd5b14610803576000610806565b60015b600181111561083e577f4e487b7100000000000000000000000000000000000000000000000000000000600052602160045260246000fd5b815260200190815260200160002090506000808690505b8280549050821080156108685750600081115b156118975760006109168484815481106108ab577f4e487b7100000000000000000000000000000000000000000000000000000000600052603260045260246000fd5b9060005260206000209060070201600401548585815481106108f6577f4e487b7100000000000000000000000000000000000000000000000000000000600052603260045260246000fd5b90600052602060002090600702016003015461308490919063ffffffff16565b905060008183116109275782610929565b815b905061093e818461308490919063ffffffff16565b925061099d8186868154811061097d577f4e487b7100000000000000000000000000000000000000000000000000000000600052603260045260246000fd5b90600052602060002090600702016004015461309a90919063ffffffff16565b8585815481106109d6577f4e487b7100000000000000000000000000000000000000000000000000000000600052603260045260246000fd5b9060005260206000209060070201600401819055503373ffffffffffffffffffffffffffffffffffffffff16858581548110610a3b577f4e487b7100000000000000000000000000000000000000000000000000000000600052603260045260246000fd5b906000526020600020906007020160010160009054906101000a900473ffffffffffffffffffffffffffffffffffffffff1673ffffffffffffffffffffffffffffffffffffffff168b7fdb0c486e680ba8026643e6a85f8d157b5e7bcd4b32b54d564542570a9eb20416600654898981548110610ae1577f4e487b7100000000000000000000000000000000000000000000000000000000600052603260045260246000fd5b906000526020600020906007020160000154868b8b81548110610b2d577f4e487b7100000000000000000000000000000000000000000000000000000000600052603260045260246000fd5b90600052602060002090600702016005015442604051610b519594939291906139e0565b60405180910390a4600180811115610b92577f4e487b7100000000000000000000000000000000000000000000000000000000600052602160045260246000fd5b886001811115610bcb577f4e487b7100000000000000000000000000000000000000000000000000000000600052602160045260246000fd5b141561119257610c3481600360003373ffffffffffffffffffffffffffffffffffffffff1673ffffffffffffffffffffffffffffffffffffffff16815260200190815260200160002060008d81526020019081526020016000205461308490919063ffffffff16565b600360003373ffffffffffffffffffffffffffffffffffffffff1673ffffffffffffffffffffffffffffffffffffffff16815260200190815260200160002060008c815260200190815260200160002081905550610d67610ce8868681548110610cc7577f4e487b7100000000000000000000000000000000000000000000000000000000600052603260045260246000fd5b906000526020600020906007020160050154836130b090919063ffffffff16565b600360003373ffffffffffffffffffffffffffffffffffffffff1673ffffffffffffffffffffffffffffffffffffffff16815260200190815260200160002060007f444149000000000000000000000000000000000000000000000000000000000081526020019081526020016000205461309a90919063ffffffff16565b600360003373ffffffffffffffffffffffffffffffffffffffff1673ffffffffffffffffffffffffffffffffffffffff16815260200190815260200160002060007f4441490000000000000000000000000000000000000000000000000000000000815260200190815260200160002081905550610ea88160036000888881548110610e1c577f4e487b7100000000000000000000000000000000000000000000000000000000600052603260045260246000fd5b906000526020600020906007020160010160009054906101000a900473ffffffffffffffffffffffffffffffffffffffff1673ffffffffffffffffffffffffffffffffffffffff1673ffffffffffffffffffffffffffffffffffffffff16815260200190815260200160002060008d81526020019081526020016000205461309a90919063ffffffff16565b60036000878781548110610ee5577f4e487b7100000000000000000000000000000000000000000000000000000000600052603260045260246000fd5b906000526020600020906007020160010160009054906101000a900473ffffffffffffffffffffffffffffffffffffffff1673ffffffffffffffffffffffffffffffffffffffff1673ffffffffffffffffffffffffffffffffffffffff16815260200190815260200160002060008c8152602001908152602001600020819055506110af610fc6868681548110610fa5577f4e487b7100000000000000000000000000000000000000000000000000000000600052603260045260246000fd5b906000526020600020906007020160050154836130b090919063ffffffff16565b60036000888881548110611003577f4e487b7100000000000000000000000000000000000000000000000000000000600052603260045260246000fd5b906000526020600020906007020160010160009054906101000a900473ffffffffffffffffffffffffffffffffffffffff1673ffffffffffffffffffffffffffffffffffffffff1673ffffffffffffffffffffffffffffffffffffffff16815260200190815260200160002060007f444149000000000000000000000000000000000000000000000000000000000081526020019081526020016000205461308490919063ffffffff16565b600360008787815481106110ec577f4e487b7100000000000000000000000000000000000000000000000000000000600052603260045260246000fd5b906000526020600020906007020160010160009054906101000a900473ffffffffffffffffffffffffffffffffffffffff1673ffffffffffffffffffffffffffffffffffffffff1673ffffffffffffffffffffffffffffffffffffffff16815260200190815260200160002060007f444149000000000000000000000000000000000000000000000000000000000081526020019081526020016000208190555061185e565b6111ef8585815481106111ce577f4e487b7100000000000000000000000000000000000000000000000000000000600052603260045260246000fd5b906000526020600020906007020160050154826130b090919063ffffffff16565b600360003373ffffffffffffffffffffffffffffffffffffffff1673ffffffffffffffffffffffffffffffffffffffff16815260200190815260200160002060007f444149000000000000000000000000000000000000000000000000000000000081526020019081526020016000205410156112a1576040517f08c379a0000000000000000000000000000000000000000000000000000000008152600401611298906138c7565b60405180910390fd5b61130481600360003373ffffffffffffffffffffffffffffffffffffffff1673ffffffffffffffffffffffffffffffffffffffff16815260200190815260200160002060008d81526020019081526020016000205461309a90919063ffffffff16565b600360003373ffffffffffffffffffffffffffffffffffffffff1673ffffffffffffffffffffffffffffffffffffffff16815260200190815260200160002060008c8152602001908152602001600020819055506114376113b8868681548110611397577f4e487b7100000000000000000000000000000000000000000000000000000000600052603260045260246000fd5b906000526020600020906007020160050154836130b090919063ffffffff16565b600360003373ffffffffffffffffffffffffffffffffffffffff1673ffffffffffffffffffffffffffffffffffffffff16815260200190815260200160002060007f444149000000000000000000000000000000000000000000000000000000000081526020019081526020016000205461308490919063ffffffff16565b600360003373ffffffffffffffffffffffffffffffffffffffff1673ffffffffffffffffffffffffffffffffffffffff16815260200190815260200160002060007f444149000000000000000000000000000000000000000000000000000000000081526020019081526020016000208190555061157881600360008888815481106114ec577f4e487b7100000000000000000000000000000000000000000000000000000000600052603260045260246000fd5b906000526020600020906007020160010160009054906101000a900473ffffffffffffffffffffffffffffffffffffffff1673ffffffffffffffffffffffffffffffffffffffff1673ffffffffffffffffffffffffffffffffffffffff16815260200190815260200160002060008d81526020019081526020016000205461309a90919063ffffffff16565b600360008787815481106115b5577f4e487b7100000000000000000000000000000000000000000000000000000000600052603260045260246000fd5b906000526020600020906007020160010160009054906101000a900473ffffffffffffffffffffffffffffffffffffffff1673ffffffffffffffffffffffffffffffffffffffff1673ffffffffffffffffffffffffffffffffffffffff16815260200190815260200160002060008c81526020019081526020016000208190555061177f611696868681548110611675577f4e487b7100000000000000000000000000000000000000000000000000000000600052603260045260246000fd5b906000526020600020906007020160050154836130b090919063ffffffff16565b600360008888815481106116d3577f4e487b7100000000000000000000000000000000000000000000000000000000600052603260045260246000fd5b906000526020600020906007020160010160009054906101000a900473ffffffffffffffffffffffffffffffffffffffff1673ffffffffffffffffffffffffffffffffffffffff1673ffffffffffffffffffffffffffffffffffffffff16815260200190815260200160002060007f444149000000000000000000000000000000000000000000000000000000000081526020019081526020016000205461308490919063ffffffff16565b600360008787815481106117bc577f4e487b7100000000000000000000000000000000000000000000000000000000600052603260045260246000fd5b906000526020600020906007020160010160009054906101000a900473ffffffffffffffffffffffffffffffffffffffff1673ffffffffffffffffffffffffffffffffffffffff1673ffffffffffffffffffffffffffffffffffffffff16815260200190815260200160002060007f44414900000000000000000000000000000000000000000000000000000000008152602001908152602001600020819055505b611874600160065461309a90919063ffffffff16565b60068190555061188e60018561309a90919063ffffffff16565b93505050610855565b600091505b82805490508210801561194257508282815481106118e3577f4e487b7100000000000000000000000000000000000000000000000000000000600052603260045260246000fd5b90600052602060002090600702016003015483838154811061192e577f4e487b7100000000000000000000000000000000000000000000000000000000600052603260045260246000fd5b906000526020600020906007020160040154145b15611bf25760008290505b6001848054905061195e9190613b66565b811015611b1b57836001826119739190613ab6565b815481106119aa577f4e487b7100000000000000000000000000000000000000000000000000000000600052603260045260246000fd5b90600052602060002090600702018482815481106119f1577f4e487b7100000000000000000000000000000000000000000000000000000000600052603260045260246000fd5b9060005260206000209060070201600082015481600001556001820160009054906101000a900473ffffffffffffffffffffffffffffffffffffffff168160010160006101000a81548173ffffffffffffffffffffffffffffffffffffffff021916908373ffffffffffffffffffffffffffffffffffffffff1602179055506001820160149054906101000a900460ff168160010160146101000a81548160ff02191690836001811115611ace577f4e487b7100000000000000000000000000000000000000000000000000000000600052602160045260246000fd5b021790555060028201548160020155600382015481600301556004820154816004015560058201548160050155600682015481600601559050508080611b1390613c11565b91505061194d565b5082805480611b53577f4e487b7100000000000000000000000000000000000000000000000000000000600052603160045260246000fd5b60019003818190600052602060002090600702016000808201600090556001820160006101000a81549073ffffffffffffffffffffffffffffffffffffffff02191690556001820160146101000a81549060ff02191690556002820160009055600382016000905560048201600090556005820160009055600682016000905550509055611beb60018361309a90919063ffffffff16565b915061189c565b5050505050505050565b60016020528060005260406000206000915090508060000154908060010160009054906101000a900473ffffffffffffffffffffffffffffffffffffffff16905082565b60008054906101000a900473ffffffffffffffffffffffffffffffffffffffff1673ffffffffffffffffffffffffffffffffffffffff163373ffffffffffffffffffffffffffffffffffffffff1614611cce576040517f08c379a0000000000000000000000000000000000000000000000000000000008152600401611cc5906138a7565b60405180910390fd5b60405180604001604052808381526020018273ffffffffffffffffffffffffffffffffffffffff16815250600160008481526020019081526020016000206000820151816000015560208201518160010160006101000a81548173ffffffffffffffffffffffffffffffffffffffff021916908373ffffffffffffffffffffffffffffffffffffffff16021790555090505060028290806001815401808255809150506001900390600052602060002001600090919091909150555050565b60028181548110611d9d57600080fd5b906000526020600020016000915090505481565b80600073ffffffffffffffffffffffffffffffffffffffff166001600083815260200190815260200160002060010160009054906101000a900473ffffffffffffffffffffffffffffffffffffffff1673ffffffffffffffffffffffffffffffffffffffff161415611e58576040517f08c379a0000000000000000000000000000000000000000000000000000000008152600401611e4f906138e7565b60405180910390fd5b82600360003373ffffffffffffffffffffffffffffffffffffffff1673ffffffffffffffffffffffffffffffffffffffff1681526020019081526020016000206000848152602001908152602001600020541015611eeb576040517f08c379a0000000000000000000000000000000000000000000000000000000008152600401611ee290613887565b60405180910390fd5b611f4e83600360003373ffffffffffffffffffffffffffffffffffffffff1673ffffffffffffffffffffffffffffffffffffffff16815260200190815260200160002060008581526020019081526020016000205461308490919063ffffffff16565b600360003373ffffffffffffffffffffffffffffffffffffffff1673ffffffffffffffffffffffffffffffffffffffff1681526020019081526020016000206000848152602001908152602001600020819055506001600083815260200190815260200160002060010160009054906101000a900473ffffffffffffffffffffffffffffffffffffffff1673ffffffffffffffffffffffffffffffffffffffff1663a9059cbb33856040518363ffffffff1660e01b81526004016120139291906137d6565b602060405180830381600087803b15801561202d57600080fd5b505af1158015612041573d6000803e3d6000fd5b505050506040513d601f19601f82011682018060405250810190612065919061319e565b50505050565b6060600060028054905067ffffffffffffffff8111156120b4577f4e487b7100000000000000000000000000000000000000000000000000000000600052604160045260246000fd5b6040519080825280602002602001820160405280156120ed57816020015b6120da6130c6565b8152602001906001900390816120d25790505b50905060005b6002805490508110156122565760405180604001604052806001600060028581548110612149577f4e487b7100000000000000000000000000000000000000000000000000000000600052603260045260246000fd5b9060005260206000200154815260200190815260200160002060000154815260200160016000600285815481106121a9577f4e487b7100000000000000000000000000000000000000000000000000000000600052603260045260246000fd5b9060005260206000200154815260200190815260200160002060010160009054906101000a900473ffffffffffffffffffffffffffffffffffffffff1673ffffffffffffffffffffffffffffffffffffffff16815250828281518110612238577f4e487b7100000000000000000000000000000000000000000000000000000000600052603260045260246000fd5b6020026020010181905250808061224e90613c11565b9150506120f3565b508091505090565b80600073ffffffffffffffffffffffffffffffffffffffff166001600083815260200190815260200160002060010160009054906101000a900473ffffffffffffffffffffffffffffffffffffffff1673ffffffffffffffffffffffffffffffffffffffff161415612305576040517f08c379a00000000000000000000000000000000000000000000000000000000081526004016122fc906138e7565b60405180910390fd5b6001600083815260200190815260200160002060010160009054906101000a900473ffffffffffffffffffffffffffffffffffffffff1673ffffffffffffffffffffffffffffffffffffffff166323b872dd3330866040518463ffffffff1660e01b81526004016123789392919061379f565b602060405180830381600087803b15801561239257600080fd5b505af11580156123a6573d6000803e3d6000fd5b505050506040513d601f19601f820116820180604052508101906123ca919061319e565b5061242e83600360003373ffffffffffffffffffffffffffffffffffffffff1673ffffffffffffffffffffffffffffffffffffffff16815260200190815260200160002060008581526020019081526020016000205461309a90919063ffffffff16565b600360003373ffffffffffffffffffffffffffffffffffffffff1673ffffffffffffffffffffffffffffffffffffffff168152602001908152602001600020600084815260200190815260200160002081905550505050565b83600073ffffffffffffffffffffffffffffffffffffffff166001600083815260200190815260200160002060010160009054906101000a900473ffffffffffffffffffffffffffffffffffffffff1673ffffffffffffffffffffffffffffffffffffffff16141561252e576040517f08c379a0000000000000000000000000000000000000000000000000000000008152600401612525906138e7565b60405180910390fd5b847f4441490000000000000000000000000000000000000000000000000000000000811415612592576040517f08c379a000000000000000000000000000000000000000000000000000000000815260040161258990613927565b60405180910390fd5b6001808111156125cb577f4e487b7100000000000000000000000000000000000000000000000000000000600052602160045260246000fd5b836001811115612604577f4e487b7100000000000000000000000000000000000000000000000000000000600052602160045260246000fd5b14156126a25784600360003373ffffffffffffffffffffffffffffffffffffffff1673ffffffffffffffffffffffffffffffffffffffff168152602001908152602001600020600088815260200190815260200160002054101561269d576040517f08c379a000000000000000000000000000000000000000000000000000000000815260040161269490613907565b60405180910390fd5b612768565b6126b584866130b090919063ffffffff16565b600360003373ffffffffffffffffffffffffffffffffffffffff1673ffffffffffffffffffffffffffffffffffffffff16815260200190815260200160002060007f44414900000000000000000000000000000000000000000000000000000000008152602001908152602001600020541015612767576040517f08c379a000000000000000000000000000000000000000000000000000000000815260040161275e906138c7565b60405180910390fd5b5b60006004600088815260200190815260200160002060008560018111156127b8577f4e487b7100000000000000000000000000000000000000000000000000000000600052602160045260246000fd5b815260200190815260200160002090508060405180610100016040528060055481526020013373ffffffffffffffffffffffffffffffffffffffff168152602001866001811115612832577f4e487b7100000000000000000000000000000000000000000000000000000000600052602160045260246000fd5b8152602001898152602001888152602001600081526020018781526020014281525090806001815401808255809150506001900390600052602060002090600702016000909190919091506000820151816000015560208201518160010160006101000a81548173ffffffffffffffffffffffffffffffffffffffff021916908373ffffffffffffffffffffffffffffffffffffffff16021790555060408201518160010160146101000a81548160ff0219169083600181111561291f577f4e487b7100000000000000000000000000000000000000000000000000000000600052602160045260246000fd5b0217905550606082015181600201556080820151816003015560a0820151816004015560c0820151816005015560e08201518160060155505060008082805490501161296c57600061297e565b6001828054905061297d9190613b66565b5b90505b600081111561303a57600060018111156129c4577f4e487b7100000000000000000000000000000000000000000000000000000000600052602160045260246000fd5b8560018111156129fd577f4e487b7100000000000000000000000000000000000000000000000000000000600052602160045260246000fd5b148015612aa95750818181548110612a3e577f4e487b7100000000000000000000000000000000000000000000000000000000600052603260045260246000fd5b90600052602060002090600702016005015482600183612a5e9190613b66565b81548110612a95577f4e487b7100000000000000000000000000000000000000000000000000000000600052603260045260246000fd5b906000526020600020906007020160050154115b15612ab35761303a565b600180811115612aec577f4e487b7100000000000000000000000000000000000000000000000000000000600052602160045260246000fd5b856001811115612b25577f4e487b7100000000000000000000000000000000000000000000000000000000600052602160045260246000fd5b148015612bd15750818181548110612b66577f4e487b7100000000000000000000000000000000000000000000000000000000600052603260045260246000fd5b90600052602060002090600702016005015482600183612b869190613b66565b81548110612bbd577f4e487b7100000000000000000000000000000000000000000000000000000000600052603260045260246000fd5b906000526020600020906007020160050154105b15612bdb5761303a565b600082600183612beb9190613b66565b81548110612c22577f4e487b7100000000000000000000000000000000000000000000000000000000600052603260045260246000fd5b906000526020600020906007020160405180610100016040529081600082015481526020016001820160009054906101000a900473ffffffffffffffffffffffffffffffffffffffff1673ffffffffffffffffffffffffffffffffffffffff1673ffffffffffffffffffffffffffffffffffffffff1681526020016001820160149054906101000a900460ff166001811115612ce7577f4e487b7100000000000000000000000000000000000000000000000000000000600052602160045260246000fd5b6001811115612d1f577f4e487b7100000000000000000000000000000000000000000000000000000000600052602160045260246000fd5b8152602001600282015481526020016003820154815260200160048201548152602001600582015481526020016006820154815250509050828281548110612d90577f4e487b7100000000000000000000000000000000000000000000000000000000600052603260045260246000fd5b906000526020600020906007020183600184612dac9190613b66565b81548110612de3577f4e487b7100000000000000000000000000000000000000000000000000000000600052603260045260246000fd5b9060005260206000209060070201600082015481600001556001820160009054906101000a900473ffffffffffffffffffffffffffffffffffffffff168160010160006101000a81548173ffffffffffffffffffffffffffffffffffffffff021916908373ffffffffffffffffffffffffffffffffffffffff1602179055506001820160149054906101000a900460ff168160010160146101000a81548160ff02191690836001811115612ec0577f4e487b7100000000000000000000000000000000000000000000000000000000600052602160045260246000fd5b0217905550600282015481600201556003820154816003015560048201548160040155600582015481600501556006820154816006015590505080838381548110612f34577f4e487b7100000000000000000000000000000000000000000000000000000000600052603260045260246000fd5b90600052602060002090600702016000820151816000015560208201518160010160006101000a81548173ffffffffffffffffffffffffffffffffffffffff021916908373ffffffffffffffffffffffffffffffffffffffff16021790555060408201518160010160146101000a81548160ff02191690836001811115612fe4577f4e487b7100000000000000000000000000000000000000000000000000000000600052602160045260246000fd5b0217905550606082015181600201556080820151816003015560a0820151816004015560c0820151816005015560e0820151816006015590505061303260018361308490919063ffffffff16565b915050612981565b613050600160055461309a90919063ffffffff16565b6005819055505050505050505050565b60008054906101000a900473ffffffffffffffffffffffffffffffffffffffff1681565b600081836130929190613b66565b905092915050565b600081836130a89190613ab6565b905092915050565b600081836130be9190613b0c565b905092915050565b604051806040016040528060008019168152602001600073ffffffffffffffffffffffffffffffffffffffff1681525090565b60008135905061310881613ccc565b92915050565b60008151905061311d81613ce3565b92915050565b60008135905061313281613cfa565b92915050565b60008135905061314781613d11565b92915050565b60008135905061315c81613d21565b92915050565b6000806040838503121561317557600080fd5b6000613183858286016130f9565b925050602061319485828601613123565b9150509250929050565b6000602082840312156131b057600080fd5b60006131be8482850161310e565b91505092915050565b6000602082840312156131d957600080fd5b60006131e784828501613123565b91505092915050565b6000806040838503121561320357600080fd5b600061321185828601613123565b9250506020613222858286016130f9565b9150509250929050565b6000806040838503121561323f57600080fd5b600061324d85828601613123565b925050602061325e85828601613138565b9150509250929050565b60008060006060848603121561327d57600080fd5b600061328b86828701613123565b935050602061329c8682870161314d565b92505060406132ad86828701613138565b9150509250925092565b6000806000606084860312156132cc57600080fd5b60006132da86828701613123565b93505060206132eb8682870161314d565b92505060406132fc8682870161314d565b9150509250925092565b6000806000806080858703121561331c57600080fd5b600061332a87828801613123565b945050602061333b8782880161314d565b935050604061334c8782880161314d565b925050606061335d87828801613138565b91505092959194509250565b60006020828403121561337b57600080fd5b60006133898482850161314d565b91505092915050565b600080604083850312156133a557600080fd5b60006133b38582860161314d565b92505060206133c485828601613123565b9150509250929050565b60006133da8383613695565b6101008301905092915050565b60006133f38383613737565b60408301905092915050565b61340881613b9a565b82525050565b61341781613b9a565b82525050565b600061342882613a53565b6134328185613a83565b935061343d83613a33565b8060005b8381101561346e57815161345588826133ce565b975061346083613a69565b925050600181019050613441565b5085935050505092915050565b600061348682613a5e565b6134908185613a94565b935061349b83613a43565b8060005b838110156134cc5781516134b388826133e7565b97506134be83613a76565b92505060018101905061349f565b5085935050505092915050565b6134e281613bb8565b82525050565b6134f181613bb8565b82525050565b61350081613bff565b82525050565b61350f81613bff565b82525050565b6000613522600f83613aa5565b91507f42616c616e636520746f6f206c6f7700000000000000000000000000000000006000830152602082019050919050565b6000613562600a83613aa5565b91507f4f6e6c792061646d696e000000000000000000000000000000000000000000006000830152602082019050919050565b60006135a2601383613aa5565b91507f4441492062616c616e636520746f6f206c6f77000000000000000000000000006000830152602082019050919050565b60006135e2601983613aa5565b91507f5468697320746f6b656e20646f6573206e6f74206578697374000000000000006000830152602082019050919050565b6000613622601583613aa5565b91507f546f6b656e2062616c616e636520746f6f206c6f7700000000000000000000006000830152602082019050919050565b6000613662601083613aa5565b91507f43616e6e6f7420747261646520444149000000000000000000000000000000006000830152602082019050919050565b610100820160008201516136ac6000850182613766565b5060208201516136bf60208501826133ff565b5060408201516136d260408501826134f7565b5060608201516136e560608501826134d9565b5060808201516136f86080850182613766565b5060a082015161370b60a0850182613766565b5060c082015161371e60c0850182613766565b5060e082015161373160e0850182613766565b50505050565b60408201600082015161374d60008501826134d9565b50602082015161376060208501826133ff565b50505050565b61376f81613bf5565b82525050565b61377e81613bf5565b82525050565b6000602082019050613799600083018461340e565b92915050565b60006060820190506137b4600083018661340e565b6137c1602083018561340e565b6137ce6040830184613775565b949350505050565b60006040820190506137eb600083018561340e565b6137f86020830184613775565b9392505050565b60006020820190508181036000830152613819818461341d565b905092915050565b6000602082019050818103600083015261383b818461347b565b905092915050565b600060208201905061385860008301846134e8565b92915050565b600060408201905061387360008301856134e8565b613880602083018461340e565b9392505050565b600060208201905081810360008301526138a081613515565b9050919050565b600060208201905081810360008301526138c081613555565b9050919050565b600060208201905081810360008301526138e081613595565b9050919050565b60006020820190508181036000830152613900816135d5565b9050919050565b6000602082019050818103600083015261392081613615565b9050919050565b6000602082019050818103600083015261394081613655565b9050919050565b600060208201905061395c6000830184613775565b92915050565b600061010082019050613978600083018b613775565b613985602083018a61340e565b6139926040830189613506565b61399f60608301886134e8565b6139ac6080830187613775565b6139b960a0830186613775565b6139c660c0830185613775565b6139d360e0830184613775565b9998505050505050505050565b600060a0820190506139f56000830188613775565b613a026020830187613775565b613a0f6040830186613775565b613a1c6060830185613775565b613a296080830184613775565b9695505050505050565b6000819050602082019050919050565b6000819050602082019050919050565b600081519050919050565b600081519050919050565b6000602082019050919050565b6000602082019050919050565b600082825260208201905092915050565b600082825260208201905092915050565b600082825260208201905092915050565b6000613ac182613bf5565b9150613acc83613bf5565b9250827fffffffffffffffffffffffffffffffffffffffffffffffffffffffffffffffff03821115613b0157613b00613c5a565b5b828201905092915050565b6000613b1782613bf5565b9150613b2283613bf5565b9250817fffffffffffffffffffffffffffffffffffffffffffffffffffffffffffffffff0483118215151615613b5b57613b5a613c5a565b5b828202905092915050565b6000613b7182613bf5565b9150613b7c83613bf5565b925082821015613b8f57613b8e613c5a565b5b828203905092915050565b6000613ba582613bd5565b9050919050565b60008115159050919050565b6000819050919050565b6000819050613bd082613cb8565b919050565b600073ffffffffffffffffffffffffffffffffffffffff82169050919050565b6000819050919050565b6000613c0a82613bc2565b9050919050565b6000613c1c82613bf5565b91507fffffffffffffffffffffffffffffffffffffffffffffffffffffffffffffffff821415613c4f57613c4e613c5a565b5b600182019050919050565b7f4e487b7100000000000000000000000000000000000000000000000000000000600052601160045260246000fd5b7f4e487b7100000000000000000000000000000000000000000000000000000000600052602160045260246000fd5b60028110613cc957613cc8613c89565b5b50565b613cd581613b9a565b8114613ce057600080fd5b50565b613cec81613bac565b8114613cf757600080fd5b50565b613d0381613bb8565b8114613d0e57600080fd5b50565b60028110613d1e57600080fd5b50565b613d2a81613bf5565b8114613d3557600080fd5b5056fea2646970667358221220b0ed5bd6fe75cb3ff504c143d2b99c6faf7d4faf739b09809cfc7356daf929f464736f6c63430008000033",
					"opcodes": "PUSH1 0x80 PUSH1 0x40 MSTORE CALLVALUE DUP1 ISZERO PUSH2 0x10 JUMPI PUSH1 0x0 DUP1 REVERT JUMPDEST POP CALLER PUSH1 0x0 DUP1 PUSH2 0x100 EXP DUP2 SLOAD DUP2 PUSH20 0xFFFFFFFFFFFFFFFFFFFFFFFFFFFFFFFFFFFFFFFF MUL NOT AND SWAP1 DUP4 PUSH20 0xFFFFFFFFFFFFFFFFFFFFFFFFFFFFFFFFFFFFFFFF AND MUL OR SWAP1 SSTORE POP PUSH2 0x3D6E DUP1 PUSH2 0x60 PUSH1 0x0 CODECOPY PUSH1 0x0 RETURN INVALID PUSH1 0x80 PUSH1 0x40 MSTORE CALLVALUE DUP1 ISZERO PUSH2 0x10 JUMPI PUSH1 0x0 DUP1 REVERT JUMPDEST POP PUSH1 0x4 CALLDATASIZE LT PUSH2 0xCF JUMPI PUSH1 0x0 CALLDATALOAD PUSH1 0xE0 SHR DUP1 PUSH4 0x9776AACF GT PUSH2 0x8C JUMPI DUP1 PUSH4 0xAA6CA808 GT PUSH2 0x66 JUMPI DUP1 PUSH4 0xAA6CA808 EQ PUSH2 0x23E JUMPI DUP1 PUSH4 0xC9630CB0 EQ PUSH2 0x25C JUMPI DUP1 PUSH4 0xD9C0C950 EQ PUSH2 0x278 JUMPI DUP1 PUSH4 0xF851A440 EQ PUSH2 0x294 JUMPI PUSH2 0xCF JUMP JUMPDEST DUP1 PUSH4 0x9776AACF EQ PUSH2 0x1D6 JUMPI DUP1 PUSH4 0x9EAD7222 EQ PUSH2 0x1F2 JUMPI DUP1 PUSH4 0xA8D2021A EQ PUSH2 0x222 JUMPI PUSH2 0xCF JUMP JUMPDEST DUP1 PUSH4 0xBB431B6 EQ PUSH2 0xD4 JUMPI DUP1 PUSH4 0x2A58B330 EQ PUSH2 0x10B JUMPI DUP1 PUSH4 0x46E9658B EQ PUSH2 0x129 JUMPI DUP1 PUSH4 0x72CE957E EQ PUSH2 0x159 JUMPI DUP1 PUSH4 0x7F2C6246 EQ PUSH2 0x189 JUMPI DUP1 PUSH4 0x904194A3 EQ PUSH2 0x1A5 JUMPI JUMPDEST PUSH1 0x0 DUP1 REVERT JUMPDEST PUSH2 0xEE PUSH1 0x4 DUP1 CALLDATASIZE SUB DUP2 ADD SWAP1 PUSH2 0xE9 SWAP2 SWAP1 PUSH2 0x32B7 JUMP JUMPDEST PUSH2 0x2B2 JUMP JUMPDEST PUSH1 0x40 MLOAD PUSH2 0x102 SWAP9 SWAP8 SWAP7 SWAP6 SWAP5 SWAP4 SWAP3 SWAP2 SWAP1 PUSH2 0x3962 JUMP JUMPDEST PUSH1 0x40 MLOAD DUP1 SWAP2 SUB SWAP1 RETURN JUMPDEST PUSH2 0x113 PUSH2 0x351 JUMP JUMPDEST PUSH1 0x40 MLOAD PUSH2 0x120 SWAP2 SWAP1 PUSH2 0x3947 JUMP JUMPDEST PUSH1 0x40 MLOAD DUP1 SWAP2 SUB SWAP1 RETURN JUMPDEST PUSH2 0x143 PUSH1 0x4 DUP1 CALLDATASIZE SUB DUP2 ADD SWAP1 PUSH2 0x13E SWAP2 SWAP1 PUSH2 0x322C JUMP JUMPDEST PUSH2 0x357 JUMP JUMPDEST PUSH1 0x40 MLOAD PUSH2 0x150 SWAP2 SWAP1 PUSH2 0x37FF JUMP JUMPDEST PUSH1 0x40 MLOAD DUP1 SWAP2 SUB SWAP1 RETURN JUMPDEST PUSH2 0x173 PUSH1 0x4 DUP1 CALLDATASIZE SUB DUP2 ADD SWAP1 PUSH2 0x16E SWAP2 SWAP1 PUSH2 0x3162 JUMP JUMPDEST PUSH2 0x52D JUMP JUMPDEST PUSH1 0x40 MLOAD PUSH2 0x180 SWAP2 SWAP1 PUSH2 0x3947 JUMP JUMPDEST PUSH1 0x40 MLOAD DUP1 SWAP2 SUB SWAP1 RETURN JUMPDEST PUSH2 0x1A3 PUSH1 0x4 DUP1 CALLDATASIZE SUB DUP2 ADD SWAP1 PUSH2 0x19E SWAP2 SWAP1 PUSH2 0x3268 JUMP JUMPDEST PUSH2 0x552 JUMP JUMPDEST STOP JUMPDEST PUSH2 0x1BF PUSH1 0x4 DUP1 CALLDATASIZE SUB DUP2 ADD SWAP1 PUSH2 0x1BA SWAP2 SWAP1 PUSH2 0x31C7 JUMP JUMPDEST PUSH2 0x1BFC JUMP JUMPDEST PUSH1 0x40 MLOAD PUSH2 0x1CD SWAP3 SWAP2 SWAP1 PUSH2 0x385E JUMP JUMPDEST PUSH1 0x40 MLOAD DUP1 SWAP2 SUB SWAP1 RETURN JUMPDEST PUSH2 0x1F0 PUSH1 0x4 DUP1 CALLDATASIZE SUB DUP2 ADD SWAP1 PUSH2 0x1EB SWAP2 SWAP1 PUSH2 0x31F0 JUMP JUMPDEST PUSH2 0x1C40 JUMP JUMPDEST STOP JUMPDEST PUSH2 0x20C PUSH1 0x4 DUP1 CALLDATASIZE SUB DUP2 ADD SWAP1 PUSH2 0x207 SWAP2 SWAP1 PUSH2 0x3369 JUMP JUMPDEST PUSH2 0x1D8D JUMP JUMPDEST PUSH1 0x40 MLOAD PUSH2 0x219 SWAP2 SWAP1 PUSH2 0x3843 JUMP JUMPDEST PUSH1 0x40 MLOAD DUP1 SWAP2 SUB SWAP1 RETURN JUMPDEST PUSH2 0x23C PUSH1 0x4 DUP1 CALLDATASIZE SUB DUP2 ADD SWAP1 PUSH2 0x237 SWAP2 SWAP1 PUSH2 0x3392 JUMP JUMPDEST PUSH2 0x1DB1 JUMP JUMPDEST STOP JUMPDEST PUSH2 0x246 PUSH2 0x206B JUMP JUMPDEST PUSH1 0x40 MLOAD PUSH2 0x253 SWAP2 SWAP1 PUSH2 0x3821 JUMP JUMPDEST PUSH1 0x40 MLOAD DUP1 SWAP2 SUB SWAP1 RETURN JUMPDEST PUSH2 0x276 PUSH1 0x4 DUP1 CALLDATASIZE SUB DUP2 ADD SWAP1 PUSH2 0x271 SWAP2 SWAP1 PUSH2 0x3392 JUMP JUMPDEST PUSH2 0x225E JUMP JUMPDEST STOP JUMPDEST PUSH2 0x292 PUSH1 0x4 DUP1 CALLDATASIZE SUB DUP2 ADD SWAP1 PUSH2 0x28D SWAP2 SWAP1 PUSH2 0x3306 JUMP JUMPDEST PUSH2 0x2487 JUMP JUMPDEST STOP JUMPDEST PUSH2 0x29C PUSH2 0x3060 JUMP JUMPDEST PUSH1 0x40 MLOAD PUSH2 0x2A9 SWAP2 SWAP1 PUSH2 0x3784 JUMP JUMPDEST PUSH1 0x40 MLOAD DUP1 SWAP2 SUB SWAP1 RETURN JUMPDEST PUSH1 0x4 PUSH1 0x20 MSTORE DUP3 PUSH1 0x0 MSTORE PUSH1 0x40 PUSH1 0x0 KECCAK256 PUSH1 0x20 MSTORE DUP2 PUSH1 0x0 MSTORE PUSH1 0x40 PUSH1 0x0 KECCAK256 DUP2 DUP2 SLOAD DUP2 LT PUSH2 0x2DA JUMPI PUSH1 0x0 DUP1 REVERT JUMPDEST SWAP1 PUSH1 0x0 MSTORE PUSH1 0x20 PUSH1 0x0 KECCAK256 SWAP1 PUSH1 0x7 MUL ADD PUSH1 0x0 SWAP3 POP SWAP3 POP POP POP DUP1 PUSH1 0x0 ADD SLOAD SWAP1 DUP1 PUSH1 0x1 ADD PUSH1 0x0 SWAP1 SLOAD SWAP1 PUSH2 0x100 EXP SWAP1 DIV PUSH20 0xFFFFFFFFFFFFFFFFFFFFFFFFFFFFFFFFFFFFFFFF AND SWAP1 DUP1 PUSH1 0x1 ADD PUSH1 0x14 SWAP1 SLOAD SWAP1 PUSH2 0x100 EXP SWAP1 DIV PUSH1 0xFF AND SWAP1 DUP1 PUSH1 0x2 ADD SLOAD SWAP1 DUP1 PUSH1 0x3 ADD SLOAD SWAP1 DUP1 PUSH1 0x4 ADD SLOAD SWAP1 DUP1 PUSH1 0x5 ADD SLOAD SWAP1 DUP1 PUSH1 0x6 ADD SLOAD SWAP1 POP DUP9 JUMP JUMPDEST PUSH1 0x5 SLOAD DUP2 JUMP JUMPDEST PUSH1 0x60 PUSH1 0x4 PUSH1 0x0 DUP5 DUP2 MSTORE PUSH1 0x20 ADD SWAP1 DUP2 MSTORE PUSH1 0x20 ADD PUSH1 0x0 KECCAK256 PUSH1 0x0 DUP4 PUSH1 0x1 DUP2 GT ISZERO PUSH2 0x3A7 JUMPI PUSH32 0x4E487B7100000000000000000000000000000000000000000000000000000000 PUSH1 0x0 MSTORE PUSH1 0x21 PUSH1 0x4 MSTORE PUSH1 0x24 PUSH1 0x0 REVERT JUMPDEST DUP2 MSTORE PUSH1 0x20 ADD SWAP1 DUP2 MSTORE PUSH1 0x20 ADD PUSH1 0x0 KECCAK256 DUP1 SLOAD DUP1 PUSH1 0x20 MUL PUSH1 0x20 ADD PUSH1 0x40 MLOAD SWAP1 DUP2 ADD PUSH1 0x40 MSTORE DUP1 SWAP3 SWAP2 SWAP1 DUP2 DUP2 MSTORE PUSH1 0x20 ADD PUSH1 0x0 SWAP1 JUMPDEST DUP3 DUP3 LT ISZERO PUSH2 0x521 JUMPI DUP4 DUP3 SWAP1 PUSH1 0x0 MSTORE PUSH1 0x20 PUSH1 0x0 KECCAK256 SWAP1 PUSH1 0x7 MUL ADD PUSH1 0x40 MLOAD DUP1 PUSH2 0x100 ADD PUSH1 0x40 MSTORE SWAP1 DUP2 PUSH1 0x0 DUP3 ADD SLOAD DUP2 MSTORE PUSH1 0x20 ADD PUSH1 0x1 DUP3 ADD PUSH1 0x0 SWAP1 SLOAD SWAP1 PUSH2 0x100 EXP SWAP1 DIV PUSH20 0xFFFFFFFFFFFFFFFFFFFFFFFFFFFFFFFFFFFFFFFF AND PUSH20 0xFFFFFFFFFFFFFFFFFFFFFFFFFFFFFFFFFFFFFFFF AND PUSH20 0xFFFFFFFFFFFFFFFFFFFFFFFFFFFFFFFFFFFFFFFF AND DUP2 MSTORE PUSH1 0x20 ADD PUSH1 0x1 DUP3 ADD PUSH1 0x14 SWAP1 SLOAD SWAP1 PUSH2 0x100 EXP SWAP1 DIV PUSH1 0xFF AND PUSH1 0x1 DUP2 GT ISZERO PUSH2 0x4A4 JUMPI PUSH32 0x4E487B7100000000000000000000000000000000000000000000000000000000 PUSH1 0x0 MSTORE PUSH1 0x21 PUSH1 0x4 MSTORE PUSH1 0x24 PUSH1 0x0 REVERT JUMPDEST PUSH1 0x1 DUP2 GT ISZERO PUSH2 0x4DC JUMPI PUSH32 0x4E487B7100000000000000000000000000000000000000000000000000000000 PUSH1 0x0 MSTORE PUSH1 0x21 PUSH1 0x4 MSTORE PUSH1 0x24 PUSH1 0x0 REVERT JUMPDEST DUP2 MSTORE PUSH1 0x20 ADD PUSH1 0x2 DUP3 ADD SLOAD DUP2 MSTORE PUSH1 0x20 ADD PUSH1 0x3 DUP3 ADD SLOAD DUP2 MSTORE PUSH1 0x20 ADD PUSH1 0x4 DUP3 ADD SLOAD DUP2 MSTORE PUSH1 0x20 ADD PUSH1 0x5 DUP3 ADD SLOAD DUP2 MSTORE PUSH1 0x20 ADD PUSH1 0x6 DUP3 ADD SLOAD DUP2 MSTORE POP POP DUP2 MSTORE PUSH1 0x20 ADD SWAP1 PUSH1 0x1 ADD SWAP1 PUSH2 0x3D5 JUMP JUMPDEST POP POP POP POP SWAP1 POP SWAP3 SWAP2 POP POP JUMP JUMPDEST PUSH1 0x3 PUSH1 0x20 MSTORE DUP2 PUSH1 0x0 MSTORE PUSH1 0x40 PUSH1 0x0 KECCAK256 PUSH1 0x20 MSTORE DUP1 PUSH1 0x0 MSTORE PUSH1 0x40 PUSH1 0x0 KECCAK256 PUSH1 0x0 SWAP2 POP SWAP2 POP POP SLOAD DUP2 JUMP JUMPDEST DUP3 PUSH1 0x0 PUSH20 0xFFFFFFFFFFFFFFFFFFFFFFFFFFFFFFFFFFFFFFFF AND PUSH1 0x1 PUSH1 0x0 DUP4 DUP2 MSTORE PUSH1 0x20 ADD SWAP1 DUP2 MSTORE PUSH1 0x20 ADD PUSH1 0x0 KECCAK256 PUSH1 0x1 ADD PUSH1 0x0 SWAP1 SLOAD SWAP1 PUSH2 0x100 EXP SWAP1 DIV PUSH20 0xFFFFFFFFFFFFFFFFFFFFFFFFFFFFFFFFFFFFFFFF AND PUSH20 0xFFFFFFFFFFFFFFFFFFFFFFFFFFFFFFFFFFFFFFFF AND EQ ISZERO PUSH2 0x5F9 JUMPI PUSH1 0x40 MLOAD PUSH32 0x8C379A000000000000000000000000000000000000000000000000000000000 DUP2 MSTORE PUSH1 0x4 ADD PUSH2 0x5F0 SWAP1 PUSH2 0x38E7 JUMP JUMPDEST PUSH1 0x40 MLOAD DUP1 SWAP2 SUB SWAP1 REVERT JUMPDEST DUP4 PUSH32 0x4441490000000000000000000000000000000000000000000000000000000000 DUP2 EQ ISZERO PUSH2 0x65D JUMPI PUSH1 0x40 MLOAD PUSH32 0x8C379A000000000000000000000000000000000000000000000000000000000 DUP2 MSTORE PUSH1 0x4 ADD PUSH2 0x654 SWAP1 PUSH2 0x3927 JUMP JUMPDEST PUSH1 0x40 MLOAD DUP1 SWAP2 SUB SWAP1 REVERT JUMPDEST PUSH1 0x1 DUP1 DUP2 GT ISZERO PUSH2 0x696 JUMPI PUSH32 0x4E487B7100000000000000000000000000000000000000000000000000000000 PUSH1 0x0 MSTORE PUSH1 0x21 PUSH1 0x4 MSTORE PUSH1 0x24 PUSH1 0x0 REVERT JUMPDEST DUP4 PUSH1 0x1 DUP2 GT ISZERO PUSH2 0x6CF JUMPI PUSH32 0x4E487B7100000000000000000000000000000000000000000000000000000000 PUSH1 0x0 MSTORE PUSH1 0x21 PUSH1 0x4 MSTORE PUSH1 0x24 PUSH1 0x0 REVERT JUMPDEST EQ ISZERO PUSH2 0x76D JUMPI DUP4 PUSH1 0x3 PUSH1 0x0 CALLER PUSH20 0xFFFFFFFFFFFFFFFFFFFFFFFFFFFFFFFFFFFFFFFF AND PUSH20 0xFFFFFFFFFFFFFFFFFFFFFFFFFFFFFFFFFFFFFFFF AND DUP2 MSTORE PUSH1 0x20 ADD SWAP1 DUP2 MSTORE PUSH1 0x20 ADD PUSH1 0x0 KECCAK256 PUSH1 0x0 DUP8 DUP2 MSTORE PUSH1 0x20 ADD SWAP1 DUP2 MSTORE PUSH1 0x20 ADD PUSH1 0x0 KECCAK256 SLOAD LT ISZERO PUSH2 0x768 JUMPI PUSH1 0x40 MLOAD PUSH32 0x8C379A000000000000000000000000000000000000000000000000000000000 DUP2 MSTORE PUSH1 0x4 ADD PUSH2 0x75F SWAP1 PUSH2 0x3907 JUMP JUMPDEST PUSH1 0x40 MLOAD DUP1 SWAP2 SUB SWAP1 REVERT JUMPDEST PUSH2 0x76E JUMP JUMPDEST JUMPDEST PUSH1 0x0 PUSH1 0x4 PUSH1 0x0 DUP8 DUP2 MSTORE PUSH1 0x20 ADD SWAP1 DUP2 MSTORE PUSH1 0x20 ADD PUSH1 0x0 KECCAK256 PUSH1 0x0 DUP1 PUSH1 0x1 DUP2 GT ISZERO PUSH2 0x7BE JUMPI PUSH32 0x4E487B7100000000000000000000000000000000000000000000000000000000 PUSH1 0x0 MSTORE PUSH1 0x21 PUSH1 0x4 MSTORE PUSH1 0x24 PUSH1 0x0 REVERT JUMPDEST DUP7 PUSH1 0x1 DUP2 GT ISZERO PUSH2 0x7F7 JUMPI PUSH32 0x4E487B7100000000000000000000000000000000000000000000000000000000 PUSH1 0x0 MSTORE PUSH1 0x21 PUSH1 0x4 MSTORE PUSH1 0x24 PUSH1 0x0 REVERT JUMPDEST EQ PUSH2 0x803 JUMPI PUSH1 0x0 PUSH2 0x806 JUMP JUMPDEST PUSH1 0x1 JUMPDEST PUSH1 0x1 DUP2 GT ISZERO PUSH2 0x83E JUMPI PUSH32 0x4E487B7100000000000000000000000000000000000000000000000000000000 PUSH1 0x0 MSTORE PUSH1 0x21 PUSH1 0x4 MSTORE PUSH1 0x24 PUSH1 0x0 REVERT JUMPDEST DUP2 MSTORE PUSH1 0x20 ADD SWAP1 DUP2 MSTORE PUSH1 0x20 ADD PUSH1 0x0 KECCAK256 SWAP1 POP PUSH1 0x0 DUP1 DUP7 SWAP1 POP JUMPDEST DUP3 DUP1 SLOAD SWAP1 POP DUP3 LT DUP1 ISZERO PUSH2 0x868 JUMPI POP PUSH1 0x0 DUP2 GT JUMPDEST ISZERO PUSH2 0x1897 JUMPI PUSH1 0x0 PUSH2 0x916 DUP5 DUP5 DUP2 SLOAD DUP2 LT PUSH2 0x8AB JUMPI PUSH32 0x4E487B7100000000000000000000000000000000000000000000000000000000 PUSH1 0x0 MSTORE PUSH1 0x32 PUSH1 0x4 MSTORE PUSH1 0x24 PUSH1 0x0 REVERT JUMPDEST SWAP1 PUSH1 0x0 MSTORE PUSH1 0x20 PUSH1 0x0 KECCAK256 SWAP1 PUSH1 0x7 MUL ADD PUSH1 0x4 ADD SLOAD DUP6 DUP6 DUP2 SLOAD DUP2 LT PUSH2 0x8F6 JUMPI PUSH32 0x4E487B7100000000000000000000000000000000000000000000000000000000 PUSH1 0x0 MSTORE PUSH1 0x32 PUSH1 0x4 MSTORE PUSH1 0x24 PUSH1 0x0 REVERT JUMPDEST SWAP1 PUSH1 0x0 MSTORE PUSH1 0x20 PUSH1 0x0 KECCAK256 SWAP1 PUSH1 0x7 MUL ADD PUSH1 0x3 ADD SLOAD PUSH2 0x3084 SWAP1 SWAP2 SWAP1 PUSH4 0xFFFFFFFF AND JUMP JUMPDEST SWAP1 POP PUSH1 0x0 DUP2 DUP4 GT PUSH2 0x927 JUMPI DUP3 PUSH2 0x929 JUMP JUMPDEST DUP2 JUMPDEST SWAP1 POP PUSH2 0x93E DUP2 DUP5 PUSH2 0x3084 SWAP1 SWAP2 SWAP1 PUSH4 0xFFFFFFFF AND JUMP JUMPDEST SWAP3 POP PUSH2 0x99D DUP2 DUP7 DUP7 DUP2 SLOAD DUP2 LT PUSH2 0x97D JUMPI PUSH32 0x4E487B7100000000000000000000000000000000000000000000000000000000 PUSH1 0x0 MSTORE PUSH1 0x32 PUSH1 0x4 MSTORE PUSH1 0x24 PUSH1 0x0 REVERT JUMPDEST SWAP1 PUSH1 0x0 MSTORE PUSH1 0x20 PUSH1 0x0 KECCAK256 SWAP1 PUSH1 0x7 MUL ADD PUSH1 0x4 ADD SLOAD PUSH2 0x309A SWAP1 SWAP2 SWAP1 PUSH4 0xFFFFFFFF AND JUMP JUMPDEST DUP6 DUP6 DUP2 SLOAD DUP2 LT PUSH2 0x9D6 JUMPI PUSH32 0x4E487B7100000000000000000000000000000000000000000000000000000000 PUSH1 0x0 MSTORE PUSH1 0x32 PUSH1 0x4 MSTORE PUSH1 0x24 PUSH1 0x0 REVERT JUMPDEST SWAP1 PUSH1 0x0 MSTORE PUSH1 0x20 PUSH1 0x0 KECCAK256 SWAP1 PUSH1 0x7 MUL ADD PUSH1 0x4 ADD DUP2 SWAP1 SSTORE POP CALLER PUSH20 0xFFFFFFFFFFFFFFFFFFFFFFFFFFFFFFFFFFFFFFFF AND DUP6 DUP6 DUP2 SLOAD DUP2 LT PUSH2 0xA3B JUMPI PUSH32 0x4E487B7100000000000000000000000000000000000000000000000000000000 PUSH1 0x0 MSTORE PUSH1 0x32 PUSH1 0x4 MSTORE PUSH1 0x24 PUSH1 0x0 REVERT JUMPDEST SWAP1 PUSH1 0x0 MSTORE PUSH1 0x20 PUSH1 0x0 KECCAK256 SWAP1 PUSH1 0x7 MUL ADD PUSH1 0x1 ADD PUSH1 0x0 SWAP1 SLOAD SWAP1 PUSH2 0x100 EXP SWAP1 DIV PUSH20 0xFFFFFFFFFFFFFFFFFFFFFFFFFFFFFFFFFFFFFFFF AND PUSH20 0xFFFFFFFFFFFFFFFFFFFFFFFFFFFFFFFFFFFFFFFF AND DUP12 PUSH32 0xDB0C486E680BA8026643E6A85F8D157B5E7BCD4B32B54D564542570A9EB20416 PUSH1 0x6 SLOAD DUP10 DUP10 DUP2 SLOAD DUP2 LT PUSH2 0xAE1 JUMPI PUSH32 0x4E487B7100000000000000000000000000000000000000000000000000000000 PUSH1 0x0 MSTORE PUSH1 0x32 PUSH1 0x4 MSTORE PUSH1 0x24 PUSH1 0x0 REVERT JUMPDEST SWAP1 PUSH1 0x0 MSTORE PUSH1 0x20 PUSH1 0x0 KECCAK256 SWAP1 PUSH1 0x7 MUL ADD PUSH1 0x0 ADD SLOAD DUP7 DUP12 DUP12 DUP2 SLOAD DUP2 LT PUSH2 0xB2D JUMPI PUSH32 0x4E487B7100000000000000000000000000000000000000000000000000000000 PUSH1 0x0 MSTORE PUSH1 0x32 PUSH1 0x4 MSTORE PUSH1 0x24 PUSH1 0x0 REVERT JUMPDEST SWAP1 PUSH1 0x0 MSTORE PUSH1 0x20 PUSH1 0x0 KECCAK256 SWAP1 PUSH1 0x7 MUL ADD PUSH1 0x5 ADD SLOAD TIMESTAMP PUSH1 0x40 MLOAD PUSH2 0xB51 SWAP6 SWAP5 SWAP4 SWAP3 SWAP2 SWAP1 PUSH2 0x39E0 JUMP JUMPDEST PUSH1 0x40 MLOAD DUP1 SWAP2 SUB SWAP1 LOG4 PUSH1 0x1 DUP1 DUP2 GT ISZERO PUSH2 0xB92 JUMPI PUSH32 0x4E487B7100000000000000000000000000000000000000000000000000000000 PUSH1 0x0 MSTORE PUSH1 0x21 PUSH1 0x4 MSTORE PUSH1 0x24 PUSH1 0x0 REVERT JUMPDEST DUP9 PUSH1 0x1 DUP2 GT ISZERO PUSH2 0xBCB JUMPI PUSH32 0x4E487B7100000000000000000000000000000000000000000000000000000000 PUSH1 0x0 MSTORE PUSH1 0x21 PUSH1 0x4 MSTORE PUSH1 0x24 PUSH1 0x0 REVERT JUMPDEST EQ ISZERO PUSH2 0x1192 JUMPI PUSH2 0xC34 DUP2 PUSH1 0x3 PUSH1 0x0 CALLER PUSH20 0xFFFFFFFFFFFFFFFFFFFFFFFFFFFFFFFFFFFFFFFF AND PUSH20 0xFFFFFFFFFFFFFFFFFFFFFFFFFFFFFFFFFFFFFFFF AND DUP2 MSTORE PUSH1 0x20 ADD SWAP1 DUP2 MSTORE PUSH1 0x20 ADD PUSH1 0x0 KECCAK256 PUSH1 0x0 DUP14 DUP2 MSTORE PUSH1 0x20 ADD SWAP1 DUP2 MSTORE PUSH1 0x20 ADD PUSH1 0x0 KECCAK256 SLOAD PUSH2 0x3084 SWAP1 SWAP2 SWAP1 PUSH4 0xFFFFFFFF AND JUMP JUMPDEST PUSH1 0x3 PUSH1 0x0 CALLER PUSH20 0xFFFFFFFFFFFFFFFFFFFFFFFFFFFFFFFFFFFFFFFF AND PUSH20 0xFFFFFFFFFFFFFFFFFFFFFFFFFFFFFFFFFFFFFFFF AND DUP2 MSTORE PUSH1 0x20 ADD SWAP1 DUP2 MSTORE PUSH1 0x20 ADD PUSH1 0x0 KECCAK256 PUSH1 0x0 DUP13 DUP2 MSTORE PUSH1 0x20 ADD SWAP1 DUP2 MSTORE PUSH1 0x20 ADD PUSH1 0x0 KECCAK256 DUP2 SWAP1 SSTORE POP PUSH2 0xD67 PUSH2 0xCE8 DUP7 DUP7 DUP2 SLOAD DUP2 LT PUSH2 0xCC7 JUMPI PUSH32 0x4E487B7100000000000000000000000000000000000000000000000000000000 PUSH1 0x0 MSTORE PUSH1 0x32 PUSH1 0x4 MSTORE PUSH1 0x24 PUSH1 0x0 REVERT JUMPDEST SWAP1 PUSH1 0x0 MSTORE PUSH1 0x20 PUSH1 0x0 KECCAK256 SWAP1 PUSH1 0x7 MUL ADD PUSH1 0x5 ADD SLOAD DUP4 PUSH2 0x30B0 SWAP1 SWAP2 SWAP1 PUSH4 0xFFFFFFFF AND JUMP JUMPDEST PUSH1 0x3 PUSH1 0x0 CALLER PUSH20 0xFFFFFFFFFFFFFFFFFFFFFFFFFFFFFFFFFFFFFFFF AND PUSH20 0xFFFFFFFFFFFFFFFFFFFFFFFFFFFFFFFFFFFFFFFF AND DUP2 MSTORE PUSH1 0x20 ADD SWAP1 DUP2 MSTORE PUSH1 0x20 ADD PUSH1 0x0 KECCAK256 PUSH1 0x0 PUSH32 0x4441490000000000000000000000000000000000000000000000000000000000 DUP2 MSTORE PUSH1 0x20 ADD SWAP1 DUP2 MSTORE PUSH1 0x20 ADD PUSH1 0x0 KECCAK256 SLOAD PUSH2 0x309A SWAP1 SWAP2 SWAP1 PUSH4 0xFFFFFFFF AND JUMP JUMPDEST PUSH1 0x3 PUSH1 0x0 CALLER PUSH20 0xFFFFFFFFFFFFFFFFFFFFFFFFFFFFFFFFFFFFFFFF AND PUSH20 0xFFFFFFFFFFFFFFFFFFFFFFFFFFFFFFFFFFFFFFFF AND DUP2 MSTORE PUSH1 0x20 ADD SWAP1 DUP2 MSTORE PUSH1 0x20 ADD PUSH1 0x0 KECCAK256 PUSH1 0x0 PUSH32 0x4441490000000000000000000000000000000000000000000000000000000000 DUP2 MSTORE PUSH1 0x20 ADD SWAP1 DUP2 MSTORE PUSH1 0x20 ADD PUSH1 0x0 KECCAK256 DUP2 SWAP1 SSTORE POP PUSH2 0xEA8 DUP2 PUSH1 0x3 PUSH1 0x0 DUP9 DUP9 DUP2 SLOAD DUP2 LT PUSH2 0xE1C JUMPI PUSH32 0x4E487B7100000000000000000000000000000000000000000000000000000000 PUSH1 0x0 MSTORE PUSH1 0x32 PUSH1 0x4 MSTORE PUSH1 0x24 PUSH1 0x0 REVERT JUMPDEST SWAP1 PUSH1 0x0 MSTORE PUSH1 0x20 PUSH1 0x0 KECCAK256 SWAP1 PUSH1 0x7 MUL ADD PUSH1 0x1 ADD PUSH1 0x0 SWAP1 SLOAD SWAP1 PUSH2 0x100 EXP SWAP1 DIV PUSH20 0xFFFFFFFFFFFFFFFFFFFFFFFFFFFFFFFFFFFFFFFF AND PUSH20 0xFFFFFFFFFFFFFFFFFFFFFFFFFFFFFFFFFFFFFFFF AND PUSH20 0xFFFFFFFFFFFFFFFFFFFFFFFFFFFFFFFFFFFFFFFF AND DUP2 MSTORE PUSH1 0x20 ADD SWAP1 DUP2 MSTORE PUSH1 0x20 ADD PUSH1 0x0 KECCAK256 PUSH1 0x0 DUP14 DUP2 MSTORE PUSH1 0x20 ADD SWAP1 DUP2 MSTORE PUSH1 0x20 ADD PUSH1 0x0 KECCAK256 SLOAD PUSH2 0x309A SWAP1 SWAP2 SWAP1 PUSH4 0xFFFFFFFF AND JUMP JUMPDEST PUSH1 0x3 PUSH1 0x0 DUP8 DUP8 DUP2 SLOAD DUP2 LT PUSH2 0xEE5 JUMPI PUSH32 0x4E487B7100000000000000000000000000000000000000000000000000000000 PUSH1 0x0 MSTORE PUSH1 0x32 PUSH1 0x4 MSTORE PUSH1 0x24 PUSH1 0x0 REVERT JUMPDEST SWAP1 PUSH1 0x0 MSTORE PUSH1 0x20 PUSH1 0x0 KECCAK256 SWAP1 PUSH1 0x7 MUL ADD PUSH1 0x1 ADD PUSH1 0x0 SWAP1 SLOAD SWAP1 PUSH2 0x100 EXP SWAP1 DIV PUSH20 0xFFFFFFFFFFFFFFFFFFFFFFFFFFFFFFFFFFFFFFFF AND PUSH20 0xFFFFFFFFFFFFFFFFFFFFFFFFFFFFFFFFFFFFFFFF AND PUSH20 0xFFFFFFFFFFFFFFFFFFFFFFFFFFFFFFFFFFFFFFFF AND DUP2 MSTORE PUSH1 0x20 ADD SWAP1 DUP2 MSTORE PUSH1 0x20 ADD PUSH1 0x0 KECCAK256 PUSH1 0x0 DUP13 DUP2 MSTORE PUSH1 0x20 ADD SWAP1 DUP2 MSTORE PUSH1 0x20 ADD PUSH1 0x0 KECCAK256 DUP2 SWAP1 SSTORE POP PUSH2 0x10AF PUSH2 0xFC6 DUP7 DUP7 DUP2 SLOAD DUP2 LT PUSH2 0xFA5 JUMPI PUSH32 0x4E487B7100000000000000000000000000000000000000000000000000000000 PUSH1 0x0 MSTORE PUSH1 0x32 PUSH1 0x4 MSTORE PUSH1 0x24 PUSH1 0x0 REVERT JUMPDEST SWAP1 PUSH1 0x0 MSTORE PUSH1 0x20 PUSH1 0x0 KECCAK256 SWAP1 PUSH1 0x7 MUL ADD PUSH1 0x5 ADD SLOAD DUP4 PUSH2 0x30B0 SWAP1 SWAP2 SWAP1 PUSH4 0xFFFFFFFF AND JUMP JUMPDEST PUSH1 0x3 PUSH1 0x0 DUP9 DUP9 DUP2 SLOAD DUP2 LT PUSH2 0x1003 JUMPI PUSH32 0x4E487B7100000000000000000000000000000000000000000000000000000000 PUSH1 0x0 MSTORE PUSH1 0x32 PUSH1 0x4 MSTORE PUSH1 0x24 PUSH1 0x0 REVERT JUMPDEST SWAP1 PUSH1 0x0 MSTORE PUSH1 0x20 PUSH1 0x0 KECCAK256 SWAP1 PUSH1 0x7 MUL ADD PUSH1 0x1 ADD PUSH1 0x0 SWAP1 SLOAD SWAP1 PUSH2 0x100 EXP SWAP1 DIV PUSH20 0xFFFFFFFFFFFFFFFFFFFFFFFFFFFFFFFFFFFFFFFF AND PUSH20 0xFFFFFFFFFFFFFFFFFFFFFFFFFFFFFFFFFFFFFFFF AND PUSH20 0xFFFFFFFFFFFFFFFFFFFFFFFFFFFFFFFFFFFFFFFF AND DUP2 MSTORE PUSH1 0x20 ADD SWAP1 DUP2 MSTORE PUSH1 0x20 ADD PUSH1 0x0 KECCAK256 PUSH1 0x0 PUSH32 0x4441490000000000000000000000000000000000000000000000000000000000 DUP2 MSTORE PUSH1 0x20 ADD SWAP1 DUP2 MSTORE PUSH1 0x20 ADD PUSH1 0x0 KECCAK256 SLOAD PUSH2 0x3084 SWAP1 SWAP2 SWAP1 PUSH4 0xFFFFFFFF AND JUMP JUMPDEST PUSH1 0x3 PUSH1 0x0 DUP8 DUP8 DUP2 SLOAD DUP2 LT PUSH2 0x10EC JUMPI PUSH32 0x4E487B7100000000000000000000000000000000000000000000000000000000 PUSH1 0x0 MSTORE PUSH1 0x32 PUSH1 0x4 MSTORE PUSH1 0x24 PUSH1 0x0 REVERT JUMPDEST SWAP1 PUSH1 0x0 MSTORE PUSH1 0x20 PUSH1 0x0 KECCAK256 SWAP1 PUSH1 0x7 MUL ADD PUSH1 0x1 ADD PUSH1 0x0 SWAP1 SLOAD SWAP1 PUSH2 0x100 EXP SWAP1 DIV PUSH20 0xFFFFFFFFFFFFFFFFFFFFFFFFFFFFFFFFFFFFFFFF AND PUSH20 0xFFFFFFFFFFFFFFFFFFFFFFFFFFFFFFFFFFFFFFFF AND PUSH20 0xFFFFFFFFFFFFFFFFFFFFFFFFFFFFFFFFFFFFFFFF AND DUP2 MSTORE PUSH1 0x20 ADD SWAP1 DUP2 MSTORE PUSH1 0x20 ADD PUSH1 0x0 KECCAK256 PUSH1 0x0 PUSH32 0x4441490000000000000000000000000000000000000000000000000000000000 DUP2 MSTORE PUSH1 0x20 ADD SWAP1 DUP2 MSTORE PUSH1 0x20 ADD PUSH1 0x0 KECCAK256 DUP2 SWAP1 SSTORE POP PUSH2 0x185E JUMP JUMPDEST PUSH2 0x11EF DUP6 DUP6 DUP2 SLOAD DUP2 LT PUSH2 0x11CE JUMPI PUSH32 0x4E487B7100000000000000000000000000000000000000000000000000000000 PUSH1 0x0 MSTORE PUSH1 0x32 PUSH1 0x4 MSTORE PUSH1 0x24 PUSH1 0x0 REVERT JUMPDEST SWAP1 PUSH1 0x0 MSTORE PUSH1 0x20 PUSH1 0x0 KECCAK256 SWAP1 PUSH1 0x7 MUL ADD PUSH1 0x5 ADD SLOAD DUP3 PUSH2 0x30B0 SWAP1 SWAP2 SWAP1 PUSH4 0xFFFFFFFF AND JUMP JUMPDEST PUSH1 0x3 PUSH1 0x0 CALLER PUSH20 0xFFFFFFFFFFFFFFFFFFFFFFFFFFFFFFFFFFFFFFFF AND PUSH20 0xFFFFFFFFFFFFFFFFFFFFFFFFFFFFFFFFFFFFFFFF AND DUP2 MSTORE PUSH1 0x20 ADD SWAP1 DUP2 MSTORE PUSH1 0x20 ADD PUSH1 0x0 KECCAK256 PUSH1 0x0 PUSH32 0x4441490000000000000000000000000000000000000000000000000000000000 DUP2 MSTORE PUSH1 0x20 ADD SWAP1 DUP2 MSTORE PUSH1 0x20 ADD PUSH1 0x0 KECCAK256 SLOAD LT ISZERO PUSH2 0x12A1 JUMPI PUSH1 0x40 MLOAD PUSH32 0x8C379A000000000000000000000000000000000000000000000000000000000 DUP2 MSTORE PUSH1 0x4 ADD PUSH2 0x1298 SWAP1 PUSH2 0x38C7 JUMP JUMPDEST PUSH1 0x40 MLOAD DUP1 SWAP2 SUB SWAP1 REVERT JUMPDEST PUSH2 0x1304 DUP2 PUSH1 0x3 PUSH1 0x0 CALLER PUSH20 0xFFFFFFFFFFFFFFFFFFFFFFFFFFFFFFFFFFFFFFFF AND PUSH20 0xFFFFFFFFFFFFFFFFFFFFFFFFFFFFFFFFFFFFFFFF AND DUP2 MSTORE PUSH1 0x20 ADD SWAP1 DUP2 MSTORE PUSH1 0x20 ADD PUSH1 0x0 KECCAK256 PUSH1 0x0 DUP14 DUP2 MSTORE PUSH1 0x20 ADD SWAP1 DUP2 MSTORE PUSH1 0x20 ADD PUSH1 0x0 KECCAK256 SLOAD PUSH2 0x309A SWAP1 SWAP2 SWAP1 PUSH4 0xFFFFFFFF AND JUMP JUMPDEST PUSH1 0x3 PUSH1 0x0 CALLER PUSH20 0xFFFFFFFFFFFFFFFFFFFFFFFFFFFFFFFFFFFFFFFF AND PUSH20 0xFFFFFFFFFFFFFFFFFFFFFFFFFFFFFFFFFFFFFFFF AND DUP2 MSTORE PUSH1 0x20 ADD SWAP1 DUP2 MSTORE PUSH1 0x20 ADD PUSH1 0x0 KECCAK256 PUSH1 0x0 DUP13 DUP2 MSTORE PUSH1 0x20 ADD SWAP1 DUP2 MSTORE PUSH1 0x20 ADD PUSH1 0x0 KECCAK256 DUP2 SWAP1 SSTORE POP PUSH2 0x1437 PUSH2 0x13B8 DUP7 DUP7 DUP2 SLOAD DUP2 LT PUSH2 0x1397 JUMPI PUSH32 0x4E487B7100000000000000000000000000000000000000000000000000000000 PUSH1 0x0 MSTORE PUSH1 0x32 PUSH1 0x4 MSTORE PUSH1 0x24 PUSH1 0x0 REVERT JUMPDEST SWAP1 PUSH1 0x0 MSTORE PUSH1 0x20 PUSH1 0x0 KECCAK256 SWAP1 PUSH1 0x7 MUL ADD PUSH1 0x5 ADD SLOAD DUP4 PUSH2 0x30B0 SWAP1 SWAP2 SWAP1 PUSH4 0xFFFFFFFF AND JUMP JUMPDEST PUSH1 0x3 PUSH1 0x0 CALLER PUSH20 0xFFFFFFFFFFFFFFFFFFFFFFFFFFFFFFFFFFFFFFFF AND PUSH20 0xFFFFFFFFFFFFFFFFFFFFFFFFFFFFFFFFFFFFFFFF AND DUP2 MSTORE PUSH1 0x20 ADD SWAP1 DUP2 MSTORE PUSH1 0x20 ADD PUSH1 0x0 KECCAK256 PUSH1 0x0 PUSH32 0x4441490000000000000000000000000000000000000000000000000000000000 DUP2 MSTORE PUSH1 0x20 ADD SWAP1 DUP2 MSTORE PUSH1 0x20 ADD PUSH1 0x0 KECCAK256 SLOAD PUSH2 0x3084 SWAP1 SWAP2 SWAP1 PUSH4 0xFFFFFFFF AND JUMP JUMPDEST PUSH1 0x3 PUSH1 0x0 CALLER PUSH20 0xFFFFFFFFFFFFFFFFFFFFFFFFFFFFFFFFFFFFFFFF AND PUSH20 0xFFFFFFFFFFFFFFFFFFFFFFFFFFFFFFFFFFFFFFFF AND DUP2 MSTORE PUSH1 0x20 ADD SWAP1 DUP2 MSTORE PUSH1 0x20 ADD PUSH1 0x0 KECCAK256 PUSH1 0x0 PUSH32 0x4441490000000000000000000000000000000000000000000000000000000000 DUP2 MSTORE PUSH1 0x20 ADD SWAP1 DUP2 MSTORE PUSH1 0x20 ADD PUSH1 0x0 KECCAK256 DUP2 SWAP1 SSTORE POP PUSH2 0x1578 DUP2 PUSH1 0x3 PUSH1 0x0 DUP9 DUP9 DUP2 SLOAD DUP2 LT PUSH2 0x14EC JUMPI PUSH32 0x4E487B7100000000000000000000000000000000000000000000000000000000 PUSH1 0x0 MSTORE PUSH1 0x32 PUSH1 0x4 MSTORE PUSH1 0x24 PUSH1 0x0 REVERT JUMPDEST SWAP1 PUSH1 0x0 MSTORE PUSH1 0x20 PUSH1 0x0 KECCAK256 SWAP1 PUSH1 0x7 MUL ADD PUSH1 0x1 ADD PUSH1 0x0 SWAP1 SLOAD SWAP1 PUSH2 0x100 EXP SWAP1 DIV PUSH20 0xFFFFFFFFFFFFFFFFFFFFFFFFFFFFFFFFFFFFFFFF AND PUSH20 0xFFFFFFFFFFFFFFFFFFFFFFFFFFFFFFFFFFFFFFFF AND PUSH20 0xFFFFFFFFFFFFFFFFFFFFFFFFFFFFFFFFFFFFFFFF AND DUP2 MSTORE PUSH1 0x20 ADD SWAP1 DUP2 MSTORE PUSH1 0x20 ADD PUSH1 0x0 KECCAK256 PUSH1 0x0 DUP14 DUP2 MSTORE PUSH1 0x20 ADD SWAP1 DUP2 MSTORE PUSH1 0x20 ADD PUSH1 0x0 KECCAK256 SLOAD PUSH2 0x309A SWAP1 SWAP2 SWAP1 PUSH4 0xFFFFFFFF AND JUMP JUMPDEST PUSH1 0x3 PUSH1 0x0 DUP8 DUP8 DUP2 SLOAD DUP2 LT PUSH2 0x15B5 JUMPI PUSH32 0x4E487B7100000000000000000000000000000000000000000000000000000000 PUSH1 0x0 MSTORE PUSH1 0x32 PUSH1 0x4 MSTORE PUSH1 0x24 PUSH1 0x0 REVERT JUMPDEST SWAP1 PUSH1 0x0 MSTORE PUSH1 0x20 PUSH1 0x0 KECCAK256 SWAP1 PUSH1 0x7 MUL ADD PUSH1 0x1 ADD PUSH1 0x0 SWAP1 SLOAD SWAP1 PUSH2 0x100 EXP SWAP1 DIV PUSH20 0xFFFFFFFFFFFFFFFFFFFFFFFFFFFFFFFFFFFFFFFF AND PUSH20 0xFFFFFFFFFFFFFFFFFFFFFFFFFFFFFFFFFFFFFFFF AND PUSH20 0xFFFFFFFFFFFFFFFFFFFFFFFFFFFFFFFFFFFFFFFF AND DUP2 MSTORE PUSH1 0x20 ADD SWAP1 DUP2 MSTORE PUSH1 0x20 ADD PUSH1 0x0 KECCAK256 PUSH1 0x0 DUP13 DUP2 MSTORE PUSH1 0x20 ADD SWAP1 DUP2 MSTORE PUSH1 0x20 ADD PUSH1 0x0 KECCAK256 DUP2 SWAP1 SSTORE POP PUSH2 0x177F PUSH2 0x1696 DUP7 DUP7 DUP2 SLOAD DUP2 LT PUSH2 0x1675 JUMPI PUSH32 0x4E487B7100000000000000000000000000000000000000000000000000000000 PUSH1 0x0 MSTORE PUSH1 0x32 PUSH1 0x4 MSTORE PUSH1 0x24 PUSH1 0x0 REVERT JUMPDEST SWAP1 PUSH1 0x0 MSTORE PUSH1 0x20 PUSH1 0x0 KECCAK256 SWAP1 PUSH1 0x7 MUL ADD PUSH1 0x5 ADD SLOAD DUP4 PUSH2 0x30B0 SWAP1 SWAP2 SWAP1 PUSH4 0xFFFFFFFF AND JUMP JUMPDEST PUSH1 0x3 PUSH1 0x0 DUP9 DUP9 DUP2 SLOAD DUP2 LT PUSH2 0x16D3 JUMPI PUSH32 0x4E487B7100000000000000000000000000000000000000000000000000000000 PUSH1 0x0 MSTORE PUSH1 0x32 PUSH1 0x4 MSTORE PUSH1 0x24 PUSH1 0x0 REVERT JUMPDEST SWAP1 PUSH1 0x0 MSTORE PUSH1 0x20 PUSH1 0x0 KECCAK256 SWAP1 PUSH1 0x7 MUL ADD PUSH1 0x1 ADD PUSH1 0x0 SWAP1 SLOAD SWAP1 PUSH2 0x100 EXP SWAP1 DIV PUSH20 0xFFFFFFFFFFFFFFFFFFFFFFFFFFFFFFFFFFFFFFFF AND PUSH20 0xFFFFFFFFFFFFFFFFFFFFFFFFFFFFFFFFFFFFFFFF AND PUSH20 0xFFFFFFFFFFFFFFFFFFFFFFFFFFFFFFFFFFFFFFFF AND DUP2 MSTORE PUSH1 0x20 ADD SWAP1 DUP2 MSTORE PUSH1 0x20 ADD PUSH1 0x0 KECCAK256 PUSH1 0x0 PUSH32 0x4441490000000000000000000000000000000000000000000000000000000000 DUP2 MSTORE PUSH1 0x20 ADD SWAP1 DUP2 MSTORE PUSH1 0x20 ADD PUSH1 0x0 KECCAK256 SLOAD PUSH2 0x3084 SWAP1 SWAP2 SWAP1 PUSH4 0xFFFFFFFF AND JUMP JUMPDEST PUSH1 0x3 PUSH1 0x0 DUP8 DUP8 DUP2 SLOAD DUP2 LT PUSH2 0x17BC JUMPI PUSH32 0x4E487B7100000000000000000000000000000000000000000000000000000000 PUSH1 0x0 MSTORE PUSH1 0x32 PUSH1 0x4 MSTORE PUSH1 0x24 PUSH1 0x0 REVERT JUMPDEST SWAP1 PUSH1 0x0 MSTORE PUSH1 0x20 PUSH1 0x0 KECCAK256 SWAP1 PUSH1 0x7 MUL ADD PUSH1 0x1 ADD PUSH1 0x0 SWAP1 SLOAD SWAP1 PUSH2 0x100 EXP SWAP1 DIV PUSH20 0xFFFFFFFFFFFFFFFFFFFFFFFFFFFFFFFFFFFFFFFF AND PUSH20 0xFFFFFFFFFFFFFFFFFFFFFFFFFFFFFFFFFFFFFFFF AND PUSH20 0xFFFFFFFFFFFFFFFFFFFFFFFFFFFFFFFFFFFFFFFF AND DUP2 MSTORE PUSH1 0x20 ADD SWAP1 DUP2 MSTORE PUSH1 0x20 ADD PUSH1 0x0 KECCAK256 PUSH1 0x0 PUSH32 0x4441490000000000000000000000000000000000000000000000000000000000 DUP2 MSTORE PUSH1 0x20 ADD SWAP1 DUP2 MSTORE PUSH1 0x20 ADD PUSH1 0x0 KECCAK256 DUP2 SWAP1 SSTORE POP JUMPDEST PUSH2 0x1874 PUSH1 0x1 PUSH1 0x6 SLOAD PUSH2 0x309A SWAP1 SWAP2 SWAP1 PUSH4 0xFFFFFFFF AND JUMP JUMPDEST PUSH1 0x6 DUP2 SWAP1 SSTORE POP PUSH2 0x188E PUSH1 0x1 DUP6 PUSH2 0x309A SWAP1 SWAP2 SWAP1 PUSH4 0xFFFFFFFF AND JUMP JUMPDEST SWAP4 POP POP POP PUSH2 0x855 JUMP JUMPDEST PUSH1 0x0 SWAP2 POP JUMPDEST DUP3 DUP1 SLOAD SWAP1 POP DUP3 LT DUP1 ISZERO PUSH2 0x1942 JUMPI POP DUP3 DUP3 DUP2 SLOAD DUP2 LT PUSH2 0x18E3 JUMPI PUSH32 0x4E487B7100000000000000000000000000000000000000000000000000000000 PUSH1 0x0 MSTORE PUSH1 0x32 PUSH1 0x4 MSTORE PUSH1 0x24 PUSH1 0x0 REVERT JUMPDEST SWAP1 PUSH1 0x0 MSTORE PUSH1 0x20 PUSH1 0x0 KECCAK256 SWAP1 PUSH1 0x7 MUL ADD PUSH1 0x3 ADD SLOAD DUP4 DUP4 DUP2 SLOAD DUP2 LT PUSH2 0x192E JUMPI PUSH32 0x4E487B7100000000000000000000000000000000000000000000000000000000 PUSH1 0x0 MSTORE PUSH1 0x32 PUSH1 0x4 MSTORE PUSH1 0x24 PUSH1 0x0 REVERT JUMPDEST SWAP1 PUSH1 0x0 MSTORE PUSH1 0x20 PUSH1 0x0 KECCAK256 SWAP1 PUSH1 0x7 MUL ADD PUSH1 0x4 ADD SLOAD EQ JUMPDEST ISZERO PUSH2 0x1BF2 JUMPI PUSH1 0x0 DUP3 SWAP1 POP JUMPDEST PUSH1 0x1 DUP5 DUP1 SLOAD SWAP1 POP PUSH2 0x195E SWAP2 SWAP1 PUSH2 0x3B66 JUMP JUMPDEST DUP2 LT ISZERO PUSH2 0x1B1B JUMPI DUP4 PUSH1 0x1 DUP3 PUSH2 0x1973 SWAP2 SWAP1 PUSH2 0x3AB6 JUMP JUMPDEST DUP2 SLOAD DUP2 LT PUSH2 0x19AA JUMPI PUSH32 0x4E487B7100000000000000000000000000000000000000000000000000000000 PUSH1 0x0 MSTORE PUSH1 0x32 PUSH1 0x4 MSTORE PUSH1 0x24 PUSH1 0x0 REVERT JUMPDEST SWAP1 PUSH1 0x0 MSTORE PUSH1 0x20 PUSH1 0x0 KECCAK256 SWAP1 PUSH1 0x7 MUL ADD DUP5 DUP3 DUP2 SLOAD DUP2 LT PUSH2 0x19F1 JUMPI PUSH32 0x4E487B7100000000000000000000000000000000000000000000000000000000 PUSH1 0x0 MSTORE PUSH1 0x32 PUSH1 0x4 MSTORE PUSH1 0x24 PUSH1 0x0 REVERT JUMPDEST SWAP1 PUSH1 0x0 MSTORE PUSH1 0x20 PUSH1 0x0 KECCAK256 SWAP1 PUSH1 0x7 MUL ADD PUSH1 0x0 DUP3 ADD SLOAD DUP2 PUSH1 0x0 ADD SSTORE PUSH1 0x1 DUP3 ADD PUSH1 0x0 SWAP1 SLOAD SWAP1 PUSH2 0x100 EXP SWAP1 DIV PUSH20 0xFFFFFFFFFFFFFFFFFFFFFFFFFFFFFFFFFFFFFFFF AND DUP2 PUSH1 0x1 ADD PUSH1 0x0 PUSH2 0x100 EXP DUP2 SLOAD DUP2 PUSH20 0xFFFFFFFFFFFFFFFFFFFFFFFFFFFFFFFFFFFFFFFF MUL NOT AND SWAP1 DUP4 PUSH20 0xFFFFFFFFFFFFFFFFFFFFFFFFFFFFFFFFFFFFFFFF AND MUL OR SWAP1 SSTORE POP PUSH1 0x1 DUP3 ADD PUSH1 0x14 SWAP1 SLOAD SWAP1 PUSH2 0x100 EXP SWAP1 DIV PUSH1 0xFF AND DUP2 PUSH1 0x1 ADD PUSH1 0x14 PUSH2 0x100 EXP DUP2 SLOAD DUP2 PUSH1 0xFF MUL NOT AND SWAP1 DUP4 PUSH1 0x1 DUP2 GT ISZERO PUSH2 0x1ACE JUMPI PUSH32 0x4E487B7100000000000000000000000000000000000000000000000000000000 PUSH1 0x0 MSTORE PUSH1 0x21 PUSH1 0x4 MSTORE PUSH1 0x24 PUSH1 0x0 REVERT JUMPDEST MUL OR SWAP1 SSTORE POP PUSH1 0x2 DUP3 ADD SLOAD DUP2 PUSH1 0x2 ADD SSTORE PUSH1 0x3 DUP3 ADD SLOAD DUP2 PUSH1 0x3 ADD SSTORE PUSH1 0x4 DUP3 ADD SLOAD DUP2 PUSH1 0x4 ADD SSTORE PUSH1 0x5 DUP3 ADD SLOAD DUP2 PUSH1 0x5 ADD SSTORE PUSH1 0x6 DUP3 ADD SLOAD DUP2 PUSH1 0x6 ADD SSTORE SWAP1 POP POP DUP1 DUP1 PUSH2 0x1B13 SWAP1 PUSH2 0x3C11 JUMP JUMPDEST SWAP2 POP POP PUSH2 0x194D JUMP JUMPDEST POP DUP3 DUP1 SLOAD DUP1 PUSH2 0x1B53 JUMPI PUSH32 0x4E487B7100000000000000000000000000000000000000000000000000000000 PUSH1 0x0 MSTORE PUSH1 0x31 PUSH1 0x4 MSTORE PUSH1 0x24 PUSH1 0x0 REVERT JUMPDEST PUSH1 0x1 SWAP1 SUB DUP2 DUP2 SWAP1 PUSH1 0x0 MSTORE PUSH1 0x20 PUSH1 0x0 KECCAK256 SWAP1 PUSH1 0x7 MUL ADD PUSH1 0x0 DUP1 DUP3 ADD PUSH1 0x0 SWAP1 SSTORE PUSH1 0x1 DUP3 ADD PUSH1 0x0 PUSH2 0x100 EXP DUP2 SLOAD SWAP1 PUSH20 0xFFFFFFFFFFFFFFFFFFFFFFFFFFFFFFFFFFFFFFFF MUL NOT AND SWAP1 SSTORE PUSH1 0x1 DUP3 ADD PUSH1 0x14 PUSH2 0x100 EXP DUP2 SLOAD SWAP1 PUSH1 0xFF MUL NOT AND SWAP1 SSTORE PUSH1 0x2 DUP3 ADD PUSH1 0x0 SWAP1 SSTORE PUSH1 0x3 DUP3 ADD PUSH1 0x0 SWAP1 SSTORE PUSH1 0x4 DUP3 ADD PUSH1 0x0 SWAP1 SSTORE PUSH1 0x5 DUP3 ADD PUSH1 0x0 SWAP1 SSTORE PUSH1 0x6 DUP3 ADD PUSH1 0x0 SWAP1 SSTORE POP POP SWAP1 SSTORE PUSH2 0x1BEB PUSH1 0x1 DUP4 PUSH2 0x309A SWAP1 SWAP2 SWAP1 PUSH4 0xFFFFFFFF AND JUMP JUMPDEST SWAP2 POP PUSH2 0x189C JUMP JUMPDEST POP POP POP POP POP POP POP POP JUMP JUMPDEST PUSH1 0x1 PUSH1 0x20 MSTORE DUP1 PUSH1 0x0 MSTORE PUSH1 0x40 PUSH1 0x0 KECCAK256 PUSH1 0x0 SWAP2 POP SWAP1 POP DUP1 PUSH1 0x0 ADD SLOAD SWAP1 DUP1 PUSH1 0x1 ADD PUSH1 0x0 SWAP1 SLOAD SWAP1 PUSH2 0x100 EXP SWAP1 DIV PUSH20 0xFFFFFFFFFFFFFFFFFFFFFFFFFFFFFFFFFFFFFFFF AND SWAP1 POP DUP3 JUMP JUMPDEST PUSH1 0x0 DUP1 SLOAD SWAP1 PUSH2 0x100 EXP SWAP1 DIV PUSH20 0xFFFFFFFFFFFFFFFFFFFFFFFFFFFFFFFFFFFFFFFF AND PUSH20 0xFFFFFFFFFFFFFFFFFFFFFFFFFFFFFFFFFFFFFFFF AND CALLER PUSH20 0xFFFFFFFFFFFFFFFFFFFFFFFFFFFFFFFFFFFFFFFF AND EQ PUSH2 0x1CCE JUMPI PUSH1 0x40 MLOAD PUSH32 0x8C379A000000000000000000000000000000000000000000000000000000000 DUP2 MSTORE PUSH1 0x4 ADD PUSH2 0x1CC5 SWAP1 PUSH2 0x38A7 JUMP JUMPDEST PUSH1 0x40 MLOAD DUP1 SWAP2 SUB SWAP1 REVERT JUMPDEST PUSH1 0x40 MLOAD DUP1 PUSH1 0x40 ADD PUSH1 0x40 MSTORE DUP1 DUP4 DUP2 MSTORE PUSH1 0x20 ADD DUP3 PUSH20 0xFFFFFFFFFFFFFFFFFFFFFFFFFFFFFFFFFFFFFFFF AND DUP2 MSTORE POP PUSH1 0x1 PUSH1 0x0 DUP5 DUP2 MSTORE PUSH1 0x20 ADD SWAP1 DUP2 MSTORE PUSH1 0x20 ADD PUSH1 0x0 KECCAK256 PUSH1 0x0 DUP3 ADD MLOAD DUP2 PUSH1 0x0 ADD SSTORE PUSH1 0x20 DUP3 ADD MLOAD DUP2 PUSH1 0x1 ADD PUSH1 0x0 PUSH2 0x100 EXP DUP2 SLOAD DUP2 PUSH20 0xFFFFFFFFFFFFFFFFFFFFFFFFFFFFFFFFFFFFFFFF MUL NOT AND SWAP1 DUP4 PUSH20 0xFFFFFFFFFFFFFFFFFFFFFFFFFFFFFFFFFFFFFFFF AND MUL OR SWAP1 SSTORE POP SWAP1 POP POP PUSH1 0x2 DUP3 SWAP1 DUP1 PUSH1 0x1 DUP2 SLOAD ADD DUP1 DUP3 SSTORE DUP1 SWAP2 POP POP PUSH1 0x1 SWAP1 SUB SWAP1 PUSH1 0x0 MSTORE PUSH1 0x20 PUSH1 0x0 KECCAK256 ADD PUSH1 0x0 SWAP1 SWAP2 SWAP1 SWAP2 SWAP1 SWAP2 POP SSTORE POP POP JUMP JUMPDEST PUSH1 0x2 DUP2 DUP2 SLOAD DUP2 LT PUSH2 0x1D9D JUMPI PUSH1 0x0 DUP1 REVERT JUMPDEST SWAP1 PUSH1 0x0 MSTORE PUSH1 0x20 PUSH1 0x0 KECCAK256 ADD PUSH1 0x0 SWAP2 POP SWAP1 POP SLOAD DUP2 JUMP JUMPDEST DUP1 PUSH1 0x0 PUSH20 0xFFFFFFFFFFFFFFFFFFFFFFFFFFFFFFFFFFFFFFFF AND PUSH1 0x1 PUSH1 0x0 DUP4 DUP2 MSTORE PUSH1 0x20 ADD SWAP1 DUP2 MSTORE PUSH1 0x20 ADD PUSH1 0x0 KECCAK256 PUSH1 0x1 ADD PUSH1 0x0 SWAP1 SLOAD SWAP1 PUSH2 0x100 EXP SWAP1 DIV PUSH20 0xFFFFFFFFFFFFFFFFFFFFFFFFFFFFFFFFFFFFFFFF AND PUSH20 0xFFFFFFFFFFFFFFFFFFFFFFFFFFFFFFFFFFFFFFFF AND EQ ISZERO PUSH2 0x1E58 JUMPI PUSH1 0x40 MLOAD PUSH32 0x8C379A000000000000000000000000000000000000000000000000000000000 DUP2 MSTORE PUSH1 0x4 ADD PUSH2 0x1E4F SWAP1 PUSH2 0x38E7 JUMP JUMPDEST PUSH1 0x40 MLOAD DUP1 SWAP2 SUB SWAP1 REVERT JUMPDEST DUP3 PUSH1 0x3 PUSH1 0x0 CALLER PUSH20 0xFFFFFFFFFFFFFFFFFFFFFFFFFFFFFFFFFFFFFFFF AND PUSH20 0xFFFFFFFFFFFFFFFFFFFFFFFFFFFFFFFFFFFFFFFF AND DUP2 MSTORE PUSH1 0x20 ADD SWAP1 DUP2 MSTORE PUSH1 0x20 ADD PUSH1 0x0 KECCAK256 PUSH1 0x0 DUP5 DUP2 MSTORE PUSH1 0x20 ADD SWAP1 DUP2 MSTORE PUSH1 0x20 ADD PUSH1 0x0 KECCAK256 SLOAD LT ISZERO PUSH2 0x1EEB JUMPI PUSH1 0x40 MLOAD PUSH32 0x8C379A000000000000000000000000000000000000000000000000000000000 DUP2 MSTORE PUSH1 0x4 ADD PUSH2 0x1EE2 SWAP1 PUSH2 0x3887 JUMP JUMPDEST PUSH1 0x40 MLOAD DUP1 SWAP2 SUB SWAP1 REVERT JUMPDEST PUSH2 0x1F4E DUP4 PUSH1 0x3 PUSH1 0x0 CALLER PUSH20 0xFFFFFFFFFFFFFFFFFFFFFFFFFFFFFFFFFFFFFFFF AND PUSH20 0xFFFFFFFFFFFFFFFFFFFFFFFFFFFFFFFFFFFFFFFF AND DUP2 MSTORE PUSH1 0x20 ADD SWAP1 DUP2 MSTORE PUSH1 0x20 ADD PUSH1 0x0 KECCAK256 PUSH1 0x0 DUP6 DUP2 MSTORE PUSH1 0x20 ADD SWAP1 DUP2 MSTORE PUSH1 0x20 ADD PUSH1 0x0 KECCAK256 SLOAD PUSH2 0x3084 SWAP1 SWAP2 SWAP1 PUSH4 0xFFFFFFFF AND JUMP JUMPDEST PUSH1 0x3 PUSH1 0x0 CALLER PUSH20 0xFFFFFFFFFFFFFFFFFFFFFFFFFFFFFFFFFFFFFFFF AND PUSH20 0xFFFFFFFFFFFFFFFFFFFFFFFFFFFFFFFFFFFFFFFF AND DUP2 MSTORE PUSH1 0x20 ADD SWAP1 DUP2 MSTORE PUSH1 0x20 ADD PUSH1 0x0 KECCAK256 PUSH1 0x0 DUP5 DUP2 MSTORE PUSH1 0x20 ADD SWAP1 DUP2 MSTORE PUSH1 0x20 ADD PUSH1 0x0 KECCAK256 DUP2 SWAP1 SSTORE POP PUSH1 0x1 PUSH1 0x0 DUP4 DUP2 MSTORE PUSH1 0x20 ADD SWAP1 DUP2 MSTORE PUSH1 0x20 ADD PUSH1 0x0 KECCAK256 PUSH1 0x1 ADD PUSH1 0x0 SWAP1 SLOAD SWAP1 PUSH2 0x100 EXP SWAP1 DIV PUSH20 0xFFFFFFFFFFFFFFFFFFFFFFFFFFFFFFFFFFFFFFFF AND PUSH20 0xFFFFFFFFFFFFFFFFFFFFFFFFFFFFFFFFFFFFFFFF AND PUSH4 0xA9059CBB CALLER DUP6 PUSH1 0x40 MLOAD DUP4 PUSH4 0xFFFFFFFF AND PUSH1 0xE0 SHL DUP2 MSTORE PUSH1 0x4 ADD PUSH2 0x2013 SWAP3 SWAP2 SWAP1 PUSH2 0x37D6 JUMP JUMPDEST PUSH1 0x20 PUSH1 0x40 MLOAD DUP1 DUP4 SUB DUP2 PUSH1 0x0 DUP8 DUP1 EXTCODESIZE ISZERO DUP1 ISZERO PUSH2 0x202D JUMPI PUSH1 0x0 DUP1 REVERT JUMPDEST POP GAS CALL ISZERO DUP1 ISZERO PUSH2 0x2041 JUMPI RETURNDATASIZE PUSH1 0x0 DUP1 RETURNDATACOPY RETURNDATASIZE PUSH1 0x0 REVERT JUMPDEST POP POP POP POP PUSH1 0x40 MLOAD RETURNDATASIZE PUSH1 0x1F NOT PUSH1 0x1F DUP3 ADD AND DUP3 ADD DUP1 PUSH1 0x40 MSTORE POP DUP2 ADD SWAP1 PUSH2 0x2065 SWAP2 SWAP1 PUSH2 0x319E JUMP JUMPDEST POP POP POP POP JUMP JUMPDEST PUSH1 0x60 PUSH1 0x0 PUSH1 0x2 DUP1 SLOAD SWAP1 POP PUSH8 0xFFFFFFFFFFFFFFFF DUP2 GT ISZERO PUSH2 0x20B4 JUMPI PUSH32 0x4E487B7100000000000000000000000000000000000000000000000000000000 PUSH1 0x0 MSTORE PUSH1 0x41 PUSH1 0x4 MSTORE PUSH1 0x24 PUSH1 0x0 REVERT JUMPDEST PUSH1 0x40 MLOAD SWAP1 DUP1 DUP3 MSTORE DUP1 PUSH1 0x20 MUL PUSH1 0x20 ADD DUP3 ADD PUSH1 0x40 MSTORE DUP1 ISZERO PUSH2 0x20ED JUMPI DUP2 PUSH1 0x20 ADD JUMPDEST PUSH2 0x20DA PUSH2 0x30C6 JUMP JUMPDEST DUP2 MSTORE PUSH1 0x20 ADD SWAP1 PUSH1 0x1 SWAP1 SUB SWAP1 DUP2 PUSH2 0x20D2 JUMPI SWAP1 POP JUMPDEST POP SWAP1 POP PUSH1 0x0 JUMPDEST PUSH1 0x2 DUP1 SLOAD SWAP1 POP DUP2 LT ISZERO PUSH2 0x2256 JUMPI PUSH1 0x40 MLOAD DUP1 PUSH1 0x40 ADD PUSH1 0x40 MSTORE DUP1 PUSH1 0x1 PUSH1 0x0 PUSH1 0x2 DUP6 DUP2 SLOAD DUP2 LT PUSH2 0x2149 JUMPI PUSH32 0x4E487B7100000000000000000000000000000000000000000000000000000000 PUSH1 0x0 MSTORE PUSH1 0x32 PUSH1 0x4 MSTORE PUSH1 0x24 PUSH1 0x0 REVERT JUMPDEST SWAP1 PUSH1 0x0 MSTORE PUSH1 0x20 PUSH1 0x0 KECCAK256 ADD SLOAD DUP2 MSTORE PUSH1 0x20 ADD SWAP1 DUP2 MSTORE PUSH1 0x20 ADD PUSH1 0x0 KECCAK256 PUSH1 0x0 ADD SLOAD DUP2 MSTORE PUSH1 0x20 ADD PUSH1 0x1 PUSH1 0x0 PUSH1 0x2 DUP6 DUP2 SLOAD DUP2 LT PUSH2 0x21A9 JUMPI PUSH32 0x4E487B7100000000000000000000000000000000000000000000000000000000 PUSH1 0x0 MSTORE PUSH1 0x32 PUSH1 0x4 MSTORE PUSH1 0x24 PUSH1 0x0 REVERT JUMPDEST SWAP1 PUSH1 0x0 MSTORE PUSH1 0x20 PUSH1 0x0 KECCAK256 ADD SLOAD DUP2 MSTORE PUSH1 0x20 ADD SWAP1 DUP2 MSTORE PUSH1 0x20 ADD PUSH1 0x0 KECCAK256 PUSH1 0x1 ADD PUSH1 0x0 SWAP1 SLOAD SWAP1 PUSH2 0x100 EXP SWAP1 DIV PUSH20 0xFFFFFFFFFFFFFFFFFFFFFFFFFFFFFFFFFFFFFFFF AND PUSH20 0xFFFFFFFFFFFFFFFFFFFFFFFFFFFFFFFFFFFFFFFF AND DUP2 MSTORE POP DUP3 DUP3 DUP2 MLOAD DUP2 LT PUSH2 0x2238 JUMPI PUSH32 0x4E487B7100000000000000000000000000000000000000000000000000000000 PUSH1 0x0 MSTORE PUSH1 0x32 PUSH1 0x4 MSTORE PUSH1 0x24 PUSH1 0x0 REVERT JUMPDEST PUSH1 0x20 MUL PUSH1 0x20 ADD ADD DUP2 SWAP1 MSTORE POP DUP1 DUP1 PUSH2 0x224E SWAP1 PUSH2 0x3C11 JUMP JUMPDEST SWAP2 POP POP PUSH2 0x20F3 JUMP JUMPDEST POP DUP1 SWAP2 POP POP SWAP1 JUMP JUMPDEST DUP1 PUSH1 0x0 PUSH20 0xFFFFFFFFFFFFFFFFFFFFFFFFFFFFFFFFFFFFFFFF AND PUSH1 0x1 PUSH1 0x0 DUP4 DUP2 MSTORE PUSH1 0x20 ADD SWAP1 DUP2 MSTORE PUSH1 0x20 ADD PUSH1 0x0 KECCAK256 PUSH1 0x1 ADD PUSH1 0x0 SWAP1 SLOAD SWAP1 PUSH2 0x100 EXP SWAP1 DIV PUSH20 0xFFFFFFFFFFFFFFFFFFFFFFFFFFFFFFFFFFFFFFFF AND PUSH20 0xFFFFFFFFFFFFFFFFFFFFFFFFFFFFFFFFFFFFFFFF AND EQ ISZERO PUSH2 0x2305 JUMPI PUSH1 0x40 MLOAD PUSH32 0x8C379A000000000000000000000000000000000000000000000000000000000 DUP2 MSTORE PUSH1 0x4 ADD PUSH2 0x22FC SWAP1 PUSH2 0x38E7 JUMP JUMPDEST PUSH1 0x40 MLOAD DUP1 SWAP2 SUB SWAP1 REVERT JUMPDEST PUSH1 0x1 PUSH1 0x0 DUP4 DUP2 MSTORE PUSH1 0x20 ADD SWAP1 DUP2 MSTORE PUSH1 0x20 ADD PUSH1 0x0 KECCAK256 PUSH1 0x1 ADD PUSH1 0x0 SWAP1 SLOAD SWAP1 PUSH2 0x100 EXP SWAP1 DIV PUSH20 0xFFFFFFFFFFFFFFFFFFFFFFFFFFFFFFFFFFFFFFFF AND PUSH20 0xFFFFFFFFFFFFFFFFFFFFFFFFFFFFFFFFFFFFFFFF AND PUSH4 0x23B872DD CALLER ADDRESS DUP7 PUSH1 0x40 MLOAD DUP5 PUSH4 0xFFFFFFFF AND PUSH1 0xE0 SHL DUP2 MSTORE PUSH1 0x4 ADD PUSH2 0x2378 SWAP4 SWAP3 SWAP2 SWAP1 PUSH2 0x379F JUMP JUMPDEST PUSH1 0x20 PUSH1 0x40 MLOAD DUP1 DUP4 SUB DUP2 PUSH1 0x0 DUP8 DUP1 EXTCODESIZE ISZERO DUP1 ISZERO PUSH2 0x2392 JUMPI PUSH1 0x0 DUP1 REVERT JUMPDEST POP GAS CALL ISZERO DUP1 ISZERO PUSH2 0x23A6 JUMPI RETURNDATASIZE PUSH1 0x0 DUP1 RETURNDATACOPY RETURNDATASIZE PUSH1 0x0 REVERT JUMPDEST POP POP POP POP PUSH1 0x40 MLOAD RETURNDATASIZE PUSH1 0x1F NOT PUSH1 0x1F DUP3 ADD AND DUP3 ADD DUP1 PUSH1 0x40 MSTORE POP DUP2 ADD SWAP1 PUSH2 0x23CA SWAP2 SWAP1 PUSH2 0x319E JUMP JUMPDEST POP PUSH2 0x242E DUP4 PUSH1 0x3 PUSH1 0x0 CALLER PUSH20 0xFFFFFFFFFFFFFFFFFFFFFFFFFFFFFFFFFFFFFFFF AND PUSH20 0xFFFFFFFFFFFFFFFFFFFFFFFFFFFFFFFFFFFFFFFF AND DUP2 MSTORE PUSH1 0x20 ADD SWAP1 DUP2 MSTORE PUSH1 0x20 ADD PUSH1 0x0 KECCAK256 PUSH1 0x0 DUP6 DUP2 MSTORE PUSH1 0x20 ADD SWAP1 DUP2 MSTORE PUSH1 0x20 ADD PUSH1 0x0 KECCAK256 SLOAD PUSH2 0x309A SWAP1 SWAP2 SWAP1 PUSH4 0xFFFFFFFF AND JUMP JUMPDEST PUSH1 0x3 PUSH1 0x0 CALLER PUSH20 0xFFFFFFFFFFFFFFFFFFFFFFFFFFFFFFFFFFFFFFFF AND PUSH20 0xFFFFFFFFFFFFFFFFFFFFFFFFFFFFFFFFFFFFFFFF AND DUP2 MSTORE PUSH1 0x20 ADD SWAP1 DUP2 MSTORE PUSH1 0x20 ADD PUSH1 0x0 KECCAK256 PUSH1 0x0 DUP5 DUP2 MSTORE PUSH1 0x20 ADD SWAP1 DUP2 MSTORE PUSH1 0x20 ADD PUSH1 0x0 KECCAK256 DUP2 SWAP1 SSTORE POP POP POP POP JUMP JUMPDEST DUP4 PUSH1 0x0 PUSH20 0xFFFFFFFFFFFFFFFFFFFFFFFFFFFFFFFFFFFFFFFF AND PUSH1 0x1 PUSH1 0x0 DUP4 DUP2 MSTORE PUSH1 0x20 ADD SWAP1 DUP2 MSTORE PUSH1 0x20 ADD PUSH1 0x0 KECCAK256 PUSH1 0x1 ADD PUSH1 0x0 SWAP1 SLOAD SWAP1 PUSH2 0x100 EXP SWAP1 DIV PUSH20 0xFFFFFFFFFFFFFFFFFFFFFFFFFFFFFFFFFFFFFFFF AND PUSH20 0xFFFFFFFFFFFFFFFFFFFFFFFFFFFFFFFFFFFFFFFF AND EQ ISZERO PUSH2 0x252E JUMPI PUSH1 0x40 MLOAD PUSH32 0x8C379A000000000000000000000000000000000000000000000000000000000 DUP2 MSTORE PUSH1 0x4 ADD PUSH2 0x2525 SWAP1 PUSH2 0x38E7 JUMP JUMPDEST PUSH1 0x40 MLOAD DUP1 SWAP2 SUB SWAP1 REVERT JUMPDEST DUP5 PUSH32 0x4441490000000000000000000000000000000000000000000000000000000000 DUP2 EQ ISZERO PUSH2 0x2592 JUMPI PUSH1 0x40 MLOAD PUSH32 0x8C379A000000000000000000000000000000000000000000000000000000000 DUP2 MSTORE PUSH1 0x4 ADD PUSH2 0x2589 SWAP1 PUSH2 0x3927 JUMP JUMPDEST PUSH1 0x40 MLOAD DUP1 SWAP2 SUB SWAP1 REVERT JUMPDEST PUSH1 0x1 DUP1 DUP2 GT ISZERO PUSH2 0x25CB JUMPI PUSH32 0x4E487B7100000000000000000000000000000000000000000000000000000000 PUSH1 0x0 MSTORE PUSH1 0x21 PUSH1 0x4 MSTORE PUSH1 0x24 PUSH1 0x0 REVERT JUMPDEST DUP4 PUSH1 0x1 DUP2 GT ISZERO PUSH2 0x2604 JUMPI PUSH32 0x4E487B7100000000000000000000000000000000000000000000000000000000 PUSH1 0x0 MSTORE PUSH1 0x21 PUSH1 0x4 MSTORE PUSH1 0x24 PUSH1 0x0 REVERT JUMPDEST EQ ISZERO PUSH2 0x26A2 JUMPI DUP5 PUSH1 0x3 PUSH1 0x0 CALLER PUSH20 0xFFFFFFFFFFFFFFFFFFFFFFFFFFFFFFFFFFFFFFFF AND PUSH20 0xFFFFFFFFFFFFFFFFFFFFFFFFFFFFFFFFFFFFFFFF AND DUP2 MSTORE PUSH1 0x20 ADD SWAP1 DUP2 MSTORE PUSH1 0x20 ADD PUSH1 0x0 KECCAK256 PUSH1 0x0 DUP9 DUP2 MSTORE PUSH1 0x20 ADD SWAP1 DUP2 MSTORE PUSH1 0x20 ADD PUSH1 0x0 KECCAK256 SLOAD LT ISZERO PUSH2 0x269D JUMPI PUSH1 0x40 MLOAD PUSH32 0x8C379A000000000000000000000000000000000000000000000000000000000 DUP2 MSTORE PUSH1 0x4 ADD PUSH2 0x2694 SWAP1 PUSH2 0x3907 JUMP JUMPDEST PUSH1 0x40 MLOAD DUP1 SWAP2 SUB SWAP1 REVERT JUMPDEST PUSH2 0x2768 JUMP JUMPDEST PUSH2 0x26B5 DUP5 DUP7 PUSH2 0x30B0 SWAP1 SWAP2 SWAP1 PUSH4 0xFFFFFFFF AND JUMP JUMPDEST PUSH1 0x3 PUSH1 0x0 CALLER PUSH20 0xFFFFFFFFFFFFFFFFFFFFFFFFFFFFFFFFFFFFFFFF AND PUSH20 0xFFFFFFFFFFFFFFFFFFFFFFFFFFFFFFFFFFFFFFFF AND DUP2 MSTORE PUSH1 0x20 ADD SWAP1 DUP2 MSTORE PUSH1 0x20 ADD PUSH1 0x0 KECCAK256 PUSH1 0x0 PUSH32 0x4441490000000000000000000000000000000000000000000000000000000000 DUP2 MSTORE PUSH1 0x20 ADD SWAP1 DUP2 MSTORE PUSH1 0x20 ADD PUSH1 0x0 KECCAK256 SLOAD LT ISZERO PUSH2 0x2767 JUMPI PUSH1 0x40 MLOAD PUSH32 0x8C379A000000000000000000000000000000000000000000000000000000000 DUP2 MSTORE PUSH1 0x4 ADD PUSH2 0x275E SWAP1 PUSH2 0x38C7 JUMP JUMPDEST PUSH1 0x40 MLOAD DUP1 SWAP2 SUB SWAP1 REVERT JUMPDEST JUMPDEST PUSH1 0x0 PUSH1 0x4 PUSH1 0x0 DUP9 DUP2 MSTORE PUSH1 0x20 ADD SWAP1 DUP2 MSTORE PUSH1 0x20 ADD PUSH1 0x0 KECCAK256 PUSH1 0x0 DUP6 PUSH1 0x1 DUP2 GT ISZERO PUSH2 0x27B8 JUMPI PUSH32 0x4E487B7100000000000000000000000000000000000000000000000000000000 PUSH1 0x0 MSTORE PUSH1 0x21 PUSH1 0x4 MSTORE PUSH1 0x24 PUSH1 0x0 REVERT JUMPDEST DUP2 MSTORE PUSH1 0x20 ADD SWAP1 DUP2 MSTORE PUSH1 0x20 ADD PUSH1 0x0 KECCAK256 SWAP1 POP DUP1 PUSH1 0x40 MLOAD DUP1 PUSH2 0x100 ADD PUSH1 0x40 MSTORE DUP1 PUSH1 0x5 SLOAD DUP2 MSTORE PUSH1 0x20 ADD CALLER PUSH20 0xFFFFFFFFFFFFFFFFFFFFFFFFFFFFFFFFFFFFFFFF AND DUP2 MSTORE PUSH1 0x20 ADD DUP7 PUSH1 0x1 DUP2 GT ISZERO PUSH2 0x2832 JUMPI PUSH32 0x4E487B7100000000000000000000000000000000000000000000000000000000 PUSH1 0x0 MSTORE PUSH1 0x21 PUSH1 0x4 MSTORE PUSH1 0x24 PUSH1 0x0 REVERT JUMPDEST DUP2 MSTORE PUSH1 0x20 ADD DUP10 DUP2 MSTORE PUSH1 0x20 ADD DUP9 DUP2 MSTORE PUSH1 0x20 ADD PUSH1 0x0 DUP2 MSTORE PUSH1 0x20 ADD DUP8 DUP2 MSTORE PUSH1 0x20 ADD TIMESTAMP DUP2 MSTORE POP SWAP1 DUP1 PUSH1 0x1 DUP2 SLOAD ADD DUP1 DUP3 SSTORE DUP1 SWAP2 POP POP PUSH1 0x1 SWAP1 SUB SWAP1 PUSH1 0x0 MSTORE PUSH1 0x20 PUSH1 0x0 KECCAK256 SWAP1 PUSH1 0x7 MUL ADD PUSH1 0x0 SWAP1 SWAP2 SWAP1 SWAP2 SWAP1 SWAP2 POP PUSH1 0x0 DUP3 ADD MLOAD DUP2 PUSH1 0x0 ADD SSTORE PUSH1 0x20 DUP3 ADD MLOAD DUP2 PUSH1 0x1 ADD PUSH1 0x0 PUSH2 0x100 EXP DUP2 SLOAD DUP2 PUSH20 0xFFFFFFFFFFFFFFFFFFFFFFFFFFFFFFFFFFFFFFFF MUL NOT AND SWAP1 DUP4 PUSH20 0xFFFFFFFFFFFFFFFFFFFFFFFFFFFFFFFFFFFFFFFF AND MUL OR SWAP1 SSTORE POP PUSH1 0x40 DUP3 ADD MLOAD DUP2 PUSH1 0x1 ADD PUSH1 0x14 PUSH2 0x100 EXP DUP2 SLOAD DUP2 PUSH1 0xFF MUL NOT AND SWAP1 DUP4 PUSH1 0x1 DUP2 GT ISZERO PUSH2 0x291F JUMPI PUSH32 0x4E487B7100000000000000000000000000000000000000000000000000000000 PUSH1 0x0 MSTORE PUSH1 0x21 PUSH1 0x4 MSTORE PUSH1 0x24 PUSH1 0x0 REVERT JUMPDEST MUL OR SWAP1 SSTORE POP PUSH1 0x60 DUP3 ADD MLOAD DUP2 PUSH1 0x2 ADD SSTORE PUSH1 0x80 DUP3 ADD MLOAD DUP2 PUSH1 0x3 ADD SSTORE PUSH1 0xA0 DUP3 ADD MLOAD DUP2 PUSH1 0x4 ADD SSTORE PUSH1 0xC0 DUP3 ADD MLOAD DUP2 PUSH1 0x5 ADD SSTORE PUSH1 0xE0 DUP3 ADD MLOAD DUP2 PUSH1 0x6 ADD SSTORE POP POP PUSH1 0x0 DUP1 DUP3 DUP1 SLOAD SWAP1 POP GT PUSH2 0x296C JUMPI PUSH1 0x0 PUSH2 0x297E JUMP JUMPDEST PUSH1 0x1 DUP3 DUP1 SLOAD SWAP1 POP PUSH2 0x297D SWAP2 SWAP1 PUSH2 0x3B66 JUMP JUMPDEST JUMPDEST SWAP1 POP JUMPDEST PUSH1 0x0 DUP2 GT ISZERO PUSH2 0x303A JUMPI PUSH1 0x0 PUSH1 0x1 DUP2 GT ISZERO PUSH2 0x29C4 JUMPI PUSH32 0x4E487B7100000000000000000000000000000000000000000000000000000000 PUSH1 0x0 MSTORE PUSH1 0x21 PUSH1 0x4 MSTORE PUSH1 0x24 PUSH1 0x0 REVERT JUMPDEST DUP6 PUSH1 0x1 DUP2 GT ISZERO PUSH2 0x29FD JUMPI PUSH32 0x4E487B7100000000000000000000000000000000000000000000000000000000 PUSH1 0x0 MSTORE PUSH1 0x21 PUSH1 0x4 MSTORE PUSH1 0x24 PUSH1 0x0 REVERT JUMPDEST EQ DUP1 ISZERO PUSH2 0x2AA9 JUMPI POP DUP2 DUP2 DUP2 SLOAD DUP2 LT PUSH2 0x2A3E JUMPI PUSH32 0x4E487B7100000000000000000000000000000000000000000000000000000000 PUSH1 0x0 MSTORE PUSH1 0x32 PUSH1 0x4 MSTORE PUSH1 0x24 PUSH1 0x0 REVERT JUMPDEST SWAP1 PUSH1 0x0 MSTORE PUSH1 0x20 PUSH1 0x0 KECCAK256 SWAP1 PUSH1 0x7 MUL ADD PUSH1 0x5 ADD SLOAD DUP3 PUSH1 0x1 DUP4 PUSH2 0x2A5E SWAP2 SWAP1 PUSH2 0x3B66 JUMP JUMPDEST DUP2 SLOAD DUP2 LT PUSH2 0x2A95 JUMPI PUSH32 0x4E487B7100000000000000000000000000000000000000000000000000000000 PUSH1 0x0 MSTORE PUSH1 0x32 PUSH1 0x4 MSTORE PUSH1 0x24 PUSH1 0x0 REVERT JUMPDEST SWAP1 PUSH1 0x0 MSTORE PUSH1 0x20 PUSH1 0x0 KECCAK256 SWAP1 PUSH1 0x7 MUL ADD PUSH1 0x5 ADD SLOAD GT JUMPDEST ISZERO PUSH2 0x2AB3 JUMPI PUSH2 0x303A JUMP JUMPDEST PUSH1 0x1 DUP1 DUP2 GT ISZERO PUSH2 0x2AEC JUMPI PUSH32 0x4E487B7100000000000000000000000000000000000000000000000000000000 PUSH1 0x0 MSTORE PUSH1 0x21 PUSH1 0x4 MSTORE PUSH1 0x24 PUSH1 0x0 REVERT JUMPDEST DUP6 PUSH1 0x1 DUP2 GT ISZERO PUSH2 0x2B25 JUMPI PUSH32 0x4E487B7100000000000000000000000000000000000000000000000000000000 PUSH1 0x0 MSTORE PUSH1 0x21 PUSH1 0x4 MSTORE PUSH1 0x24 PUSH1 0x0 REVERT JUMPDEST EQ DUP1 ISZERO PUSH2 0x2BD1 JUMPI POP DUP2 DUP2 DUP2 SLOAD DUP2 LT PUSH2 0x2B66 JUMPI PUSH32 0x4E487B7100000000000000000000000000000000000000000000000000000000 PUSH1 0x0 MSTORE PUSH1 0x32 PUSH1 0x4 MSTORE PUSH1 0x24 PUSH1 0x0 REVERT JUMPDEST SWAP1 PUSH1 0x0 MSTORE PUSH1 0x20 PUSH1 0x0 KECCAK256 SWAP1 PUSH1 0x7 MUL ADD PUSH1 0x5 ADD SLOAD DUP3 PUSH1 0x1 DUP4 PUSH2 0x2B86 SWAP2 SWAP1 PUSH2 0x3B66 JUMP JUMPDEST DUP2 SLOAD DUP2 LT PUSH2 0x2BBD JUMPI PUSH32 0x4E487B7100000000000000000000000000000000000000000000000000000000 PUSH1 0x0 MSTORE PUSH1 0x32 PUSH1 0x4 MSTORE PUSH1 0x24 PUSH1 0x0 REVERT JUMPDEST SWAP1 PUSH1 0x0 MSTORE PUSH1 0x20 PUSH1 0x0 KECCAK256 SWAP1 PUSH1 0x7 MUL ADD PUSH1 0x5 ADD SLOAD LT JUMPDEST ISZERO PUSH2 0x2BDB JUMPI PUSH2 0x303A JUMP JUMPDEST PUSH1 0x0 DUP3 PUSH1 0x1 DUP4 PUSH2 0x2BEB SWAP2 SWAP1 PUSH2 0x3B66 JUMP JUMPDEST DUP2 SLOAD DUP2 LT PUSH2 0x2C22 JUMPI PUSH32 0x4E487B7100000000000000000000000000000000000000000000000000000000 PUSH1 0x0 MSTORE PUSH1 0x32 PUSH1 0x4 MSTORE PUSH1 0x24 PUSH1 0x0 REVERT JUMPDEST SWAP1 PUSH1 0x0 MSTORE PUSH1 0x20 PUSH1 0x0 KECCAK256 SWAP1 PUSH1 0x7 MUL ADD PUSH1 0x40 MLOAD DUP1 PUSH2 0x100 ADD PUSH1 0x40 MSTORE SWAP1 DUP2 PUSH1 0x0 DUP3 ADD SLOAD DUP2 MSTORE PUSH1 0x20 ADD PUSH1 0x1 DUP3 ADD PUSH1 0x0 SWAP1 SLOAD SWAP1 PUSH2 0x100 EXP SWAP1 DIV PUSH20 0xFFFFFFFFFFFFFFFFFFFFFFFFFFFFFFFFFFFFFFFF AND PUSH20 0xFFFFFFFFFFFFFFFFFFFFFFFFFFFFFFFFFFFFFFFF AND PUSH20 0xFFFFFFFFFFFFFFFFFFFFFFFFFFFFFFFFFFFFFFFF AND DUP2 MSTORE PUSH1 0x20 ADD PUSH1 0x1 DUP3 ADD PUSH1 0x14 SWAP1 SLOAD SWAP1 PUSH2 0x100 EXP SWAP1 DIV PUSH1 0xFF AND PUSH1 0x1 DUP2 GT ISZERO PUSH2 0x2CE7 JUMPI PUSH32 0x4E487B7100000000000000000000000000000000000000000000000000000000 PUSH1 0x0 MSTORE PUSH1 0x21 PUSH1 0x4 MSTORE PUSH1 0x24 PUSH1 0x0 REVERT JUMPDEST PUSH1 0x1 DUP2 GT ISZERO PUSH2 0x2D1F JUMPI PUSH32 0x4E487B7100000000000000000000000000000000000000000000000000000000 PUSH1 0x0 MSTORE PUSH1 0x21 PUSH1 0x4 MSTORE PUSH1 0x24 PUSH1 0x0 REVERT JUMPDEST DUP2 MSTORE PUSH1 0x20 ADD PUSH1 0x2 DUP3 ADD SLOAD DUP2 MSTORE PUSH1 0x20 ADD PUSH1 0x3 DUP3 ADD SLOAD DUP2 MSTORE PUSH1 0x20 ADD PUSH1 0x4 DUP3 ADD SLOAD DUP2 MSTORE PUSH1 0x20 ADD PUSH1 0x5 DUP3 ADD SLOAD DUP2 MSTORE PUSH1 0x20 ADD PUSH1 0x6 DUP3 ADD SLOAD DUP2 MSTORE POP POP SWAP1 POP DUP3 DUP3 DUP2 SLOAD DUP2 LT PUSH2 0x2D90 JUMPI PUSH32 0x4E487B7100000000000000000000000000000000000000000000000000000000 PUSH1 0x0 MSTORE PUSH1 0x32 PUSH1 0x4 MSTORE PUSH1 0x24 PUSH1 0x0 REVERT JUMPDEST SWAP1 PUSH1 0x0 MSTORE PUSH1 0x20 PUSH1 0x0 KECCAK256 SWAP1 PUSH1 0x7 MUL ADD DUP4 PUSH1 0x1 DUP5 PUSH2 0x2DAC SWAP2 SWAP1 PUSH2 0x3B66 JUMP JUMPDEST DUP2 SLOAD DUP2 LT PUSH2 0x2DE3 JUMPI PUSH32 0x4E487B7100000000000000000000000000000000000000000000000000000000 PUSH1 0x0 MSTORE PUSH1 0x32 PUSH1 0x4 MSTORE PUSH1 0x24 PUSH1 0x0 REVERT JUMPDEST SWAP1 PUSH1 0x0 MSTORE PUSH1 0x20 PUSH1 0x0 KECCAK256 SWAP1 PUSH1 0x7 MUL ADD PUSH1 0x0 DUP3 ADD SLOAD DUP2 PUSH1 0x0 ADD SSTORE PUSH1 0x1 DUP3 ADD PUSH1 0x0 SWAP1 SLOAD SWAP1 PUSH2 0x100 EXP SWAP1 DIV PUSH20 0xFFFFFFFFFFFFFFFFFFFFFFFFFFFFFFFFFFFFFFFF AND DUP2 PUSH1 0x1 ADD PUSH1 0x0 PUSH2 0x100 EXP DUP2 SLOAD DUP2 PUSH20 0xFFFFFFFFFFFFFFFFFFFFFFFFFFFFFFFFFFFFFFFF MUL NOT AND SWAP1 DUP4 PUSH20 0xFFFFFFFFFFFFFFFFFFFFFFFFFFFFFFFFFFFFFFFF AND MUL OR SWAP1 SSTORE POP PUSH1 0x1 DUP3 ADD PUSH1 0x14 SWAP1 SLOAD SWAP1 PUSH2 0x100 EXP SWAP1 DIV PUSH1 0xFF AND DUP2 PUSH1 0x1 ADD PUSH1 0x14 PUSH2 0x100 EXP DUP2 SLOAD DUP2 PUSH1 0xFF MUL NOT AND SWAP1 DUP4 PUSH1 0x1 DUP2 GT ISZERO PUSH2 0x2EC0 JUMPI PUSH32 0x4E487B7100000000000000000000000000000000000000000000000000000000 PUSH1 0x0 MSTORE PUSH1 0x21 PUSH1 0x4 MSTORE PUSH1 0x24 PUSH1 0x0 REVERT JUMPDEST MUL OR SWAP1 SSTORE POP PUSH1 0x2 DUP3 ADD SLOAD DUP2 PUSH1 0x2 ADD SSTORE PUSH1 0x3 DUP3 ADD SLOAD DUP2 PUSH1 0x3 ADD SSTORE PUSH1 0x4 DUP3 ADD SLOAD DUP2 PUSH1 0x4 ADD SSTORE PUSH1 0x5 DUP3 ADD SLOAD DUP2 PUSH1 0x5 ADD SSTORE PUSH1 0x6 DUP3 ADD SLOAD DUP2 PUSH1 0x6 ADD SSTORE SWAP1 POP POP DUP1 DUP4 DUP4 DUP2 SLOAD DUP2 LT PUSH2 0x2F34 JUMPI PUSH32 0x4E487B7100000000000000000000000000000000000000000000000000000000 PUSH1 0x0 MSTORE PUSH1 0x32 PUSH1 0x4 MSTORE PUSH1 0x24 PUSH1 0x0 REVERT JUMPDEST SWAP1 PUSH1 0x0 MSTORE PUSH1 0x20 PUSH1 0x0 KECCAK256 SWAP1 PUSH1 0x7 MUL ADD PUSH1 0x0 DUP3 ADD MLOAD DUP2 PUSH1 0x0 ADD SSTORE PUSH1 0x20 DUP3 ADD MLOAD DUP2 PUSH1 0x1 ADD PUSH1 0x0 PUSH2 0x100 EXP DUP2 SLOAD DUP2 PUSH20 0xFFFFFFFFFFFFFFFFFFFFFFFFFFFFFFFFFFFFFFFF MUL NOT AND SWAP1 DUP4 PUSH20 0xFFFFFFFFFFFFFFFFFFFFFFFFFFFFFFFFFFFFFFFF AND MUL OR SWAP1 SSTORE POP PUSH1 0x40 DUP3 ADD MLOAD DUP2 PUSH1 0x1 ADD PUSH1 0x14 PUSH2 0x100 EXP DUP2 SLOAD DUP2 PUSH1 0xFF MUL NOT AND SWAP1 DUP4 PUSH1 0x1 DUP2 GT ISZERO PUSH2 0x2FE4 JUMPI PUSH32 0x4E487B7100000000000000000000000000000000000000000000000000000000 PUSH1 0x0 MSTORE PUSH1 0x21 PUSH1 0x4 MSTORE PUSH1 0x24 PUSH1 0x0 REVERT JUMPDEST MUL OR SWAP1 SSTORE POP PUSH1 0x60 DUP3 ADD MLOAD DUP2 PUSH1 0x2 ADD SSTORE PUSH1 0x80 DUP3 ADD MLOAD DUP2 PUSH1 0x3 ADD SSTORE PUSH1 0xA0 DUP3 ADD MLOAD DUP2 PUSH1 0x4 ADD SSTORE PUSH1 0xC0 DUP3 ADD MLOAD DUP2 PUSH1 0x5 ADD SSTORE PUSH1 0xE0 DUP3 ADD MLOAD DUP2 PUSH1 0x6 ADD SSTORE SWAP1 POP POP PUSH2 0x3032 PUSH1 0x1 DUP4 PUSH2 0x3084 SWAP1 SWAP2 SWAP1 PUSH4 0xFFFFFFFF AND JUMP JUMPDEST SWAP2 POP POP PUSH2 0x2981 JUMP JUMPDEST PUSH2 0x3050 PUSH1 0x1 PUSH1 0x5 SLOAD PUSH2 0x309A SWAP1 SWAP2 SWAP1 PUSH4 0xFFFFFFFF AND JUMP JUMPDEST PUSH1 0x5 DUP2 SWAP1 SSTORE POP POP POP POP POP POP POP POP POP JUMP JUMPDEST PUSH1 0x0 DUP1 SLOAD SWAP1 PUSH2 0x100 EXP SWAP1 DIV PUSH20 0xFFFFFFFFFFFFFFFFFFFFFFFFFFFFFFFFFFFFFFFF AND DUP2 JUMP JUMPDEST PUSH1 0x0 DUP2 DUP4 PUSH2 0x3092 SWAP2 SWAP1 PUSH2 0x3B66 JUMP JUMPDEST SWAP1 POP SWAP3 SWAP2 POP POP JUMP JUMPDEST PUSH1 0x0 DUP2 DUP4 PUSH2 0x30A8 SWAP2 SWAP1 PUSH2 0x3AB6 JUMP JUMPDEST SWAP1 POP SWAP3 SWAP2 POP POP JUMP JUMPDEST PUSH1 0x0 DUP2 DUP4 PUSH2 0x30BE SWAP2 SWAP1 PUSH2 0x3B0C JUMP JUMPDEST SWAP1 POP SWAP3 SWAP2 POP POP JUMP JUMPDEST PUSH1 0x40 MLOAD DUP1 PUSH1 0x40 ADD PUSH1 0x40 MSTORE DUP1 PUSH1 0x0 DUP1 NOT AND DUP2 MSTORE PUSH1 0x20 ADD PUSH1 0x0 PUSH20 0xFFFFFFFFFFFFFFFFFFFFFFFFFFFFFFFFFFFFFFFF AND DUP2 MSTORE POP SWAP1 JUMP JUMPDEST PUSH1 0x0 DUP2 CALLDATALOAD SWAP1 POP PUSH2 0x3108 DUP2 PUSH2 0x3CCC JUMP JUMPDEST SWAP3 SWAP2 POP POP JUMP JUMPDEST PUSH1 0x0 DUP2 MLOAD SWAP1 POP PUSH2 0x311D DUP2 PUSH2 0x3CE3 JUMP JUMPDEST SWAP3 SWAP2 POP POP JUMP JUMPDEST PUSH1 0x0 DUP2 CALLDATALOAD SWAP1 POP PUSH2 0x3132 DUP2 PUSH2 0x3CFA JUMP JUMPDEST SWAP3 SWAP2 POP POP JUMP JUMPDEST PUSH1 0x0 DUP2 CALLDATALOAD SWAP1 POP PUSH2 0x3147 DUP2 PUSH2 0x3D11 JUMP JUMPDEST SWAP3 SWAP2 POP POP JUMP JUMPDEST PUSH1 0x0 DUP2 CALLDATALOAD SWAP1 POP PUSH2 0x315C DUP2 PUSH2 0x3D21 JUMP JUMPDEST SWAP3 SWAP2 POP POP JUMP JUMPDEST PUSH1 0x0 DUP1 PUSH1 0x40 DUP4 DUP6 SUB SLT ISZERO PUSH2 0x3175 JUMPI PUSH1 0x0 DUP1 REVERT JUMPDEST PUSH1 0x0 PUSH2 0x3183 DUP6 DUP3 DUP7 ADD PUSH2 0x30F9 JUMP JUMPDEST SWAP3 POP POP PUSH1 0x20 PUSH2 0x3194 DUP6 DUP3 DUP7 ADD PUSH2 0x3123 JUMP JUMPDEST SWAP2 POP POP SWAP3 POP SWAP3 SWAP1 POP JUMP JUMPDEST PUSH1 0x0 PUSH1 0x20 DUP3 DUP5 SUB SLT ISZERO PUSH2 0x31B0 JUMPI PUSH1 0x0 DUP1 REVERT JUMPDEST PUSH1 0x0 PUSH2 0x31BE DUP5 DUP3 DUP6 ADD PUSH2 0x310E JUMP JUMPDEST SWAP2 POP POP SWAP3 SWAP2 POP POP JUMP JUMPDEST PUSH1 0x0 PUSH1 0x20 DUP3 DUP5 SUB SLT ISZERO PUSH2 0x31D9 JUMPI PUSH1 0x0 DUP1 REVERT JUMPDEST PUSH1 0x0 PUSH2 0x31E7 DUP5 DUP3 DUP6 ADD PUSH2 0x3123 JUMP JUMPDEST SWAP2 POP POP SWAP3 SWAP2 POP POP JUMP JUMPDEST PUSH1 0x0 DUP1 PUSH1 0x40 DUP4 DUP6 SUB SLT ISZERO PUSH2 0x3203 JUMPI PUSH1 0x0 DUP1 REVERT JUMPDEST PUSH1 0x0 PUSH2 0x3211 DUP6 DUP3 DUP7 ADD PUSH2 0x3123 JUMP JUMPDEST SWAP3 POP POP PUSH1 0x20 PUSH2 0x3222 DUP6 DUP3 DUP7 ADD PUSH2 0x30F9 JUMP JUMPDEST SWAP2 POP POP SWAP3 POP SWAP3 SWAP1 POP JUMP JUMPDEST PUSH1 0x0 DUP1 PUSH1 0x40 DUP4 DUP6 SUB SLT ISZERO PUSH2 0x323F JUMPI PUSH1 0x0 DUP1 REVERT JUMPDEST PUSH1 0x0 PUSH2 0x324D DUP6 DUP3 DUP7 ADD PUSH2 0x3123 JUMP JUMPDEST SWAP3 POP POP PUSH1 0x20 PUSH2 0x325E DUP6 DUP3 DUP7 ADD PUSH2 0x3138 JUMP JUMPDEST SWAP2 POP POP SWAP3 POP SWAP3 SWAP1 POP JUMP JUMPDEST PUSH1 0x0 DUP1 PUSH1 0x0 PUSH1 0x60 DUP5 DUP7 SUB SLT ISZERO PUSH2 0x327D JUMPI PUSH1 0x0 DUP1 REVERT JUMPDEST PUSH1 0x0 PUSH2 0x328B DUP7 DUP3 DUP8 ADD PUSH2 0x3123 JUMP JUMPDEST SWAP4 POP POP PUSH1 0x20 PUSH2 0x329C DUP7 DUP3 DUP8 ADD PUSH2 0x314D JUMP JUMPDEST SWAP3 POP POP PUSH1 0x40 PUSH2 0x32AD DUP7 DUP3 DUP8 ADD PUSH2 0x3138 JUMP JUMPDEST SWAP2 POP POP SWAP3 POP SWAP3 POP SWAP3 JUMP JUMPDEST PUSH1 0x0 DUP1 PUSH1 0x0 PUSH1 0x60 DUP5 DUP7 SUB SLT ISZERO PUSH2 0x32CC JUMPI PUSH1 0x0 DUP1 REVERT JUMPDEST PUSH1 0x0 PUSH2 0x32DA DUP7 DUP3 DUP8 ADD PUSH2 0x3123 JUMP JUMPDEST SWAP4 POP POP PUSH1 0x20 PUSH2 0x32EB DUP7 DUP3 DUP8 ADD PUSH2 0x314D JUMP JUMPDEST SWAP3 POP POP PUSH1 0x40 PUSH2 0x32FC DUP7 DUP3 DUP8 ADD PUSH2 0x314D JUMP JUMPDEST SWAP2 POP POP SWAP3 POP SWAP3 POP SWAP3 JUMP JUMPDEST PUSH1 0x0 DUP1 PUSH1 0x0 DUP1 PUSH1 0x80 DUP6 DUP8 SUB SLT ISZERO PUSH2 0x331C JUMPI PUSH1 0x0 DUP1 REVERT JUMPDEST PUSH1 0x0 PUSH2 0x332A DUP8 DUP3 DUP9 ADD PUSH2 0x3123 JUMP JUMPDEST SWAP5 POP POP PUSH1 0x20 PUSH2 0x333B DUP8 DUP3 DUP9 ADD PUSH2 0x314D JUMP JUMPDEST SWAP4 POP POP PUSH1 0x40 PUSH2 0x334C DUP8 DUP3 DUP9 ADD PUSH2 0x314D JUMP JUMPDEST SWAP3 POP POP PUSH1 0x60 PUSH2 0x335D DUP8 DUP3 DUP9 ADD PUSH2 0x3138 JUMP JUMPDEST SWAP2 POP POP SWAP3 SWAP6 SWAP2 SWAP5 POP SWAP3 POP JUMP JUMPDEST PUSH1 0x0 PUSH1 0x20 DUP3 DUP5 SUB SLT ISZERO PUSH2 0x337B JUMPI PUSH1 0x0 DUP1 REVERT JUMPDEST PUSH1 0x0 PUSH2 0x3389 DUP5 DUP3 DUP6 ADD PUSH2 0x314D JUMP JUMPDEST SWAP2 POP POP SWAP3 SWAP2 POP POP JUMP JUMPDEST PUSH1 0x0 DUP1 PUSH1 0x40 DUP4 DUP6 SUB SLT ISZERO PUSH2 0x33A5 JUMPI PUSH1 0x0 DUP1 REVERT JUMPDEST PUSH1 0x0 PUSH2 0x33B3 DUP6 DUP3 DUP7 ADD PUSH2 0x314D JUMP JUMPDEST SWAP3 POP POP PUSH1 0x20 PUSH2 0x33C4 DUP6 DUP3 DUP7 ADD PUSH2 0x3123 JUMP JUMPDEST SWAP2 POP POP SWAP3 POP SWAP3 SWAP1 POP JUMP JUMPDEST PUSH1 0x0 PUSH2 0x33DA DUP4 DUP4 PUSH2 0x3695 JUMP JUMPDEST PUSH2 0x100 DUP4 ADD SWAP1 POP SWAP3 SWAP2 POP POP JUMP JUMPDEST PUSH1 0x0 PUSH2 0x33F3 DUP4 DUP4 PUSH2 0x3737 JUMP JUMPDEST PUSH1 0x40 DUP4 ADD SWAP1 POP SWAP3 SWAP2 POP POP JUMP JUMPDEST PUSH2 0x3408 DUP2 PUSH2 0x3B9A JUMP JUMPDEST DUP3 MSTORE POP POP JUMP JUMPDEST PUSH2 0x3417 DUP2 PUSH2 0x3B9A JUMP JUMPDEST DUP3 MSTORE POP POP JUMP JUMPDEST PUSH1 0x0 PUSH2 0x3428 DUP3 PUSH2 0x3A53 JUMP JUMPDEST PUSH2 0x3432 DUP2 DUP6 PUSH2 0x3A83 JUMP JUMPDEST SWAP4 POP PUSH2 0x343D DUP4 PUSH2 0x3A33 JUMP JUMPDEST DUP1 PUSH1 0x0 JUMPDEST DUP4 DUP2 LT ISZERO PUSH2 0x346E JUMPI DUP2 MLOAD PUSH2 0x3455 DUP9 DUP3 PUSH2 0x33CE JUMP JUMPDEST SWAP8 POP PUSH2 0x3460 DUP4 PUSH2 0x3A69 JUMP JUMPDEST SWAP3 POP POP PUSH1 0x1 DUP2 ADD SWAP1 POP PUSH2 0x3441 JUMP JUMPDEST POP DUP6 SWAP4 POP POP POP POP SWAP3 SWAP2 POP POP JUMP JUMPDEST PUSH1 0x0 PUSH2 0x3486 DUP3 PUSH2 0x3A5E JUMP JUMPDEST PUSH2 0x3490 DUP2 DUP6 PUSH2 0x3A94 JUMP JUMPDEST SWAP4 POP PUSH2 0x349B DUP4 PUSH2 0x3A43 JUMP JUMPDEST DUP1 PUSH1 0x0 JUMPDEST DUP4 DUP2 LT ISZERO PUSH2 0x34CC JUMPI DUP2 MLOAD PUSH2 0x34B3 DUP9 DUP3 PUSH2 0x33E7 JUMP JUMPDEST SWAP8 POP PUSH2 0x34BE DUP4 PUSH2 0x3A76 JUMP JUMPDEST SWAP3 POP POP PUSH1 0x1 DUP2 ADD SWAP1 POP PUSH2 0x349F JUMP JUMPDEST POP DUP6 SWAP4 POP POP POP POP SWAP3 SWAP2 POP POP JUMP JUMPDEST PUSH2 0x34E2 DUP2 PUSH2 0x3BB8 JUMP JUMPDEST DUP3 MSTORE POP POP JUMP JUMPDEST PUSH2 0x34F1 DUP2 PUSH2 0x3BB8 JUMP JUMPDEST DUP3 MSTORE POP POP JUMP JUMPDEST PUSH2 0x3500 DUP2 PUSH2 0x3BFF JUMP JUMPDEST DUP3 MSTORE POP POP JUMP JUMPDEST PUSH2 0x350F DUP2 PUSH2 0x3BFF JUMP JUMPDEST DUP3 MSTORE POP POP JUMP JUMPDEST PUSH1 0x0 PUSH2 0x3522 PUSH1 0xF DUP4 PUSH2 0x3AA5 JUMP JUMPDEST SWAP2 POP PUSH32 0x42616C616E636520746F6F206C6F770000000000000000000000000000000000 PUSH1 0x0 DUP4 ADD MSTORE PUSH1 0x20 DUP3 ADD SWAP1 POP SWAP2 SWAP1 POP JUMP JUMPDEST PUSH1 0x0 PUSH2 0x3562 PUSH1 0xA DUP4 PUSH2 0x3AA5 JUMP JUMPDEST SWAP2 POP PUSH32 0x4F6E6C792061646D696E00000000000000000000000000000000000000000000 PUSH1 0x0 DUP4 ADD MSTORE PUSH1 0x20 DUP3 ADD SWAP1 POP SWAP2 SWAP1 POP JUMP JUMPDEST PUSH1 0x0 PUSH2 0x35A2 PUSH1 0x13 DUP4 PUSH2 0x3AA5 JUMP JUMPDEST SWAP2 POP PUSH32 0x4441492062616C616E636520746F6F206C6F7700000000000000000000000000 PUSH1 0x0 DUP4 ADD MSTORE PUSH1 0x20 DUP3 ADD SWAP1 POP SWAP2 SWAP1 POP JUMP JUMPDEST PUSH1 0x0 PUSH2 0x35E2 PUSH1 0x19 DUP4 PUSH2 0x3AA5 JUMP JUMPDEST SWAP2 POP PUSH32 0x5468697320746F6B656E20646F6573206E6F7420657869737400000000000000 PUSH1 0x0 DUP4 ADD MSTORE PUSH1 0x20 DUP3 ADD SWAP1 POP SWAP2 SWAP1 POP JUMP JUMPDEST PUSH1 0x0 PUSH2 0x3622 PUSH1 0x15 DUP4 PUSH2 0x3AA5 JUMP JUMPDEST SWAP2 POP PUSH32 0x546F6B656E2062616C616E636520746F6F206C6F770000000000000000000000 PUSH1 0x0 DUP4 ADD MSTORE PUSH1 0x20 DUP3 ADD SWAP1 POP SWAP2 SWAP1 POP JUMP JUMPDEST PUSH1 0x0 PUSH2 0x3662 PUSH1 0x10 DUP4 PUSH2 0x3AA5 JUMP JUMPDEST SWAP2 POP PUSH32 0x43616E6E6F742074726164652044414900000000000000000000000000000000 PUSH1 0x0 DUP4 ADD MSTORE PUSH1 0x20 DUP3 ADD SWAP1 POP SWAP2 SWAP1 POP JUMP JUMPDEST PUSH2 0x100 DUP3 ADD PUSH1 0x0 DUP3 ADD MLOAD PUSH2 0x36AC PUSH1 0x0 DUP6 ADD DUP3 PUSH2 0x3766 JUMP JUMPDEST POP PUSH1 0x20 DUP3 ADD MLOAD PUSH2 0x36BF PUSH1 0x20 DUP6 ADD DUP3 PUSH2 0x33FF JUMP JUMPDEST POP PUSH1 0x40 DUP3 ADD MLOAD PUSH2 0x36D2 PUSH1 0x40 DUP6 ADD DUP3 PUSH2 0x34F7 JUMP JUMPDEST POP PUSH1 0x60 DUP3 ADD MLOAD PUSH2 0x36E5 PUSH1 0x60 DUP6 ADD DUP3 PUSH2 0x34D9 JUMP JUMPDEST POP PUSH1 0x80 DUP3 ADD MLOAD PUSH2 0x36F8 PUSH1 0x80 DUP6 ADD DUP3 PUSH2 0x3766 JUMP JUMPDEST POP PUSH1 0xA0 DUP3 ADD MLOAD PUSH2 0x370B PUSH1 0xA0 DUP6 ADD DUP3 PUSH2 0x3766 JUMP JUMPDEST POP PUSH1 0xC0 DUP3 ADD MLOAD PUSH2 0x371E PUSH1 0xC0 DUP6 ADD DUP3 PUSH2 0x3766 JUMP JUMPDEST POP PUSH1 0xE0 DUP3 ADD MLOAD PUSH2 0x3731 PUSH1 0xE0 DUP6 ADD DUP3 PUSH2 0x3766 JUMP JUMPDEST POP POP POP POP JUMP JUMPDEST PUSH1 0x40 DUP3 ADD PUSH1 0x0 DUP3 ADD MLOAD PUSH2 0x374D PUSH1 0x0 DUP6 ADD DUP3 PUSH2 0x34D9 JUMP JUMPDEST POP PUSH1 0x20 DUP3 ADD MLOAD PUSH2 0x3760 PUSH1 0x20 DUP6 ADD DUP3 PUSH2 0x33FF JUMP JUMPDEST POP POP POP POP JUMP JUMPDEST PUSH2 0x376F DUP2 PUSH2 0x3BF5 JUMP JUMPDEST DUP3 MSTORE POP POP JUMP JUMPDEST PUSH2 0x377E DUP2 PUSH2 0x3BF5 JUMP JUMPDEST DUP3 MSTORE POP POP JUMP JUMPDEST PUSH1 0x0 PUSH1 0x20 DUP3 ADD SWAP1 POP PUSH2 0x3799 PUSH1 0x0 DUP4 ADD DUP5 PUSH2 0x340E JUMP JUMPDEST SWAP3 SWAP2 POP POP JUMP JUMPDEST PUSH1 0x0 PUSH1 0x60 DUP3 ADD SWAP1 POP PUSH2 0x37B4 PUSH1 0x0 DUP4 ADD DUP7 PUSH2 0x340E JUMP JUMPDEST PUSH2 0x37C1 PUSH1 0x20 DUP4 ADD DUP6 PUSH2 0x340E JUMP JUMPDEST PUSH2 0x37CE PUSH1 0x40 DUP4 ADD DUP5 PUSH2 0x3775 JUMP JUMPDEST SWAP5 SWAP4 POP POP POP POP JUMP JUMPDEST PUSH1 0x0 PUSH1 0x40 DUP3 ADD SWAP1 POP PUSH2 0x37EB PUSH1 0x0 DUP4 ADD DUP6 PUSH2 0x340E JUMP JUMPDEST PUSH2 0x37F8 PUSH1 0x20 DUP4 ADD DUP5 PUSH2 0x3775 JUMP JUMPDEST SWAP4 SWAP3 POP POP POP JUMP JUMPDEST PUSH1 0x0 PUSH1 0x20 DUP3 ADD SWAP1 POP DUP2 DUP2 SUB PUSH1 0x0 DUP4 ADD MSTORE PUSH2 0x3819 DUP2 DUP5 PUSH2 0x341D JUMP JUMPDEST SWAP1 POP SWAP3 SWAP2 POP POP JUMP JUMPDEST PUSH1 0x0 PUSH1 0x20 DUP3 ADD SWAP1 POP DUP2 DUP2 SUB PUSH1 0x0 DUP4 ADD MSTORE PUSH2 0x383B DUP2 DUP5 PUSH2 0x347B JUMP JUMPDEST SWAP1 POP SWAP3 SWAP2 POP POP JUMP JUMPDEST PUSH1 0x0 PUSH1 0x20 DUP3 ADD SWAP1 POP PUSH2 0x3858 PUSH1 0x0 DUP4 ADD DUP5 PUSH2 0x34E8 JUMP JUMPDEST SWAP3 SWAP2 POP POP JUMP JUMPDEST PUSH1 0x0 PUSH1 0x40 DUP3 ADD SWAP1 POP PUSH2 0x3873 PUSH1 0x0 DUP4 ADD DUP6 PUSH2 0x34E8 JUMP JUMPDEST PUSH2 0x3880 PUSH1 0x20 DUP4 ADD DUP5 PUSH2 0x340E JUMP JUMPDEST SWAP4 SWAP3 POP POP POP JUMP JUMPDEST PUSH1 0x0 PUSH1 0x20 DUP3 ADD SWAP1 POP DUP2 DUP2 SUB PUSH1 0x0 DUP4 ADD MSTORE PUSH2 0x38A0 DUP2 PUSH2 0x3515 JUMP JUMPDEST SWAP1 POP SWAP2 SWAP1 POP JUMP JUMPDEST PUSH1 0x0 PUSH1 0x20 DUP3 ADD SWAP1 POP DUP2 DUP2 SUB PUSH1 0x0 DUP4 ADD MSTORE PUSH2 0x38C0 DUP2 PUSH2 0x3555 JUMP JUMPDEST SWAP1 POP SWAP2 SWAP1 POP JUMP JUMPDEST PUSH1 0x0 PUSH1 0x20 DUP3 ADD SWAP1 POP DUP2 DUP2 SUB PUSH1 0x0 DUP4 ADD MSTORE PUSH2 0x38E0 DUP2 PUSH2 0x3595 JUMP JUMPDEST SWAP1 POP SWAP2 SWAP1 POP JUMP JUMPDEST PUSH1 0x0 PUSH1 0x20 DUP3 ADD SWAP1 POP DUP2 DUP2 SUB PUSH1 0x0 DUP4 ADD MSTORE PUSH2 0x3900 DUP2 PUSH2 0x35D5 JUMP JUMPDEST SWAP1 POP SWAP2 SWAP1 POP JUMP JUMPDEST PUSH1 0x0 PUSH1 0x20 DUP3 ADD SWAP1 POP DUP2 DUP2 SUB PUSH1 0x0 DUP4 ADD MSTORE PUSH2 0x3920 DUP2 PUSH2 0x3615 JUMP JUMPDEST SWAP1 POP SWAP2 SWAP1 POP JUMP JUMPDEST PUSH1 0x0 PUSH1 0x20 DUP3 ADD SWAP1 POP DUP2 DUP2 SUB PUSH1 0x0 DUP4 ADD MSTORE PUSH2 0x3940 DUP2 PUSH2 0x3655 JUMP JUMPDEST SWAP1 POP SWAP2 SWAP1 POP JUMP JUMPDEST PUSH1 0x0 PUSH1 0x20 DUP3 ADD SWAP1 POP PUSH2 0x395C PUSH1 0x0 DUP4 ADD DUP5 PUSH2 0x3775 JUMP JUMPDEST SWAP3 SWAP2 POP POP JUMP JUMPDEST PUSH1 0x0 PUSH2 0x100 DUP3 ADD SWAP1 POP PUSH2 0x3978 PUSH1 0x0 DUP4 ADD DUP12 PUSH2 0x3775 JUMP JUMPDEST PUSH2 0x3985 PUSH1 0x20 DUP4 ADD DUP11 PUSH2 0x340E JUMP JUMPDEST PUSH2 0x3992 PUSH1 0x40 DUP4 ADD DUP10 PUSH2 0x3506 JUMP JUMPDEST PUSH2 0x399F PUSH1 0x60 DUP4 ADD DUP9 PUSH2 0x34E8 JUMP JUMPDEST PUSH2 0x39AC PUSH1 0x80 DUP4 ADD DUP8 PUSH2 0x3775 JUMP JUMPDEST PUSH2 0x39B9 PUSH1 0xA0 DUP4 ADD DUP7 PUSH2 0x3775 JUMP JUMPDEST PUSH2 0x39C6 PUSH1 0xC0 DUP4 ADD DUP6 PUSH2 0x3775 JUMP JUMPDEST PUSH2 0x39D3 PUSH1 0xE0 DUP4 ADD DUP5 PUSH2 0x3775 JUMP JUMPDEST SWAP10 SWAP9 POP POP POP POP POP POP POP POP POP JUMP JUMPDEST PUSH1 0x0 PUSH1 0xA0 DUP3 ADD SWAP1 POP PUSH2 0x39F5 PUSH1 0x0 DUP4 ADD DUP9 PUSH2 0x3775 JUMP JUMPDEST PUSH2 0x3A02 PUSH1 0x20 DUP4 ADD DUP8 PUSH2 0x3775 JUMP JUMPDEST PUSH2 0x3A0F PUSH1 0x40 DUP4 ADD DUP7 PUSH2 0x3775 JUMP JUMPDEST PUSH2 0x3A1C PUSH1 0x60 DUP4 ADD DUP6 PUSH2 0x3775 JUMP JUMPDEST PUSH2 0x3A29 PUSH1 0x80 DUP4 ADD DUP5 PUSH2 0x3775 JUMP JUMPDEST SWAP7 SWAP6 POP POP POP POP POP POP JUMP JUMPDEST PUSH1 0x0 DUP2 SWAP1 POP PUSH1 0x20 DUP3 ADD SWAP1 POP SWAP2 SWAP1 POP JUMP JUMPDEST PUSH1 0x0 DUP2 SWAP1 POP PUSH1 0x20 DUP3 ADD SWAP1 POP SWAP2 SWAP1 POP JUMP JUMPDEST PUSH1 0x0 DUP2 MLOAD SWAP1 POP SWAP2 SWAP1 POP JUMP JUMPDEST PUSH1 0x0 DUP2 MLOAD SWAP1 POP SWAP2 SWAP1 POP JUMP JUMPDEST PUSH1 0x0 PUSH1 0x20 DUP3 ADD SWAP1 POP SWAP2 SWAP1 POP JUMP JUMPDEST PUSH1 0x0 PUSH1 0x20 DUP3 ADD SWAP1 POP SWAP2 SWAP1 POP JUMP JUMPDEST PUSH1 0x0 DUP3 DUP3 MSTORE PUSH1 0x20 DUP3 ADD SWAP1 POP SWAP3 SWAP2 POP POP JUMP JUMPDEST PUSH1 0x0 DUP3 DUP3 MSTORE PUSH1 0x20 DUP3 ADD SWAP1 POP SWAP3 SWAP2 POP POP JUMP JUMPDEST PUSH1 0x0 DUP3 DUP3 MSTORE PUSH1 0x20 DUP3 ADD SWAP1 POP SWAP3 SWAP2 POP POP JUMP JUMPDEST PUSH1 0x0 PUSH2 0x3AC1 DUP3 PUSH2 0x3BF5 JUMP JUMPDEST SWAP2 POP PUSH2 0x3ACC DUP4 PUSH2 0x3BF5 JUMP JUMPDEST SWAP3 POP DUP3 PUSH32 0xFFFFFFFFFFFFFFFFFFFFFFFFFFFFFFFFFFFFFFFFFFFFFFFFFFFFFFFFFFFFFFFF SUB DUP3 GT ISZERO PUSH2 0x3B01 JUMPI PUSH2 0x3B00 PUSH2 0x3C5A JUMP JUMPDEST JUMPDEST DUP3 DUP3 ADD SWAP1 POP SWAP3 SWAP2 POP POP JUMP JUMPDEST PUSH1 0x0 PUSH2 0x3B17 DUP3 PUSH2 0x3BF5 JUMP JUMPDEST SWAP2 POP PUSH2 0x3B22 DUP4 PUSH2 0x3BF5 JUMP JUMPDEST SWAP3 POP DUP2 PUSH32 0xFFFFFFFFFFFFFFFFFFFFFFFFFFFFFFFFFFFFFFFFFFFFFFFFFFFFFFFFFFFFFFFF DIV DUP4 GT DUP3 ISZERO ISZERO AND ISZERO PUSH2 0x3B5B JUMPI PUSH2 0x3B5A PUSH2 0x3C5A JUMP JUMPDEST JUMPDEST DUP3 DUP3 MUL SWAP1 POP SWAP3 SWAP2 POP POP JUMP JUMPDEST PUSH1 0x0 PUSH2 0x3B71 DUP3 PUSH2 0x3BF5 JUMP JUMPDEST SWAP2 POP PUSH2 0x3B7C DUP4 PUSH2 0x3BF5 JUMP JUMPDEST SWAP3 POP DUP3 DUP3 LT ISZERO PUSH2 0x3B8F JUMPI PUSH2 0x3B8E PUSH2 0x3C5A JUMP JUMPDEST JUMPDEST DUP3 DUP3 SUB SWAP1 POP SWAP3 SWAP2 POP POP JUMP JUMPDEST PUSH1 0x0 PUSH2 0x3BA5 DUP3 PUSH2 0x3BD5 JUMP JUMPDEST SWAP1 POP SWAP2 SWAP1 POP JUMP JUMPDEST PUSH1 0x0 DUP2 ISZERO ISZERO SWAP1 POP SWAP2 SWAP1 POP JUMP JUMPDEST PUSH1 0x0 DUP2 SWAP1 POP SWAP2 SWAP1 POP JUMP JUMPDEST PUSH1 0x0 DUP2 SWAP1 POP PUSH2 0x3BD0 DUP3 PUSH2 0x3CB8 JUMP JUMPDEST SWAP2 SWAP1 POP JUMP JUMPDEST PUSH1 0x0 PUSH20 0xFFFFFFFFFFFFFFFFFFFFFFFFFFFFFFFFFFFFFFFF DUP3 AND SWAP1 POP SWAP2 SWAP1 POP JUMP JUMPDEST PUSH1 0x0 DUP2 SWAP1 POP SWAP2 SWAP1 POP JUMP JUMPDEST PUSH1 0x0 PUSH2 0x3C0A DUP3 PUSH2 0x3BC2 JUMP JUMPDEST SWAP1 POP SWAP2 SWAP1 POP JUMP JUMPDEST PUSH1 0x0 PUSH2 0x3C1C DUP3 PUSH2 0x3BF5 JUMP JUMPDEST SWAP2 POP PUSH32 0xFFFFFFFFFFFFFFFFFFFFFFFFFFFFFFFFFFFFFFFFFFFFFFFFFFFFFFFFFFFFFFFF DUP3 EQ ISZERO PUSH2 0x3C4F JUMPI PUSH2 0x3C4E PUSH2 0x3C5A JUMP JUMPDEST JUMPDEST PUSH1 0x1 DUP3 ADD SWAP1 POP SWAP2 SWAP1 POP JUMP JUMPDEST PUSH32 0x4E487B7100000000000000000000000000000000000000000000000000000000 PUSH1 0x0 MSTORE PUSH1 0x11 PUSH1 0x4 MSTORE PUSH1 0x24 PUSH1 0x0 REVERT JUMPDEST PUSH32 0x4E487B7100000000000000000000000000000000000000000000000000000000 PUSH1 0x0 MSTORE PUSH1 0x21 PUSH1 0x4 MSTORE PUSH1 0x24 PUSH1 0x0 REVERT JUMPDEST PUSH1 0x2 DUP2 LT PUSH2 0x3CC9 JUMPI PUSH2 0x3CC8 PUSH2 0x3C89 JUMP JUMPDEST JUMPDEST POP JUMP JUMPDEST PUSH2 0x3CD5 DUP2 PUSH2 0x3B9A JUMP JUMPDEST DUP2 EQ PUSH2 0x3CE0 JUMPI PUSH1 0x0 DUP1 REVERT JUMPDEST POP JUMP JUMPDEST PUSH2 0x3CEC DUP2 PUSH2 0x3BAC JUMP JUMPDEST DUP2 EQ PUSH2 0x3CF7 JUMPI PUSH1 0x0 DUP1 REVERT JUMPDEST POP JUMP JUMPDEST PUSH2 0x3D03 DUP2 PUSH2 0x3BB8 JUMP JUMPDEST DUP2 EQ PUSH2 0x3D0E JUMPI PUSH1 0x0 DUP1 REVERT JUMPDEST POP JUMP JUMPDEST PUSH1 0x2 DUP2 LT PUSH2 0x3D1E JUMPI PUSH1 0x0 DUP1 REVERT JUMPDEST POP JUMP JUMPDEST PUSH2 0x3D2A DUP2 PUSH2 0x3BF5 JUMP JUMPDEST DUP2 EQ PUSH2 0x3D35 JUMPI PUSH1 0x0 DUP1 REVERT JUMPDEST POP JUMP INVALID LOG2 PUSH5 0x6970667358 0x22 SLT KECCAK256 0xB0 0xED JUMPDEST 0xD6 INVALID PUSH22 0xCB3FF504C143D2B99C6FAF7D4FAF739B09809CFC7356 0xDA 0xF9 0x29 DELEGATECALL PUSH5 0x736F6C6343 STOP ADDMOD STOP STOP CALLER "
				},
				"gasEstimates": {
					"creation": {
						"codeDepositCost": "3145200",
						"executionCost": "24341",
						"totalCost": "3169541"
					},
					"external": {
						"addToken(bytes32,address)": "83497",
						"admin()": "1299",
						"createLimitOrder(bytes32,uint256,uint256,uint8)": "infinite",
						"createMarketOrder(bytes32,uint256,uint8)": "infinite",
						"deposit(uint256,bytes32)": "infinite",
						"getOrders(bytes32,uint8)": "infinite",
						"getTokens()": "infinite",
						"nextOrderId()": "1152",
						"orderBook(bytes32,uint256,uint256)": "infinite",
						"tokenList(uint256)": "2327",
						"tokens(bytes32)": "infinite",
						"traderBalances(address,bytes32)": "1817",
						"withdraw(uint256,bytes32)": "infinite"
					}
				},
				"methodIdentifiers": {
					"addToken(bytes32,address)": "9776aacf",
					"admin()": "f851a440",
					"createLimitOrder(bytes32,uint256,uint256,uint8)": "d9c0c950",
					"createMarketOrder(bytes32,uint256,uint8)": "7f2c6246",
					"deposit(uint256,bytes32)": "c9630cb0",
					"getOrders(bytes32,uint8)": "46e9658b",
					"getTokens()": "aa6ca808",
					"nextOrderId()": "2a58b330",
					"orderBook(bytes32,uint256,uint256)": "0bb431b6",
					"tokenList(uint256)": "9ead7222",
					"tokens(bytes32)": "904194a3",
					"traderBalances(address,bytes32)": "72ce957e",
					"withdraw(uint256,bytes32)": "a8d2021a"
				}
			},
			"storageLayout": {
				"storage": [
					{
						"astId": 11,
						"contract": "contracts/Dex.sol:Dex",
						"label": "admin",
						"offset": 0,
						"slot": "0",
						"type": "t_address"
					},
					{
						"astId": 27,
						"contract": "contracts/Dex.sol:Dex",
						"label": "tokens",
						"offset": 0,
						"slot": "1",
						"type": "t_mapping(t_bytes32,t_struct(Token)22_storage)"
					},
					{
						"astId": 30,
						"contract": "contracts/Dex.sol:Dex",
						"label": "tokenList",
						"offset": 0,
						"slot": "2",
						"type": "t_array(t_bytes32)dyn_storage"
					},
					{
						"astId": 36,
						"contract": "contracts/Dex.sol:Dex",
						"label": "traderBalances",
						"offset": 0,
						"slot": "3",
						"type": "t_mapping(t_address,t_mapping(t_bytes32,t_uint256))"
					},
					{
						"astId": 65,
						"contract": "contracts/Dex.sol:Dex",
						"label": "orderBook",
						"offset": 0,
						"slot": "4",
						"type": "t_mapping(t_bytes32,t_mapping(t_uint256,t_array(t_struct(Order)57_storage)dyn_storage))"
					},
					{
						"astId": 67,
						"contract": "contracts/Dex.sol:Dex",
						"label": "nextOrderId",
						"offset": 0,
						"slot": "5",
						"type": "t_uint256"
					},
					{
						"astId": 69,
						"contract": "contracts/Dex.sol:Dex",
						"label": "nextTradeId",
						"offset": 0,
						"slot": "6",
						"type": "t_uint256"
					}
				],
				"types": {
					"t_address": {
						"encoding": "inplace",
						"label": "address",
						"numberOfBytes": "20"
					},
					"t_array(t_bytes32)dyn_storage": {
						"base": "t_bytes32",
						"encoding": "dynamic_array",
						"label": "bytes32[]",
						"numberOfBytes": "32"
					},
					"t_array(t_struct(Order)57_storage)dyn_storage": {
						"base": "t_struct(Order)57_storage",
						"encoding": "dynamic_array",
						"label": "struct Dex.Order[]",
						"numberOfBytes": "32"
					},
					"t_bytes32": {
						"encoding": "inplace",
						"label": "bytes32",
						"numberOfBytes": "32"
					},
					"t_enum(Side)39": {
						"encoding": "inplace",
						"label": "enum Dex.Side",
						"numberOfBytes": "1"
					},
					"t_mapping(t_address,t_mapping(t_bytes32,t_uint256))": {
						"encoding": "mapping",
						"key": "t_address",
						"label": "mapping(address => mapping(bytes32 => uint256))",
						"numberOfBytes": "32",
						"value": "t_mapping(t_bytes32,t_uint256)"
					},
					"t_mapping(t_bytes32,t_mapping(t_uint256,t_array(t_struct(Order)57_storage)dyn_storage))": {
						"encoding": "mapping",
						"key": "t_bytes32",
						"label": "mapping(bytes32 => mapping(uint256 => struct Dex.Order[]))",
						"numberOfBytes": "32",
						"value": "t_mapping(t_uint256,t_array(t_struct(Order)57_storage)dyn_storage)"
					},
					"t_mapping(t_bytes32,t_struct(Token)22_storage)": {
						"encoding": "mapping",
						"key": "t_bytes32",
						"label": "mapping(bytes32 => struct Dex.Token)",
						"numberOfBytes": "32",
						"value": "t_struct(Token)22_storage"
					},
					"t_mapping(t_bytes32,t_uint256)": {
						"encoding": "mapping",
						"key": "t_bytes32",
						"label": "mapping(bytes32 => uint256)",
						"numberOfBytes": "32",
						"value": "t_uint256"
					},
					"t_mapping(t_uint256,t_array(t_struct(Order)57_storage)dyn_storage)": {
						"encoding": "mapping",
						"key": "t_uint256",
						"label": "mapping(uint256 => struct Dex.Order[])",
						"numberOfBytes": "32",
						"value": "t_array(t_struct(Order)57_storage)dyn_storage"
					},
					"t_struct(Order)57_storage": {
						"encoding": "inplace",
						"label": "struct Dex.Order",
						"members": [
							{
								"astId": 41,
								"contract": "contracts/Dex.sol:Dex",
								"label": "id",
								"offset": 0,
								"slot": "0",
								"type": "t_uint256"
							},
							{
								"astId": 43,
								"contract": "contracts/Dex.sol:Dex",
								"label": "trader",
								"offset": 0,
								"slot": "1",
								"type": "t_address"
							},
							{
								"astId": 46,
								"contract": "contracts/Dex.sol:Dex",
								"label": "side",
								"offset": 20,
								"slot": "1",
								"type": "t_enum(Side)39"
							},
							{
								"astId": 48,
								"contract": "contracts/Dex.sol:Dex",
								"label": "ticker",
								"offset": 0,
								"slot": "2",
								"type": "t_bytes32"
							},
							{
								"astId": 50,
								"contract": "contracts/Dex.sol:Dex",
								"label": "amount",
								"offset": 0,
								"slot": "3",
								"type": "t_uint256"
							},
							{
								"astId": 52,
								"contract": "contracts/Dex.sol:Dex",
								"label": "filled",
								"offset": 0,
								"slot": "4",
								"type": "t_uint256"
							},
							{
								"astId": 54,
								"contract": "contracts/Dex.sol:Dex",
								"label": "price",
								"offset": 0,
								"slot": "5",
								"type": "t_uint256"
							},
							{
								"astId": 56,
								"contract": "contracts/Dex.sol:Dex",
								"label": "date",
								"offset": 0,
								"slot": "6",
								"type": "t_uint256"
							}
						],
						"numberOfBytes": "224"
					},
					"t_struct(Token)22_storage": {
						"encoding": "inplace",
						"label": "struct Dex.Token",
						"members": [
							{
								"astId": 19,
								"contract": "contracts/Dex.sol:Dex",
								"label": "ticker",
								"offset": 0,
								"slot": "0",
								"type": "t_bytes32"
							},
							{
								"astId": 21,
								"contract": "contracts/Dex.sol:Dex",
								"label": "tokenAddress",
								"offset": 0,
								"slot": "1",
								"type": "t_address"
							}
						],
						"numberOfBytes": "64"
					},
					"t_uint256": {
						"encoding": "inplace",
						"label": "uint256",
						"numberOfBytes": "32"
					}
				}
			},
			"userdoc": {
				"kind": "user",
				"methods": {},
				"version": 1
			}
		}
	}
}